{
	"week8/counter.sol": {
		"Counter": {
			"abi": [
				{
					"inputs": [],
					"name": "dec",
					"outputs": [
						{
							"internalType": "uint256",
							"name": "",
							"type": "uint256"
						}
					],
					"stateMutability": "nonpayable",
					"type": "function"
				},
				{
					"inputs": [],
					"name": "get",
					"outputs": [
						{
							"internalType": "uint256",
							"name": "",
							"type": "uint256"
						}
					],
					"stateMutability": "view",
					"type": "function"
				},
				{
					"inputs": [],
					"name": "inc",
					"outputs": [
						{
							"internalType": "uint256",
							"name": "",
							"type": "uint256"
						}
					],
					"stateMutability": "nonpayable",
					"type": "function"
				}
			],
			"devdoc": {
				"kind": "dev",
				"methods": {},
				"version": 1
			},
			"evm": {
				"assembly": "    /* \"week8/counter.sol\":73:392  contract Counter {\r... */\n  mstore(0x40, 0x80)\n  callvalue\n  dup1\n  iszero\n  tag_1\n  jumpi\n  0x00\n  dup1\n  revert\ntag_1:\n  pop\n  dataSize(sub_0)\n  dup1\n  dataOffset(sub_0)\n  0x00\n  codecopy\n  0x00\n  return\nstop\n\nsub_0: assembly {\n        /* \"week8/counter.sol\":73:392  contract Counter {\r... */\n      mstore(0x40, 0x80)\n      callvalue\n      dup1\n      iszero\n      tag_1\n      jumpi\n      0x00\n      dup1\n      revert\n    tag_1:\n      pop\n      jumpi(tag_2, lt(calldatasize, 0x04))\n      shr(0xe0, calldataload(0x00))\n      dup1\n      0x371303c0\n      eq\n      tag_3\n      jumpi\n      dup1\n      0x6d4ce63c\n      eq\n      tag_4\n      jumpi\n      dup1\n      0xb3bcfa82\n      eq\n      tag_5\n      jumpi\n    tag_2:\n      0x00\n      dup1\n      revert\n        /* \"week8/counter.sol\":207:294  function inc() public returns(uint){\r... */\n    tag_3:\n      tag_6\n      tag_7\n      jump\t// in\n    tag_6:\n      mload(0x40)\n      dup1\n      dup3\n      dup2\n      mstore\n      0x20\n      add\n      swap2\n      pop\n      pop\n      mload(0x40)\n      dup1\n      swap2\n      sub\n      swap1\n      return\n        /* \"week8/counter.sol\":128:199  function get() public view returns(uint){\r... */\n    tag_4:\n      tag_8\n      tag_9\n      jump\t// in\n    tag_8:\n      mload(0x40)\n      dup1\n      dup3\n      dup2\n      mstore\n      0x20\n      add\n      swap2\n      pop\n      pop\n      mload(0x40)\n      dup1\n      swap2\n      sub\n      swap1\n      return\n        /* \"week8/counter.sol\":302:389  function dec() public returns(uint){\r... */\n    tag_5:\n      tag_10\n      tag_11\n      jump\t// in\n    tag_10:\n      mload(0x40)\n      dup1\n      dup3\n      dup2\n      mstore\n      0x20\n      add\n      swap2\n      pop\n      pop\n      mload(0x40)\n      dup1\n      swap2\n      sub\n      swap1\n      return\n        /* \"week8/counter.sol\":207:294  function inc() public returns(uint){\r... */\n    tag_7:\n        /* \"week8/counter.sol\":237:241  uint */\n      0x00\n        /* \"week8/counter.sol\":262:263  1 */\n      0x01\n        /* \"week8/counter.sol\":253:258  count */\n      0x00\n      dup1\n        /* \"week8/counter.sol\":253:263  count += 1 */\n      dup3\n      dup3\n      sload\n      add\n      swap3\n      pop\n      pop\n      dup2\n      swap1\n      sstore\n      pop\n        /* \"week8/counter.sol\":281:286  count */\n      sload(0x00)\n        /* \"week8/counter.sol\":274:286  return count */\n      swap1\n      pop\n        /* \"week8/counter.sol\":207:294  function inc() public returns(uint){\r... */\n      swap1\n      jump\t// out\n        /* \"week8/counter.sol\":128:199  function get() public view returns(uint){\r... */\n    tag_9:\n        /* \"week8/counter.sol\":163:167  uint */\n      0x00\n        /* \"week8/counter.sol\":186:191  count */\n      dup1\n      sload\n        /* \"week8/counter.sol\":179:191  return count */\n      swap1\n      pop\n        /* \"week8/counter.sol\":128:199  function get() public view returns(uint){\r... */\n      swap1\n      jump\t// out\n        /* \"week8/counter.sol\":302:389  function dec() public returns(uint){\r... */\n    tag_11:\n        /* \"week8/counter.sol\":332:336  uint */\n      0x00\n        /* \"week8/counter.sol\":357:358  1 */\n      0x01\n        /* \"week8/counter.sol\":348:353  count */\n      0x00\n      dup1\n        /* \"week8/counter.sol\":348:358  count -= 1 */\n      dup3\n      dup3\n      sload\n      sub\n      swap3\n      pop\n      pop\n      dup2\n      swap1\n      sstore\n      pop\n        /* \"week8/counter.sol\":376:381  count */\n      sload(0x00)\n        /* \"week8/counter.sol\":369:381  return count */\n      swap1\n      pop\n        /* \"week8/counter.sol\":302:389  function dec() public returns(uint){\r... */\n      swap1\n      jump\t// out\n\n    auxdata: 0xa2646970667358221220dc9f40ac5a1ba24950fccb192efe7fcd6b72a32cc17f8c3b74629862f217fa4464736f6c63430007060033\n}\n",
				"bytecode": {
					"linkReferences": {},
					"object": "608060405234801561001057600080fd5b50610108806100206000396000f3fe6080604052348015600f57600080fd5b5060043610603c5760003560e01c8063371303c01460415780636d4ce63c14605d578063b3bcfa82146079575b600080fd5b60476095565b6040518082815260200191505060405180910390f35b606360af565b6040518082815260200191505060405180910390f35b607f60b8565b6040518082815260200191505060405180910390f35b600060016000808282540192505081905550600054905090565b60008054905090565b60006001600080828254039250508190555060005490509056fea2646970667358221220dc9f40ac5a1ba24950fccb192efe7fcd6b72a32cc17f8c3b74629862f217fa4464736f6c63430007060033",
					"opcodes": "PUSH1 0x80 PUSH1 0x40 MSTORE CALLVALUE DUP1 ISZERO PUSH2 0x10 JUMPI PUSH1 0x0 DUP1 REVERT JUMPDEST POP PUSH2 0x108 DUP1 PUSH2 0x20 PUSH1 0x0 CODECOPY PUSH1 0x0 RETURN INVALID PUSH1 0x80 PUSH1 0x40 MSTORE CALLVALUE DUP1 ISZERO PUSH1 0xF JUMPI PUSH1 0x0 DUP1 REVERT JUMPDEST POP PUSH1 0x4 CALLDATASIZE LT PUSH1 0x3C JUMPI PUSH1 0x0 CALLDATALOAD PUSH1 0xE0 SHR DUP1 PUSH4 0x371303C0 EQ PUSH1 0x41 JUMPI DUP1 PUSH4 0x6D4CE63C EQ PUSH1 0x5D JUMPI DUP1 PUSH4 0xB3BCFA82 EQ PUSH1 0x79 JUMPI JUMPDEST PUSH1 0x0 DUP1 REVERT JUMPDEST PUSH1 0x47 PUSH1 0x95 JUMP JUMPDEST PUSH1 0x40 MLOAD DUP1 DUP3 DUP2 MSTORE PUSH1 0x20 ADD SWAP2 POP POP PUSH1 0x40 MLOAD DUP1 SWAP2 SUB SWAP1 RETURN JUMPDEST PUSH1 0x63 PUSH1 0xAF JUMP JUMPDEST PUSH1 0x40 MLOAD DUP1 DUP3 DUP2 MSTORE PUSH1 0x20 ADD SWAP2 POP POP PUSH1 0x40 MLOAD DUP1 SWAP2 SUB SWAP1 RETURN JUMPDEST PUSH1 0x7F PUSH1 0xB8 JUMP JUMPDEST PUSH1 0x40 MLOAD DUP1 DUP3 DUP2 MSTORE PUSH1 0x20 ADD SWAP2 POP POP PUSH1 0x40 MLOAD DUP1 SWAP2 SUB SWAP1 RETURN JUMPDEST PUSH1 0x0 PUSH1 0x1 PUSH1 0x0 DUP1 DUP3 DUP3 SLOAD ADD SWAP3 POP POP DUP2 SWAP1 SSTORE POP PUSH1 0x0 SLOAD SWAP1 POP SWAP1 JUMP JUMPDEST PUSH1 0x0 DUP1 SLOAD SWAP1 POP SWAP1 JUMP JUMPDEST PUSH1 0x0 PUSH1 0x1 PUSH1 0x0 DUP1 DUP3 DUP3 SLOAD SUB SWAP3 POP POP DUP2 SWAP1 SSTORE POP PUSH1 0x0 SLOAD SWAP1 POP SWAP1 JUMP INVALID LOG2 PUSH5 0x6970667358 0x22 SLT KECCAK256 0xDC SWAP16 BLOCKHASH 0xAC GAS SHL LOG2 0x49 POP 0xFC 0xCB NOT 0x2E INVALID PUSH32 0xCD6B72A32CC17F8C3B74629862F217FA4464736F6C6343000706003300000000 "
				},
				"gasEstimates": {
					"creation": {
						"codeDepositCost": "52800",
						"executionCost": "105",
						"totalCost": "52905"
					},
					"external": {
						"dec()": "21868",
						"get()": "1013",
						"inc()": "21824"
					}
				},
				"methodIdentifiers": {
					"dec()": "b3bcfa82",
					"get()": "6d4ce63c",
					"inc()": "371303c0"
				}
			},
			"storageLayout": {
				"storage": [
					{
						"astId": 3,
						"contract": "week8/counter.sol:Counter",
						"label": "count",
						"offset": 0,
						"slot": "0",
						"type": "t_uint256"
					}
				],
				"types": {
					"t_uint256": {
						"encoding": "inplace",
						"label": "uint256",
						"numberOfBytes": "32"
					}
				}
			},
			"userdoc": {
				"kind": "user",
				"methods": {},
				"version": 1
			}
		}
	}
}