{
	"week11/teltel.sol": {
		"HotelRoom": {
			"abi": [
				{
					"inputs": [],
					"stateMutability": "nonpayable",
					"type": "constructor"
				},
				{
					"anonymous": false,
					"inputs": [
						{
							"indexed": false,
							"internalType": "address",
							"name": "_occupant",
							"type": "address"
						},
						{
							"indexed": false,
							"internalType": "uint256",
							"name": "_value",
							"type": "uint256"
						}
					],
					"name": "Occupy",
					"type": "event"
				},
				{
					"inputs": [],
					"name": "book",
					"outputs": [],
					"stateMutability": "payable",
					"type": "function"
				},
				{
					"inputs": [],
					"name": "currentStatus",
					"outputs": [
						{
							"internalType": "enum HotelRoom.Status",
							"name": "",
							"type": "uint8"
						}
					],
					"stateMutability": "view",
					"type": "function"
				},
				{
					"inputs": [],
					"name": "owner",
					"outputs": [
						{
							"internalType": "address payable",
							"name": "",
							"type": "address"
						}
					],
					"stateMutability": "view",
					"type": "function"
				},
				{
					"inputs": [],
					"name": "reset",
					"outputs": [],
					"stateMutability": "nonpayable",
					"type": "function"
				}
			],
			"devdoc": {
				"kind": "dev",
				"methods": {},
				"version": 1
			},
			"evm": {
				"assembly": "    /* \"week11/teltel.sol\":72:1111  contract HotelRoom {... */\n  mstore(0x40, 0x80)\n    /* \"week11/teltel.sol\":260:360  constructor() {... */\n  callvalue\n  dup1\n  iszero\n  tag_1\n  jumpi\n  revert(0x00, 0x00)\ntag_1:\n  pop\n    /* \"week11/teltel.sol\":301:311  msg.sender */\n  caller\n    /* \"week11/teltel.sol\":285:290  owner */\n  0x00\n  0x01\n    /* \"week11/teltel.sol\":285:312  owner = payable(msg.sender) */\n  0x0100\n  exp\n  dup2\n  sload\n  dup2\n  0xffffffffffffffffffffffffffffffffffffffff\n  mul\n  not\n  and\n  swap1\n  dup4\n  0xffffffffffffffffffffffffffffffffffffffff\n  and\n  mul\n  or\n  swap1\n  sstore\n  pop\n    /* \"week11/teltel.sol\":339:352  Status.Vacant */\n  0x00\n    /* \"week11/teltel.sol\":323:336  currentStatus */\n  0x00\n  0x00\n    /* \"week11/teltel.sol\":323:352  currentStatus = Status.Vacant */\n  0x0100\n  exp\n  dup2\n  sload\n  dup2\n  0xff\n  mul\n  not\n  and\n  swap1\n  dup4\n  0x01\n  dup2\n  gt\n  iszero\n  tag_4\n  jumpi\n  tag_5\n  tag_6\n  jump\t// in\ntag_5:\ntag_4:\n  mul\n  or\n  swap1\n  sstore\n  pop\n    /* \"week11/teltel.sol\":72:1111  contract HotelRoom {... */\n  jump(tag_7)\n    /* \"#utility.yul\":7:187   */\ntag_6:\n    /* \"#utility.yul\":55:132   */\n  0x4e487b7100000000000000000000000000000000000000000000000000000000\n    /* \"#utility.yul\":52:53   */\n  0x00\n    /* \"#utility.yul\":45:133   */\n  mstore\n    /* \"#utility.yul\":152:156   */\n  0x21\n    /* \"#utility.yul\":149:150   */\n  0x04\n    /* \"#utility.yul\":142:157   */\n  mstore\n    /* \"#utility.yul\":176:180   */\n  0x24\n    /* \"#utility.yul\":173:174   */\n  0x00\n    /* \"#utility.yul\":166:181   */\n  revert\n    /* \"week11/teltel.sol\":72:1111  contract HotelRoom {... */\ntag_7:\n  dataSize(sub_0)\n  dup1\n  dataOffset(sub_0)\n  0x00\n  codecopy\n  0x00\n  return\nstop\n\nsub_0: assembly {\n        /* \"week11/teltel.sol\":72:1111  contract HotelRoom {... */\n      mstore(0x40, 0x80)\n      jumpi(tag_1, lt(calldatasize, 0x04))\n      shr(0xe0, calldataload(0x00))\n      dup1\n      0x05a8da72\n      eq\n      tag_2\n      jumpi\n      dup1\n      0x8da5cb5b\n      eq\n      tag_3\n      jumpi\n      dup1\n      0xd826f88f\n      eq\n      tag_4\n      jumpi\n      dup1\n      0xef8a9235\n      eq\n      tag_5\n      jumpi\n    tag_1:\n      revert(0x00, 0x00)\n        /* \"week11/teltel.sol\":711:979  function book() public payable onlyWhileVacant costs(10 ether) {... */\n    tag_2:\n      tag_6\n      tag_7\n      jump\t// in\n    tag_6:\n      stop\n        /* \"week11/teltel.sol\":170:198  address payable public owner */\n    tag_3:\n      callvalue\n      dup1\n      iszero\n      tag_8\n      jumpi\n      revert(0x00, 0x00)\n    tag_8:\n      pop\n      tag_9\n      tag_10\n      jump\t// in\n    tag_9:\n      mload(0x40)\n      tag_11\n      swap2\n      swap1\n      tag_12\n      jump\t// in\n    tag_11:\n      mload(0x40)\n      dup1\n      swap2\n      sub\n      swap1\n      return\n        /* \"week11/teltel.sol\":987:1102  function reset() public onlyOwner {... */\n    tag_4:\n      callvalue\n      dup1\n      iszero\n      tag_13\n      jumpi\n      revert(0x00, 0x00)\n    tag_13:\n      pop\n      tag_14\n      tag_15\n      jump\t// in\n    tag_14:\n      stop\n        /* \"week11/teltel.sol\":136:163  Status public currentStatus */\n    tag_5:\n      callvalue\n      dup1\n      iszero\n      tag_16\n      jumpi\n      revert(0x00, 0x00)\n    tag_16:\n      pop\n      tag_17\n      tag_18\n      jump\t// in\n    tag_17:\n      mload(0x40)\n      tag_19\n      swap2\n      swap1\n      tag_20\n      jump\t// in\n    tag_19:\n      mload(0x40)\n      dup1\n      swap2\n      sub\n      swap1\n      return\n        /* \"week11/teltel.sol\":711:979  function book() public payable onlyWhileVacant costs(10 ether) {... */\n    tag_7:\n        /* \"week11/teltel.sol\":425:438  Status.Vacant */\n      0x00\n        /* \"week11/teltel.sol\":408:438  currentStatus == Status.Vacant */\n      0x01\n      dup2\n      gt\n      iszero\n      tag_22\n      jumpi\n      tag_23\n      tag_24\n      jump\t// in\n    tag_23:\n    tag_22:\n        /* \"week11/teltel.sol\":408:421  currentStatus */\n      0x00\n      0x00\n      swap1\n      sload\n      swap1\n      0x0100\n      exp\n      swap1\n      div\n      0xff\n      and\n        /* \"week11/teltel.sol\":408:438  currentStatus == Status.Vacant */\n      0x01\n      dup2\n      gt\n      iszero\n      tag_25\n      jumpi\n      tag_26\n      tag_24\n      jump\t// in\n    tag_26:\n    tag_25:\n      eq\n        /* \"week11/teltel.sol\":400:462  require(currentStatus == Status.Vacant, \"Currently occupied.\") */\n      tag_27\n      jumpi\n      mload(0x40)\n      0x08c379a000000000000000000000000000000000000000000000000000000000\n      dup2\n      mstore\n      0x04\n      add\n      tag_28\n      swap1\n      tag_29\n      jump\t// in\n    tag_28:\n      mload(0x40)\n      dup1\n      swap2\n      sub\n      swap1\n      revert\n    tag_27:\n        /* \"week11/teltel.sol\":764:772  10 ether */\n      0x8ac7230489e80000\n        /* \"week11/teltel.sol\":543:550  _amount */\n      dup1\n        /* \"week11/teltel.sol\":530:539  msg.value */\n      callvalue\n        /* \"week11/teltel.sol\":530:550  msg.value >= _amount */\n      lt\n      iszero\n        /* \"week11/teltel.sol\":522:581  require(msg.value >= _amount, \"Not enough ether provided.\") */\n      tag_31\n      jumpi\n      mload(0x40)\n      0x08c379a000000000000000000000000000000000000000000000000000000000\n      dup2\n      mstore\n      0x04\n      add\n      tag_32\n      swap1\n      tag_33\n      jump\t// in\n    tag_32:\n      mload(0x40)\n      dup1\n      swap2\n      sub\n      swap1\n      revert\n    tag_31:\n        /* \"week11/teltel.sol\":797:812  Status.Occupied */\n      0x01\n        /* \"week11/teltel.sol\":781:794  currentStatus */\n      0x00\n      0x00\n        /* \"week11/teltel.sol\":781:812  currentStatus = Status.Occupied */\n      0x0100\n      exp\n      dup2\n      sload\n      dup2\n      0xff\n      mul\n      not\n      and\n      swap1\n      dup4\n      0x01\n      dup2\n      gt\n      iszero\n      tag_35\n      jumpi\n      tag_36\n      tag_24\n      jump\t// in\n    tag_36:\n    tag_35:\n      mul\n      or\n      swap1\n      sstore\n      pop\n        /* \"week11/teltel.sol\":842:847  owner */\n      0x00\n      0x01\n      swap1\n      sload\n      swap1\n      0x0100\n      exp\n      swap1\n      div\n      0xffffffffffffffffffffffffffffffffffffffff\n      and\n        /* \"week11/teltel.sol\":842:856  owner.transfer */\n      0xffffffffffffffffffffffffffffffffffffffff\n      and\n        /* \"week11/teltel.sol\":842:867  owner.transfer(msg.value) */\n      0x08fc\n        /* \"week11/teltel.sol\":857:866  msg.value */\n      callvalue\n        /* \"week11/teltel.sol\":842:867  owner.transfer(msg.value) */\n      swap1\n      dup2\n      iszero\n      mul\n      swap1\n      mload(0x40)\n      0x00\n      mload(0x40)\n      dup1\n      dup4\n      sub\n      dup2\n      dup6\n      dup9\n      dup9\n      call\n      swap4\n      pop\n      pop\n      pop\n      pop\n      iszero\n      dup1\n      iszero\n      tag_38\n      jumpi\n      returndatacopy(0x00, 0x00, returndatasize)\n      revert(0x00, returndatasize)\n    tag_38:\n      pop\n        /* \"week11/teltel.sol\":923:952  Occupy(msg.sender, msg.value) */\n      0xba951166d42eb077151bdecb7cf6027562f04f0143b0c141b1bb0a33eef5d693\n        /* \"week11/teltel.sol\":930:940  msg.sender */\n      caller\n        /* \"week11/teltel.sol\":942:951  msg.value */\n      callvalue\n        /* \"week11/teltel.sol\":923:952  Occupy(msg.sender, msg.value) */\n      mload(0x40)\n      tag_39\n      swap3\n      swap2\n      swap1\n      tag_40\n      jump\t// in\n    tag_39:\n      mload(0x40)\n      dup1\n      swap2\n      sub\n      swap1\n      log1\n        /* \"week11/teltel.sol\":469:470  _ */\n      pop\n        /* \"week11/teltel.sol\":711:979  function book() public payable onlyWhileVacant costs(10 ether) {... */\n      jump\t// out\n        /* \"week11/teltel.sol\":170:198  address payable public owner */\n    tag_10:\n      0x00\n      0x01\n      swap1\n      sload\n      swap1\n      0x0100\n      exp\n      swap1\n      div\n      0xffffffffffffffffffffffffffffffffffffffff\n      and\n      dup2\n      jump\t// out\n        /* \"week11/teltel.sol\":987:1102  function reset() public onlyOwner {... */\n    tag_15:\n        /* \"week11/teltel.sol\":655:660  owner */\n      0x00\n      0x01\n      swap1\n      sload\n      swap1\n      0x0100\n      exp\n      swap1\n      div\n      0xffffffffffffffffffffffffffffffffffffffff\n      and\n        /* \"week11/teltel.sol\":641:660  msg.sender == owner */\n      0xffffffffffffffffffffffffffffffffffffffff\n      and\n        /* \"week11/teltel.sol\":641:651  msg.sender */\n      caller\n        /* \"week11/teltel.sol\":641:660  msg.sender == owner */\n      0xffffffffffffffffffffffffffffffffffffffff\n      and\n      eq\n        /* \"week11/teltel.sol\":633:687  require(msg.sender == owner, \"Only the owner can do.\") */\n      tag_42\n      jumpi\n      mload(0x40)\n      0x08c379a000000000000000000000000000000000000000000000000000000000\n      dup2\n      mstore\n      0x04\n      add\n      tag_43\n      swap1\n      tag_44\n      jump\t// in\n    tag_43:\n      mload(0x40)\n      dup1\n      swap2\n      sub\n      swap1\n      revert\n    tag_42:\n        /* \"week11/teltel.sol\":1044:1057  Status.Vacant */\n      0x00\n        /* \"week11/teltel.sol\":1028:1041  currentStatus */\n      0x00\n      0x00\n        /* \"week11/teltel.sol\":1028:1057  currentStatus = Status.Vacant */\n      0x0100\n      exp\n      dup2\n      sload\n      dup2\n      0xff\n      mul\n      not\n      and\n      swap1\n      dup4\n      0x01\n      dup2\n      gt\n      iszero\n      tag_46\n      jumpi\n      tag_47\n      tag_24\n      jump\t// in\n    tag_47:\n    tag_46:\n      mul\n      or\n      swap1\n      sstore\n      pop\n        /* \"week11/teltel.sol\":987:1102  function reset() public onlyOwner {... */\n      jump\t// out\n        /* \"week11/teltel.sol\":136:163  Status public currentStatus */\n    tag_18:\n      0x00\n      0x00\n      swap1\n      sload\n      swap1\n      0x0100\n      exp\n      swap1\n      div\n      0xff\n      and\n      dup2\n      jump\t// out\n        /* \"#utility.yul\":7:133   */\n    tag_48:\n        /* \"#utility.yul\":44:51   */\n      0x00\n        /* \"#utility.yul\":84:126   */\n      0xffffffffffffffffffffffffffffffffffffffff\n        /* \"#utility.yul\":77:82   */\n      dup3\n        /* \"#utility.yul\":73:127   */\n      and\n        /* \"#utility.yul\":62:127   */\n      swap1\n      pop\n        /* \"#utility.yul\":7:133   */\n      swap2\n      swap1\n      pop\n      jump\t// out\n        /* \"#utility.yul\":139:243   */\n    tag_49:\n        /* \"#utility.yul\":184:191   */\n      0x00\n        /* \"#utility.yul\":213:237   */\n      tag_69\n        /* \"#utility.yul\":231:236   */\n      dup3\n        /* \"#utility.yul\":213:237   */\n      tag_48\n      jump\t// in\n    tag_69:\n        /* \"#utility.yul\":202:237   */\n      swap1\n      pop\n        /* \"#utility.yul\":139:243   */\n      swap2\n      swap1\n      pop\n      jump\t// out\n        /* \"#utility.yul\":249:391   */\n    tag_50:\n        /* \"#utility.yul\":352:384   */\n      tag_71\n        /* \"#utility.yul\":378:383   */\n      dup2\n        /* \"#utility.yul\":352:384   */\n      tag_49\n      jump\t// in\n    tag_71:\n        /* \"#utility.yul\":347:350   */\n      dup3\n        /* \"#utility.yul\":340:385   */\n      mstore\n        /* \"#utility.yul\":249:391   */\n      pop\n      pop\n      jump\t// out\n        /* \"#utility.yul\":397:651   */\n    tag_12:\n        /* \"#utility.yul\":506:510   */\n      0x00\n        /* \"#utility.yul\":544:546   */\n      0x20\n        /* \"#utility.yul\":533:542   */\n      dup3\n        /* \"#utility.yul\":529:547   */\n      add\n        /* \"#utility.yul\":521:547   */\n      swap1\n      pop\n        /* \"#utility.yul\":557:644   */\n      tag_73\n        /* \"#utility.yul\":641:642   */\n      0x00\n        /* \"#utility.yul\":630:639   */\n      dup4\n        /* \"#utility.yul\":626:643   */\n      add\n        /* \"#utility.yul\":617:623   */\n      dup5\n        /* \"#utility.yul\":557:644   */\n      tag_50\n      jump\t// in\n    tag_73:\n        /* \"#utility.yul\":397:651   */\n      swap3\n      swap2\n      pop\n      pop\n      jump\t// out\n        /* \"#utility.yul\":657:837   */\n    tag_24:\n        /* \"#utility.yul\":705:782   */\n      0x4e487b7100000000000000000000000000000000000000000000000000000000\n        /* \"#utility.yul\":702:703   */\n      0x00\n        /* \"#utility.yul\":695:783   */\n      mstore\n        /* \"#utility.yul\":802:806   */\n      0x21\n        /* \"#utility.yul\":799:800   */\n      0x04\n        /* \"#utility.yul\":792:807   */\n      mstore\n        /* \"#utility.yul\":826:830   */\n      0x24\n        /* \"#utility.yul\":823:824   */\n      0x00\n        /* \"#utility.yul\":816:831   */\n      revert\n        /* \"#utility.yul\":843:956   */\n    tag_51:\n        /* \"#utility.yul\":924:925   */\n      0x02\n        /* \"#utility.yul\":917:922   */\n      dup2\n        /* \"#utility.yul\":914:926   */\n      lt\n        /* \"#utility.yul\":904:950   */\n      tag_76\n      jumpi\n        /* \"#utility.yul\":930:948   */\n      tag_77\n      tag_24\n      jump\t// in\n    tag_77:\n        /* \"#utility.yul\":904:950   */\n    tag_76:\n        /* \"#utility.yul\":843:956   */\n      pop\n      jump\t// out\n        /* \"#utility.yul\":962:1089   */\n    tag_52:\n        /* \"#utility.yul\":1007:1014   */\n      0x00\n        /* \"#utility.yul\":1036:1041   */\n      dup2\n        /* \"#utility.yul\":1025:1041   */\n      swap1\n      pop\n        /* \"#utility.yul\":1042:1083   */\n      tag_79\n        /* \"#utility.yul\":1077:1082   */\n      dup3\n        /* \"#utility.yul\":1042:1083   */\n      tag_51\n      jump\t// in\n    tag_79:\n        /* \"#utility.yul\":962:1089   */\n      swap2\n      swap1\n      pop\n      jump\t// out\n        /* \"#utility.yul\":1095:1222   */\n    tag_53:\n        /* \"#utility.yul\":1151:1160   */\n      0x00\n        /* \"#utility.yul\":1184:1216   */\n      tag_81\n        /* \"#utility.yul\":1210:1215   */\n      dup3\n        /* \"#utility.yul\":1184:1216   */\n      tag_52\n      jump\t// in\n    tag_81:\n        /* \"#utility.yul\":1171:1216   */\n      swap1\n      pop\n        /* \"#utility.yul\":1095:1222   */\n      swap2\n      swap1\n      pop\n      jump\t// out\n        /* \"#utility.yul\":1228:1371   */\n    tag_54:\n        /* \"#utility.yul\":1321:1364   */\n      tag_83\n        /* \"#utility.yul\":1358:1363   */\n      dup2\n        /* \"#utility.yul\":1321:1364   */\n      tag_53\n      jump\t// in\n    tag_83:\n        /* \"#utility.yul\":1316:1319   */\n      dup3\n        /* \"#utility.yul\":1309:1365   */\n      mstore\n        /* \"#utility.yul\":1228:1371   */\n      pop\n      pop\n      jump\t// out\n        /* \"#utility.yul\":1377:1611   */\n    tag_20:\n        /* \"#utility.yul\":1476:1480   */\n      0x00\n        /* \"#utility.yul\":1514:1516   */\n      0x20\n        /* \"#utility.yul\":1503:1512   */\n      dup3\n        /* \"#utility.yul\":1499:1517   */\n      add\n        /* \"#utility.yul\":1491:1517   */\n      swap1\n      pop\n        /* \"#utility.yul\":1527:1604   */\n      tag_85\n        /* \"#utility.yul\":1601:1602   */\n      0x00\n        /* \"#utility.yul\":1590:1599   */\n      dup4\n        /* \"#utility.yul\":1586:1603   */\n      add\n        /* \"#utility.yul\":1577:1583   */\n      dup5\n        /* \"#utility.yul\":1527:1604   */\n      tag_54\n      jump\t// in\n    tag_85:\n        /* \"#utility.yul\":1377:1611   */\n      swap3\n      swap2\n      pop\n      pop\n      jump\t// out\n        /* \"#utility.yul\":1617:1786   */\n    tag_55:\n        /* \"#utility.yul\":1701:1712   */\n      0x00\n        /* \"#utility.yul\":1735:1741   */\n      dup3\n        /* \"#utility.yul\":1730:1733   */\n      dup3\n        /* \"#utility.yul\":1723:1742   */\n      mstore\n        /* \"#utility.yul\":1775:1779   */\n      0x20\n        /* \"#utility.yul\":1770:1773   */\n      dup3\n        /* \"#utility.yul\":1766:1780   */\n      add\n        /* \"#utility.yul\":1751:1780   */\n      swap1\n      pop\n        /* \"#utility.yul\":1617:1786   */\n      swap3\n      swap2\n      pop\n      pop\n      jump\t// out\n        /* \"#utility.yul\":1792:1961   */\n    tag_56:\n        /* \"#utility.yul\":1932:1953   */\n      0x43757272656e746c79206f636375706965642e00000000000000000000000000\n        /* \"#utility.yul\":1928:1929   */\n      0x00\n        /* \"#utility.yul\":1920:1926   */\n      dup3\n        /* \"#utility.yul\":1916:1930   */\n      add\n        /* \"#utility.yul\":1909:1954   */\n      mstore\n        /* \"#utility.yul\":1792:1961   */\n      pop\n      jump\t// out\n        /* \"#utility.yul\":1967:2333   */\n    tag_57:\n        /* \"#utility.yul\":2109:2112   */\n      0x00\n        /* \"#utility.yul\":2130:2197   */\n      tag_89\n        /* \"#utility.yul\":2194:2196   */\n      0x13\n        /* \"#utility.yul\":2189:2192   */\n      dup4\n        /* \"#utility.yul\":2130:2197   */\n      tag_55\n      jump\t// in\n    tag_89:\n        /* \"#utility.yul\":2123:2197   */\n      swap2\n      pop\n        /* \"#utility.yul\":2206:2299   */\n      tag_90\n        /* \"#utility.yul\":2295:2298   */\n      dup3\n        /* \"#utility.yul\":2206:2299   */\n      tag_56\n      jump\t// in\n    tag_90:\n        /* \"#utility.yul\":2324:2326   */\n      0x20\n        /* \"#utility.yul\":2319:2322   */\n      dup3\n        /* \"#utility.yul\":2315:2327   */\n      add\n        /* \"#utility.yul\":2308:2327   */\n      swap1\n      pop\n        /* \"#utility.yul\":1967:2333   */\n      swap2\n      swap1\n      pop\n      jump\t// out\n        /* \"#utility.yul\":2339:2758   */\n    tag_29:\n        /* \"#utility.yul\":2505:2509   */\n      0x00\n        /* \"#utility.yul\":2543:2545   */\n      0x20\n        /* \"#utility.yul\":2532:2541   */\n      dup3\n        /* \"#utility.yul\":2528:2546   */\n      add\n        /* \"#utility.yul\":2520:2546   */\n      swap1\n      pop\n        /* \"#utility.yul\":2592:2601   */\n      dup2\n        /* \"#utility.yul\":2586:2590   */\n      dup2\n        /* \"#utility.yul\":2582:2602   */\n      sub\n        /* \"#utility.yul\":2578:2579   */\n      0x00\n        /* \"#utility.yul\":2567:2576   */\n      dup4\n        /* \"#utility.yul\":2563:2580   */\n      add\n        /* \"#utility.yul\":2556:2603   */\n      mstore\n        /* \"#utility.yul\":2620:2751   */\n      tag_92\n        /* \"#utility.yul\":2746:2750   */\n      dup2\n        /* \"#utility.yul\":2620:2751   */\n      tag_57\n      jump\t// in\n    tag_92:\n        /* \"#utility.yul\":2612:2751   */\n      swap1\n      pop\n        /* \"#utility.yul\":2339:2758   */\n      swap2\n      swap1\n      pop\n      jump\t// out\n        /* \"#utility.yul\":2764:2940   */\n    tag_58:\n        /* \"#utility.yul\":2904:2932   */\n      0x4e6f7420656e6f7567682065746865722070726f76696465642e000000000000\n        /* \"#utility.yul\":2900:2901   */\n      0x00\n        /* \"#utility.yul\":2892:2898   */\n      dup3\n        /* \"#utility.yul\":2888:2902   */\n      add\n        /* \"#utility.yul\":2881:2933   */\n      mstore\n        /* \"#utility.yul\":2764:2940   */\n      pop\n      jump\t// out\n        /* \"#utility.yul\":2946:3312   */\n    tag_59:\n        /* \"#utility.yul\":3088:3091   */\n      0x00\n        /* \"#utility.yul\":3109:3176   */\n      tag_95\n        /* \"#utility.yul\":3173:3175   */\n      0x1a\n        /* \"#utility.yul\":3168:3171   */\n      dup4\n        /* \"#utility.yul\":3109:3176   */\n      tag_55\n      jump\t// in\n    tag_95:\n        /* \"#utility.yul\":3102:3176   */\n      swap2\n      pop\n        /* \"#utility.yul\":3185:3278   */\n      tag_96\n        /* \"#utility.yul\":3274:3277   */\n      dup3\n        /* \"#utility.yul\":3185:3278   */\n      tag_58\n      jump\t// in\n    tag_96:\n        /* \"#utility.yul\":3303:3305   */\n      0x20\n        /* \"#utility.yul\":3298:3301   */\n      dup3\n        /* \"#utility.yul\":3294:3306   */\n      add\n        /* \"#utility.yul\":3287:3306   */\n      swap1\n      pop\n        /* \"#utility.yul\":2946:3312   */\n      swap2\n      swap1\n      pop\n      jump\t// out\n        /* \"#utility.yul\":3318:3737   */\n    tag_33:\n        /* \"#utility.yul\":3484:3488   */\n      0x00\n        /* \"#utility.yul\":3522:3524   */\n      0x20\n        /* \"#utility.yul\":3511:3520   */\n      dup3\n        /* \"#utility.yul\":3507:3525   */\n      add\n        /* \"#utility.yul\":3499:3525   */\n      swap1\n      pop\n        /* \"#utility.yul\":3571:3580   */\n      dup2\n        /* \"#utility.yul\":3565:3569   */\n      dup2\n        /* \"#utility.yul\":3561:3581   */\n      sub\n        /* \"#utility.yul\":3557:3558   */\n      0x00\n        /* \"#utility.yul\":3546:3555   */\n      dup4\n        /* \"#utility.yul\":3542:3559   */\n      add\n        /* \"#utility.yul\":3535:3582   */\n      mstore\n        /* \"#utility.yul\":3599:3730   */\n      tag_98\n        /* \"#utility.yul\":3725:3729   */\n      dup2\n        /* \"#utility.yul\":3599:3730   */\n      tag_59\n      jump\t// in\n    tag_98:\n        /* \"#utility.yul\":3591:3730   */\n      swap1\n      pop\n        /* \"#utility.yul\":3318:3737   */\n      swap2\n      swap1\n      pop\n      jump\t// out\n        /* \"#utility.yul\":3743:3839   */\n    tag_60:\n        /* \"#utility.yul\":3780:3787   */\n      0x00\n        /* \"#utility.yul\":3809:3833   */\n      tag_100\n        /* \"#utility.yul\":3827:3832   */\n      dup3\n        /* \"#utility.yul\":3809:3833   */\n      tag_48\n      jump\t// in\n    tag_100:\n        /* \"#utility.yul\":3798:3833   */\n      swap1\n      pop\n        /* \"#utility.yul\":3743:3839   */\n      swap2\n      swap1\n      pop\n      jump\t// out\n        /* \"#utility.yul\":3845:3963   */\n    tag_61:\n        /* \"#utility.yul\":3932:3956   */\n      tag_102\n        /* \"#utility.yul\":3950:3955   */\n      dup2\n        /* \"#utility.yul\":3932:3956   */\n      tag_60\n      jump\t// in\n    tag_102:\n        /* \"#utility.yul\":3927:3930   */\n      dup3\n        /* \"#utility.yul\":3920:3957   */\n      mstore\n        /* \"#utility.yul\":3845:3963   */\n      pop\n      pop\n      jump\t// out\n        /* \"#utility.yul\":3969:4046   */\n    tag_62:\n        /* \"#utility.yul\":4006:4013   */\n      0x00\n        /* \"#utility.yul\":4035:4040   */\n      dup2\n        /* \"#utility.yul\":4024:4040   */\n      swap1\n      pop\n        /* \"#utility.yul\":3969:4046   */\n      swap2\n      swap1\n      pop\n      jump\t// out\n        /* \"#utility.yul\":4052:4170   */\n    tag_63:\n        /* \"#utility.yul\":4139:4163   */\n      tag_105\n        /* \"#utility.yul\":4157:4162   */\n      dup2\n        /* \"#utility.yul\":4139:4163   */\n      tag_62\n      jump\t// in\n    tag_105:\n        /* \"#utility.yul\":4134:4137   */\n      dup3\n        /* \"#utility.yul\":4127:4164   */\n      mstore\n        /* \"#utility.yul\":4052:4170   */\n      pop\n      pop\n      jump\t// out\n        /* \"#utility.yul\":4176:4508   */\n    tag_40:\n        /* \"#utility.yul\":4297:4301   */\n      0x00\n        /* \"#utility.yul\":4335:4337   */\n      0x40\n        /* \"#utility.yul\":4324:4333   */\n      dup3\n        /* \"#utility.yul\":4320:4338   */\n      add\n        /* \"#utility.yul\":4312:4338   */\n      swap1\n      pop\n        /* \"#utility.yul\":4348:4419   */\n      tag_107\n        /* \"#utility.yul\":4416:4417   */\n      0x00\n        /* \"#utility.yul\":4405:4414   */\n      dup4\n        /* \"#utility.yul\":4401:4418   */\n      add\n        /* \"#utility.yul\":4392:4398   */\n      dup6\n        /* \"#utility.yul\":4348:4419   */\n      tag_61\n      jump\t// in\n    tag_107:\n        /* \"#utility.yul\":4429:4501   */\n      tag_108\n        /* \"#utility.yul\":4497:4499   */\n      0x20\n        /* \"#utility.yul\":4486:4495   */\n      dup4\n        /* \"#utility.yul\":4482:4500   */\n      add\n        /* \"#utility.yul\":4473:4479   */\n      dup5\n        /* \"#utility.yul\":4429:4501   */\n      tag_63\n      jump\t// in\n    tag_108:\n        /* \"#utility.yul\":4176:4508   */\n      swap4\n      swap3\n      pop\n      pop\n      pop\n      jump\t// out\n        /* \"#utility.yul\":4514:4686   */\n    tag_64:\n        /* \"#utility.yul\":4654:4678   */\n      0x4f6e6c7920746865206f776e65722063616e20646f2e00000000000000000000\n        /* \"#utility.yul\":4650:4651   */\n      0x00\n        /* \"#utility.yul\":4642:4648   */\n      dup3\n        /* \"#utility.yul\":4638:4652   */\n      add\n        /* \"#utility.yul\":4631:4679   */\n      mstore\n        /* \"#utility.yul\":4514:4686   */\n      pop\n      jump\t// out\n        /* \"#utility.yul\":4692:5058   */\n    tag_65:\n        /* \"#utility.yul\":4834:4837   */\n      0x00\n        /* \"#utility.yul\":4855:4922   */\n      tag_111\n        /* \"#utility.yul\":4919:4921   */\n      0x16\n        /* \"#utility.yul\":4914:4917   */\n      dup4\n        /* \"#utility.yul\":4855:4922   */\n      tag_55\n      jump\t// in\n    tag_111:\n        /* \"#utility.yul\":4848:4922   */\n      swap2\n      pop\n        /* \"#utility.yul\":4931:5024   */\n      tag_112\n        /* \"#utility.yul\":5020:5023   */\n      dup3\n        /* \"#utility.yul\":4931:5024   */\n      tag_64\n      jump\t// in\n    tag_112:\n        /* \"#utility.yul\":5049:5051   */\n      0x20\n        /* \"#utility.yul\":5044:5047   */\n      dup3\n        /* \"#utility.yul\":5040:5052   */\n      add\n        /* \"#utility.yul\":5033:5052   */\n      swap1\n      pop\n        /* \"#utility.yul\":4692:5058   */\n      swap2\n      swap1\n      pop\n      jump\t// out\n        /* \"#utility.yul\":5064:5483   */\n    tag_44:\n        /* \"#utility.yul\":5230:5234   */\n      0x00\n        /* \"#utility.yul\":5268:5270   */\n      0x20\n        /* \"#utility.yul\":5257:5266   */\n      dup3\n        /* \"#utility.yul\":5253:5271   */\n      add\n        /* \"#utility.yul\":5245:5271   */\n      swap1\n      pop\n        /* \"#utility.yul\":5317:5326   */\n      dup2\n        /* \"#utility.yul\":5311:5315   */\n      dup2\n        /* \"#utility.yul\":5307:5327   */\n      sub\n        /* \"#utility.yul\":5303:5304   */\n      0x00\n        /* \"#utility.yul\":5292:5301   */\n      dup4\n        /* \"#utility.yul\":5288:5305   */\n      add\n        /* \"#utility.yul\":5281:5328   */\n      mstore\n        /* \"#utility.yul\":5345:5476   */\n      tag_114\n        /* \"#utility.yul\":5471:5475   */\n      dup2\n        /* \"#utility.yul\":5345:5476   */\n      tag_65\n      jump\t// in\n    tag_114:\n        /* \"#utility.yul\":5337:5476   */\n      swap1\n      pop\n        /* \"#utility.yul\":5064:5483   */\n      swap2\n      swap1\n      pop\n      jump\t// out\n\n    auxdata: 0xa2646970667358221220c879c0e65760f1c4a57df4599283c9ca7953900cec62241482c93ea3b74af5d164736f6c634300081e0033\n}\n",
				"bytecode": {
					"linkReferences": {},
					"object": "6080604052348015600e575f5ffd5b50335f60016101000a81548173ffffffffffffffffffffffffffffffffffffffff021916908373ffffffffffffffffffffffffffffffffffffffff1602179055505f5f5f6101000a81548160ff02191690836001811115606f57606e6078565b5b021790555060a5565b7f4e487b71000000000000000000000000000000000000000000000000000000005f52602160045260245ffd5b6105ef806100b25f395ff3fe60806040526004361061003e575f3560e01c806305a8da72146100425780638da5cb5b1461004c578063d826f88f14610076578063ef8a92351461008c575b5f5ffd5b61004a6100b6565b005b348015610057575f5ffd5b5061006061023f565b60405161006d919061036d565b60405180910390f35b348015610081575f5ffd5b5061008a610264565b005b348015610097575f5ffd5b506100a061031d565b6040516100ad91906103f9565b60405180910390f35b5f60018111156100c9576100c8610386565b5b5f5f9054906101000a900460ff1660018111156100e9576100e8610386565b5b14610129576040517f08c379a00000000000000000000000000000000000000000000000000000000081526004016101209061046c565b60405180910390fd5b678ac7230489e8000080341015610175576040517f08c379a000000000000000000000000000000000000000000000000000000000815260040161016c906104d4565b60405180910390fd5b60015f5f6101000a81548160ff0219169083600181111561019957610198610386565b5b02179055505f60019054906101000a900473ffffffffffffffffffffffffffffffffffffffff1673ffffffffffffffffffffffffffffffffffffffff166108fc3490811502906040515f60405180830381858888f19350505050158015610202573d5f5f3e3d5ffd5b507fba951166d42eb077151bdecb7cf6027562f04f0143b0c141b1bb0a33eef5d693333460405161023492919061052a565b60405180910390a150565b5f60019054906101000a900473ffffffffffffffffffffffffffffffffffffffff1681565b5f60019054906101000a900473ffffffffffffffffffffffffffffffffffffffff1673ffffffffffffffffffffffffffffffffffffffff163373ffffffffffffffffffffffffffffffffffffffff16146102f3576040517f08c379a00000000000000000000000000000000000000000000000000000000081526004016102ea9061059b565b60405180910390fd5b5f5f5f6101000a81548160ff0219169083600181111561031657610315610386565b5b0217905550565b5f5f9054906101000a900460ff1681565b5f73ffffffffffffffffffffffffffffffffffffffff82169050919050565b5f6103578261032e565b9050919050565b6103678161034d565b82525050565b5f6020820190506103805f83018461035e565b92915050565b7f4e487b71000000000000000000000000000000000000000000000000000000005f52602160045260245ffd5b600281106103c4576103c3610386565b5b50565b5f8190506103d4826103b3565b919050565b5f6103e3826103c7565b9050919050565b6103f3816103d9565b82525050565b5f60208201905061040c5f8301846103ea565b92915050565b5f82825260208201905092915050565b7f43757272656e746c79206f636375706965642e000000000000000000000000005f82015250565b5f610456601383610412565b915061046182610422565b602082019050919050565b5f6020820190508181035f8301526104838161044a565b9050919050565b7f4e6f7420656e6f7567682065746865722070726f76696465642e0000000000005f82015250565b5f6104be601a83610412565b91506104c98261048a565b602082019050919050565b5f6020820190508181035f8301526104eb816104b2565b9050919050565b5f6104fc8261032e565b9050919050565b61050c816104f2565b82525050565b5f819050919050565b61052481610512565b82525050565b5f60408201905061053d5f830185610503565b61054a602083018461051b565b9392505050565b7f4f6e6c7920746865206f776e65722063616e20646f2e000000000000000000005f82015250565b5f610585601683610412565b915061059082610551565b602082019050919050565b5f6020820190508181035f8301526105b281610579565b905091905056fea2646970667358221220c879c0e65760f1c4a57df4599283c9ca7953900cec62241482c93ea3b74af5d164736f6c634300081e0033",
					"opcodes": "PUSH1 0x80 PUSH1 0x40 MSTORE CALLVALUE DUP1 ISZERO PUSH1 0xE JUMPI PUSH0 PUSH0 REVERT JUMPDEST POP CALLER PUSH0 PUSH1 0x1 PUSH2 0x100 EXP DUP2 SLOAD DUP2 PUSH20 0xFFFFFFFFFFFFFFFFFFFFFFFFFFFFFFFFFFFFFFFF MUL NOT AND SWAP1 DUP4 PUSH20 0xFFFFFFFFFFFFFFFFFFFFFFFFFFFFFFFFFFFFFFFF AND MUL OR SWAP1 SSTORE POP PUSH0 PUSH0 PUSH0 PUSH2 0x100 EXP DUP2 SLOAD DUP2 PUSH1 0xFF MUL NOT AND SWAP1 DUP4 PUSH1 0x1 DUP2 GT ISZERO PUSH1 0x6F JUMPI PUSH1 0x6E PUSH1 0x78 JUMP JUMPDEST JUMPDEST MUL OR SWAP1 SSTORE POP PUSH1 0xA5 JUMP JUMPDEST PUSH32 0x4E487B7100000000000000000000000000000000000000000000000000000000 PUSH0 MSTORE PUSH1 0x21 PUSH1 0x4 MSTORE PUSH1 0x24 PUSH0 REVERT JUMPDEST PUSH2 0x5EF DUP1 PUSH2 0xB2 PUSH0 CODECOPY PUSH0 RETURN INVALID PUSH1 0x80 PUSH1 0x40 MSTORE PUSH1 0x4 CALLDATASIZE LT PUSH2 0x3E JUMPI PUSH0 CALLDATALOAD PUSH1 0xE0 SHR DUP1 PUSH4 0x5A8DA72 EQ PUSH2 0x42 JUMPI DUP1 PUSH4 0x8DA5CB5B EQ PUSH2 0x4C JUMPI DUP1 PUSH4 0xD826F88F EQ PUSH2 0x76 JUMPI DUP1 PUSH4 0xEF8A9235 EQ PUSH2 0x8C JUMPI JUMPDEST PUSH0 PUSH0 REVERT JUMPDEST PUSH2 0x4A PUSH2 0xB6 JUMP JUMPDEST STOP JUMPDEST CALLVALUE DUP1 ISZERO PUSH2 0x57 JUMPI PUSH0 PUSH0 REVERT JUMPDEST POP PUSH2 0x60 PUSH2 0x23F JUMP JUMPDEST PUSH1 0x40 MLOAD PUSH2 0x6D SWAP2 SWAP1 PUSH2 0x36D JUMP JUMPDEST PUSH1 0x40 MLOAD DUP1 SWAP2 SUB SWAP1 RETURN JUMPDEST CALLVALUE DUP1 ISZERO PUSH2 0x81 JUMPI PUSH0 PUSH0 REVERT JUMPDEST POP PUSH2 0x8A PUSH2 0x264 JUMP JUMPDEST STOP JUMPDEST CALLVALUE DUP1 ISZERO PUSH2 0x97 JUMPI PUSH0 PUSH0 REVERT JUMPDEST POP PUSH2 0xA0 PUSH2 0x31D JUMP JUMPDEST PUSH1 0x40 MLOAD PUSH2 0xAD SWAP2 SWAP1 PUSH2 0x3F9 JUMP JUMPDEST PUSH1 0x40 MLOAD DUP1 SWAP2 SUB SWAP1 RETURN JUMPDEST PUSH0 PUSH1 0x1 DUP2 GT ISZERO PUSH2 0xC9 JUMPI PUSH2 0xC8 PUSH2 0x386 JUMP JUMPDEST JUMPDEST PUSH0 PUSH0 SWAP1 SLOAD SWAP1 PUSH2 0x100 EXP SWAP1 DIV PUSH1 0xFF AND PUSH1 0x1 DUP2 GT ISZERO PUSH2 0xE9 JUMPI PUSH2 0xE8 PUSH2 0x386 JUMP JUMPDEST JUMPDEST EQ PUSH2 0x129 JUMPI PUSH1 0x40 MLOAD PUSH32 0x8C379A000000000000000000000000000000000000000000000000000000000 DUP2 MSTORE PUSH1 0x4 ADD PUSH2 0x120 SWAP1 PUSH2 0x46C JUMP JUMPDEST PUSH1 0x40 MLOAD DUP1 SWAP2 SUB SWAP1 REVERT JUMPDEST PUSH8 0x8AC7230489E80000 DUP1 CALLVALUE LT ISZERO PUSH2 0x175 JUMPI PUSH1 0x40 MLOAD PUSH32 0x8C379A000000000000000000000000000000000000000000000000000000000 DUP2 MSTORE PUSH1 0x4 ADD PUSH2 0x16C SWAP1 PUSH2 0x4D4 JUMP JUMPDEST PUSH1 0x40 MLOAD DUP1 SWAP2 SUB SWAP1 REVERT JUMPDEST PUSH1 0x1 PUSH0 PUSH0 PUSH2 0x100 EXP DUP2 SLOAD DUP2 PUSH1 0xFF MUL NOT AND SWAP1 DUP4 PUSH1 0x1 DUP2 GT ISZERO PUSH2 0x199 JUMPI PUSH2 0x198 PUSH2 0x386 JUMP JUMPDEST JUMPDEST MUL OR SWAP1 SSTORE POP PUSH0 PUSH1 0x1 SWAP1 SLOAD SWAP1 PUSH2 0x100 EXP SWAP1 DIV PUSH20 0xFFFFFFFFFFFFFFFFFFFFFFFFFFFFFFFFFFFFFFFF AND PUSH20 0xFFFFFFFFFFFFFFFFFFFFFFFFFFFFFFFFFFFFFFFF AND PUSH2 0x8FC CALLVALUE SWAP1 DUP2 ISZERO MUL SWAP1 PUSH1 0x40 MLOAD PUSH0 PUSH1 0x40 MLOAD DUP1 DUP4 SUB DUP2 DUP6 DUP9 DUP9 CALL SWAP4 POP POP POP POP ISZERO DUP1 ISZERO PUSH2 0x202 JUMPI RETURNDATASIZE PUSH0 PUSH0 RETURNDATACOPY RETURNDATASIZE PUSH0 REVERT JUMPDEST POP PUSH32 0xBA951166D42EB077151BDECB7CF6027562F04F0143B0C141B1BB0A33EEF5D693 CALLER CALLVALUE PUSH1 0x40 MLOAD PUSH2 0x234 SWAP3 SWAP2 SWAP1 PUSH2 0x52A JUMP JUMPDEST PUSH1 0x40 MLOAD DUP1 SWAP2 SUB SWAP1 LOG1 POP JUMP JUMPDEST PUSH0 PUSH1 0x1 SWAP1 SLOAD SWAP1 PUSH2 0x100 EXP SWAP1 DIV PUSH20 0xFFFFFFFFFFFFFFFFFFFFFFFFFFFFFFFFFFFFFFFF AND DUP2 JUMP JUMPDEST PUSH0 PUSH1 0x1 SWAP1 SLOAD SWAP1 PUSH2 0x100 EXP SWAP1 DIV PUSH20 0xFFFFFFFFFFFFFFFFFFFFFFFFFFFFFFFFFFFFFFFF AND PUSH20 0xFFFFFFFFFFFFFFFFFFFFFFFFFFFFFFFFFFFFFFFF AND CALLER PUSH20 0xFFFFFFFFFFFFFFFFFFFFFFFFFFFFFFFFFFFFFFFF AND EQ PUSH2 0x2F3 JUMPI PUSH1 0x40 MLOAD PUSH32 0x8C379A000000000000000000000000000000000000000000000000000000000 DUP2 MSTORE PUSH1 0x4 ADD PUSH2 0x2EA SWAP1 PUSH2 0x59B JUMP JUMPDEST PUSH1 0x40 MLOAD DUP1 SWAP2 SUB SWAP1 REVERT JUMPDEST PUSH0 PUSH0 PUSH0 PUSH2 0x100 EXP DUP2 SLOAD DUP2 PUSH1 0xFF MUL NOT AND SWAP1 DUP4 PUSH1 0x1 DUP2 GT ISZERO PUSH2 0x316 JUMPI PUSH2 0x315 PUSH2 0x386 JUMP JUMPDEST JUMPDEST MUL OR SWAP1 SSTORE POP JUMP JUMPDEST PUSH0 PUSH0 SWAP1 SLOAD SWAP1 PUSH2 0x100 EXP SWAP1 DIV PUSH1 0xFF AND DUP2 JUMP JUMPDEST PUSH0 PUSH20 0xFFFFFFFFFFFFFFFFFFFFFFFFFFFFFFFFFFFFFFFF DUP3 AND SWAP1 POP SWAP2 SWAP1 POP JUMP JUMPDEST PUSH0 PUSH2 0x357 DUP3 PUSH2 0x32E JUMP JUMPDEST SWAP1 POP SWAP2 SWAP1 POP JUMP JUMPDEST PUSH2 0x367 DUP2 PUSH2 0x34D JUMP JUMPDEST DUP3 MSTORE POP POP JUMP JUMPDEST PUSH0 PUSH1 0x20 DUP3 ADD SWAP1 POP PUSH2 0x380 PUSH0 DUP4 ADD DUP5 PUSH2 0x35E JUMP JUMPDEST SWAP3 SWAP2 POP POP JUMP JUMPDEST PUSH32 0x4E487B7100000000000000000000000000000000000000000000000000000000 PUSH0 MSTORE PUSH1 0x21 PUSH1 0x4 MSTORE PUSH1 0x24 PUSH0 REVERT JUMPDEST PUSH1 0x2 DUP2 LT PUSH2 0x3C4 JUMPI PUSH2 0x3C3 PUSH2 0x386 JUMP JUMPDEST JUMPDEST POP JUMP JUMPDEST PUSH0 DUP2 SWAP1 POP PUSH2 0x3D4 DUP3 PUSH2 0x3B3 JUMP JUMPDEST SWAP2 SWAP1 POP JUMP JUMPDEST PUSH0 PUSH2 0x3E3 DUP3 PUSH2 0x3C7 JUMP JUMPDEST SWAP1 POP SWAP2 SWAP1 POP JUMP JUMPDEST PUSH2 0x3F3 DUP2 PUSH2 0x3D9 JUMP JUMPDEST DUP3 MSTORE POP POP JUMP JUMPDEST PUSH0 PUSH1 0x20 DUP3 ADD SWAP1 POP PUSH2 0x40C PUSH0 DUP4 ADD DUP5 PUSH2 0x3EA JUMP JUMPDEST SWAP3 SWAP2 POP POP JUMP JUMPDEST PUSH0 DUP3 DUP3 MSTORE PUSH1 0x20 DUP3 ADD SWAP1 POP SWAP3 SWAP2 POP POP JUMP JUMPDEST PUSH32 0x43757272656E746C79206F636375706965642E00000000000000000000000000 PUSH0 DUP3 ADD MSTORE POP JUMP JUMPDEST PUSH0 PUSH2 0x456 PUSH1 0x13 DUP4 PUSH2 0x412 JUMP JUMPDEST SWAP2 POP PUSH2 0x461 DUP3 PUSH2 0x422 JUMP JUMPDEST PUSH1 0x20 DUP3 ADD SWAP1 POP SWAP2 SWAP1 POP JUMP JUMPDEST PUSH0 PUSH1 0x20 DUP3 ADD SWAP1 POP DUP2 DUP2 SUB PUSH0 DUP4 ADD MSTORE PUSH2 0x483 DUP2 PUSH2 0x44A JUMP JUMPDEST SWAP1 POP SWAP2 SWAP1 POP JUMP JUMPDEST PUSH32 0x4E6F7420656E6F7567682065746865722070726F76696465642E000000000000 PUSH0 DUP3 ADD MSTORE POP JUMP JUMPDEST PUSH0 PUSH2 0x4BE PUSH1 0x1A DUP4 PUSH2 0x412 JUMP JUMPDEST SWAP2 POP PUSH2 0x4C9 DUP3 PUSH2 0x48A JUMP JUMPDEST PUSH1 0x20 DUP3 ADD SWAP1 POP SWAP2 SWAP1 POP JUMP JUMPDEST PUSH0 PUSH1 0x20 DUP3 ADD SWAP1 POP DUP2 DUP2 SUB PUSH0 DUP4 ADD MSTORE PUSH2 0x4EB DUP2 PUSH2 0x4B2 JUMP JUMPDEST SWAP1 POP SWAP2 SWAP1 POP JUMP JUMPDEST PUSH0 PUSH2 0x4FC DUP3 PUSH2 0x32E JUMP JUMPDEST SWAP1 POP SWAP2 SWAP1 POP JUMP JUMPDEST PUSH2 0x50C DUP2 PUSH2 0x4F2 JUMP JUMPDEST DUP3 MSTORE POP POP JUMP JUMPDEST PUSH0 DUP2 SWAP1 POP SWAP2 SWAP1 POP JUMP JUMPDEST PUSH2 0x524 DUP2 PUSH2 0x512 JUMP JUMPDEST DUP3 MSTORE POP POP JUMP JUMPDEST PUSH0 PUSH1 0x40 DUP3 ADD SWAP1 POP PUSH2 0x53D PUSH0 DUP4 ADD DUP6 PUSH2 0x503 JUMP JUMPDEST PUSH2 0x54A PUSH1 0x20 DUP4 ADD DUP5 PUSH2 0x51B JUMP JUMPDEST SWAP4 SWAP3 POP POP POP JUMP JUMPDEST PUSH32 0x4F6E6C7920746865206F776E65722063616E20646F2E00000000000000000000 PUSH0 DUP3 ADD MSTORE POP JUMP JUMPDEST PUSH0 PUSH2 0x585 PUSH1 0x16 DUP4 PUSH2 0x412 JUMP JUMPDEST SWAP2 POP PUSH2 0x590 DUP3 PUSH2 0x551 JUMP JUMPDEST PUSH1 0x20 DUP3 ADD SWAP1 POP SWAP2 SWAP1 POP JUMP JUMPDEST PUSH0 PUSH1 0x20 DUP3 ADD SWAP1 POP DUP2 DUP2 SUB PUSH0 DUP4 ADD MSTORE PUSH2 0x5B2 DUP2 PUSH2 0x579 JUMP JUMPDEST SWAP1 POP SWAP2 SWAP1 POP JUMP INVALID LOG2 PUSH5 0x6970667358 0x22 SLT KECCAK256 0xC8 PUSH26 0xC0E65760F1C4A57DF4599283C9CA7953900CEC62241482C93EA3 0xB7 BLOBBASEFEE CREATE2 DATALOADN 0x6473 PUSH16 0x6C634300081E00330000000000000000 "
				},
				"gasEstimates": {
					"creation": {
						"codeDepositCost": "303800",
						"executionCost": "48952",
						"totalCost": "352752"
					},
					"external": {
						"book()": "infinite",
						"currentStatus()": "2597",
						"owner()": "2558",
						"reset()": "26668"
					}
				},
				"methodIdentifiers": {
					"book()": "05a8da72",
					"currentStatus()": "ef8a9235",
					"owner()": "8da5cb5b",
					"reset()": "d826f88f"
				}
			},
			"storageLayout": {
				"storage": [
					{
						"astId": 7,
						"contract": "week11/teltel.sol:HotelRoom",
						"label": "currentStatus",
						"offset": 0,
						"slot": "0",
						"type": "t_enum(Status)4"
					},
					{
						"astId": 9,
						"contract": "week11/teltel.sol:HotelRoom",
						"label": "owner",
						"offset": 1,
						"slot": "0",
						"type": "t_address_payable"
					}
				],
				"types": {
					"t_address_payable": {
						"encoding": "inplace",
						"label": "address payable",
						"numberOfBytes": "20"
					},
					"t_enum(Status)4": {
						"encoding": "inplace",
						"label": "enum HotelRoom.Status",
						"numberOfBytes": "1"
					}
				}
			},
			"userdoc": {
				"kind": "user",
				"methods": {},
				"version": 1
			}
		}
	}
}