{
	"project(auction)/BlindAuction.sol": {
		"BlindAuction": {
			"abi": [
				{
					"inputs": [],
					"stateMutability": "nonpayable",
					"type": "constructor"
				},
				{
					"anonymous": false,
					"inputs": [
						{
							"indexed": false,
							"internalType": "address",
							"name": "winner",
							"type": "address"
						},
						{
							"indexed": false,
							"internalType": "uint256",
							"name": "highestBid",
							"type": "uint256"
						}
					],
					"name": "AuctionEnded",
					"type": "event"
				},
				{
					"anonymous": false,
					"inputs": [],
					"name": "AuctionInit",
					"type": "event"
				},
				{
					"anonymous": false,
					"inputs": [],
					"name": "BiddingStarted",
					"type": "event"
				},
				{
					"anonymous": false,
					"inputs": [],
					"name": "RevealStarted",
					"type": "event"
				},
				{
					"inputs": [],
					"name": "advancePhase",
					"outputs": [],
					"stateMutability": "nonpayable",
					"type": "function"
				},
				{
					"inputs": [],
					"name": "auctionEnd",
					"outputs": [],
					"stateMutability": "nonpayable",
					"type": "function"
				},
				{
					"inputs": [],
					"name": "beneficiary",
					"outputs": [
						{
							"internalType": "address payable",
							"name": "",
							"type": "address"
						}
					],
					"stateMutability": "view",
					"type": "function"
				},
				{
					"inputs": [
						{
							"internalType": "bytes32",
							"name": "blindBid",
							"type": "bytes32"
						}
					],
					"name": "bid",
					"outputs": [],
					"stateMutability": "payable",
					"type": "function"
				},
				{
					"inputs": [
						{
							"internalType": "address",
							"name": "",
							"type": "address"
						}
					],
					"name": "bids",
					"outputs": [
						{
							"internalType": "bytes32",
							"name": "blindedBid",
							"type": "bytes32"
						},
						{
							"internalType": "uint256",
							"name": "deposit",
							"type": "uint256"
						}
					],
					"stateMutability": "view",
					"type": "function"
				},
				{
					"inputs": [],
					"name": "currentPhase",
					"outputs": [
						{
							"internalType": "enum BlindAuction.Phase",
							"name": "",
							"type": "uint8"
						}
					],
					"stateMutability": "view",
					"type": "function"
				},
				{
					"inputs": [],
					"name": "ended",
					"outputs": [
						{
							"internalType": "bool",
							"name": "",
							"type": "bool"
						}
					],
					"stateMutability": "view",
					"type": "function"
				},
				{
					"inputs": [],
					"name": "highestBid",
					"outputs": [
						{
							"internalType": "uint256",
							"name": "",
							"type": "uint256"
						}
					],
					"stateMutability": "view",
					"type": "function"
				},
				{
					"inputs": [],
					"name": "highestBidder",
					"outputs": [
						{
							"internalType": "address",
							"name": "",
							"type": "address"
						}
					],
					"stateMutability": "view",
					"type": "function"
				},
				{
					"inputs": [
						{
							"internalType": "uint256",
							"name": "value",
							"type": "uint256"
						},
						{
							"internalType": "bytes32",
							"name": "secret",
							"type": "bytes32"
						}
					],
					"name": "reveal",
					"outputs": [],
					"stateMutability": "nonpayable",
					"type": "function"
				},
				{
					"inputs": [],
					"name": "withdraw",
					"outputs": [],
					"stateMutability": "nonpayable",
					"type": "function"
				}
			],
			"devdoc": {
				"kind": "dev",
				"methods": {},
				"version": 1
			},
			"evm": {
				"assembly": "    /* \"project(auction)/BlindAuction.sol\":72:5938  contract BlindAuction {... */\n  mstore(0x40, 0x80)\n    /* \"project(auction)/BlindAuction.sol\":576:577  0 */\n  0x00\n    /* \"project(auction)/BlindAuction.sol\":551:577  uint public highestBid = 0 */\n  0x02\n  sstore\n    /* \"project(auction)/BlindAuction.sol\":853:863  Phase.Init */\n  0x00\n    /* \"project(auction)/BlindAuction.sol\":825:863  Phase public currentPhase = Phase.Init */\n  0x05\n  exp(0x0100, 0x00)\n  dup2\n  sload\n  dup2\n  0xff\n  mul\n  not\n  and\n  swap1\n  dup4\n  0x03\n  dup2\n  gt\n  iszero\n  tag_1\n  jumpi\n  tag_2\n  tag_3\n  jump\t// in\ntag_2:\ntag_1:\n  mul\n  or\n  swap1\n  sstore\n  pop\n    /* \"project(auction)/BlindAuction.sol\":1340:1435  constructor() {... */\n  callvalue\n  dup1\n  iszero\n  tag_4\n  jumpi\n  revert(0x00, 0x00)\ntag_4:\n  pop\n    /* \"project(auction)/BlindAuction.sol\":1387:1397  msg.sender */\n  caller\n    /* \"project(auction)/BlindAuction.sol\":1365:1376  beneficiary */\n  0x00\n  0x00\n    /* \"project(auction)/BlindAuction.sol\":1365:1398  beneficiary = payable(msg.sender) */\n  0x0100\n  exp\n  dup2\n  sload\n  dup2\n  0xffffffffffffffffffffffffffffffffffffffff\n  mul\n  not\n  and\n  swap1\n  dup4\n  0xffffffffffffffffffffffffffffffffffffffff\n  and\n  mul\n  or\n  swap1\n  sstore\n  pop\n    /* \"project(auction)/BlindAuction.sol\":1414:1427  AuctionInit() */\n  0x8ad2842071cb64589c8e006941bc20b615aae08a93530e211ca7c9639bd26d97\n  mload(0x40)\n  mload(0x40)\n  dup1\n  swap2\n  sub\n  swap1\n  log1\n    /* \"project(auction)/BlindAuction.sol\":72:5938  contract BlindAuction {... */\n  jump(tag_7)\n    /* \"#utility.yul\":7:187   */\ntag_3:\n    /* \"#utility.yul\":55:132   */\n  0x4e487b7100000000000000000000000000000000000000000000000000000000\n    /* \"#utility.yul\":52:53   */\n  0x00\n    /* \"#utility.yul\":45:133   */\n  mstore\n    /* \"#utility.yul\":152:156   */\n  0x21\n    /* \"#utility.yul\":149:150   */\n  0x04\n    /* \"#utility.yul\":142:157   */\n  mstore\n    /* \"#utility.yul\":176:180   */\n  0x24\n    /* \"#utility.yul\":173:174   */\n  0x00\n    /* \"#utility.yul\":166:181   */\n  revert\n    /* \"project(auction)/BlindAuction.sol\":72:5938  contract BlindAuction {... */\ntag_7:\n  dataSize(sub_0)\n  dup1\n  dataOffset(sub_0)\n  0x00\n  codecopy\n  0x00\n  return\nstop\n\nsub_0: assembly {\n        /* \"project(auction)/BlindAuction.sol\":72:5938  contract BlindAuction {... */\n      mstore(0x40, 0x80)\n      jumpi(tag_1, lt(calldatasize, 0x04))\n      shr(0xe0, calldataload(0x00))\n      dup1\n      0x4036778f\n      gt\n      tag_13\n      jumpi\n      dup1\n      0x4036778f\n      eq\n      tag_7\n      jumpi\n      dup1\n      0x62ea82db\n      eq\n      tag_8\n      jumpi\n      dup1\n      0x91f90157\n      eq\n      tag_9\n      jumpi\n      dup1\n      0x957bb1e0\n      eq\n      tag_10\n      jumpi\n      dup1\n      0xbe25a718\n      eq\n      tag_11\n      jumpi\n      dup1\n      0xd57bde79\n      eq\n      tag_12\n      jumpi\n      jump(tag_1)\n    tag_13:\n      dup1\n      0x055ad42e\n      eq\n      tag_2\n      jumpi\n      dup1\n      0x12fa6feb\n      eq\n      tag_3\n      jumpi\n      dup1\n      0x2a24f46c\n      eq\n      tag_4\n      jumpi\n      dup1\n      0x38af3eed\n      eq\n      tag_5\n      jumpi\n      dup1\n      0x3ccfd60b\n      eq\n      tag_6\n      jumpi\n    tag_1:\n      revert(0x00, 0x00)\n        /* \"project(auction)/BlindAuction.sol\":825:863  Phase public currentPhase = Phase.Init */\n    tag_2:\n      callvalue\n      dup1\n      iszero\n      tag_14\n      jumpi\n      revert(0x00, 0x00)\n    tag_14:\n      pop\n      tag_15\n      tag_16\n      jump\t// in\n    tag_15:\n      mload(0x40)\n      tag_17\n      swap2\n      swap1\n      tag_18\n      jump\t// in\n    tag_17:\n      mload(0x40)\n      dup1\n      swap2\n      sub\n      swap1\n      return\n        /* \"project(auction)/BlindAuction.sol\":870:887  bool public ended */\n    tag_3:\n      callvalue\n      dup1\n      iszero\n      tag_19\n      jumpi\n      revert(0x00, 0x00)\n    tag_19:\n      pop\n      tag_20\n      tag_21\n      jump\t// in\n    tag_20:\n      mload(0x40)\n      tag_22\n      swap2\n      swap1\n      tag_23\n      jump\t// in\n    tag_22:\n      mload(0x40)\n      dup1\n      swap2\n      sub\n      swap1\n      return\n        /* \"project(auction)/BlindAuction.sol\":5442:5935  function auctionEnd() public onlyBeneficiary inPhase(Phase.Done) {... */\n    tag_4:\n      callvalue\n      dup1\n      iszero\n      tag_24\n      jumpi\n      revert(0x00, 0x00)\n    tag_24:\n      pop\n      tag_25\n      tag_26\n      jump\t// in\n    tag_25:\n      stop\n        /* \"project(auction)/BlindAuction.sol\":390:424  address payable public beneficiary */\n    tag_5:\n      callvalue\n      dup1\n      iszero\n      tag_27\n      jumpi\n      revert(0x00, 0x00)\n    tag_27:\n      pop\n      tag_28\n      tag_29\n      jump\t// in\n    tag_28:\n      mload(0x40)\n      tag_30\n      swap2\n      swap1\n      tag_31\n      jump\t// in\n    tag_30:\n      mload(0x40)\n      dup1\n      swap2\n      sub\n      swap1\n      return\n        /* \"project(auction)/BlindAuction.sol\":4958:5219  function withdraw() public {... */\n    tag_6:\n      callvalue\n      dup1\n      iszero\n      tag_32\n      jumpi\n      revert(0x00, 0x00)\n    tag_32:\n      pop\n      tag_33\n      tag_34\n      jump\t// in\n    tag_33:\n      stop\n        /* \"project(auction)/BlindAuction.sol\":2895:4219  function reveal(uint value, bytes32 secret) public inPhase(Phase.Reveal) {... */\n    tag_7:\n      callvalue\n      dup1\n      iszero\n      tag_35\n      jumpi\n      revert(0x00, 0x00)\n    tag_35:\n      pop\n      tag_36\n      0x04\n      dup1\n      calldatasize\n      sub\n      dup2\n      add\n      swap1\n      tag_37\n      swap2\n      swap1\n      tag_38\n      jump\t// in\n    tag_37:\n      tag_39\n      jump\t// in\n    tag_36:\n      stop\n        /* \"project(auction)/BlindAuction.sol\":657:692  mapping(address => Bid) public bids */\n    tag_8:\n      callvalue\n      dup1\n      iszero\n      tag_40\n      jumpi\n      revert(0x00, 0x00)\n    tag_40:\n      pop\n      tag_41\n      0x04\n      dup1\n      calldatasize\n      sub\n      dup2\n      add\n      swap1\n      tag_42\n      swap2\n      swap1\n      tag_43\n      jump\t// in\n    tag_42:\n      tag_44\n      jump\t// in\n    tag_41:\n      mload(0x40)\n      tag_45\n      swap3\n      swap2\n      swap1\n      tag_46\n      jump\t// in\n    tag_45:\n      mload(0x40)\n      dup1\n      swap2\n      sub\n      swap1\n      return\n        /* \"project(auction)/BlindAuction.sol\":516:544  address public highestBidder */\n    tag_9:\n      callvalue\n      dup1\n      iszero\n      tag_47\n      jumpi\n      revert(0x00, 0x00)\n    tag_47:\n      pop\n      tag_48\n      tag_49\n      jump\t// in\n    tag_48:\n      mload(0x40)\n      tag_50\n      swap2\n      swap1\n      tag_51\n      jump\t// in\n    tag_50:\n      mload(0x40)\n      dup1\n      swap2\n      sub\n      swap1\n      return\n        /* \"project(auction)/BlindAuction.sol\":2283:2825  function bid(bytes32 blindBid) public payable inPhase(Phase.Bidding) {... */\n    tag_10:\n      tag_52\n      0x04\n      dup1\n      calldatasize\n      sub\n      dup2\n      add\n      swap1\n      tag_53\n      swap2\n      swap1\n      tag_54\n      jump\t// in\n    tag_53:\n      tag_55\n      jump\t// in\n    tag_52:\n      stop\n        /* \"project(auction)/BlindAuction.sol\":1513:2161  function advancePhase() public onlyBeneficiary{... */\n    tag_11:\n      callvalue\n      dup1\n      iszero\n      tag_56\n      jumpi\n      revert(0x00, 0x00)\n    tag_56:\n      pop\n      tag_57\n      tag_58\n      jump\t// in\n    tag_57:\n      stop\n        /* \"project(auction)/BlindAuction.sol\":551:577  uint public highestBid = 0 */\n    tag_12:\n      callvalue\n      dup1\n      iszero\n      tag_59\n      jumpi\n      revert(0x00, 0x00)\n    tag_59:\n      pop\n      tag_60\n      tag_61\n      jump\t// in\n    tag_60:\n      mload(0x40)\n      tag_62\n      swap2\n      swap1\n      tag_63\n      jump\t// in\n    tag_62:\n      mload(0x40)\n      dup1\n      swap2\n      sub\n      swap1\n      return\n        /* \"project(auction)/BlindAuction.sol\":825:863  Phase public currentPhase = Phase.Init */\n    tag_16:\n      0x05\n      0x00\n      swap1\n      sload\n      swap1\n      0x0100\n      exp\n      swap1\n      div\n      0xff\n      and\n      dup2\n      jump\t// out\n        /* \"project(auction)/BlindAuction.sol\":870:887  bool public ended */\n    tag_21:\n      0x05\n      0x01\n      swap1\n      sload\n      swap1\n      0x0100\n      exp\n      swap1\n      div\n      0xff\n      and\n      dup2\n      jump\t// out\n        /* \"project(auction)/BlindAuction.sol\":5442:5935  function auctionEnd() public onlyBeneficiary inPhase(Phase.Done) {... */\n    tag_26:\n        /* \"project(auction)/BlindAuction.sol\":1175:1186  beneficiary */\n      0x00\n      0x00\n      swap1\n      sload\n      swap1\n      0x0100\n      exp\n      swap1\n      div\n      0xffffffffffffffffffffffffffffffffffffffff\n      and\n        /* \"project(auction)/BlindAuction.sol\":1161:1186  msg.sender == beneficiary */\n      0xffffffffffffffffffffffffffffffffffffffff\n      and\n        /* \"project(auction)/BlindAuction.sol\":1161:1171  msg.sender */\n      caller\n        /* \"project(auction)/BlindAuction.sol\":1161:1186  msg.sender == beneficiary */\n      0xffffffffffffffffffffffffffffffffffffffff\n      and\n      eq\n        /* \"project(auction)/BlindAuction.sol\":1153:1207  require(msg.sender == beneficiary, \"Only beneficiary\") */\n      tag_65\n      jumpi\n      mload(0x40)\n      0x08c379a000000000000000000000000000000000000000000000000000000000\n      dup2\n      mstore\n      0x04\n      add\n      tag_66\n      swap1\n      tag_67\n      jump\t// in\n    tag_66:\n      mload(0x40)\n      dup1\n      swap2\n      sub\n      swap1\n      revert\n    tag_65:\n        /* \"project(auction)/BlindAuction.sol\":5495:5505  Phase.Done */\n      0x03\n        /* \"project(auction)/BlindAuction.sol\":1295:1296  P */\n      dup1\n        /* \"project(auction)/BlindAuction.sol\":1279:1296  currentPhase == P */\n      0x03\n      dup2\n      gt\n      iszero\n      tag_69\n      jumpi\n      tag_70\n      tag_71\n      jump\t// in\n    tag_70:\n    tag_69:\n        /* \"project(auction)/BlindAuction.sol\":1279:1291  currentPhase */\n      0x05\n      0x00\n      swap1\n      sload\n      swap1\n      0x0100\n      exp\n      swap1\n      div\n      0xff\n      and\n        /* \"project(auction)/BlindAuction.sol\":1279:1296  currentPhase == P */\n      0x03\n      dup2\n      gt\n      iszero\n      tag_72\n      jumpi\n      tag_73\n      tag_71\n      jump\t// in\n    tag_73:\n    tag_72:\n      eq\n        /* \"project(auction)/BlindAuction.sol\":1271:1312  require(currentPhase == P, \"Wrong phase\") */\n      tag_74\n      jumpi\n      mload(0x40)\n      0x08c379a000000000000000000000000000000000000000000000000000000000\n      dup2\n      mstore\n      0x04\n      add\n      tag_75\n      swap1\n      tag_76\n      jump\t// in\n    tag_75:\n      mload(0x40)\n      dup1\n      swap2\n      sub\n      swap1\n      revert\n    tag_74:\n        /* \"project(auction)/BlindAuction.sol\":5527:5532  ended */\n      0x05\n      0x01\n      swap1\n      sload\n      swap1\n      0x0100\n      exp\n      swap1\n      div\n      0xff\n      and\n        /* \"project(auction)/BlindAuction.sol\":5526:5532  !ended */\n      iszero\n        /* \"project(auction)/BlindAuction.sol\":5518:5562  require(!ended, \"auctionEnd already called\") */\n      tag_78\n      jumpi\n      mload(0x40)\n      0x08c379a000000000000000000000000000000000000000000000000000000000\n      dup2\n      mstore\n      0x04\n      add\n      tag_79\n      swap1\n      tag_80\n      jump\t// in\n    tag_79:\n      mload(0x40)\n      dup1\n      swap2\n      sub\n      swap1\n      revert\n    tag_78:\n        /* \"project(auction)/BlindAuction.sol\":5581:5585  true */\n      0x01\n        /* \"project(auction)/BlindAuction.sol\":5573:5578  ended */\n      0x05\n      0x01\n        /* \"project(auction)/BlindAuction.sol\":5573:5585  ended = true */\n      0x0100\n      exp\n      dup2\n      sload\n      dup2\n      0xff\n      mul\n      not\n      and\n      swap1\n      dup4\n      iszero\n      iszero\n      mul\n      or\n      swap1\n      sstore\n      pop\n        /* \"project(auction)/BlindAuction.sol\":5603:5642  AuctionEnded(highestBidder, highestBid) */\n      0xdaec4582d5d9595688c8c98545fdd1c696d41c6aeaeb636737e84ed2f5c00eda\n        /* \"project(auction)/BlindAuction.sol\":5616:5629  highestBidder */\n      0x01\n      0x00\n      swap1\n      sload\n      swap1\n      0x0100\n      exp\n      swap1\n      div\n      0xffffffffffffffffffffffffffffffffffffffff\n      and\n        /* \"project(auction)/BlindAuction.sol\":5631:5641  highestBid */\n      sload(0x02)\n        /* \"project(auction)/BlindAuction.sol\":5603:5642  AuctionEnded(highestBidder, highestBid) */\n      mload(0x40)\n      tag_81\n      swap3\n      swap2\n      swap1\n      tag_82\n      jump\t// in\n    tag_81:\n      mload(0x40)\n      dup1\n      swap2\n      sub\n      swap1\n      log1\n        /* \"project(auction)/BlindAuction.sol\":5867:5868  0 */\n      0x00\n        /* \"project(auction)/BlindAuction.sol\":5854:5864  highestBid */\n      sload(0x02)\n        /* \"project(auction)/BlindAuction.sol\":5854:5868  highestBid > 0 */\n      gt\n        /* \"project(auction)/BlindAuction.sol\":5850:5928  if (highestBid > 0){... */\n      iszero\n      tag_83\n      jumpi\n        /* \"project(auction)/BlindAuction.sol\":5884:5895  beneficiary */\n      0x00\n      0x00\n      swap1\n      sload\n      swap1\n      0x0100\n      exp\n      swap1\n      div\n      0xffffffffffffffffffffffffffffffffffffffff\n      and\n        /* \"project(auction)/BlindAuction.sol\":5884:5904  beneficiary.transfer */\n      0xffffffffffffffffffffffffffffffffffffffff\n      and\n        /* \"project(auction)/BlindAuction.sol\":5884:5916  beneficiary.transfer(highestBid) */\n      0x08fc\n        /* \"project(auction)/BlindAuction.sol\":5905:5915  highestBid */\n      sload(0x02)\n        /* \"project(auction)/BlindAuction.sol\":5884:5916  beneficiary.transfer(highestBid) */\n      swap1\n      dup2\n      iszero\n      mul\n      swap1\n      mload(0x40)\n      0x00\n      mload(0x40)\n      dup1\n      dup4\n      sub\n      dup2\n      dup6\n      dup9\n      dup9\n      call\n      swap4\n      pop\n      pop\n      pop\n      pop\n      iszero\n      dup1\n      iszero\n      tag_85\n      jumpi\n      returndatacopy(0x00, 0x00, returndatasize)\n      revert(0x00, returndatasize)\n    tag_85:\n      pop\n        /* \"project(auction)/BlindAuction.sol\":5850:5928  if (highestBid > 0){... */\n    tag_83:\n        /* \"project(auction)/BlindAuction.sol\":1218:1219  _ */\n      pop\n        /* \"project(auction)/BlindAuction.sol\":5442:5935  function auctionEnd() public onlyBeneficiary inPhase(Phase.Done) {... */\n      jump\t// out\n        /* \"project(auction)/BlindAuction.sol\":390:424  address payable public beneficiary */\n    tag_29:\n      0x00\n      0x00\n      swap1\n      sload\n      swap1\n      0x0100\n      exp\n      swap1\n      div\n      0xffffffffffffffffffffffffffffffffffffffff\n      and\n      dup2\n      jump\t// out\n        /* \"project(auction)/BlindAuction.sol\":4958:5219  function withdraw() public {... */\n    tag_34:\n        /* \"project(auction)/BlindAuction.sol\":4996:5007  uint amount */\n      0x00\n        /* \"project(auction)/BlindAuction.sol\":5010:5024  pendingReturns */\n      0x04\n        /* \"project(auction)/BlindAuction.sol\":5010:5036  pendingReturns[msg.sender] */\n      0x00\n        /* \"project(auction)/BlindAuction.sol\":5025:5035  msg.sender */\n      caller\n        /* \"project(auction)/BlindAuction.sol\":5010:5036  pendingReturns[msg.sender] */\n      0xffffffffffffffffffffffffffffffffffffffff\n      and\n      0xffffffffffffffffffffffffffffffffffffffff\n      and\n      dup2\n      mstore\n      0x20\n      add\n      swap1\n      dup2\n      mstore\n      0x20\n      add\n      0x00\n      keccak256\n      sload\n        /* \"project(auction)/BlindAuction.sol\":4996:5036  uint amount = pendingReturns[msg.sender] */\n      swap1\n      pop\n        /* \"project(auction)/BlindAuction.sol\":5064:5065  0 */\n      0x00\n        /* \"project(auction)/BlindAuction.sol\":5055:5061  amount */\n      dup2\n        /* \"project(auction)/BlindAuction.sol\":5055:5065  amount > 0 */\n      gt\n        /* \"project(auction)/BlindAuction.sol\":5047:5089  require(amount > 0, \"Nothing to withdraw\") */\n      tag_87\n      jumpi\n      mload(0x40)\n      0x08c379a000000000000000000000000000000000000000000000000000000000\n      dup2\n      mstore\n      0x04\n      add\n      tag_88\n      swap1\n      tag_89\n      jump\t// in\n    tag_88:\n      mload(0x40)\n      dup1\n      swap2\n      sub\n      swap1\n      revert\n    tag_87:\n        /* \"project(auction)/BlindAuction.sol\":5160:5161  0 */\n      0x00\n        /* \"project(auction)/BlindAuction.sol\":5131:5145  pendingReturns */\n      0x04\n        /* \"project(auction)/BlindAuction.sol\":5131:5157  pendingReturns[msg.sender] */\n      0x00\n        /* \"project(auction)/BlindAuction.sol\":5146:5156  msg.sender */\n      caller\n        /* \"project(auction)/BlindAuction.sol\":5131:5157  pendingReturns[msg.sender] */\n      0xffffffffffffffffffffffffffffffffffffffff\n      and\n      0xffffffffffffffffffffffffffffffffffffffff\n      and\n      dup2\n      mstore\n      0x20\n      add\n      swap1\n      dup2\n      mstore\n      0x20\n      add\n      0x00\n      keccak256\n        /* \"project(auction)/BlindAuction.sol\":5131:5161  pendingReturns[msg.sender] = 0 */\n      dup2\n      swap1\n      sstore\n      pop\n        /* \"project(auction)/BlindAuction.sol\":5181:5191  msg.sender */\n      caller\n        /* \"project(auction)/BlindAuction.sol\":5172:5201  payable (msg.sender).transfer */\n      0xffffffffffffffffffffffffffffffffffffffff\n      and\n        /* \"project(auction)/BlindAuction.sol\":5172:5209  payable (msg.sender).transfer(amount) */\n      0x08fc\n        /* \"project(auction)/BlindAuction.sol\":5202:5208  amount */\n      dup3\n        /* \"project(auction)/BlindAuction.sol\":5172:5209  payable (msg.sender).transfer(amount) */\n      swap1\n      dup2\n      iszero\n      mul\n      swap1\n      mload(0x40)\n      0x00\n      mload(0x40)\n      dup1\n      dup4\n      sub\n      dup2\n      dup6\n      dup9\n      dup9\n      call\n      swap4\n      pop\n      pop\n      pop\n      pop\n      iszero\n      dup1\n      iszero\n      tag_91\n      jumpi\n      returndatacopy(0x00, 0x00, returndatasize)\n      revert(0x00, returndatasize)\n    tag_91:\n      pop\n        /* \"project(auction)/BlindAuction.sol\":4985:5219  {... */\n      pop\n        /* \"project(auction)/BlindAuction.sol\":4958:5219  function withdraw() public {... */\n      jump\t// out\n        /* \"project(auction)/BlindAuction.sol\":2895:4219  function reveal(uint value, bytes32 secret) public inPhase(Phase.Reveal) {... */\n    tag_39:\n        /* \"project(auction)/BlindAuction.sol\":2954:2966  Phase.Reveal */\n      0x02\n        /* \"project(auction)/BlindAuction.sol\":1295:1296  P */\n      dup1\n        /* \"project(auction)/BlindAuction.sol\":1279:1296  currentPhase == P */\n      0x03\n      dup2\n      gt\n      iszero\n      tag_93\n      jumpi\n      tag_94\n      tag_71\n      jump\t// in\n    tag_94:\n    tag_93:\n        /* \"project(auction)/BlindAuction.sol\":1279:1291  currentPhase */\n      0x05\n      0x00\n      swap1\n      sload\n      swap1\n      0x0100\n      exp\n      swap1\n      div\n      0xff\n      and\n        /* \"project(auction)/BlindAuction.sol\":1279:1296  currentPhase == P */\n      0x03\n      dup2\n      gt\n      iszero\n      tag_95\n      jumpi\n      tag_96\n      tag_71\n      jump\t// in\n    tag_96:\n    tag_95:\n      eq\n        /* \"project(auction)/BlindAuction.sol\":1271:1312  require(currentPhase == P, \"Wrong phase\") */\n      tag_97\n      jumpi\n      mload(0x40)\n      0x08c379a000000000000000000000000000000000000000000000000000000000\n      dup2\n      mstore\n      0x04\n      add\n      tag_98\n      swap1\n      tag_76\n      jump\t// in\n    tag_98:\n      mload(0x40)\n      dup1\n      swap2\n      sub\n      swap1\n      revert\n    tag_97:\n        /* \"project(auction)/BlindAuction.sol\":2979:2992  Bid storage b */\n      0x00\n        /* \"project(auction)/BlindAuction.sol\":2995:2999  bids */\n      0x03\n        /* \"project(auction)/BlindAuction.sol\":2995:3011  bids[msg.sender] */\n      0x00\n        /* \"project(auction)/BlindAuction.sol\":3000:3010  msg.sender */\n      caller\n        /* \"project(auction)/BlindAuction.sol\":2995:3011  bids[msg.sender] */\n      0xffffffffffffffffffffffffffffffffffffffff\n      and\n      0xffffffffffffffffffffffffffffffffffffffff\n      and\n      dup2\n      mstore\n      0x20\n      add\n      swap1\n      dup2\n      mstore\n      0x20\n      add\n      0x00\n      keccak256\n        /* \"project(auction)/BlindAuction.sol\":2979:3011  Bid storage b = bids[msg.sender] */\n      swap1\n      pop\n        /* \"project(auction)/BlindAuction.sol\":3042:3043  0 */\n      0x00\n        /* \"project(auction)/BlindAuction.sol\":3030:3031  b */\n      dup2\n        /* \"project(auction)/BlindAuction.sol\":3030:3039  b.deposit */\n      0x01\n      add\n      sload\n        /* \"project(auction)/BlindAuction.sol\":3030:3043  b.deposit > 0 */\n      gt\n        /* \"project(auction)/BlindAuction.sol\":3022:3060  require(b.deposit > 0, \"No bid found\") */\n      tag_100\n      jumpi\n      mload(0x40)\n      0x08c379a000000000000000000000000000000000000000000000000000000000\n      dup2\n      mstore\n      0x04\n      add\n      tag_101\n      swap1\n      tag_102\n      jump\t// in\n    tag_101:\n      mload(0x40)\n      dup1\n      swap2\n      sub\n      swap1\n      revert\n    tag_100:\n        /* \"project(auction)/BlindAuction.sol\":3099:3111  bytes32 calc */\n      0x00\n        /* \"project(auction)/BlindAuction.sol\":3141:3146  value */\n      dup5\n        /* \"project(auction)/BlindAuction.sol\":3148:3154  secret */\n      dup5\n        /* \"project(auction)/BlindAuction.sol\":3124:3155  abi.encodePacked(value, secret) */\n      add(0x20, mload(0x40))\n      tag_103\n      swap3\n      swap2\n      swap1\n      tag_104\n      jump\t// in\n    tag_103:\n      mload(0x40)\n      0x20\n      dup2\n      dup4\n      sub\n      sub\n      dup2\n      mstore\n      swap1\n      0x40\n      mstore\n        /* \"project(auction)/BlindAuction.sol\":3114:3156  keccak256(abi.encodePacked(value, secret)) */\n      dup1\n      mload\n      swap1\n      0x20\n      add\n      keccak256\n        /* \"project(auction)/BlindAuction.sol\":3099:3156  bytes32 calc = keccak256(abi.encodePacked(value, secret)) */\n      swap1\n      pop\n        /* \"project(auction)/BlindAuction.sol\":3183:3184  b */\n      dup2\n        /* \"project(auction)/BlindAuction.sol\":3183:3195  b.blindedBid */\n      0x00\n      add\n      sload\n        /* \"project(auction)/BlindAuction.sol\":3175:3179  calc */\n      dup2\n        /* \"project(auction)/BlindAuction.sol\":3175:3195  calc == b.blindedBid */\n      eq\n        /* \"project(auction)/BlindAuction.sol\":3167:3213  require(calc == b.blindedBid, \"Hash mismatch\") */\n      tag_105\n      jumpi\n      mload(0x40)\n      0x08c379a000000000000000000000000000000000000000000000000000000000\n      dup2\n      mstore\n      0x04\n      add\n      tag_106\n      swap1\n      tag_107\n      jump\t// in\n    tag_106:\n      mload(0x40)\n      dup1\n      swap2\n      sub\n      swap1\n      revert\n    tag_105:\n        /* \"project(auction)/BlindAuction.sol\":3297:3308  uint bidWei */\n      0x00\n        /* \"project(auction)/BlindAuction.sol\":3319:3326  1 ether */\n      0x0de0b6b3a7640000\n        /* \"project(auction)/BlindAuction.sol\":3311:3316  value */\n      dup7\n        /* \"project(auction)/BlindAuction.sol\":3311:3326  value * 1 ether */\n      tag_108\n      swap2\n      swap1\n      tag_109\n      jump\t// in\n    tag_108:\n        /* \"project(auction)/BlindAuction.sol\":3297:3326  uint bidWei = value * 1 ether */\n      swap1\n      pop\n        /* \"project(auction)/BlindAuction.sol\":3430:3431  0 */\n      0x00\n        /* \"project(auction)/BlindAuction.sol\":3422:3432  bytes32(0) */\n      0x00\n      shl\n        /* \"project(auction)/BlindAuction.sol\":3392:3396  bids */\n      0x03\n        /* \"project(auction)/BlindAuction.sol\":3392:3408  bids[msg.sender] */\n      0x00\n        /* \"project(auction)/BlindAuction.sol\":3397:3407  msg.sender */\n      caller\n        /* \"project(auction)/BlindAuction.sol\":3392:3408  bids[msg.sender] */\n      0xffffffffffffffffffffffffffffffffffffffff\n      and\n      0xffffffffffffffffffffffffffffffffffffffff\n      and\n      dup2\n      mstore\n      0x20\n      add\n      swap1\n      dup2\n      mstore\n      0x20\n      add\n      0x00\n      keccak256\n        /* \"project(auction)/BlindAuction.sol\":3392:3419  bids[msg.sender].blindedBid */\n      0x00\n      add\n        /* \"project(auction)/BlindAuction.sol\":3392:3432  bids[msg.sender].blindedBid = bytes32(0) */\n      dup2\n      swap1\n      sstore\n      pop\n        /* \"project(auction)/BlindAuction.sol\":3445:3456  uint refund */\n      0x00\n        /* \"project(auction)/BlindAuction.sol\":3459:3460  b */\n      dup4\n        /* \"project(auction)/BlindAuction.sol\":3459:3468  b.deposit */\n      0x01\n      add\n      sload\n        /* \"project(auction)/BlindAuction.sol\":3445:3468  uint refund = b.deposit */\n      swap1\n      pop\n        /* \"project(auction)/BlindAuction.sol\":3600:3605  value */\n      dup7\n        /* \"project(auction)/BlindAuction.sol\":3587:3588  b */\n      dup5\n        /* \"project(auction)/BlindAuction.sol\":3587:3596  b.deposit */\n      0x01\n      add\n      sload\n        /* \"project(auction)/BlindAuction.sol\":3587:3605  b.deposit >= value */\n      lt\n      iszero\n        /* \"project(auction)/BlindAuction.sol\":3587:3618  b.deposit >= value && value > 0 */\n      dup1\n      iszero\n      tag_110\n      jumpi\n      pop\n        /* \"project(auction)/BlindAuction.sol\":3617:3618  0 */\n      0x00\n        /* \"project(auction)/BlindAuction.sol\":3609:3614  value */\n      dup8\n        /* \"project(auction)/BlindAuction.sol\":3609:3618  value > 0 */\n      gt\n        /* \"project(auction)/BlindAuction.sol\":3587:3618  b.deposit >= value && value > 0 */\n    tag_110:\n        /* \"project(auction)/BlindAuction.sol\":3583:4014  if (b.deposit >= value && value > 0) {... */\n      iszero\n      tag_111\n      jumpi\n        /* \"project(auction)/BlindAuction.sol\":3639:3668  _placeBid(msg.sender, bidWei) */\n      tag_112\n        /* \"project(auction)/BlindAuction.sol\":3649:3659  msg.sender */\n      caller\n        /* \"project(auction)/BlindAuction.sol\":3661:3667  bidWei */\n      dup4\n        /* \"project(auction)/BlindAuction.sol\":3639:3648  _placeBid */\n      tag_113\n        /* \"project(auction)/BlindAuction.sol\":3639:3668  _placeBid(msg.sender, bidWei) */\n      jump\t// in\n    tag_112:\n        /* \"project(auction)/BlindAuction.sol\":3635:4003  if (_placeBid(msg.sender, bidWei)) {... */\n      iszero\n      tag_114\n      jumpi\n        /* \"project(auction)/BlindAuction.sol\":3981:3987  bidWei */\n      dup2\n        /* \"project(auction)/BlindAuction.sol\":3971:3987  refund -= bidWei */\n      dup2\n      tag_115\n      swap2\n      swap1\n      tag_116\n      jump\t// in\n    tag_115:\n      swap1\n      pop\n        /* \"project(auction)/BlindAuction.sol\":3635:4003  if (_placeBid(msg.sender, bidWei)) {... */\n    tag_114:\n        /* \"project(auction)/BlindAuction.sol\":3583:4014  if (b.deposit >= value && value > 0) {... */\n    tag_111:\n        /* \"project(auction)/BlindAuction.sol\":4120:4121  0 */\n      0x00\n        /* \"project(auction)/BlindAuction.sol\":4108:4109  b */\n      dup5\n        /* \"project(auction)/BlindAuction.sol\":4108:4117  b.deposit */\n      0x01\n      add\n        /* \"project(auction)/BlindAuction.sol\":4108:4121  b.deposit = 0 */\n      dup2\n      swap1\n      sstore\n      pop\n        /* \"project(auction)/BlindAuction.sol\":4147:4148  0 */\n      0x00\n        /* \"project(auction)/BlindAuction.sol\":4138:4144  refund */\n      dup2\n        /* \"project(auction)/BlindAuction.sol\":4138:4148  refund > 0 */\n      gt\n        /* \"project(auction)/BlindAuction.sol\":4134:4212  if (refund > 0){... */\n      iszero\n      tag_117\n      jumpi\n        /* \"project(auction)/BlindAuction.sol\":4172:4182  msg.sender */\n      caller\n        /* \"project(auction)/BlindAuction.sol\":4164:4192  payable(msg.sender).transfer */\n      0xffffffffffffffffffffffffffffffffffffffff\n      and\n        /* \"project(auction)/BlindAuction.sol\":4164:4200  payable(msg.sender).transfer(refund) */\n      0x08fc\n        /* \"project(auction)/BlindAuction.sol\":4193:4199  refund */\n      dup3\n        /* \"project(auction)/BlindAuction.sol\":4164:4200  payable(msg.sender).transfer(refund) */\n      swap1\n      dup2\n      iszero\n      mul\n      swap1\n      mload(0x40)\n      0x00\n      mload(0x40)\n      dup1\n      dup4\n      sub\n      dup2\n      dup6\n      dup9\n      dup9\n      call\n      swap4\n      pop\n      pop\n      pop\n      pop\n      iszero\n      dup1\n      iszero\n      tag_119\n      jumpi\n      returndatacopy(0x00, 0x00, returndatasize)\n      revert(0x00, returndatasize)\n    tag_119:\n      pop\n        /* \"project(auction)/BlindAuction.sol\":4134:4212  if (refund > 0){... */\n    tag_117:\n        /* \"project(auction)/BlindAuction.sol\":2968:4219  {... */\n      pop\n      pop\n      pop\n      pop\n        /* \"project(auction)/BlindAuction.sol\":2895:4219  function reveal(uint value, bytes32 secret) public inPhase(Phase.Reveal) {... */\n      pop\n      pop\n      pop\n      jump\t// out\n        /* \"project(auction)/BlindAuction.sol\":657:692  mapping(address => Bid) public bids */\n    tag_44:\n      mstore(0x20, 0x03)\n      dup1\n      0x00\n      mstore\n      keccak256(0x00, 0x40)\n      0x00\n      swap2\n      pop\n      swap1\n      pop\n      dup1\n      0x00\n      add\n      sload\n      swap1\n      dup1\n      0x01\n      add\n      sload\n      swap1\n      pop\n      dup3\n      jump\t// out\n        /* \"project(auction)/BlindAuction.sol\":516:544  address public highestBidder */\n    tag_49:\n      0x01\n      0x00\n      swap1\n      sload\n      swap1\n      0x0100\n      exp\n      swap1\n      div\n      0xffffffffffffffffffffffffffffffffffffffff\n      and\n      dup2\n      jump\t// out\n        /* \"project(auction)/BlindAuction.sol\":2283:2825  function bid(bytes32 blindBid) public payable inPhase(Phase.Bidding) {... */\n    tag_55:\n        /* \"project(auction)/BlindAuction.sol\":2337:2350  Phase.Bidding */\n      0x01\n        /* \"project(auction)/BlindAuction.sol\":1295:1296  P */\n      dup1\n        /* \"project(auction)/BlindAuction.sol\":1279:1296  currentPhase == P */\n      0x03\n      dup2\n      gt\n      iszero\n      tag_121\n      jumpi\n      tag_122\n      tag_71\n      jump\t// in\n    tag_122:\n    tag_121:\n        /* \"project(auction)/BlindAuction.sol\":1279:1291  currentPhase */\n      0x05\n      0x00\n      swap1\n      sload\n      swap1\n      0x0100\n      exp\n      swap1\n      div\n      0xff\n      and\n        /* \"project(auction)/BlindAuction.sol\":1279:1296  currentPhase == P */\n      0x03\n      dup2\n      gt\n      iszero\n      tag_123\n      jumpi\n      tag_124\n      tag_71\n      jump\t// in\n    tag_124:\n    tag_123:\n      eq\n        /* \"project(auction)/BlindAuction.sol\":1271:1312  require(currentPhase == P, \"Wrong phase\") */\n      tag_125\n      jumpi\n      mload(0x40)\n      0x08c379a000000000000000000000000000000000000000000000000000000000\n      dup2\n      mstore\n      0x04\n      add\n      tag_126\n      swap1\n      tag_76\n      jump\t// in\n    tag_126:\n      mload(0x40)\n      dup1\n      swap2\n      sub\n      swap1\n      revert\n    tag_125:\n        /* \"project(auction)/BlindAuction.sol\":2391:2392  0 */\n      0x00\n        /* \"project(auction)/BlindAuction.sol\":2383:2393  bytes32(0) */\n      0x00\n      shl\n        /* \"project(auction)/BlindAuction.sol\":2371:2379  blindBid */\n      dup3\n        /* \"project(auction)/BlindAuction.sol\":2371:2393  blindBid != bytes32(0) */\n      sub\n        /* \"project(auction)/BlindAuction.sol\":2363:2417  require(blindBid != bytes32(0), \"Invalid blinded bid\") */\n      tag_128\n      jumpi\n      mload(0x40)\n      0x08c379a000000000000000000000000000000000000000000000000000000000\n      dup2\n      mstore\n      0x04\n      add\n      tag_129\n      swap1\n      tag_130\n      jump\t// in\n    tag_129:\n      mload(0x40)\n      dup1\n      swap2\n      sub\n      swap1\n      revert\n    tag_128:\n        /* \"project(auction)/BlindAuction.sol\":2475:2476  0 */\n      0x00\n        /* \"project(auction)/BlindAuction.sol\":2467:2477  bytes32(0) */\n      0x00\n      shl\n        /* \"project(auction)/BlindAuction.sol\":2436:2440  bids */\n      0x03\n        /* \"project(auction)/BlindAuction.sol\":2436:2452  bids[msg.sender] */\n      0x00\n        /* \"project(auction)/BlindAuction.sol\":2441:2451  msg.sender */\n      caller\n        /* \"project(auction)/BlindAuction.sol\":2436:2452  bids[msg.sender] */\n      0xffffffffffffffffffffffffffffffffffffffff\n      and\n      0xffffffffffffffffffffffffffffffffffffffff\n      and\n      dup2\n      mstore\n      0x20\n      add\n      swap1\n      dup2\n      mstore\n      0x20\n      add\n      0x00\n      keccak256\n        /* \"project(auction)/BlindAuction.sol\":2436:2463  bids[msg.sender].blindedBid */\n      0x00\n      add\n      sload\n        /* \"project(auction)/BlindAuction.sol\":2436:2477  bids[msg.sender].blindedBid == bytes32(0) */\n      eq\n        /* \"project(auction)/BlindAuction.sol\":2428:2503  require(bids[msg.sender].blindedBid == bytes32(0), \"Bid already submitted\") */\n      tag_131\n      jumpi\n      mload(0x40)\n      0x08c379a000000000000000000000000000000000000000000000000000000000\n      dup2\n      mstore\n      0x04\n      add\n      tag_132\n      swap1\n      tag_133\n      jump\t// in\n    tag_132:\n      mload(0x40)\n      dup1\n      swap2\n      sub\n      swap1\n      revert\n    tag_131:\n        /* \"project(auction)/BlindAuction.sol\":2534:2535  0 */\n      0x00\n        /* \"project(auction)/BlindAuction.sol\":2522:2531  msg.value */\n      callvalue\n        /* \"project(auction)/BlindAuction.sol\":2522:2535  msg.value > 0 */\n      gt\n        /* \"project(auction)/BlindAuction.sol\":2514:2559  require(msg.value > 0, \"Deposit must be > 0\") */\n      tag_134\n      jumpi\n      mload(0x40)\n      0x08c379a000000000000000000000000000000000000000000000000000000000\n      dup2\n      mstore\n      0x04\n      add\n      tag_135\n      swap1\n      tag_136\n      jump\t// in\n    tag_135:\n      mload(0x40)\n      dup1\n      swap2\n      sub\n      swap1\n      revert\n    tag_134:\n        /* \"project(auction)/BlindAuction.sol\":2591:2675  Bid({... */\n      mload(0x40)\n      dup1\n      0x40\n      add\n      0x40\n      mstore\n      dup1\n        /* \"project(auction)/BlindAuction.sol\":2622:2630  blindBid */\n      dup4\n        /* \"project(auction)/BlindAuction.sol\":2591:2675  Bid({... */\n      dup2\n      mstore\n      0x20\n      add\n        /* \"project(auction)/BlindAuction.sol\":2654:2663  msg.value */\n      callvalue\n        /* \"project(auction)/BlindAuction.sol\":2591:2675  Bid({... */\n      dup2\n      mstore\n      pop\n        /* \"project(auction)/BlindAuction.sol\":2572:2576  bids */\n      0x03\n        /* \"project(auction)/BlindAuction.sol\":2572:2588  bids[msg.sender] */\n      0x00\n        /* \"project(auction)/BlindAuction.sol\":2577:2587  msg.sender */\n      caller\n        /* \"project(auction)/BlindAuction.sol\":2572:2588  bids[msg.sender] */\n      0xffffffffffffffffffffffffffffffffffffffff\n      and\n      0xffffffffffffffffffffffffffffffffffffffff\n      and\n      dup2\n      mstore\n      0x20\n      add\n      swap1\n      dup2\n      mstore\n      0x20\n      add\n      0x00\n      keccak256\n        /* \"project(auction)/BlindAuction.sol\":2572:2675  bids[msg.sender] = Bid({... */\n      0x00\n      dup3\n      add\n      mload\n      dup2\n      0x00\n      add\n      sstore\n      0x20\n      dup3\n      add\n      mload\n      dup2\n      0x01\n      add\n      sstore\n      swap1\n      pop\n      pop\n        /* \"project(auction)/BlindAuction.sol\":2283:2825  function bid(bytes32 blindBid) public payable inPhase(Phase.Bidding) {... */\n      pop\n      pop\n      jump\t// out\n        /* \"project(auction)/BlindAuction.sol\":1513:2161  function advancePhase() public onlyBeneficiary{... */\n    tag_58:\n        /* \"project(auction)/BlindAuction.sol\":1175:1186  beneficiary */\n      0x00\n      0x00\n      swap1\n      sload\n      swap1\n      0x0100\n      exp\n      swap1\n      div\n      0xffffffffffffffffffffffffffffffffffffffff\n      and\n        /* \"project(auction)/BlindAuction.sol\":1161:1186  msg.sender == beneficiary */\n      0xffffffffffffffffffffffffffffffffffffffff\n      and\n        /* \"project(auction)/BlindAuction.sol\":1161:1171  msg.sender */\n      caller\n        /* \"project(auction)/BlindAuction.sol\":1161:1186  msg.sender == beneficiary */\n      0xffffffffffffffffffffffffffffffffffffffff\n      and\n      eq\n        /* \"project(auction)/BlindAuction.sol\":1153:1207  require(msg.sender == beneficiary, \"Only beneficiary\") */\n      tag_138\n      jumpi\n      mload(0x40)\n      0x08c379a000000000000000000000000000000000000000000000000000000000\n      dup2\n      mstore\n      0x04\n      add\n      tag_139\n      swap1\n      tag_67\n      jump\t// in\n    tag_139:\n      mload(0x40)\n      dup1\n      swap2\n      sub\n      swap1\n      revert\n    tag_138:\n        /* \"project(auction)/BlindAuction.sol\":1594:1604  Phase.Done */\n      0x03\n        /* \"project(auction)/BlindAuction.sol\":1578:1604  currentPhase != Phase.Done */\n      dup1\n      dup2\n      gt\n      iszero\n      tag_141\n      jumpi\n      tag_142\n      tag_71\n      jump\t// in\n    tag_142:\n    tag_141:\n        /* \"project(auction)/BlindAuction.sol\":1578:1590  currentPhase */\n      0x05\n      0x00\n      swap1\n      sload\n      swap1\n      0x0100\n      exp\n      swap1\n      div\n      0xff\n      and\n        /* \"project(auction)/BlindAuction.sol\":1578:1604  currentPhase != Phase.Done */\n      0x03\n      dup2\n      gt\n      iszero\n      tag_143\n      jumpi\n      tag_144\n      tag_71\n      jump\t// in\n    tag_144:\n    tag_143:\n      sub\n        /* \"project(auction)/BlindAuction.sol\":1570:1627  require(currentPhase != Phase.Done, \"Already last phase\") */\n      tag_145\n      jumpi\n      mload(0x40)\n      0x08c379a000000000000000000000000000000000000000000000000000000000\n      dup2\n      mstore\n      0x04\n      add\n      tag_146\n      swap1\n      tag_147\n      jump\t// in\n    tag_146:\n      mload(0x40)\n      dup1\n      swap2\n      sub\n      swap1\n      revert\n    tag_145:\n        /* \"project(auction)/BlindAuction.sol\":1660:1670  Phase.Init */\n      0x00\n        /* \"project(auction)/BlindAuction.sol\":1644:1670  currentPhase == Phase.Init */\n      0x03\n      dup2\n      gt\n      iszero\n      tag_148\n      jumpi\n      tag_149\n      tag_71\n      jump\t// in\n    tag_149:\n    tag_148:\n        /* \"project(auction)/BlindAuction.sol\":1644:1656  currentPhase */\n      0x05\n      0x00\n      swap1\n      sload\n      swap1\n      0x0100\n      exp\n      swap1\n      div\n      0xff\n      and\n        /* \"project(auction)/BlindAuction.sol\":1644:1670  currentPhase == Phase.Init */\n      0x03\n      dup2\n      gt\n      iszero\n      tag_150\n      jumpi\n      tag_151\n      tag_71\n      jump\t// in\n    tag_151:\n    tag_150:\n      sub\n        /* \"project(auction)/BlindAuction.sol\":1640:2154  if (currentPhase == Phase.Init){... */\n      tag_152\n      jumpi\n        /* \"project(auction)/BlindAuction.sol\":1701:1714  Phase.Bidding */\n      0x01\n        /* \"project(auction)/BlindAuction.sol\":1686:1698  currentPhase */\n      0x05\n      0x00\n        /* \"project(auction)/BlindAuction.sol\":1686:1714  currentPhase = Phase.Bidding */\n      0x0100\n      exp\n      dup2\n      sload\n      dup2\n      0xff\n      mul\n      not\n      and\n      swap1\n      dup4\n      0x03\n      dup2\n      gt\n      iszero\n      tag_153\n      jumpi\n      tag_154\n      tag_71\n      jump\t// in\n    tag_154:\n    tag_153:\n      mul\n      or\n      swap1\n      sstore\n      pop\n        /* \"project(auction)/BlindAuction.sol\":1734:1750  BiddingStarted() */\n      0x02c124e22ee7da1c9905bbb317cf67658c1cc3ea1c0953b1633f85d0b5c281d9\n      mload(0x40)\n      mload(0x40)\n      dup1\n      swap2\n      sub\n      swap1\n      log1\n        /* \"project(auction)/BlindAuction.sol\":1640:2154  if (currentPhase == Phase.Init){... */\n      jump(tag_155)\n    tag_152:\n        /* \"project(auction)/BlindAuction.sol\":1788:1801  Phase.Bidding */\n      0x01\n        /* \"project(auction)/BlindAuction.sol\":1772:1801  currentPhase == Phase.Bidding */\n      0x03\n      dup2\n      gt\n      iszero\n      tag_156\n      jumpi\n      tag_157\n      tag_71\n      jump\t// in\n    tag_157:\n    tag_156:\n        /* \"project(auction)/BlindAuction.sol\":1772:1784  currentPhase */\n      0x05\n      0x00\n      swap1\n      sload\n      swap1\n      0x0100\n      exp\n      swap1\n      div\n      0xff\n      and\n        /* \"project(auction)/BlindAuction.sol\":1772:1801  currentPhase == Phase.Bidding */\n      0x03\n      dup2\n      gt\n      iszero\n      tag_158\n      jumpi\n      tag_159\n      tag_71\n      jump\t// in\n    tag_159:\n    tag_158:\n      sub\n        /* \"project(auction)/BlindAuction.sol\":1768:2154  if (currentPhase == Phase.Bidding){... */\n      tag_160\n      jumpi\n        /* \"project(auction)/BlindAuction.sol\":1832:1844  Phase.Reveal */\n      0x02\n        /* \"project(auction)/BlindAuction.sol\":1817:1829  currentPhase */\n      0x05\n      0x00\n        /* \"project(auction)/BlindAuction.sol\":1817:1844  currentPhase = Phase.Reveal */\n      0x0100\n      exp\n      dup2\n      sload\n      dup2\n      0xff\n      mul\n      not\n      and\n      swap1\n      dup4\n      0x03\n      dup2\n      gt\n      iszero\n      tag_161\n      jumpi\n      tag_162\n      tag_71\n      jump\t// in\n    tag_162:\n    tag_161:\n      mul\n      or\n      swap1\n      sstore\n      pop\n        /* \"project(auction)/BlindAuction.sol\":1864:1879  RevealStarted() */\n      0x3bcc93d35219aa0512d7c0d1ca10b0231f473e3d5f9396877d1b7215ee0ab3d5\n      mload(0x40)\n      mload(0x40)\n      dup1\n      swap2\n      sub\n      swap1\n      log1\n        /* \"project(auction)/BlindAuction.sol\":1768:2154  if (currentPhase == Phase.Bidding){... */\n      jump(tag_163)\n    tag_160:\n        /* \"project(auction)/BlindAuction.sol\":1917:1929  Phase.Reveal */\n      0x02\n        /* \"project(auction)/BlindAuction.sol\":1901:1929  currentPhase == Phase.Reveal */\n      0x03\n      dup2\n      gt\n      iszero\n      tag_164\n      jumpi\n      tag_165\n      tag_71\n      jump\t// in\n    tag_165:\n    tag_164:\n        /* \"project(auction)/BlindAuction.sol\":1901:1913  currentPhase */\n      0x05\n      0x00\n      swap1\n      sload\n      swap1\n      0x0100\n      exp\n      swap1\n      div\n      0xff\n      and\n        /* \"project(auction)/BlindAuction.sol\":1901:1929  currentPhase == Phase.Reveal */\n      0x03\n      dup2\n      gt\n      iszero\n      tag_166\n      jumpi\n      tag_167\n      tag_71\n      jump\t// in\n    tag_167:\n    tag_166:\n      sub\n        /* \"project(auction)/BlindAuction.sol\":1897:2154  if (currentPhase == Phase.Reveal){... */\n      tag_168\n      jumpi\n        /* \"project(auction)/BlindAuction.sol\":1960:1970  Phase.Done */\n      0x03\n        /* \"project(auction)/BlindAuction.sol\":1945:1957  currentPhase */\n      0x05\n      0x00\n        /* \"project(auction)/BlindAuction.sol\":1945:1970  currentPhase = Phase.Done */\n      0x0100\n      exp\n      dup2\n      sload\n      dup2\n      0xff\n      mul\n      not\n      and\n      swap1\n      dup4\n      0x03\n      dup2\n      gt\n      iszero\n      tag_169\n      jumpi\n      tag_170\n      tag_71\n      jump\t// in\n    tag_170:\n    tag_169:\n      mul\n      or\n      swap1\n      sstore\n      pop\n        /* \"project(auction)/BlindAuction.sol\":1897:2154  if (currentPhase == Phase.Reveal){... */\n    tag_168:\n        /* \"project(auction)/BlindAuction.sol\":1768:2154  if (currentPhase == Phase.Bidding){... */\n    tag_163:\n        /* \"project(auction)/BlindAuction.sol\":1640:2154  if (currentPhase == Phase.Init){... */\n    tag_155:\n        /* \"project(auction)/BlindAuction.sol\":1513:2161  function advancePhase() public onlyBeneficiary{... */\n      jump\t// out\n        /* \"project(auction)/BlindAuction.sol\":551:577  uint public highestBid = 0 */\n    tag_61:\n      sload(0x02)\n      dup2\n      jump\t// out\n        /* \"project(auction)/BlindAuction.sol\":4270:4722  function _placeBid(address bidder, uint valueWei) internal returns (bool) {... */\n    tag_113:\n        /* \"project(auction)/BlindAuction.sol\":4338:4342  bool */\n      0x00\n        /* \"project(auction)/BlindAuction.sol\":4371:4381  highestBid */\n      sload(0x02)\n        /* \"project(auction)/BlindAuction.sol\":4359:4367  valueWei */\n      dup3\n        /* \"project(auction)/BlindAuction.sol\":4359:4381  valueWei <= highestBid */\n      gt\n        /* \"project(auction)/BlindAuction.sol\":4355:4421  if (valueWei <= highestBid){... */\n      tag_172\n      jumpi\n        /* \"project(auction)/BlindAuction.sol\":4404:4409  false */\n      0x00\n        /* \"project(auction)/BlindAuction.sol\":4397:4409  return false */\n      swap1\n      pop\n      jump(tag_171)\n        /* \"project(auction)/BlindAuction.sol\":4355:4421  if (valueWei <= highestBid){... */\n    tag_172:\n        /* \"project(auction)/BlindAuction.sol\":4553:4554  0 */\n      0x00\n        /* \"project(auction)/BlindAuction.sol\":4528:4555  highestBidder != address(0) */\n      0xffffffffffffffffffffffffffffffffffffffff\n      and\n        /* \"project(auction)/BlindAuction.sol\":4528:4541  highestBidder */\n      0x01\n      0x00\n      swap1\n      sload\n      swap1\n      0x0100\n      exp\n      swap1\n      div\n      0xffffffffffffffffffffffffffffffffffffffff\n      and\n        /* \"project(auction)/BlindAuction.sol\":4528:4555  highestBidder != address(0) */\n      0xffffffffffffffffffffffffffffffffffffffff\n      and\n      eq\n        /* \"project(auction)/BlindAuction.sol\":4524:4626  if (highestBidder != address(0)){... */\n      tag_173\n      jumpi\n        /* \"project(auction)/BlindAuction.sol\":4604:4614  highestBid */\n      sload(0x02)\n        /* \"project(auction)/BlindAuction.sol\":4571:4585  pendingReturns */\n      0x04\n        /* \"project(auction)/BlindAuction.sol\":4571:4600  pendingReturns[highestBidder] */\n      0x00\n        /* \"project(auction)/BlindAuction.sol\":4586:4599  highestBidder */\n      0x01\n      0x00\n      swap1\n      sload\n      swap1\n      0x0100\n      exp\n      swap1\n      div\n      0xffffffffffffffffffffffffffffffffffffffff\n      and\n        /* \"project(auction)/BlindAuction.sol\":4571:4600  pendingReturns[highestBidder] */\n      0xffffffffffffffffffffffffffffffffffffffff\n      and\n      0xffffffffffffffffffffffffffffffffffffffff\n      and\n      dup2\n      mstore\n      0x20\n      add\n      swap1\n      dup2\n      mstore\n      0x20\n      add\n      0x00\n      keccak256\n      0x00\n        /* \"project(auction)/BlindAuction.sol\":4571:4614  pendingReturns[highestBidder] += highestBid */\n      dup3\n      dup3\n      sload\n      tag_174\n      swap2\n      swap1\n      tag_175\n      jump\t// in\n    tag_174:\n      swap3\n      pop\n      pop\n      dup2\n      swap1\n      sstore\n      pop\n        /* \"project(auction)/BlindAuction.sol\":4524:4626  if (highestBidder != address(0)){... */\n    tag_173:\n        /* \"project(auction)/BlindAuction.sol\":4651:4659  valueWei */\n      dup2\n        /* \"project(auction)/BlindAuction.sol\":4638:4648  highestBid */\n      0x02\n        /* \"project(auction)/BlindAuction.sol\":4638:4659  highestBid = valueWei */\n      dup2\n      swap1\n      sstore\n      pop\n        /* \"project(auction)/BlindAuction.sol\":4686:4692  bidder */\n      dup3\n        /* \"project(auction)/BlindAuction.sol\":4670:4683  highestBidder */\n      0x01\n      0x00\n        /* \"project(auction)/BlindAuction.sol\":4670:4692  highestBidder = bidder */\n      0x0100\n      exp\n      dup2\n      sload\n      dup2\n      0xffffffffffffffffffffffffffffffffffffffff\n      mul\n      not\n      and\n      swap1\n      dup4\n      0xffffffffffffffffffffffffffffffffffffffff\n      and\n      mul\n      or\n      swap1\n      sstore\n      pop\n        /* \"project(auction)/BlindAuction.sol\":4710:4714  true */\n      0x01\n        /* \"project(auction)/BlindAuction.sol\":4703:4714  return true */\n      swap1\n      pop\n        /* \"project(auction)/BlindAuction.sol\":4270:4722  function _placeBid(address bidder, uint valueWei) internal returns (bool) {... */\n    tag_171:\n      swap3\n      swap2\n      pop\n      pop\n      jump\t// out\n        /* \"#utility.yul\":7:187   */\n    tag_71:\n        /* \"#utility.yul\":55:132   */\n      0x4e487b7100000000000000000000000000000000000000000000000000000000\n        /* \"#utility.yul\":52:53   */\n      0x00\n        /* \"#utility.yul\":45:133   */\n      mstore\n        /* \"#utility.yul\":152:156   */\n      0x21\n        /* \"#utility.yul\":149:150   */\n      0x04\n        /* \"#utility.yul\":142:157   */\n      mstore\n        /* \"#utility.yul\":176:180   */\n      0x24\n        /* \"#utility.yul\":173:174   */\n      0x00\n        /* \"#utility.yul\":166:181   */\n      revert\n        /* \"#utility.yul\":193:306   */\n    tag_176:\n        /* \"#utility.yul\":274:275   */\n      0x04\n        /* \"#utility.yul\":267:272   */\n      dup2\n        /* \"#utility.yul\":264:276   */\n      lt\n        /* \"#utility.yul\":254:300   */\n      tag_229\n      jumpi\n        /* \"#utility.yul\":280:298   */\n      tag_230\n      tag_71\n      jump\t// in\n    tag_230:\n        /* \"#utility.yul\":254:300   */\n    tag_229:\n        /* \"#utility.yul\":193:306   */\n      pop\n      jump\t// out\n        /* \"#utility.yul\":312:439   */\n    tag_177:\n        /* \"#utility.yul\":357:364   */\n      0x00\n        /* \"#utility.yul\":386:391   */\n      dup2\n        /* \"#utility.yul\":375:391   */\n      swap1\n      pop\n        /* \"#utility.yul\":392:433   */\n      tag_232\n        /* \"#utility.yul\":427:432   */\n      dup3\n        /* \"#utility.yul\":392:433   */\n      tag_176\n      jump\t// in\n    tag_232:\n        /* \"#utility.yul\":312:439   */\n      swap2\n      swap1\n      pop\n      jump\t// out\n        /* \"#utility.yul\":445:572   */\n    tag_178:\n        /* \"#utility.yul\":501:510   */\n      0x00\n        /* \"#utility.yul\":534:566   */\n      tag_234\n        /* \"#utility.yul\":560:565   */\n      dup3\n        /* \"#utility.yul\":534:566   */\n      tag_177\n      jump\t// in\n    tag_234:\n        /* \"#utility.yul\":521:566   */\n      swap1\n      pop\n        /* \"#utility.yul\":445:572   */\n      swap2\n      swap1\n      pop\n      jump\t// out\n        /* \"#utility.yul\":578:721   */\n    tag_179:\n        /* \"#utility.yul\":671:714   */\n      tag_236\n        /* \"#utility.yul\":708:713   */\n      dup2\n        /* \"#utility.yul\":671:714   */\n      tag_178\n      jump\t// in\n    tag_236:\n        /* \"#utility.yul\":666:669   */\n      dup3\n        /* \"#utility.yul\":659:715   */\n      mstore\n        /* \"#utility.yul\":578:721   */\n      pop\n      pop\n      jump\t// out\n        /* \"#utility.yul\":727:961   */\n    tag_18:\n        /* \"#utility.yul\":826:830   */\n      0x00\n        /* \"#utility.yul\":864:866   */\n      0x20\n        /* \"#utility.yul\":853:862   */\n      dup3\n        /* \"#utility.yul\":849:867   */\n      add\n        /* \"#utility.yul\":841:867   */\n      swap1\n      pop\n        /* \"#utility.yul\":877:954   */\n      tag_238\n        /* \"#utility.yul\":951:952   */\n      0x00\n        /* \"#utility.yul\":940:949   */\n      dup4\n        /* \"#utility.yul\":936:953   */\n      add\n        /* \"#utility.yul\":927:933   */\n      dup5\n        /* \"#utility.yul\":877:954   */\n      tag_179\n      jump\t// in\n    tag_238:\n        /* \"#utility.yul\":727:961   */\n      swap3\n      swap2\n      pop\n      pop\n      jump\t// out\n        /* \"#utility.yul\":967:1057   */\n    tag_180:\n        /* \"#utility.yul\":1001:1008   */\n      0x00\n        /* \"#utility.yul\":1044:1049   */\n      dup2\n        /* \"#utility.yul\":1037:1050   */\n      iszero\n        /* \"#utility.yul\":1030:1051   */\n      iszero\n        /* \"#utility.yul\":1019:1051   */\n      swap1\n      pop\n        /* \"#utility.yul\":967:1057   */\n      swap2\n      swap1\n      pop\n      jump\t// out\n        /* \"#utility.yul\":1063:1172   */\n    tag_181:\n        /* \"#utility.yul\":1144:1165   */\n      tag_241\n        /* \"#utility.yul\":1159:1164   */\n      dup2\n        /* \"#utility.yul\":1144:1165   */\n      tag_180\n      jump\t// in\n    tag_241:\n        /* \"#utility.yul\":1139:1142   */\n      dup3\n        /* \"#utility.yul\":1132:1166   */\n      mstore\n        /* \"#utility.yul\":1063:1172   */\n      pop\n      pop\n      jump\t// out\n        /* \"#utility.yul\":1178:1388   */\n    tag_23:\n        /* \"#utility.yul\":1265:1269   */\n      0x00\n        /* \"#utility.yul\":1303:1305   */\n      0x20\n        /* \"#utility.yul\":1292:1301   */\n      dup3\n        /* \"#utility.yul\":1288:1306   */\n      add\n        /* \"#utility.yul\":1280:1306   */\n      swap1\n      pop\n        /* \"#utility.yul\":1316:1381   */\n      tag_243\n        /* \"#utility.yul\":1378:1379   */\n      0x00\n        /* \"#utility.yul\":1367:1376   */\n      dup4\n        /* \"#utility.yul\":1363:1380   */\n      add\n        /* \"#utility.yul\":1354:1360   */\n      dup5\n        /* \"#utility.yul\":1316:1381   */\n      tag_181\n      jump\t// in\n    tag_243:\n        /* \"#utility.yul\":1178:1388   */\n      swap3\n      swap2\n      pop\n      pop\n      jump\t// out\n        /* \"#utility.yul\":1394:1520   */\n    tag_182:\n        /* \"#utility.yul\":1431:1438   */\n      0x00\n        /* \"#utility.yul\":1471:1513   */\n      0xffffffffffffffffffffffffffffffffffffffff\n        /* \"#utility.yul\":1464:1469   */\n      dup3\n        /* \"#utility.yul\":1460:1514   */\n      and\n        /* \"#utility.yul\":1449:1514   */\n      swap1\n      pop\n        /* \"#utility.yul\":1394:1520   */\n      swap2\n      swap1\n      pop\n      jump\t// out\n        /* \"#utility.yul\":1526:1630   */\n    tag_183:\n        /* \"#utility.yul\":1571:1578   */\n      0x00\n        /* \"#utility.yul\":1600:1624   */\n      tag_246\n        /* \"#utility.yul\":1618:1623   */\n      dup3\n        /* \"#utility.yul\":1600:1624   */\n      tag_182\n      jump\t// in\n    tag_246:\n        /* \"#utility.yul\":1589:1624   */\n      swap1\n      pop\n        /* \"#utility.yul\":1526:1630   */\n      swap2\n      swap1\n      pop\n      jump\t// out\n        /* \"#utility.yul\":1636:1778   */\n    tag_184:\n        /* \"#utility.yul\":1739:1771   */\n      tag_248\n        /* \"#utility.yul\":1765:1770   */\n      dup2\n        /* \"#utility.yul\":1739:1771   */\n      tag_183\n      jump\t// in\n    tag_248:\n        /* \"#utility.yul\":1734:1737   */\n      dup3\n        /* \"#utility.yul\":1727:1772   */\n      mstore\n        /* \"#utility.yul\":1636:1778   */\n      pop\n      pop\n      jump\t// out\n        /* \"#utility.yul\":1784:2038   */\n    tag_31:\n        /* \"#utility.yul\":1893:1897   */\n      0x00\n        /* \"#utility.yul\":1931:1933   */\n      0x20\n        /* \"#utility.yul\":1920:1929   */\n      dup3\n        /* \"#utility.yul\":1916:1934   */\n      add\n        /* \"#utility.yul\":1908:1934   */\n      swap1\n      pop\n        /* \"#utility.yul\":1944:2031   */\n      tag_250\n        /* \"#utility.yul\":2028:2029   */\n      0x00\n        /* \"#utility.yul\":2017:2026   */\n      dup4\n        /* \"#utility.yul\":2013:2030   */\n      add\n        /* \"#utility.yul\":2004:2010   */\n      dup5\n        /* \"#utility.yul\":1944:2031   */\n      tag_184\n      jump\t// in\n    tag_250:\n        /* \"#utility.yul\":1784:2038   */\n      swap3\n      swap2\n      pop\n      pop\n      jump\t// out\n        /* \"#utility.yul\":2125:2242   */\n    tag_186:\n        /* \"#utility.yul\":2234:2235   */\n      0x00\n        /* \"#utility.yul\":2231:2232   */\n      0x00\n        /* \"#utility.yul\":2224:2236   */\n      revert\n        /* \"#utility.yul\":2371:2448   */\n    tag_188:\n        /* \"#utility.yul\":2408:2415   */\n      0x00\n        /* \"#utility.yul\":2437:2442   */\n      dup2\n        /* \"#utility.yul\":2426:2442   */\n      swap1\n      pop\n        /* \"#utility.yul\":2371:2448   */\n      swap2\n      swap1\n      pop\n      jump\t// out\n        /* \"#utility.yul\":2454:2576   */\n    tag_189:\n        /* \"#utility.yul\":2527:2551   */\n      tag_256\n        /* \"#utility.yul\":2545:2550   */\n      dup2\n        /* \"#utility.yul\":2527:2551   */\n      tag_188\n      jump\t// in\n    tag_256:\n        /* \"#utility.yul\":2520:2525   */\n      dup2\n        /* \"#utility.yul\":2517:2552   */\n      eq\n        /* \"#utility.yul\":2507:2570   */\n      tag_257\n      jumpi\n        /* \"#utility.yul\":2566:2567   */\n      0x00\n        /* \"#utility.yul\":2563:2564   */\n      0x00\n        /* \"#utility.yul\":2556:2568   */\n      revert\n        /* \"#utility.yul\":2507:2570   */\n    tag_257:\n        /* \"#utility.yul\":2454:2576   */\n      pop\n      jump\t// out\n        /* \"#utility.yul\":2582:2721   */\n    tag_190:\n        /* \"#utility.yul\":2628:2633   */\n      0x00\n        /* \"#utility.yul\":2666:2672   */\n      dup2\n        /* \"#utility.yul\":2653:2673   */\n      calldataload\n        /* \"#utility.yul\":2644:2673   */\n      swap1\n      pop\n        /* \"#utility.yul\":2682:2715   */\n      tag_259\n        /* \"#utility.yul\":2709:2714   */\n      dup2\n        /* \"#utility.yul\":2682:2715   */\n      tag_189\n      jump\t// in\n    tag_259:\n        /* \"#utility.yul\":2582:2721   */\n      swap3\n      swap2\n      pop\n      pop\n      jump\t// out\n        /* \"#utility.yul\":2727:2804   */\n    tag_191:\n        /* \"#utility.yul\":2764:2771   */\n      0x00\n        /* \"#utility.yul\":2793:2798   */\n      dup2\n        /* \"#utility.yul\":2782:2798   */\n      swap1\n      pop\n        /* \"#utility.yul\":2727:2804   */\n      swap2\n      swap1\n      pop\n      jump\t// out\n        /* \"#utility.yul\":2810:2932   */\n    tag_192:\n        /* \"#utility.yul\":2883:2907   */\n      tag_262\n        /* \"#utility.yul\":2901:2906   */\n      dup2\n        /* \"#utility.yul\":2883:2907   */\n      tag_191\n      jump\t// in\n    tag_262:\n        /* \"#utility.yul\":2876:2881   */\n      dup2\n        /* \"#utility.yul\":2873:2908   */\n      eq\n        /* \"#utility.yul\":2863:2926   */\n      tag_263\n      jumpi\n        /* \"#utility.yul\":2922:2923   */\n      0x00\n        /* \"#utility.yul\":2919:2920   */\n      0x00\n        /* \"#utility.yul\":2912:2924   */\n      revert\n        /* \"#utility.yul\":2863:2926   */\n    tag_263:\n        /* \"#utility.yul\":2810:2932   */\n      pop\n      jump\t// out\n        /* \"#utility.yul\":2938:3077   */\n    tag_193:\n        /* \"#utility.yul\":2984:2989   */\n      0x00\n        /* \"#utility.yul\":3022:3028   */\n      dup2\n        /* \"#utility.yul\":3009:3029   */\n      calldataload\n        /* \"#utility.yul\":3000:3029   */\n      swap1\n      pop\n        /* \"#utility.yul\":3038:3071   */\n      tag_265\n        /* \"#utility.yul\":3065:3070   */\n      dup2\n        /* \"#utility.yul\":3038:3071   */\n      tag_192\n      jump\t// in\n    tag_265:\n        /* \"#utility.yul\":2938:3077   */\n      swap3\n      swap2\n      pop\n      pop\n      jump\t// out\n        /* \"#utility.yul\":3083:3557   */\n    tag_38:\n        /* \"#utility.yul\":3151:3157   */\n      0x00\n        /* \"#utility.yul\":3159:3165   */\n      0x00\n        /* \"#utility.yul\":3208:3210   */\n      0x40\n        /* \"#utility.yul\":3196:3205   */\n      dup4\n        /* \"#utility.yul\":3187:3194   */\n      dup6\n        /* \"#utility.yul\":3183:3206   */\n      sub\n        /* \"#utility.yul\":3179:3211   */\n      slt\n        /* \"#utility.yul\":3176:3295   */\n      iszero\n      tag_267\n      jumpi\n        /* \"#utility.yul\":3214:3293   */\n      tag_268\n      tag_186\n      jump\t// in\n    tag_268:\n        /* \"#utility.yul\":3176:3295   */\n    tag_267:\n        /* \"#utility.yul\":3334:3335   */\n      0x00\n        /* \"#utility.yul\":3359:3412   */\n      tag_269\n        /* \"#utility.yul\":3404:3411   */\n      dup6\n        /* \"#utility.yul\":3395:3401   */\n      dup3\n        /* \"#utility.yul\":3384:3393   */\n      dup7\n        /* \"#utility.yul\":3380:3402   */\n      add\n        /* \"#utility.yul\":3359:3412   */\n      tag_190\n      jump\t// in\n    tag_269:\n        /* \"#utility.yul\":3349:3412   */\n      swap3\n      pop\n        /* \"#utility.yul\":3305:3422   */\n      pop\n        /* \"#utility.yul\":3461:3463   */\n      0x20\n        /* \"#utility.yul\":3487:3540   */\n      tag_270\n        /* \"#utility.yul\":3532:3539   */\n      dup6\n        /* \"#utility.yul\":3523:3529   */\n      dup3\n        /* \"#utility.yul\":3512:3521   */\n      dup7\n        /* \"#utility.yul\":3508:3530   */\n      add\n        /* \"#utility.yul\":3487:3540   */\n      tag_193\n      jump\t// in\n    tag_270:\n        /* \"#utility.yul\":3477:3540   */\n      swap2\n      pop\n        /* \"#utility.yul\":3432:3550   */\n      pop\n        /* \"#utility.yul\":3083:3557   */\n      swap3\n      pop\n      swap3\n      swap1\n      pop\n      jump\t// out\n        /* \"#utility.yul\":3563:3659   */\n    tag_194:\n        /* \"#utility.yul\":3600:3607   */\n      0x00\n        /* \"#utility.yul\":3629:3653   */\n      tag_272\n        /* \"#utility.yul\":3647:3652   */\n      dup3\n        /* \"#utility.yul\":3629:3653   */\n      tag_182\n      jump\t// in\n    tag_272:\n        /* \"#utility.yul\":3618:3653   */\n      swap1\n      pop\n        /* \"#utility.yul\":3563:3659   */\n      swap2\n      swap1\n      pop\n      jump\t// out\n        /* \"#utility.yul\":3665:3787   */\n    tag_195:\n        /* \"#utility.yul\":3738:3762   */\n      tag_274\n        /* \"#utility.yul\":3756:3761   */\n      dup2\n        /* \"#utility.yul\":3738:3762   */\n      tag_194\n      jump\t// in\n    tag_274:\n        /* \"#utility.yul\":3731:3736   */\n      dup2\n        /* \"#utility.yul\":3728:3763   */\n      eq\n        /* \"#utility.yul\":3718:3781   */\n      tag_275\n      jumpi\n        /* \"#utility.yul\":3777:3778   */\n      0x00\n        /* \"#utility.yul\":3774:3775   */\n      0x00\n        /* \"#utility.yul\":3767:3779   */\n      revert\n        /* \"#utility.yul\":3718:3781   */\n    tag_275:\n        /* \"#utility.yul\":3665:3787   */\n      pop\n      jump\t// out\n        /* \"#utility.yul\":3793:3932   */\n    tag_196:\n        /* \"#utility.yul\":3839:3844   */\n      0x00\n        /* \"#utility.yul\":3877:3883   */\n      dup2\n        /* \"#utility.yul\":3864:3884   */\n      calldataload\n        /* \"#utility.yul\":3855:3884   */\n      swap1\n      pop\n        /* \"#utility.yul\":3893:3926   */\n      tag_277\n        /* \"#utility.yul\":3920:3925   */\n      dup2\n        /* \"#utility.yul\":3893:3926   */\n      tag_195\n      jump\t// in\n    tag_277:\n        /* \"#utility.yul\":3793:3932   */\n      swap3\n      swap2\n      pop\n      pop\n      jump\t// out\n        /* \"#utility.yul\":3938:4267   */\n    tag_43:\n        /* \"#utility.yul\":3997:4003   */\n      0x00\n        /* \"#utility.yul\":4046:4048   */\n      0x20\n        /* \"#utility.yul\":4034:4043   */\n      dup3\n        /* \"#utility.yul\":4025:4032   */\n      dup5\n        /* \"#utility.yul\":4021:4044   */\n      sub\n        /* \"#utility.yul\":4017:4049   */\n      slt\n        /* \"#utility.yul\":4014:4133   */\n      iszero\n      tag_279\n      jumpi\n        /* \"#utility.yul\":4052:4131   */\n      tag_280\n      tag_186\n      jump\t// in\n    tag_280:\n        /* \"#utility.yul\":4014:4133   */\n    tag_279:\n        /* \"#utility.yul\":4172:4173   */\n      0x00\n        /* \"#utility.yul\":4197:4250   */\n      tag_281\n        /* \"#utility.yul\":4242:4249   */\n      dup5\n        /* \"#utility.yul\":4233:4239   */\n      dup3\n        /* \"#utility.yul\":4222:4231   */\n      dup6\n        /* \"#utility.yul\":4218:4240   */\n      add\n        /* \"#utility.yul\":4197:4250   */\n      tag_196\n      jump\t// in\n    tag_281:\n        /* \"#utility.yul\":4187:4250   */\n      swap2\n      pop\n        /* \"#utility.yul\":4143:4260   */\n      pop\n        /* \"#utility.yul\":3938:4267   */\n      swap3\n      swap2\n      pop\n      pop\n      jump\t// out\n        /* \"#utility.yul\":4273:4391   */\n    tag_197:\n        /* \"#utility.yul\":4360:4384   */\n      tag_283\n        /* \"#utility.yul\":4378:4383   */\n      dup2\n        /* \"#utility.yul\":4360:4384   */\n      tag_191\n      jump\t// in\n    tag_283:\n        /* \"#utility.yul\":4355:4358   */\n      dup3\n        /* \"#utility.yul\":4348:4385   */\n      mstore\n        /* \"#utility.yul\":4273:4391   */\n      pop\n      pop\n      jump\t// out\n        /* \"#utility.yul\":4397:4515   */\n    tag_198:\n        /* \"#utility.yul\":4484:4508   */\n      tag_285\n        /* \"#utility.yul\":4502:4507   */\n      dup2\n        /* \"#utility.yul\":4484:4508   */\n      tag_188\n      jump\t// in\n    tag_285:\n        /* \"#utility.yul\":4479:4482   */\n      dup3\n        /* \"#utility.yul\":4472:4509   */\n      mstore\n        /* \"#utility.yul\":4397:4515   */\n      pop\n      pop\n      jump\t// out\n        /* \"#utility.yul\":4521:4853   */\n    tag_46:\n        /* \"#utility.yul\":4642:4646   */\n      0x00\n        /* \"#utility.yul\":4680:4682   */\n      0x40\n        /* \"#utility.yul\":4669:4678   */\n      dup3\n        /* \"#utility.yul\":4665:4683   */\n      add\n        /* \"#utility.yul\":4657:4683   */\n      swap1\n      pop\n        /* \"#utility.yul\":4693:4764   */\n      tag_287\n        /* \"#utility.yul\":4761:4762   */\n      0x00\n        /* \"#utility.yul\":4750:4759   */\n      dup4\n        /* \"#utility.yul\":4746:4763   */\n      add\n        /* \"#utility.yul\":4737:4743   */\n      dup6\n        /* \"#utility.yul\":4693:4764   */\n      tag_197\n      jump\t// in\n    tag_287:\n        /* \"#utility.yul\":4774:4846   */\n      tag_288\n        /* \"#utility.yul\":4842:4844   */\n      0x20\n        /* \"#utility.yul\":4831:4840   */\n      dup4\n        /* \"#utility.yul\":4827:4845   */\n      add\n        /* \"#utility.yul\":4818:4824   */\n      dup5\n        /* \"#utility.yul\":4774:4846   */\n      tag_198\n      jump\t// in\n    tag_288:\n        /* \"#utility.yul\":4521:4853   */\n      swap4\n      swap3\n      pop\n      pop\n      pop\n      jump\t// out\n        /* \"#utility.yul\":4859:4977   */\n    tag_199:\n        /* \"#utility.yul\":4946:4970   */\n      tag_290\n        /* \"#utility.yul\":4964:4969   */\n      dup2\n        /* \"#utility.yul\":4946:4970   */\n      tag_194\n      jump\t// in\n    tag_290:\n        /* \"#utility.yul\":4941:4944   */\n      dup3\n        /* \"#utility.yul\":4934:4971   */\n      mstore\n        /* \"#utility.yul\":4859:4977   */\n      pop\n      pop\n      jump\t// out\n        /* \"#utility.yul\":4983:5205   */\n    tag_51:\n        /* \"#utility.yul\":5076:5080   */\n      0x00\n        /* \"#utility.yul\":5114:5116   */\n      0x20\n        /* \"#utility.yul\":5103:5112   */\n      dup3\n        /* \"#utility.yul\":5099:5117   */\n      add\n        /* \"#utility.yul\":5091:5117   */\n      swap1\n      pop\n        /* \"#utility.yul\":5127:5198   */\n      tag_292\n        /* \"#utility.yul\":5195:5196   */\n      0x00\n        /* \"#utility.yul\":5184:5193   */\n      dup4\n        /* \"#utility.yul\":5180:5197   */\n      add\n        /* \"#utility.yul\":5171:5177   */\n      dup5\n        /* \"#utility.yul\":5127:5198   */\n      tag_199\n      jump\t// in\n    tag_292:\n        /* \"#utility.yul\":4983:5205   */\n      swap3\n      swap2\n      pop\n      pop\n      jump\t// out\n        /* \"#utility.yul\":5211:5540   */\n    tag_54:\n        /* \"#utility.yul\":5270:5276   */\n      0x00\n        /* \"#utility.yul\":5319:5321   */\n      0x20\n        /* \"#utility.yul\":5307:5316   */\n      dup3\n        /* \"#utility.yul\":5298:5305   */\n      dup5\n        /* \"#utility.yul\":5294:5317   */\n      sub\n        /* \"#utility.yul\":5290:5322   */\n      slt\n        /* \"#utility.yul\":5287:5406   */\n      iszero\n      tag_294\n      jumpi\n        /* \"#utility.yul\":5325:5404   */\n      tag_295\n      tag_186\n      jump\t// in\n    tag_295:\n        /* \"#utility.yul\":5287:5406   */\n    tag_294:\n        /* \"#utility.yul\":5445:5446   */\n      0x00\n        /* \"#utility.yul\":5470:5523   */\n      tag_296\n        /* \"#utility.yul\":5515:5522   */\n      dup5\n        /* \"#utility.yul\":5506:5512   */\n      dup3\n        /* \"#utility.yul\":5495:5504   */\n      dup6\n        /* \"#utility.yul\":5491:5513   */\n      add\n        /* \"#utility.yul\":5470:5523   */\n      tag_193\n      jump\t// in\n    tag_296:\n        /* \"#utility.yul\":5460:5523   */\n      swap2\n      pop\n        /* \"#utility.yul\":5416:5533   */\n      pop\n        /* \"#utility.yul\":5211:5540   */\n      swap3\n      swap2\n      pop\n      pop\n      jump\t// out\n        /* \"#utility.yul\":5546:5768   */\n    tag_63:\n        /* \"#utility.yul\":5639:5643   */\n      0x00\n        /* \"#utility.yul\":5677:5679   */\n      0x20\n        /* \"#utility.yul\":5666:5675   */\n      dup3\n        /* \"#utility.yul\":5662:5680   */\n      add\n        /* \"#utility.yul\":5654:5680   */\n      swap1\n      pop\n        /* \"#utility.yul\":5690:5761   */\n      tag_298\n        /* \"#utility.yul\":5758:5759   */\n      0x00\n        /* \"#utility.yul\":5747:5756   */\n      dup4\n        /* \"#utility.yul\":5743:5760   */\n      add\n        /* \"#utility.yul\":5734:5740   */\n      dup5\n        /* \"#utility.yul\":5690:5761   */\n      tag_198\n      jump\t// in\n    tag_298:\n        /* \"#utility.yul\":5546:5768   */\n      swap3\n      swap2\n      pop\n      pop\n      jump\t// out\n        /* \"#utility.yul\":5774:5943   */\n    tag_200:\n        /* \"#utility.yul\":5858:5869   */\n      0x00\n        /* \"#utility.yul\":5892:5898   */\n      dup3\n        /* \"#utility.yul\":5887:5890   */\n      dup3\n        /* \"#utility.yul\":5880:5899   */\n      mstore\n        /* \"#utility.yul\":5932:5936   */\n      0x20\n        /* \"#utility.yul\":5927:5930   */\n      dup3\n        /* \"#utility.yul\":5923:5937   */\n      add\n        /* \"#utility.yul\":5908:5937   */\n      swap1\n      pop\n        /* \"#utility.yul\":5774:5943   */\n      swap3\n      swap2\n      pop\n      pop\n      jump\t// out\n        /* \"#utility.yul\":5949:6115   */\n    tag_201:\n        /* \"#utility.yul\":6089:6107   */\n      0x4f6e6c792062656e656669636961727900000000000000000000000000000000\n        /* \"#utility.yul\":6085:6086   */\n      0x00\n        /* \"#utility.yul\":6077:6083   */\n      dup3\n        /* \"#utility.yul\":6073:6087   */\n      add\n        /* \"#utility.yul\":6066:6108   */\n      mstore\n        /* \"#utility.yul\":5949:6115   */\n      pop\n      jump\t// out\n        /* \"#utility.yul\":6121:6487   */\n    tag_202:\n        /* \"#utility.yul\":6263:6266   */\n      0x00\n        /* \"#utility.yul\":6284:6351   */\n      tag_302\n        /* \"#utility.yul\":6348:6350   */\n      0x10\n        /* \"#utility.yul\":6343:6346   */\n      dup4\n        /* \"#utility.yul\":6284:6351   */\n      tag_200\n      jump\t// in\n    tag_302:\n        /* \"#utility.yul\":6277:6351   */\n      swap2\n      pop\n        /* \"#utility.yul\":6360:6453   */\n      tag_303\n        /* \"#utility.yul\":6449:6452   */\n      dup3\n        /* \"#utility.yul\":6360:6453   */\n      tag_201\n      jump\t// in\n    tag_303:\n        /* \"#utility.yul\":6478:6480   */\n      0x20\n        /* \"#utility.yul\":6473:6476   */\n      dup3\n        /* \"#utility.yul\":6469:6481   */\n      add\n        /* \"#utility.yul\":6462:6481   */\n      swap1\n      pop\n        /* \"#utility.yul\":6121:6487   */\n      swap2\n      swap1\n      pop\n      jump\t// out\n        /* \"#utility.yul\":6493:6912   */\n    tag_67:\n        /* \"#utility.yul\":6659:6663   */\n      0x00\n        /* \"#utility.yul\":6697:6699   */\n      0x20\n        /* \"#utility.yul\":6686:6695   */\n      dup3\n        /* \"#utility.yul\":6682:6700   */\n      add\n        /* \"#utility.yul\":6674:6700   */\n      swap1\n      pop\n        /* \"#utility.yul\":6746:6755   */\n      dup2\n        /* \"#utility.yul\":6740:6744   */\n      dup2\n        /* \"#utility.yul\":6736:6756   */\n      sub\n        /* \"#utility.yul\":6732:6733   */\n      0x00\n        /* \"#utility.yul\":6721:6730   */\n      dup4\n        /* \"#utility.yul\":6717:6734   */\n      add\n        /* \"#utility.yul\":6710:6757   */\n      mstore\n        /* \"#utility.yul\":6774:6905   */\n      tag_305\n        /* \"#utility.yul\":6900:6904   */\n      dup2\n        /* \"#utility.yul\":6774:6905   */\n      tag_202\n      jump\t// in\n    tag_305:\n        /* \"#utility.yul\":6766:6905   */\n      swap1\n      pop\n        /* \"#utility.yul\":6493:6912   */\n      swap2\n      swap1\n      pop\n      jump\t// out\n        /* \"#utility.yul\":6918:7079   */\n    tag_203:\n        /* \"#utility.yul\":7058:7071   */\n      0x57726f6e67207068617365000000000000000000000000000000000000000000\n        /* \"#utility.yul\":7054:7055   */\n      0x00\n        /* \"#utility.yul\":7046:7052   */\n      dup3\n        /* \"#utility.yul\":7042:7056   */\n      add\n        /* \"#utility.yul\":7035:7072   */\n      mstore\n        /* \"#utility.yul\":6918:7079   */\n      pop\n      jump\t// out\n        /* \"#utility.yul\":7085:7451   */\n    tag_204:\n        /* \"#utility.yul\":7227:7230   */\n      0x00\n        /* \"#utility.yul\":7248:7315   */\n      tag_308\n        /* \"#utility.yul\":7312:7314   */\n      0x0b\n        /* \"#utility.yul\":7307:7310   */\n      dup4\n        /* \"#utility.yul\":7248:7315   */\n      tag_200\n      jump\t// in\n    tag_308:\n        /* \"#utility.yul\":7241:7315   */\n      swap2\n      pop\n        /* \"#utility.yul\":7324:7417   */\n      tag_309\n        /* \"#utility.yul\":7413:7416   */\n      dup3\n        /* \"#utility.yul\":7324:7417   */\n      tag_203\n      jump\t// in\n    tag_309:\n        /* \"#utility.yul\":7442:7444   */\n      0x20\n        /* \"#utility.yul\":7437:7440   */\n      dup3\n        /* \"#utility.yul\":7433:7445   */\n      add\n        /* \"#utility.yul\":7426:7445   */\n      swap1\n      pop\n        /* \"#utility.yul\":7085:7451   */\n      swap2\n      swap1\n      pop\n      jump\t// out\n        /* \"#utility.yul\":7457:7876   */\n    tag_76:\n        /* \"#utility.yul\":7623:7627   */\n      0x00\n        /* \"#utility.yul\":7661:7663   */\n      0x20\n        /* \"#utility.yul\":7650:7659   */\n      dup3\n        /* \"#utility.yul\":7646:7664   */\n      add\n        /* \"#utility.yul\":7638:7664   */\n      swap1\n      pop\n        /* \"#utility.yul\":7710:7719   */\n      dup2\n        /* \"#utility.yul\":7704:7708   */\n      dup2\n        /* \"#utility.yul\":7700:7720   */\n      sub\n        /* \"#utility.yul\":7696:7697   */\n      0x00\n        /* \"#utility.yul\":7685:7694   */\n      dup4\n        /* \"#utility.yul\":7681:7698   */\n      add\n        /* \"#utility.yul\":7674:7721   */\n      mstore\n        /* \"#utility.yul\":7738:7869   */\n      tag_311\n        /* \"#utility.yul\":7864:7868   */\n      dup2\n        /* \"#utility.yul\":7738:7869   */\n      tag_204\n      jump\t// in\n    tag_311:\n        /* \"#utility.yul\":7730:7869   */\n      swap1\n      pop\n        /* \"#utility.yul\":7457:7876   */\n      swap2\n      swap1\n      pop\n      jump\t// out\n        /* \"#utility.yul\":7882:8057   */\n    tag_205:\n        /* \"#utility.yul\":8022:8049   */\n      0x61756374696f6e456e6420616c72656164792063616c6c656400000000000000\n        /* \"#utility.yul\":8018:8019   */\n      0x00\n        /* \"#utility.yul\":8010:8016   */\n      dup3\n        /* \"#utility.yul\":8006:8020   */\n      add\n        /* \"#utility.yul\":7999:8050   */\n      mstore\n        /* \"#utility.yul\":7882:8057   */\n      pop\n      jump\t// out\n        /* \"#utility.yul\":8063:8429   */\n    tag_206:\n        /* \"#utility.yul\":8205:8208   */\n      0x00\n        /* \"#utility.yul\":8226:8293   */\n      tag_314\n        /* \"#utility.yul\":8290:8292   */\n      0x19\n        /* \"#utility.yul\":8285:8288   */\n      dup4\n        /* \"#utility.yul\":8226:8293   */\n      tag_200\n      jump\t// in\n    tag_314:\n        /* \"#utility.yul\":8219:8293   */\n      swap2\n      pop\n        /* \"#utility.yul\":8302:8395   */\n      tag_315\n        /* \"#utility.yul\":8391:8394   */\n      dup3\n        /* \"#utility.yul\":8302:8395   */\n      tag_205\n      jump\t// in\n    tag_315:\n        /* \"#utility.yul\":8420:8422   */\n      0x20\n        /* \"#utility.yul\":8415:8418   */\n      dup3\n        /* \"#utility.yul\":8411:8423   */\n      add\n        /* \"#utility.yul\":8404:8423   */\n      swap1\n      pop\n        /* \"#utility.yul\":8063:8429   */\n      swap2\n      swap1\n      pop\n      jump\t// out\n        /* \"#utility.yul\":8435:8854   */\n    tag_80:\n        /* \"#utility.yul\":8601:8605   */\n      0x00\n        /* \"#utility.yul\":8639:8641   */\n      0x20\n        /* \"#utility.yul\":8628:8637   */\n      dup3\n        /* \"#utility.yul\":8624:8642   */\n      add\n        /* \"#utility.yul\":8616:8642   */\n      swap1\n      pop\n        /* \"#utility.yul\":8688:8697   */\n      dup2\n        /* \"#utility.yul\":8682:8686   */\n      dup2\n        /* \"#utility.yul\":8678:8698   */\n      sub\n        /* \"#utility.yul\":8674:8675   */\n      0x00\n        /* \"#utility.yul\":8663:8672   */\n      dup4\n        /* \"#utility.yul\":8659:8676   */\n      add\n        /* \"#utility.yul\":8652:8699   */\n      mstore\n        /* \"#utility.yul\":8716:8847   */\n      tag_317\n        /* \"#utility.yul\":8842:8846   */\n      dup2\n        /* \"#utility.yul\":8716:8847   */\n      tag_206\n      jump\t// in\n    tag_317:\n        /* \"#utility.yul\":8708:8847   */\n      swap1\n      pop\n        /* \"#utility.yul\":8435:8854   */\n      swap2\n      swap1\n      pop\n      jump\t// out\n        /* \"#utility.yul\":8860:9192   */\n    tag_82:\n        /* \"#utility.yul\":8981:8985   */\n      0x00\n        /* \"#utility.yul\":9019:9021   */\n      0x40\n        /* \"#utility.yul\":9008:9017   */\n      dup3\n        /* \"#utility.yul\":9004:9022   */\n      add\n        /* \"#utility.yul\":8996:9022   */\n      swap1\n      pop\n        /* \"#utility.yul\":9032:9103   */\n      tag_319\n        /* \"#utility.yul\":9100:9101   */\n      0x00\n        /* \"#utility.yul\":9089:9098   */\n      dup4\n        /* \"#utility.yul\":9085:9102   */\n      add\n        /* \"#utility.yul\":9076:9082   */\n      dup6\n        /* \"#utility.yul\":9032:9103   */\n      tag_199\n      jump\t// in\n    tag_319:\n        /* \"#utility.yul\":9113:9185   */\n      tag_320\n        /* \"#utility.yul\":9181:9183   */\n      0x20\n        /* \"#utility.yul\":9170:9179   */\n      dup4\n        /* \"#utility.yul\":9166:9184   */\n      add\n        /* \"#utility.yul\":9157:9163   */\n      dup5\n        /* \"#utility.yul\":9113:9185   */\n      tag_198\n      jump\t// in\n    tag_320:\n        /* \"#utility.yul\":8860:9192   */\n      swap4\n      swap3\n      pop\n      pop\n      pop\n      jump\t// out\n        /* \"#utility.yul\":9198:9367   */\n    tag_207:\n        /* \"#utility.yul\":9338:9359   */\n      0x4e6f7468696e6720746f20776974686472617700000000000000000000000000\n        /* \"#utility.yul\":9334:9335   */\n      0x00\n        /* \"#utility.yul\":9326:9332   */\n      dup3\n        /* \"#utility.yul\":9322:9336   */\n      add\n        /* \"#utility.yul\":9315:9360   */\n      mstore\n        /* \"#utility.yul\":9198:9367   */\n      pop\n      jump\t// out\n        /* \"#utility.yul\":9373:9739   */\n    tag_208:\n        /* \"#utility.yul\":9515:9518   */\n      0x00\n        /* \"#utility.yul\":9536:9603   */\n      tag_323\n        /* \"#utility.yul\":9600:9602   */\n      0x13\n        /* \"#utility.yul\":9595:9598   */\n      dup4\n        /* \"#utility.yul\":9536:9603   */\n      tag_200\n      jump\t// in\n    tag_323:\n        /* \"#utility.yul\":9529:9603   */\n      swap2\n      pop\n        /* \"#utility.yul\":9612:9705   */\n      tag_324\n        /* \"#utility.yul\":9701:9704   */\n      dup3\n        /* \"#utility.yul\":9612:9705   */\n      tag_207\n      jump\t// in\n    tag_324:\n        /* \"#utility.yul\":9730:9732   */\n      0x20\n        /* \"#utility.yul\":9725:9728   */\n      dup3\n        /* \"#utility.yul\":9721:9733   */\n      add\n        /* \"#utility.yul\":9714:9733   */\n      swap1\n      pop\n        /* \"#utility.yul\":9373:9739   */\n      swap2\n      swap1\n      pop\n      jump\t// out\n        /* \"#utility.yul\":9745:10164   */\n    tag_89:\n        /* \"#utility.yul\":9911:9915   */\n      0x00\n        /* \"#utility.yul\":9949:9951   */\n      0x20\n        /* \"#utility.yul\":9938:9947   */\n      dup3\n        /* \"#utility.yul\":9934:9952   */\n      add\n        /* \"#utility.yul\":9926:9952   */\n      swap1\n      pop\n        /* \"#utility.yul\":9998:10007   */\n      dup2\n        /* \"#utility.yul\":9992:9996   */\n      dup2\n        /* \"#utility.yul\":9988:10008   */\n      sub\n        /* \"#utility.yul\":9984:9985   */\n      0x00\n        /* \"#utility.yul\":9973:9982   */\n      dup4\n        /* \"#utility.yul\":9969:9986   */\n      add\n        /* \"#utility.yul\":9962:10009   */\n      mstore\n        /* \"#utility.yul\":10026:10157   */\n      tag_326\n        /* \"#utility.yul\":10152:10156   */\n      dup2\n        /* \"#utility.yul\":10026:10157   */\n      tag_208\n      jump\t// in\n    tag_326:\n        /* \"#utility.yul\":10018:10157   */\n      swap1\n      pop\n        /* \"#utility.yul\":9745:10164   */\n      swap2\n      swap1\n      pop\n      jump\t// out\n        /* \"#utility.yul\":10170:10332   */\n    tag_209:\n        /* \"#utility.yul\":10310:10324   */\n      0x4e6f2062696420666f756e640000000000000000000000000000000000000000\n        /* \"#utility.yul\":10306:10307   */\n      0x00\n        /* \"#utility.yul\":10298:10304   */\n      dup3\n        /* \"#utility.yul\":10294:10308   */\n      add\n        /* \"#utility.yul\":10287:10325   */\n      mstore\n        /* \"#utility.yul\":10170:10332   */\n      pop\n      jump\t// out\n        /* \"#utility.yul\":10338:10704   */\n    tag_210:\n        /* \"#utility.yul\":10480:10483   */\n      0x00\n        /* \"#utility.yul\":10501:10568   */\n      tag_329\n        /* \"#utility.yul\":10565:10567   */\n      0x0c\n        /* \"#utility.yul\":10560:10563   */\n      dup4\n        /* \"#utility.yul\":10501:10568   */\n      tag_200\n      jump\t// in\n    tag_329:\n        /* \"#utility.yul\":10494:10568   */\n      swap2\n      pop\n        /* \"#utility.yul\":10577:10670   */\n      tag_330\n        /* \"#utility.yul\":10666:10669   */\n      dup3\n        /* \"#utility.yul\":10577:10670   */\n      tag_209\n      jump\t// in\n    tag_330:\n        /* \"#utility.yul\":10695:10697   */\n      0x20\n        /* \"#utility.yul\":10690:10693   */\n      dup3\n        /* \"#utility.yul\":10686:10698   */\n      add\n        /* \"#utility.yul\":10679:10698   */\n      swap1\n      pop\n        /* \"#utility.yul\":10338:10704   */\n      swap2\n      swap1\n      pop\n      jump\t// out\n        /* \"#utility.yul\":10710:11129   */\n    tag_102:\n        /* \"#utility.yul\":10876:10880   */\n      0x00\n        /* \"#utility.yul\":10914:10916   */\n      0x20\n        /* \"#utility.yul\":10903:10912   */\n      dup3\n        /* \"#utility.yul\":10899:10917   */\n      add\n        /* \"#utility.yul\":10891:10917   */\n      swap1\n      pop\n        /* \"#utility.yul\":10963:10972   */\n      dup2\n        /* \"#utility.yul\":10957:10961   */\n      dup2\n        /* \"#utility.yul\":10953:10973   */\n      sub\n        /* \"#utility.yul\":10949:10950   */\n      0x00\n        /* \"#utility.yul\":10938:10947   */\n      dup4\n        /* \"#utility.yul\":10934:10951   */\n      add\n        /* \"#utility.yul\":10927:10974   */\n      mstore\n        /* \"#utility.yul\":10991:11122   */\n      tag_332\n        /* \"#utility.yul\":11117:11121   */\n      dup2\n        /* \"#utility.yul\":10991:11122   */\n      tag_210\n      jump\t// in\n    tag_332:\n        /* \"#utility.yul\":10983:11122   */\n      swap1\n      pop\n        /* \"#utility.yul\":10710:11129   */\n      swap2\n      swap1\n      pop\n      jump\t// out\n        /* \"#utility.yul\":11135:11214   */\n    tag_211:\n        /* \"#utility.yul\":11174:11181   */\n      0x00\n        /* \"#utility.yul\":11203:11208   */\n      dup2\n        /* \"#utility.yul\":11192:11208   */\n      swap1\n      pop\n        /* \"#utility.yul\":11135:11214   */\n      swap2\n      swap1\n      pop\n      jump\t// out\n        /* \"#utility.yul\":11220:11377   */\n    tag_212:\n        /* \"#utility.yul\":11325:11370   */\n      tag_335\n        /* \"#utility.yul\":11345:11369   */\n      tag_336\n        /* \"#utility.yul\":11363:11368   */\n      dup3\n        /* \"#utility.yul\":11345:11369   */\n      tag_188\n      jump\t// in\n    tag_336:\n        /* \"#utility.yul\":11325:11370   */\n      tag_211\n      jump\t// in\n    tag_335:\n        /* \"#utility.yul\":11320:11323   */\n      dup3\n        /* \"#utility.yul\":11313:11371   */\n      mstore\n        /* \"#utility.yul\":11220:11377   */\n      pop\n      pop\n      jump\t// out\n        /* \"#utility.yul\":11383:11462   */\n    tag_213:\n        /* \"#utility.yul\":11422:11429   */\n      0x00\n        /* \"#utility.yul\":11451:11456   */\n      dup2\n        /* \"#utility.yul\":11440:11456   */\n      swap1\n      pop\n        /* \"#utility.yul\":11383:11462   */\n      swap2\n      swap1\n      pop\n      jump\t// out\n        /* \"#utility.yul\":11468:11625   */\n    tag_214:\n        /* \"#utility.yul\":11573:11618   */\n      tag_339\n        /* \"#utility.yul\":11593:11617   */\n      tag_340\n        /* \"#utility.yul\":11611:11616   */\n      dup3\n        /* \"#utility.yul\":11593:11617   */\n      tag_191\n      jump\t// in\n    tag_340:\n        /* \"#utility.yul\":11573:11618   */\n      tag_213\n      jump\t// in\n    tag_339:\n        /* \"#utility.yul\":11568:11571   */\n      dup3\n        /* \"#utility.yul\":11561:11619   */\n      mstore\n        /* \"#utility.yul\":11468:11625   */\n      pop\n      pop\n      jump\t// out\n        /* \"#utility.yul\":11631:12028   */\n    tag_104:\n        /* \"#utility.yul\":11771:11774   */\n      0x00\n        /* \"#utility.yul\":11786:11861   */\n      tag_342\n        /* \"#utility.yul\":11857:11860   */\n      dup3\n        /* \"#utility.yul\":11848:11854   */\n      dup6\n        /* \"#utility.yul\":11786:11861   */\n      tag_212\n      jump\t// in\n    tag_342:\n        /* \"#utility.yul\":11886:11888   */\n      0x20\n        /* \"#utility.yul\":11881:11884   */\n      dup3\n        /* \"#utility.yul\":11877:11889   */\n      add\n        /* \"#utility.yul\":11870:11889   */\n      swap2\n      pop\n        /* \"#utility.yul\":11899:11974   */\n      tag_343\n        /* \"#utility.yul\":11970:11973   */\n      dup3\n        /* \"#utility.yul\":11961:11967   */\n      dup5\n        /* \"#utility.yul\":11899:11974   */\n      tag_214\n      jump\t// in\n    tag_343:\n        /* \"#utility.yul\":11999:12001   */\n      0x20\n        /* \"#utility.yul\":11994:11997   */\n      dup3\n        /* \"#utility.yul\":11990:12002   */\n      add\n        /* \"#utility.yul\":11983:12002   */\n      swap2\n      pop\n        /* \"#utility.yul\":12019:12022   */\n      dup2\n        /* \"#utility.yul\":12012:12022   */\n      swap1\n      pop\n        /* \"#utility.yul\":11631:12028   */\n      swap4\n      swap3\n      pop\n      pop\n      pop\n      jump\t// out\n        /* \"#utility.yul\":12034:12197   */\n    tag_215:\n        /* \"#utility.yul\":12174:12189   */\n      0x48617368206d69736d6174636800000000000000000000000000000000000000\n        /* \"#utility.yul\":12170:12171   */\n      0x00\n        /* \"#utility.yul\":12162:12168   */\n      dup3\n        /* \"#utility.yul\":12158:12172   */\n      add\n        /* \"#utility.yul\":12151:12190   */\n      mstore\n        /* \"#utility.yul\":12034:12197   */\n      pop\n      jump\t// out\n        /* \"#utility.yul\":12203:12569   */\n    tag_216:\n        /* \"#utility.yul\":12345:12348   */\n      0x00\n        /* \"#utility.yul\":12366:12433   */\n      tag_346\n        /* \"#utility.yul\":12430:12432   */\n      0x0d\n        /* \"#utility.yul\":12425:12428   */\n      dup4\n        /* \"#utility.yul\":12366:12433   */\n      tag_200\n      jump\t// in\n    tag_346:\n        /* \"#utility.yul\":12359:12433   */\n      swap2\n      pop\n        /* \"#utility.yul\":12442:12535   */\n      tag_347\n        /* \"#utility.yul\":12531:12534   */\n      dup3\n        /* \"#utility.yul\":12442:12535   */\n      tag_215\n      jump\t// in\n    tag_347:\n        /* \"#utility.yul\":12560:12562   */\n      0x20\n        /* \"#utility.yul\":12555:12558   */\n      dup3\n        /* \"#utility.yul\":12551:12563   */\n      add\n        /* \"#utility.yul\":12544:12563   */\n      swap1\n      pop\n        /* \"#utility.yul\":12203:12569   */\n      swap2\n      swap1\n      pop\n      jump\t// out\n        /* \"#utility.yul\":12575:12994   */\n    tag_107:\n        /* \"#utility.yul\":12741:12745   */\n      0x00\n        /* \"#utility.yul\":12779:12781   */\n      0x20\n        /* \"#utility.yul\":12768:12777   */\n      dup3\n        /* \"#utility.yul\":12764:12782   */\n      add\n        /* \"#utility.yul\":12756:12782   */\n      swap1\n      pop\n        /* \"#utility.yul\":12828:12837   */\n      dup2\n        /* \"#utility.yul\":12822:12826   */\n      dup2\n        /* \"#utility.yul\":12818:12838   */\n      sub\n        /* \"#utility.yul\":12814:12815   */\n      0x00\n        /* \"#utility.yul\":12803:12812   */\n      dup4\n        /* \"#utility.yul\":12799:12816   */\n      add\n        /* \"#utility.yul\":12792:12839   */\n      mstore\n        /* \"#utility.yul\":12856:12987   */\n      tag_349\n        /* \"#utility.yul\":12982:12986   */\n      dup2\n        /* \"#utility.yul\":12856:12987   */\n      tag_216\n      jump\t// in\n    tag_349:\n        /* \"#utility.yul\":12848:12987   */\n      swap1\n      pop\n        /* \"#utility.yul\":12575:12994   */\n      swap2\n      swap1\n      pop\n      jump\t// out\n        /* \"#utility.yul\":13000:13180   */\n    tag_217:\n        /* \"#utility.yul\":13048:13125   */\n      0x4e487b7100000000000000000000000000000000000000000000000000000000\n        /* \"#utility.yul\":13045:13046   */\n      0x00\n        /* \"#utility.yul\":13038:13126   */\n      mstore\n        /* \"#utility.yul\":13145:13149   */\n      0x11\n        /* \"#utility.yul\":13142:13143   */\n      0x04\n        /* \"#utility.yul\":13135:13150   */\n      mstore\n        /* \"#utility.yul\":13169:13173   */\n      0x24\n        /* \"#utility.yul\":13166:13167   */\n      0x00\n        /* \"#utility.yul\":13159:13174   */\n      revert\n        /* \"#utility.yul\":13186:13596   */\n    tag_109:\n        /* \"#utility.yul\":13226:13233   */\n      0x00\n        /* \"#utility.yul\":13249:13269   */\n      tag_352\n        /* \"#utility.yul\":13267:13268   */\n      dup3\n        /* \"#utility.yul\":13249:13269   */\n      tag_188\n      jump\t// in\n    tag_352:\n        /* \"#utility.yul\":13244:13269   */\n      swap2\n      pop\n        /* \"#utility.yul\":13283:13303   */\n      tag_353\n        /* \"#utility.yul\":13301:13302   */\n      dup4\n        /* \"#utility.yul\":13283:13303   */\n      tag_188\n      jump\t// in\n    tag_353:\n        /* \"#utility.yul\":13278:13303   */\n      swap3\n      pop\n        /* \"#utility.yul\":13338:13339   */\n      dup3\n        /* \"#utility.yul\":13335:13336   */\n      dup3\n        /* \"#utility.yul\":13331:13340   */\n      mul\n        /* \"#utility.yul\":13360:13390   */\n      tag_354\n        /* \"#utility.yul\":13378:13389   */\n      dup2\n        /* \"#utility.yul\":13360:13390   */\n      tag_188\n      jump\t// in\n    tag_354:\n        /* \"#utility.yul\":13349:13390   */\n      swap2\n      pop\n        /* \"#utility.yul\":13539:13540   */\n      dup3\n        /* \"#utility.yul\":13530:13537   */\n      dup3\n        /* \"#utility.yul\":13526:13541   */\n      div\n        /* \"#utility.yul\":13523:13524   */\n      dup5\n        /* \"#utility.yul\":13520:13542   */\n      eq\n        /* \"#utility.yul\":13500:13501   */\n      dup4\n        /* \"#utility.yul\":13493:13502   */\n      iszero\n        /* \"#utility.yul\":13473:13556   */\n      or\n        /* \"#utility.yul\":13450:13589   */\n      tag_355\n      jumpi\n        /* \"#utility.yul\":13569:13587   */\n      tag_356\n      tag_217\n      jump\t// in\n    tag_356:\n        /* \"#utility.yul\":13450:13589   */\n    tag_355:\n        /* \"#utility.yul\":13234:13596   */\n      pop\n        /* \"#utility.yul\":13186:13596   */\n      swap3\n      swap2\n      pop\n      pop\n      jump\t// out\n        /* \"#utility.yul\":13602:13796   */\n    tag_116:\n        /* \"#utility.yul\":13642:13646   */\n      0x00\n        /* \"#utility.yul\":13662:13682   */\n      tag_358\n        /* \"#utility.yul\":13680:13681   */\n      dup3\n        /* \"#utility.yul\":13662:13682   */\n      tag_188\n      jump\t// in\n    tag_358:\n        /* \"#utility.yul\":13657:13682   */\n      swap2\n      pop\n        /* \"#utility.yul\":13696:13716   */\n      tag_359\n        /* \"#utility.yul\":13714:13715   */\n      dup4\n        /* \"#utility.yul\":13696:13716   */\n      tag_188\n      jump\t// in\n    tag_359:\n        /* \"#utility.yul\":13691:13716   */\n      swap3\n      pop\n        /* \"#utility.yul\":13740:13741   */\n      dup3\n        /* \"#utility.yul\":13737:13738   */\n      dup3\n        /* \"#utility.yul\":13733:13742   */\n      sub\n        /* \"#utility.yul\":13725:13742   */\n      swap1\n      pop\n        /* \"#utility.yul\":13764:13765   */\n      dup2\n        /* \"#utility.yul\":13758:13762   */\n      dup2\n        /* \"#utility.yul\":13755:13766   */\n      gt\n        /* \"#utility.yul\":13752:13789   */\n      iszero\n      tag_360\n      jumpi\n        /* \"#utility.yul\":13769:13787   */\n      tag_361\n      tag_217\n      jump\t// in\n    tag_361:\n        /* \"#utility.yul\":13752:13789   */\n    tag_360:\n        /* \"#utility.yul\":13602:13796   */\n      swap3\n      swap2\n      pop\n      pop\n      jump\t// out\n        /* \"#utility.yul\":13802:13971   */\n    tag_218:\n        /* \"#utility.yul\":13942:13963   */\n      0x496e76616c696420626c696e6465642062696400000000000000000000000000\n        /* \"#utility.yul\":13938:13939   */\n      0x00\n        /* \"#utility.yul\":13930:13936   */\n      dup3\n        /* \"#utility.yul\":13926:13940   */\n      add\n        /* \"#utility.yul\":13919:13964   */\n      mstore\n        /* \"#utility.yul\":13802:13971   */\n      pop\n      jump\t// out\n        /* \"#utility.yul\":13977:14343   */\n    tag_219:\n        /* \"#utility.yul\":14119:14122   */\n      0x00\n        /* \"#utility.yul\":14140:14207   */\n      tag_364\n        /* \"#utility.yul\":14204:14206   */\n      0x13\n        /* \"#utility.yul\":14199:14202   */\n      dup4\n        /* \"#utility.yul\":14140:14207   */\n      tag_200\n      jump\t// in\n    tag_364:\n        /* \"#utility.yul\":14133:14207   */\n      swap2\n      pop\n        /* \"#utility.yul\":14216:14309   */\n      tag_365\n        /* \"#utility.yul\":14305:14308   */\n      dup3\n        /* \"#utility.yul\":14216:14309   */\n      tag_218\n      jump\t// in\n    tag_365:\n        /* \"#utility.yul\":14334:14336   */\n      0x20\n        /* \"#utility.yul\":14329:14332   */\n      dup3\n        /* \"#utility.yul\":14325:14337   */\n      add\n        /* \"#utility.yul\":14318:14337   */\n      swap1\n      pop\n        /* \"#utility.yul\":13977:14343   */\n      swap2\n      swap1\n      pop\n      jump\t// out\n        /* \"#utility.yul\":14349:14768   */\n    tag_130:\n        /* \"#utility.yul\":14515:14519   */\n      0x00\n        /* \"#utility.yul\":14553:14555   */\n      0x20\n        /* \"#utility.yul\":14542:14551   */\n      dup3\n        /* \"#utility.yul\":14538:14556   */\n      add\n        /* \"#utility.yul\":14530:14556   */\n      swap1\n      pop\n        /* \"#utility.yul\":14602:14611   */\n      dup2\n        /* \"#utility.yul\":14596:14600   */\n      dup2\n        /* \"#utility.yul\":14592:14612   */\n      sub\n        /* \"#utility.yul\":14588:14589   */\n      0x00\n        /* \"#utility.yul\":14577:14586   */\n      dup4\n        /* \"#utility.yul\":14573:14590   */\n      add\n        /* \"#utility.yul\":14566:14613   */\n      mstore\n        /* \"#utility.yul\":14630:14761   */\n      tag_367\n        /* \"#utility.yul\":14756:14760   */\n      dup2\n        /* \"#utility.yul\":14630:14761   */\n      tag_219\n      jump\t// in\n    tag_367:\n        /* \"#utility.yul\":14622:14761   */\n      swap1\n      pop\n        /* \"#utility.yul\":14349:14768   */\n      swap2\n      swap1\n      pop\n      jump\t// out\n        /* \"#utility.yul\":14774:14945   */\n    tag_220:\n        /* \"#utility.yul\":14914:14937   */\n      0x42696420616c7265616479207375626d69747465640000000000000000000000\n        /* \"#utility.yul\":14910:14911   */\n      0x00\n        /* \"#utility.yul\":14902:14908   */\n      dup3\n        /* \"#utility.yul\":14898:14912   */\n      add\n        /* \"#utility.yul\":14891:14938   */\n      mstore\n        /* \"#utility.yul\":14774:14945   */\n      pop\n      jump\t// out\n        /* \"#utility.yul\":14951:15317   */\n    tag_221:\n        /* \"#utility.yul\":15093:15096   */\n      0x00\n        /* \"#utility.yul\":15114:15181   */\n      tag_370\n        /* \"#utility.yul\":15178:15180   */\n      0x15\n        /* \"#utility.yul\":15173:15176   */\n      dup4\n        /* \"#utility.yul\":15114:15181   */\n      tag_200\n      jump\t// in\n    tag_370:\n        /* \"#utility.yul\":15107:15181   */\n      swap2\n      pop\n        /* \"#utility.yul\":15190:15283   */\n      tag_371\n        /* \"#utility.yul\":15279:15282   */\n      dup3\n        /* \"#utility.yul\":15190:15283   */\n      tag_220\n      jump\t// in\n    tag_371:\n        /* \"#utility.yul\":15308:15310   */\n      0x20\n        /* \"#utility.yul\":15303:15306   */\n      dup3\n        /* \"#utility.yul\":15299:15311   */\n      add\n        /* \"#utility.yul\":15292:15311   */\n      swap1\n      pop\n        /* \"#utility.yul\":14951:15317   */\n      swap2\n      swap1\n      pop\n      jump\t// out\n        /* \"#utility.yul\":15323:15742   */\n    tag_133:\n        /* \"#utility.yul\":15489:15493   */\n      0x00\n        /* \"#utility.yul\":15527:15529   */\n      0x20\n        /* \"#utility.yul\":15516:15525   */\n      dup3\n        /* \"#utility.yul\":15512:15530   */\n      add\n        /* \"#utility.yul\":15504:15530   */\n      swap1\n      pop\n        /* \"#utility.yul\":15576:15585   */\n      dup2\n        /* \"#utility.yul\":15570:15574   */\n      dup2\n        /* \"#utility.yul\":15566:15586   */\n      sub\n        /* \"#utility.yul\":15562:15563   */\n      0x00\n        /* \"#utility.yul\":15551:15560   */\n      dup4\n        /* \"#utility.yul\":15547:15564   */\n      add\n        /* \"#utility.yul\":15540:15587   */\n      mstore\n        /* \"#utility.yul\":15604:15735   */\n      tag_373\n        /* \"#utility.yul\":15730:15734   */\n      dup2\n        /* \"#utility.yul\":15604:15735   */\n      tag_221\n      jump\t// in\n    tag_373:\n        /* \"#utility.yul\":15596:15735   */\n      swap1\n      pop\n        /* \"#utility.yul\":15323:15742   */\n      swap2\n      swap1\n      pop\n      jump\t// out\n        /* \"#utility.yul\":15748:15917   */\n    tag_222:\n        /* \"#utility.yul\":15888:15909   */\n      0x4465706f736974206d757374206265203e203000000000000000000000000000\n        /* \"#utility.yul\":15884:15885   */\n      0x00\n        /* \"#utility.yul\":15876:15882   */\n      dup3\n        /* \"#utility.yul\":15872:15886   */\n      add\n        /* \"#utility.yul\":15865:15910   */\n      mstore\n        /* \"#utility.yul\":15748:15917   */\n      pop\n      jump\t// out\n        /* \"#utility.yul\":15923:16289   */\n    tag_223:\n        /* \"#utility.yul\":16065:16068   */\n      0x00\n        /* \"#utility.yul\":16086:16153   */\n      tag_376\n        /* \"#utility.yul\":16150:16152   */\n      0x13\n        /* \"#utility.yul\":16145:16148   */\n      dup4\n        /* \"#utility.yul\":16086:16153   */\n      tag_200\n      jump\t// in\n    tag_376:\n        /* \"#utility.yul\":16079:16153   */\n      swap2\n      pop\n        /* \"#utility.yul\":16162:16255   */\n      tag_377\n        /* \"#utility.yul\":16251:16254   */\n      dup3\n        /* \"#utility.yul\":16162:16255   */\n      tag_222\n      jump\t// in\n    tag_377:\n        /* \"#utility.yul\":16280:16282   */\n      0x20\n        /* \"#utility.yul\":16275:16278   */\n      dup3\n        /* \"#utility.yul\":16271:16283   */\n      add\n        /* \"#utility.yul\":16264:16283   */\n      swap1\n      pop\n        /* \"#utility.yul\":15923:16289   */\n      swap2\n      swap1\n      pop\n      jump\t// out\n        /* \"#utility.yul\":16295:16714   */\n    tag_136:\n        /* \"#utility.yul\":16461:16465   */\n      0x00\n        /* \"#utility.yul\":16499:16501   */\n      0x20\n        /* \"#utility.yul\":16488:16497   */\n      dup3\n        /* \"#utility.yul\":16484:16502   */\n      add\n        /* \"#utility.yul\":16476:16502   */\n      swap1\n      pop\n        /* \"#utility.yul\":16548:16557   */\n      dup2\n        /* \"#utility.yul\":16542:16546   */\n      dup2\n        /* \"#utility.yul\":16538:16558   */\n      sub\n        /* \"#utility.yul\":16534:16535   */\n      0x00\n        /* \"#utility.yul\":16523:16532   */\n      dup4\n        /* \"#utility.yul\":16519:16536   */\n      add\n        /* \"#utility.yul\":16512:16559   */\n      mstore\n        /* \"#utility.yul\":16576:16707   */\n      tag_379\n        /* \"#utility.yul\":16702:16706   */\n      dup2\n        /* \"#utility.yul\":16576:16707   */\n      tag_223\n      jump\t// in\n    tag_379:\n        /* \"#utility.yul\":16568:16707   */\n      swap1\n      pop\n        /* \"#utility.yul\":16295:16714   */\n      swap2\n      swap1\n      pop\n      jump\t// out\n        /* \"#utility.yul\":16720:16888   */\n    tag_224:\n        /* \"#utility.yul\":16860:16880   */\n      0x416c7265616479206c6173742070686173650000000000000000000000000000\n        /* \"#utility.yul\":16856:16857   */\n      0x00\n        /* \"#utility.yul\":16848:16854   */\n      dup3\n        /* \"#utility.yul\":16844:16858   */\n      add\n        /* \"#utility.yul\":16837:16881   */\n      mstore\n        /* \"#utility.yul\":16720:16888   */\n      pop\n      jump\t// out\n        /* \"#utility.yul\":16894:17260   */\n    tag_225:\n        /* \"#utility.yul\":17036:17039   */\n      0x00\n        /* \"#utility.yul\":17057:17124   */\n      tag_382\n        /* \"#utility.yul\":17121:17123   */\n      0x12\n        /* \"#utility.yul\":17116:17119   */\n      dup4\n        /* \"#utility.yul\":17057:17124   */\n      tag_200\n      jump\t// in\n    tag_382:\n        /* \"#utility.yul\":17050:17124   */\n      swap2\n      pop\n        /* \"#utility.yul\":17133:17226   */\n      tag_383\n        /* \"#utility.yul\":17222:17225   */\n      dup3\n        /* \"#utility.yul\":17133:17226   */\n      tag_224\n      jump\t// in\n    tag_383:\n        /* \"#utility.yul\":17251:17253   */\n      0x20\n        /* \"#utility.yul\":17246:17249   */\n      dup3\n        /* \"#utility.yul\":17242:17254   */\n      add\n        /* \"#utility.yul\":17235:17254   */\n      swap1\n      pop\n        /* \"#utility.yul\":16894:17260   */\n      swap2\n      swap1\n      pop\n      jump\t// out\n        /* \"#utility.yul\":17266:17685   */\n    tag_147:\n        /* \"#utility.yul\":17432:17436   */\n      0x00\n        /* \"#utility.yul\":17470:17472   */\n      0x20\n        /* \"#utility.yul\":17459:17468   */\n      dup3\n        /* \"#utility.yul\":17455:17473   */\n      add\n        /* \"#utility.yul\":17447:17473   */\n      swap1\n      pop\n        /* \"#utility.yul\":17519:17528   */\n      dup2\n        /* \"#utility.yul\":17513:17517   */\n      dup2\n        /* \"#utility.yul\":17509:17529   */\n      sub\n        /* \"#utility.yul\":17505:17506   */\n      0x00\n        /* \"#utility.yul\":17494:17503   */\n      dup4\n        /* \"#utility.yul\":17490:17507   */\n      add\n        /* \"#utility.yul\":17483:17530   */\n      mstore\n        /* \"#utility.yul\":17547:17678   */\n      tag_385\n        /* \"#utility.yul\":17673:17677   */\n      dup2\n        /* \"#utility.yul\":17547:17678   */\n      tag_225\n      jump\t// in\n    tag_385:\n        /* \"#utility.yul\":17539:17678   */\n      swap1\n      pop\n        /* \"#utility.yul\":17266:17685   */\n      swap2\n      swap1\n      pop\n      jump\t// out\n        /* \"#utility.yul\":17691:17882   */\n    tag_175:\n        /* \"#utility.yul\":17731:17734   */\n      0x00\n        /* \"#utility.yul\":17750:17770   */\n      tag_387\n        /* \"#utility.yul\":17768:17769   */\n      dup3\n        /* \"#utility.yul\":17750:17770   */\n      tag_188\n      jump\t// in\n    tag_387:\n        /* \"#utility.yul\":17745:17770   */\n      swap2\n      pop\n        /* \"#utility.yul\":17784:17804   */\n      tag_388\n        /* \"#utility.yul\":17802:17803   */\n      dup4\n        /* \"#utility.yul\":17784:17804   */\n      tag_188\n      jump\t// in\n    tag_388:\n        /* \"#utility.yul\":17779:17804   */\n      swap3\n      pop\n        /* \"#utility.yul\":17827:17828   */\n      dup3\n        /* \"#utility.yul\":17824:17825   */\n      dup3\n        /* \"#utility.yul\":17820:17829   */\n      add\n        /* \"#utility.yul\":17813:17829   */\n      swap1\n      pop\n        /* \"#utility.yul\":17848:17851   */\n      dup1\n        /* \"#utility.yul\":17845:17846   */\n      dup3\n        /* \"#utility.yul\":17842:17852   */\n      gt\n        /* \"#utility.yul\":17839:17875   */\n      iszero\n      tag_389\n      jumpi\n        /* \"#utility.yul\":17855:17873   */\n      tag_390\n      tag_217\n      jump\t// in\n    tag_390:\n        /* \"#utility.yul\":17839:17875   */\n    tag_389:\n        /* \"#utility.yul\":17691:17882   */\n      swap3\n      swap2\n      pop\n      pop\n      jump\t// out\n\n    auxdata: 0xa26469706673582212205c01110afa458c6cbcb1553aa82b7737bac4f19ded8e280a948b55984756953464736f6c634300081e0033\n}\n",
				"bytecode": {
					"linkReferences": {},
					"object": "60806040525f6002555f60055f6101000a81548160ff02191690836003811115602957602860a8565b5b02179055503480156038575f5ffd5b50335f5f6101000a81548173ffffffffffffffffffffffffffffffffffffffff021916908373ffffffffffffffffffffffffffffffffffffffff1602179055507f8ad2842071cb64589c8e006941bc20b615aae08a93530e211ca7c9639bd26d9760405160405180910390a160d5565b7f4e487b71000000000000000000000000000000000000000000000000000000005f52602160045260245ffd5b6116ba806100e25f395ff3fe60806040526004361061009b575f3560e01c80634036778f116100635780634036778f1461014957806362ea82db1461017157806391f90157146101ae578063957bb1e0146101d8578063be25a718146101f4578063d57bde791461020a5761009b565b8063055ad42e1461009f57806312fa6feb146100c95780632a24f46c146100f357806338af3eed146101095780633ccfd60b14610133575b5f5ffd5b3480156100aa575f5ffd5b506100b3610234565b6040516100c09190610e9b565b60405180910390f35b3480156100d4575f5ffd5b506100dd610246565b6040516100ea9190610ece565b60405180910390f35b3480156100fe575f5ffd5b50610107610259565b005b348015610114575f5ffd5b5061011d610498565b60405161012a9190610f26565b60405180910390f35b34801561013e575f5ffd5b506101476104bc565b005b348015610154575f5ffd5b5061016f600480360381019061016a9190610fa9565b6105c8565b005b34801561017c575f5ffd5b5061019760048036038101906101929190611022565b610830565b6040516101a592919061106b565b60405180910390f35b3480156101b9575f5ffd5b506101c2610850565b6040516101cf91906110a1565b60405180910390f35b6101f260048036038101906101ed91906110ba565b610875565b005b3480156101ff575f5ffd5b50610208610a5f565b005b348015610215575f5ffd5b5061021e610cf3565b60405161022b91906110e5565b60405180910390f35b60055f9054906101000a900460ff1681565b600560019054906101000a900460ff1681565b5f5f9054906101000a900473ffffffffffffffffffffffffffffffffffffffff1673ffffffffffffffffffffffffffffffffffffffff163373ffffffffffffffffffffffffffffffffffffffff16146102e7576040517f08c379a00000000000000000000000000000000000000000000000000000000081526004016102de90611158565b60405180910390fd5b60038060038111156102fc576102fb610e28565b5b60055f9054906101000a900460ff16600381111561031d5761031c610e28565b5b1461035d576040517f08c379a0000000000000000000000000000000000000000000000000000000008152600401610354906111c0565b60405180910390fd5b600560019054906101000a900460ff16156103ad576040517f08c379a00000000000000000000000000000000000000000000000000000000081526004016103a490611228565b60405180910390fd5b6001600560016101000a81548160ff0219169083151502179055507fdaec4582d5d9595688c8c98545fdd1c696d41c6aeaeb636737e84ed2f5c00eda60015f9054906101000a900473ffffffffffffffffffffffffffffffffffffffff1660025460405161041c929190611246565b60405180910390a15f6002541115610495575f5f9054906101000a900473ffffffffffffffffffffffffffffffffffffffff1673ffffffffffffffffffffffffffffffffffffffff166108fc60025490811502906040515f60405180830381858888f19350505050158015610493573d5f5f3e3d5ffd5b505b50565b5f5f9054906101000a900473ffffffffffffffffffffffffffffffffffffffff1681565b5f60045f3373ffffffffffffffffffffffffffffffffffffffff1673ffffffffffffffffffffffffffffffffffffffff1681526020019081526020015f205490505f811161053f576040517f08c379a0000000000000000000000000000000000000000000000000000000008152600401610536906112b7565b60405180910390fd5b5f60045f3373ffffffffffffffffffffffffffffffffffffffff1673ffffffffffffffffffffffffffffffffffffffff1681526020019081526020015f20819055503373ffffffffffffffffffffffffffffffffffffffff166108fc8290811502906040515f60405180830381858888f193505050501580156105c4573d5f5f3e3d5ffd5b5050565b60028060038111156105dd576105dc610e28565b5b60055f9054906101000a900460ff1660038111156105fe576105fd610e28565b5b1461063e576040517f08c379a0000000000000000000000000000000000000000000000000000000008152600401610635906111c0565b60405180910390fd5b5f60035f3373ffffffffffffffffffffffffffffffffffffffff1673ffffffffffffffffffffffffffffffffffffffff1681526020019081526020015f2090505f8160010154116106c4576040517f08c379a00000000000000000000000000000000000000000000000000000000081526004016106bb9061131f565b60405180910390fd5b5f84846040516020016106d892919061137d565b604051602081830303815290604052805190602001209050815f01548114610735576040517f08c379a000000000000000000000000000000000000000000000000000000000815260040161072c906113f2565b60405180910390fd5b5f670de0b6b3a76400008661074a919061143d565b90505f5f1b60035f3373ffffffffffffffffffffffffffffffffffffffff1673ffffffffffffffffffffffffffffffffffffffff1681526020019081526020015f205f01819055505f83600101549050868460010154101580156107ad57505f87115b156107d1576107bc3383610cf9565b156107d05781816107cd919061147e565b90505b5b5f84600101819055505f811115610827573373ffffffffffffffffffffffffffffffffffffffff166108fc8290811502906040515f60405180830381858888f19350505050158015610825573d5f5f3e3d5ffd5b505b50505050505050565b6003602052805f5260405f205f91509050805f0154908060010154905082565b60015f9054906101000a900473ffffffffffffffffffffffffffffffffffffffff1681565b600180600381111561088a57610889610e28565b5b60055f9054906101000a900460ff1660038111156108ab576108aa610e28565b5b146108eb576040517f08c379a00000000000000000000000000000000000000000000000000000000081526004016108e2906111c0565b60405180910390fd5b5f5f1b820361092f576040517f08c379a0000000000000000000000000000000000000000000000000000000008152600401610926906114fb565b60405180910390fd5b5f5f1b60035f3373ffffffffffffffffffffffffffffffffffffffff1673ffffffffffffffffffffffffffffffffffffffff1681526020019081526020015f205f0154146109b2576040517f08c379a00000000000000000000000000000000000000000000000000000000081526004016109a990611563565b60405180910390fd5b5f34116109f4576040517f08c379a00000000000000000000000000000000000000000000000000000000081526004016109eb906115cb565b60405180910390fd5b60405180604001604052808381526020013481525060035f3373ffffffffffffffffffffffffffffffffffffffff1673ffffffffffffffffffffffffffffffffffffffff1681526020019081526020015f205f820151815f0155602082015181600101559050505050565b5f5f9054906101000a900473ffffffffffffffffffffffffffffffffffffffff1673ffffffffffffffffffffffffffffffffffffffff163373ffffffffffffffffffffffffffffffffffffffff1614610aed576040517f08c379a0000000000000000000000000000000000000000000000000000000008152600401610ae490611158565b60405180910390fd5b600380811115610b0057610aff610e28565b5b60055f9054906101000a900460ff166003811115610b2157610b20610e28565b5b03610b61576040517f08c379a0000000000000000000000000000000000000000000000000000000008152600401610b5890611633565b60405180910390fd5b5f6003811115610b7457610b73610e28565b5b60055f9054906101000a900460ff166003811115610b9557610b94610e28565b5b03610bf557600160055f6101000a81548160ff02191690836003811115610bbf57610bbe610e28565b5b02179055507f02c124e22ee7da1c9905bbb317cf67658c1cc3ea1c0953b1633f85d0b5c281d960405160405180910390a1610cf1565b60016003811115610c0957610c08610e28565b5b60055f9054906101000a900460ff166003811115610c2a57610c29610e28565b5b03610c8a57600260055f6101000a81548160ff02191690836003811115610c5457610c53610e28565b5b02179055507f3bcc93d35219aa0512d7c0d1ca10b0231f473e3d5f9396877d1b7215ee0ab3d560405160405180910390a1610cf0565b60026003811115610c9e57610c9d610e28565b5b60055f9054906101000a900460ff166003811115610cbf57610cbe610e28565b5b03610cef57600360055f6101000a81548160ff02191690836003811115610ce957610ce8610e28565b5b02179055505b5b5b565b60025481565b5f6002548211610d0b575f9050610e22565b5f73ffffffffffffffffffffffffffffffffffffffff1660015f9054906101000a900473ffffffffffffffffffffffffffffffffffffffff1673ffffffffffffffffffffffffffffffffffffffff1614610dd65760025460045f60015f9054906101000a900473ffffffffffffffffffffffffffffffffffffffff1673ffffffffffffffffffffffffffffffffffffffff1673ffffffffffffffffffffffffffffffffffffffff1681526020019081526020015f205f828254610dce9190611651565b925050819055505b816002819055508260015f6101000a81548173ffffffffffffffffffffffffffffffffffffffff021916908373ffffffffffffffffffffffffffffffffffffffff160217905550600190505b92915050565b7f4e487b71000000000000000000000000000000000000000000000000000000005f52602160045260245ffd5b60048110610e6657610e65610e28565b5b50565b5f819050610e7682610e55565b919050565b5f610e8582610e69565b9050919050565b610e9581610e7b565b82525050565b5f602082019050610eae5f830184610e8c565b92915050565b5f8115159050919050565b610ec881610eb4565b82525050565b5f602082019050610ee15f830184610ebf565b92915050565b5f73ffffffffffffffffffffffffffffffffffffffff82169050919050565b5f610f1082610ee7565b9050919050565b610f2081610f06565b82525050565b5f602082019050610f395f830184610f17565b92915050565b5f5ffd5b5f819050919050565b610f5581610f43565b8114610f5f575f5ffd5b50565b5f81359050610f7081610f4c565b92915050565b5f819050919050565b610f8881610f76565b8114610f92575f5ffd5b50565b5f81359050610fa381610f7f565b92915050565b5f5f60408385031215610fbf57610fbe610f3f565b5b5f610fcc85828601610f62565b9250506020610fdd85828601610f95565b9150509250929050565b5f610ff182610ee7565b9050919050565b61100181610fe7565b811461100b575f5ffd5b50565b5f8135905061101c81610ff8565b92915050565b5f6020828403121561103757611036610f3f565b5b5f6110448482850161100e565b91505092915050565b61105681610f76565b82525050565b61106581610f43565b82525050565b5f60408201905061107e5f83018561104d565b61108b602083018461105c565b9392505050565b61109b81610fe7565b82525050565b5f6020820190506110b45f830184611092565b92915050565b5f602082840312156110cf576110ce610f3f565b5b5f6110dc84828501610f95565b91505092915050565b5f6020820190506110f85f83018461105c565b92915050565b5f82825260208201905092915050565b7f4f6e6c792062656e6566696369617279000000000000000000000000000000005f82015250565b5f6111426010836110fe565b915061114d8261110e565b602082019050919050565b5f6020820190508181035f83015261116f81611136565b9050919050565b7f57726f6e672070686173650000000000000000000000000000000000000000005f82015250565b5f6111aa600b836110fe565b91506111b582611176565b602082019050919050565b5f6020820190508181035f8301526111d78161119e565b9050919050565b7f61756374696f6e456e6420616c72656164792063616c6c6564000000000000005f82015250565b5f6112126019836110fe565b915061121d826111de565b602082019050919050565b5f6020820190508181035f83015261123f81611206565b9050919050565b5f6040820190506112595f830185611092565b611266602083018461105c565b9392505050565b7f4e6f7468696e6720746f207769746864726177000000000000000000000000005f82015250565b5f6112a16013836110fe565b91506112ac8261126d565b602082019050919050565b5f6020820190508181035f8301526112ce81611295565b9050919050565b7f4e6f2062696420666f756e6400000000000000000000000000000000000000005f82015250565b5f611309600c836110fe565b9150611314826112d5565b602082019050919050565b5f6020820190508181035f830152611336816112fd565b9050919050565b5f819050919050565b61135761135282610f43565b61133d565b82525050565b5f819050919050565b61137761137282610f76565b61135d565b82525050565b5f6113888285611346565b6020820191506113988284611366565b6020820191508190509392505050565b7f48617368206d69736d61746368000000000000000000000000000000000000005f82015250565b5f6113dc600d836110fe565b91506113e7826113a8565b602082019050919050565b5f6020820190508181035f830152611409816113d0565b9050919050565b7f4e487b71000000000000000000000000000000000000000000000000000000005f52601160045260245ffd5b5f61144782610f43565b915061145283610f43565b925082820261146081610f43565b9150828204841483151761147757611476611410565b5b5092915050565b5f61148882610f43565b915061149383610f43565b92508282039050818111156114ab576114aa611410565b5b92915050565b7f496e76616c696420626c696e64656420626964000000000000000000000000005f82015250565b5f6114e56013836110fe565b91506114f0826114b1565b602082019050919050565b5f6020820190508181035f830152611512816114d9565b9050919050565b7f42696420616c7265616479207375626d697474656400000000000000000000005f82015250565b5f61154d6015836110fe565b915061155882611519565b602082019050919050565b5f6020820190508181035f83015261157a81611541565b9050919050565b7f4465706f736974206d757374206265203e2030000000000000000000000000005f82015250565b5f6115b56013836110fe565b91506115c082611581565b602082019050919050565b5f6020820190508181035f8301526115e2816115a9565b9050919050565b7f416c7265616479206c61737420706861736500000000000000000000000000005f82015250565b5f61161d6012836110fe565b9150611628826115e9565b602082019050919050565b5f6020820190508181035f83015261164a81611611565b9050919050565b5f61165b82610f43565b915061166683610f43565b925082820190508082111561167e5761167d611410565b5b9291505056fea26469706673582212205c01110afa458c6cbcb1553aa82b7737bac4f19ded8e280a948b55984756953464736f6c634300081e0033",
					"opcodes": "PUSH1 0x80 PUSH1 0x40 MSTORE PUSH0 PUSH1 0x2 SSTORE PUSH0 PUSH1 0x5 PUSH0 PUSH2 0x100 EXP DUP2 SLOAD DUP2 PUSH1 0xFF MUL NOT AND SWAP1 DUP4 PUSH1 0x3 DUP2 GT ISZERO PUSH1 0x29 JUMPI PUSH1 0x28 PUSH1 0xA8 JUMP JUMPDEST JUMPDEST MUL OR SWAP1 SSTORE POP CALLVALUE DUP1 ISZERO PUSH1 0x38 JUMPI PUSH0 PUSH0 REVERT JUMPDEST POP CALLER PUSH0 PUSH0 PUSH2 0x100 EXP DUP2 SLOAD DUP2 PUSH20 0xFFFFFFFFFFFFFFFFFFFFFFFFFFFFFFFFFFFFFFFF MUL NOT AND SWAP1 DUP4 PUSH20 0xFFFFFFFFFFFFFFFFFFFFFFFFFFFFFFFFFFFFFFFF AND MUL OR SWAP1 SSTORE POP PUSH32 0x8AD2842071CB64589C8E006941BC20B615AAE08A93530E211CA7C9639BD26D97 PUSH1 0x40 MLOAD PUSH1 0x40 MLOAD DUP1 SWAP2 SUB SWAP1 LOG1 PUSH1 0xD5 JUMP JUMPDEST PUSH32 0x4E487B7100000000000000000000000000000000000000000000000000000000 PUSH0 MSTORE PUSH1 0x21 PUSH1 0x4 MSTORE PUSH1 0x24 PUSH0 REVERT JUMPDEST PUSH2 0x16BA DUP1 PUSH2 0xE2 PUSH0 CODECOPY PUSH0 RETURN INVALID PUSH1 0x80 PUSH1 0x40 MSTORE PUSH1 0x4 CALLDATASIZE LT PUSH2 0x9B JUMPI PUSH0 CALLDATALOAD PUSH1 0xE0 SHR DUP1 PUSH4 0x4036778F GT PUSH2 0x63 JUMPI DUP1 PUSH4 0x4036778F EQ PUSH2 0x149 JUMPI DUP1 PUSH4 0x62EA82DB EQ PUSH2 0x171 JUMPI DUP1 PUSH4 0x91F90157 EQ PUSH2 0x1AE JUMPI DUP1 PUSH4 0x957BB1E0 EQ PUSH2 0x1D8 JUMPI DUP1 PUSH4 0xBE25A718 EQ PUSH2 0x1F4 JUMPI DUP1 PUSH4 0xD57BDE79 EQ PUSH2 0x20A JUMPI PUSH2 0x9B JUMP JUMPDEST DUP1 PUSH4 0x55AD42E EQ PUSH2 0x9F JUMPI DUP1 PUSH4 0x12FA6FEB EQ PUSH2 0xC9 JUMPI DUP1 PUSH4 0x2A24F46C EQ PUSH2 0xF3 JUMPI DUP1 PUSH4 0x38AF3EED EQ PUSH2 0x109 JUMPI DUP1 PUSH4 0x3CCFD60B EQ PUSH2 0x133 JUMPI JUMPDEST PUSH0 PUSH0 REVERT JUMPDEST CALLVALUE DUP1 ISZERO PUSH2 0xAA JUMPI PUSH0 PUSH0 REVERT JUMPDEST POP PUSH2 0xB3 PUSH2 0x234 JUMP JUMPDEST PUSH1 0x40 MLOAD PUSH2 0xC0 SWAP2 SWAP1 PUSH2 0xE9B JUMP JUMPDEST PUSH1 0x40 MLOAD DUP1 SWAP2 SUB SWAP1 RETURN JUMPDEST CALLVALUE DUP1 ISZERO PUSH2 0xD4 JUMPI PUSH0 PUSH0 REVERT JUMPDEST POP PUSH2 0xDD PUSH2 0x246 JUMP JUMPDEST PUSH1 0x40 MLOAD PUSH2 0xEA SWAP2 SWAP1 PUSH2 0xECE JUMP JUMPDEST PUSH1 0x40 MLOAD DUP1 SWAP2 SUB SWAP1 RETURN JUMPDEST CALLVALUE DUP1 ISZERO PUSH2 0xFE JUMPI PUSH0 PUSH0 REVERT JUMPDEST POP PUSH2 0x107 PUSH2 0x259 JUMP JUMPDEST STOP JUMPDEST CALLVALUE DUP1 ISZERO PUSH2 0x114 JUMPI PUSH0 PUSH0 REVERT JUMPDEST POP PUSH2 0x11D PUSH2 0x498 JUMP JUMPDEST PUSH1 0x40 MLOAD PUSH2 0x12A SWAP2 SWAP1 PUSH2 0xF26 JUMP JUMPDEST PUSH1 0x40 MLOAD DUP1 SWAP2 SUB SWAP1 RETURN JUMPDEST CALLVALUE DUP1 ISZERO PUSH2 0x13E JUMPI PUSH0 PUSH0 REVERT JUMPDEST POP PUSH2 0x147 PUSH2 0x4BC JUMP JUMPDEST STOP JUMPDEST CALLVALUE DUP1 ISZERO PUSH2 0x154 JUMPI PUSH0 PUSH0 REVERT JUMPDEST POP PUSH2 0x16F PUSH1 0x4 DUP1 CALLDATASIZE SUB DUP2 ADD SWAP1 PUSH2 0x16A SWAP2 SWAP1 PUSH2 0xFA9 JUMP JUMPDEST PUSH2 0x5C8 JUMP JUMPDEST STOP JUMPDEST CALLVALUE DUP1 ISZERO PUSH2 0x17C JUMPI PUSH0 PUSH0 REVERT JUMPDEST POP PUSH2 0x197 PUSH1 0x4 DUP1 CALLDATASIZE SUB DUP2 ADD SWAP1 PUSH2 0x192 SWAP2 SWAP1 PUSH2 0x1022 JUMP JUMPDEST PUSH2 0x830 JUMP JUMPDEST PUSH1 0x40 MLOAD PUSH2 0x1A5 SWAP3 SWAP2 SWAP1 PUSH2 0x106B JUMP JUMPDEST PUSH1 0x40 MLOAD DUP1 SWAP2 SUB SWAP1 RETURN JUMPDEST CALLVALUE DUP1 ISZERO PUSH2 0x1B9 JUMPI PUSH0 PUSH0 REVERT JUMPDEST POP PUSH2 0x1C2 PUSH2 0x850 JUMP JUMPDEST PUSH1 0x40 MLOAD PUSH2 0x1CF SWAP2 SWAP1 PUSH2 0x10A1 JUMP JUMPDEST PUSH1 0x40 MLOAD DUP1 SWAP2 SUB SWAP1 RETURN JUMPDEST PUSH2 0x1F2 PUSH1 0x4 DUP1 CALLDATASIZE SUB DUP2 ADD SWAP1 PUSH2 0x1ED SWAP2 SWAP1 PUSH2 0x10BA JUMP JUMPDEST PUSH2 0x875 JUMP JUMPDEST STOP JUMPDEST CALLVALUE DUP1 ISZERO PUSH2 0x1FF JUMPI PUSH0 PUSH0 REVERT JUMPDEST POP PUSH2 0x208 PUSH2 0xA5F JUMP JUMPDEST STOP JUMPDEST CALLVALUE DUP1 ISZERO PUSH2 0x215 JUMPI PUSH0 PUSH0 REVERT JUMPDEST POP PUSH2 0x21E PUSH2 0xCF3 JUMP JUMPDEST PUSH1 0x40 MLOAD PUSH2 0x22B SWAP2 SWAP1 PUSH2 0x10E5 JUMP JUMPDEST PUSH1 0x40 MLOAD DUP1 SWAP2 SUB SWAP1 RETURN JUMPDEST PUSH1 0x5 PUSH0 SWAP1 SLOAD SWAP1 PUSH2 0x100 EXP SWAP1 DIV PUSH1 0xFF AND DUP2 JUMP JUMPDEST PUSH1 0x5 PUSH1 0x1 SWAP1 SLOAD SWAP1 PUSH2 0x100 EXP SWAP1 DIV PUSH1 0xFF AND DUP2 JUMP JUMPDEST PUSH0 PUSH0 SWAP1 SLOAD SWAP1 PUSH2 0x100 EXP SWAP1 DIV PUSH20 0xFFFFFFFFFFFFFFFFFFFFFFFFFFFFFFFFFFFFFFFF AND PUSH20 0xFFFFFFFFFFFFFFFFFFFFFFFFFFFFFFFFFFFFFFFF AND CALLER PUSH20 0xFFFFFFFFFFFFFFFFFFFFFFFFFFFFFFFFFFFFFFFF AND EQ PUSH2 0x2E7 JUMPI PUSH1 0x40 MLOAD PUSH32 0x8C379A000000000000000000000000000000000000000000000000000000000 DUP2 MSTORE PUSH1 0x4 ADD PUSH2 0x2DE SWAP1 PUSH2 0x1158 JUMP JUMPDEST PUSH1 0x40 MLOAD DUP1 SWAP2 SUB SWAP1 REVERT JUMPDEST PUSH1 0x3 DUP1 PUSH1 0x3 DUP2 GT ISZERO PUSH2 0x2FC JUMPI PUSH2 0x2FB PUSH2 0xE28 JUMP JUMPDEST JUMPDEST PUSH1 0x5 PUSH0 SWAP1 SLOAD SWAP1 PUSH2 0x100 EXP SWAP1 DIV PUSH1 0xFF AND PUSH1 0x3 DUP2 GT ISZERO PUSH2 0x31D JUMPI PUSH2 0x31C PUSH2 0xE28 JUMP JUMPDEST JUMPDEST EQ PUSH2 0x35D JUMPI PUSH1 0x40 MLOAD PUSH32 0x8C379A000000000000000000000000000000000000000000000000000000000 DUP2 MSTORE PUSH1 0x4 ADD PUSH2 0x354 SWAP1 PUSH2 0x11C0 JUMP JUMPDEST PUSH1 0x40 MLOAD DUP1 SWAP2 SUB SWAP1 REVERT JUMPDEST PUSH1 0x5 PUSH1 0x1 SWAP1 SLOAD SWAP1 PUSH2 0x100 EXP SWAP1 DIV PUSH1 0xFF AND ISZERO PUSH2 0x3AD JUMPI PUSH1 0x40 MLOAD PUSH32 0x8C379A000000000000000000000000000000000000000000000000000000000 DUP2 MSTORE PUSH1 0x4 ADD PUSH2 0x3A4 SWAP1 PUSH2 0x1228 JUMP JUMPDEST PUSH1 0x40 MLOAD DUP1 SWAP2 SUB SWAP1 REVERT JUMPDEST PUSH1 0x1 PUSH1 0x5 PUSH1 0x1 PUSH2 0x100 EXP DUP2 SLOAD DUP2 PUSH1 0xFF MUL NOT AND SWAP1 DUP4 ISZERO ISZERO MUL OR SWAP1 SSTORE POP PUSH32 0xDAEC4582D5D9595688C8C98545FDD1C696D41C6AEAEB636737E84ED2F5C00EDA PUSH1 0x1 PUSH0 SWAP1 SLOAD SWAP1 PUSH2 0x100 EXP SWAP1 DIV PUSH20 0xFFFFFFFFFFFFFFFFFFFFFFFFFFFFFFFFFFFFFFFF AND PUSH1 0x2 SLOAD PUSH1 0x40 MLOAD PUSH2 0x41C SWAP3 SWAP2 SWAP1 PUSH2 0x1246 JUMP JUMPDEST PUSH1 0x40 MLOAD DUP1 SWAP2 SUB SWAP1 LOG1 PUSH0 PUSH1 0x2 SLOAD GT ISZERO PUSH2 0x495 JUMPI PUSH0 PUSH0 SWAP1 SLOAD SWAP1 PUSH2 0x100 EXP SWAP1 DIV PUSH20 0xFFFFFFFFFFFFFFFFFFFFFFFFFFFFFFFFFFFFFFFF AND PUSH20 0xFFFFFFFFFFFFFFFFFFFFFFFFFFFFFFFFFFFFFFFF AND PUSH2 0x8FC PUSH1 0x2 SLOAD SWAP1 DUP2 ISZERO MUL SWAP1 PUSH1 0x40 MLOAD PUSH0 PUSH1 0x40 MLOAD DUP1 DUP4 SUB DUP2 DUP6 DUP9 DUP9 CALL SWAP4 POP POP POP POP ISZERO DUP1 ISZERO PUSH2 0x493 JUMPI RETURNDATASIZE PUSH0 PUSH0 RETURNDATACOPY RETURNDATASIZE PUSH0 REVERT JUMPDEST POP JUMPDEST POP JUMP JUMPDEST PUSH0 PUSH0 SWAP1 SLOAD SWAP1 PUSH2 0x100 EXP SWAP1 DIV PUSH20 0xFFFFFFFFFFFFFFFFFFFFFFFFFFFFFFFFFFFFFFFF AND DUP2 JUMP JUMPDEST PUSH0 PUSH1 0x4 PUSH0 CALLER PUSH20 0xFFFFFFFFFFFFFFFFFFFFFFFFFFFFFFFFFFFFFFFF AND PUSH20 0xFFFFFFFFFFFFFFFFFFFFFFFFFFFFFFFFFFFFFFFF AND DUP2 MSTORE PUSH1 0x20 ADD SWAP1 DUP2 MSTORE PUSH1 0x20 ADD PUSH0 KECCAK256 SLOAD SWAP1 POP PUSH0 DUP2 GT PUSH2 0x53F JUMPI PUSH1 0x40 MLOAD PUSH32 0x8C379A000000000000000000000000000000000000000000000000000000000 DUP2 MSTORE PUSH1 0x4 ADD PUSH2 0x536 SWAP1 PUSH2 0x12B7 JUMP JUMPDEST PUSH1 0x40 MLOAD DUP1 SWAP2 SUB SWAP1 REVERT JUMPDEST PUSH0 PUSH1 0x4 PUSH0 CALLER PUSH20 0xFFFFFFFFFFFFFFFFFFFFFFFFFFFFFFFFFFFFFFFF AND PUSH20 0xFFFFFFFFFFFFFFFFFFFFFFFFFFFFFFFFFFFFFFFF AND DUP2 MSTORE PUSH1 0x20 ADD SWAP1 DUP2 MSTORE PUSH1 0x20 ADD PUSH0 KECCAK256 DUP2 SWAP1 SSTORE POP CALLER PUSH20 0xFFFFFFFFFFFFFFFFFFFFFFFFFFFFFFFFFFFFFFFF AND PUSH2 0x8FC DUP3 SWAP1 DUP2 ISZERO MUL SWAP1 PUSH1 0x40 MLOAD PUSH0 PUSH1 0x40 MLOAD DUP1 DUP4 SUB DUP2 DUP6 DUP9 DUP9 CALL SWAP4 POP POP POP POP ISZERO DUP1 ISZERO PUSH2 0x5C4 JUMPI RETURNDATASIZE PUSH0 PUSH0 RETURNDATACOPY RETURNDATASIZE PUSH0 REVERT JUMPDEST POP POP JUMP JUMPDEST PUSH1 0x2 DUP1 PUSH1 0x3 DUP2 GT ISZERO PUSH2 0x5DD JUMPI PUSH2 0x5DC PUSH2 0xE28 JUMP JUMPDEST JUMPDEST PUSH1 0x5 PUSH0 SWAP1 SLOAD SWAP1 PUSH2 0x100 EXP SWAP1 DIV PUSH1 0xFF AND PUSH1 0x3 DUP2 GT ISZERO PUSH2 0x5FE JUMPI PUSH2 0x5FD PUSH2 0xE28 JUMP JUMPDEST JUMPDEST EQ PUSH2 0x63E JUMPI PUSH1 0x40 MLOAD PUSH32 0x8C379A000000000000000000000000000000000000000000000000000000000 DUP2 MSTORE PUSH1 0x4 ADD PUSH2 0x635 SWAP1 PUSH2 0x11C0 JUMP JUMPDEST PUSH1 0x40 MLOAD DUP1 SWAP2 SUB SWAP1 REVERT JUMPDEST PUSH0 PUSH1 0x3 PUSH0 CALLER PUSH20 0xFFFFFFFFFFFFFFFFFFFFFFFFFFFFFFFFFFFFFFFF AND PUSH20 0xFFFFFFFFFFFFFFFFFFFFFFFFFFFFFFFFFFFFFFFF AND DUP2 MSTORE PUSH1 0x20 ADD SWAP1 DUP2 MSTORE PUSH1 0x20 ADD PUSH0 KECCAK256 SWAP1 POP PUSH0 DUP2 PUSH1 0x1 ADD SLOAD GT PUSH2 0x6C4 JUMPI PUSH1 0x40 MLOAD PUSH32 0x8C379A000000000000000000000000000000000000000000000000000000000 DUP2 MSTORE PUSH1 0x4 ADD PUSH2 0x6BB SWAP1 PUSH2 0x131F JUMP JUMPDEST PUSH1 0x40 MLOAD DUP1 SWAP2 SUB SWAP1 REVERT JUMPDEST PUSH0 DUP5 DUP5 PUSH1 0x40 MLOAD PUSH1 0x20 ADD PUSH2 0x6D8 SWAP3 SWAP2 SWAP1 PUSH2 0x137D JUMP JUMPDEST PUSH1 0x40 MLOAD PUSH1 0x20 DUP2 DUP4 SUB SUB DUP2 MSTORE SWAP1 PUSH1 0x40 MSTORE DUP1 MLOAD SWAP1 PUSH1 0x20 ADD KECCAK256 SWAP1 POP DUP2 PUSH0 ADD SLOAD DUP2 EQ PUSH2 0x735 JUMPI PUSH1 0x40 MLOAD PUSH32 0x8C379A000000000000000000000000000000000000000000000000000000000 DUP2 MSTORE PUSH1 0x4 ADD PUSH2 0x72C SWAP1 PUSH2 0x13F2 JUMP JUMPDEST PUSH1 0x40 MLOAD DUP1 SWAP2 SUB SWAP1 REVERT JUMPDEST PUSH0 PUSH8 0xDE0B6B3A7640000 DUP7 PUSH2 0x74A SWAP2 SWAP1 PUSH2 0x143D JUMP JUMPDEST SWAP1 POP PUSH0 PUSH0 SHL PUSH1 0x3 PUSH0 CALLER PUSH20 0xFFFFFFFFFFFFFFFFFFFFFFFFFFFFFFFFFFFFFFFF AND PUSH20 0xFFFFFFFFFFFFFFFFFFFFFFFFFFFFFFFFFFFFFFFF AND DUP2 MSTORE PUSH1 0x20 ADD SWAP1 DUP2 MSTORE PUSH1 0x20 ADD PUSH0 KECCAK256 PUSH0 ADD DUP2 SWAP1 SSTORE POP PUSH0 DUP4 PUSH1 0x1 ADD SLOAD SWAP1 POP DUP7 DUP5 PUSH1 0x1 ADD SLOAD LT ISZERO DUP1 ISZERO PUSH2 0x7AD JUMPI POP PUSH0 DUP8 GT JUMPDEST ISZERO PUSH2 0x7D1 JUMPI PUSH2 0x7BC CALLER DUP4 PUSH2 0xCF9 JUMP JUMPDEST ISZERO PUSH2 0x7D0 JUMPI DUP2 DUP2 PUSH2 0x7CD SWAP2 SWAP1 PUSH2 0x147E JUMP JUMPDEST SWAP1 POP JUMPDEST JUMPDEST PUSH0 DUP5 PUSH1 0x1 ADD DUP2 SWAP1 SSTORE POP PUSH0 DUP2 GT ISZERO PUSH2 0x827 JUMPI CALLER PUSH20 0xFFFFFFFFFFFFFFFFFFFFFFFFFFFFFFFFFFFFFFFF AND PUSH2 0x8FC DUP3 SWAP1 DUP2 ISZERO MUL SWAP1 PUSH1 0x40 MLOAD PUSH0 PUSH1 0x40 MLOAD DUP1 DUP4 SUB DUP2 DUP6 DUP9 DUP9 CALL SWAP4 POP POP POP POP ISZERO DUP1 ISZERO PUSH2 0x825 JUMPI RETURNDATASIZE PUSH0 PUSH0 RETURNDATACOPY RETURNDATASIZE PUSH0 REVERT JUMPDEST POP JUMPDEST POP POP POP POP POP POP POP JUMP JUMPDEST PUSH1 0x3 PUSH1 0x20 MSTORE DUP1 PUSH0 MSTORE PUSH1 0x40 PUSH0 KECCAK256 PUSH0 SWAP2 POP SWAP1 POP DUP1 PUSH0 ADD SLOAD SWAP1 DUP1 PUSH1 0x1 ADD SLOAD SWAP1 POP DUP3 JUMP JUMPDEST PUSH1 0x1 PUSH0 SWAP1 SLOAD SWAP1 PUSH2 0x100 EXP SWAP1 DIV PUSH20 0xFFFFFFFFFFFFFFFFFFFFFFFFFFFFFFFFFFFFFFFF AND DUP2 JUMP JUMPDEST PUSH1 0x1 DUP1 PUSH1 0x3 DUP2 GT ISZERO PUSH2 0x88A JUMPI PUSH2 0x889 PUSH2 0xE28 JUMP JUMPDEST JUMPDEST PUSH1 0x5 PUSH0 SWAP1 SLOAD SWAP1 PUSH2 0x100 EXP SWAP1 DIV PUSH1 0xFF AND PUSH1 0x3 DUP2 GT ISZERO PUSH2 0x8AB JUMPI PUSH2 0x8AA PUSH2 0xE28 JUMP JUMPDEST JUMPDEST EQ PUSH2 0x8EB JUMPI PUSH1 0x40 MLOAD PUSH32 0x8C379A000000000000000000000000000000000000000000000000000000000 DUP2 MSTORE PUSH1 0x4 ADD PUSH2 0x8E2 SWAP1 PUSH2 0x11C0 JUMP JUMPDEST PUSH1 0x40 MLOAD DUP1 SWAP2 SUB SWAP1 REVERT JUMPDEST PUSH0 PUSH0 SHL DUP3 SUB PUSH2 0x92F JUMPI PUSH1 0x40 MLOAD PUSH32 0x8C379A000000000000000000000000000000000000000000000000000000000 DUP2 MSTORE PUSH1 0x4 ADD PUSH2 0x926 SWAP1 PUSH2 0x14FB JUMP JUMPDEST PUSH1 0x40 MLOAD DUP1 SWAP2 SUB SWAP1 REVERT JUMPDEST PUSH0 PUSH0 SHL PUSH1 0x3 PUSH0 CALLER PUSH20 0xFFFFFFFFFFFFFFFFFFFFFFFFFFFFFFFFFFFFFFFF AND PUSH20 0xFFFFFFFFFFFFFFFFFFFFFFFFFFFFFFFFFFFFFFFF AND DUP2 MSTORE PUSH1 0x20 ADD SWAP1 DUP2 MSTORE PUSH1 0x20 ADD PUSH0 KECCAK256 PUSH0 ADD SLOAD EQ PUSH2 0x9B2 JUMPI PUSH1 0x40 MLOAD PUSH32 0x8C379A000000000000000000000000000000000000000000000000000000000 DUP2 MSTORE PUSH1 0x4 ADD PUSH2 0x9A9 SWAP1 PUSH2 0x1563 JUMP JUMPDEST PUSH1 0x40 MLOAD DUP1 SWAP2 SUB SWAP1 REVERT JUMPDEST PUSH0 CALLVALUE GT PUSH2 0x9F4 JUMPI PUSH1 0x40 MLOAD PUSH32 0x8C379A000000000000000000000000000000000000000000000000000000000 DUP2 MSTORE PUSH1 0x4 ADD PUSH2 0x9EB SWAP1 PUSH2 0x15CB JUMP JUMPDEST PUSH1 0x40 MLOAD DUP1 SWAP2 SUB SWAP1 REVERT JUMPDEST PUSH1 0x40 MLOAD DUP1 PUSH1 0x40 ADD PUSH1 0x40 MSTORE DUP1 DUP4 DUP2 MSTORE PUSH1 0x20 ADD CALLVALUE DUP2 MSTORE POP PUSH1 0x3 PUSH0 CALLER PUSH20 0xFFFFFFFFFFFFFFFFFFFFFFFFFFFFFFFFFFFFFFFF AND PUSH20 0xFFFFFFFFFFFFFFFFFFFFFFFFFFFFFFFFFFFFFFFF AND DUP2 MSTORE PUSH1 0x20 ADD SWAP1 DUP2 MSTORE PUSH1 0x20 ADD PUSH0 KECCAK256 PUSH0 DUP3 ADD MLOAD DUP2 PUSH0 ADD SSTORE PUSH1 0x20 DUP3 ADD MLOAD DUP2 PUSH1 0x1 ADD SSTORE SWAP1 POP POP POP POP JUMP JUMPDEST PUSH0 PUSH0 SWAP1 SLOAD SWAP1 PUSH2 0x100 EXP SWAP1 DIV PUSH20 0xFFFFFFFFFFFFFFFFFFFFFFFFFFFFFFFFFFFFFFFF AND PUSH20 0xFFFFFFFFFFFFFFFFFFFFFFFFFFFFFFFFFFFFFFFF AND CALLER PUSH20 0xFFFFFFFFFFFFFFFFFFFFFFFFFFFFFFFFFFFFFFFF AND EQ PUSH2 0xAED JUMPI PUSH1 0x40 MLOAD PUSH32 0x8C379A000000000000000000000000000000000000000000000000000000000 DUP2 MSTORE PUSH1 0x4 ADD PUSH2 0xAE4 SWAP1 PUSH2 0x1158 JUMP JUMPDEST PUSH1 0x40 MLOAD DUP1 SWAP2 SUB SWAP1 REVERT JUMPDEST PUSH1 0x3 DUP1 DUP2 GT ISZERO PUSH2 0xB00 JUMPI PUSH2 0xAFF PUSH2 0xE28 JUMP JUMPDEST JUMPDEST PUSH1 0x5 PUSH0 SWAP1 SLOAD SWAP1 PUSH2 0x100 EXP SWAP1 DIV PUSH1 0xFF AND PUSH1 0x3 DUP2 GT ISZERO PUSH2 0xB21 JUMPI PUSH2 0xB20 PUSH2 0xE28 JUMP JUMPDEST JUMPDEST SUB PUSH2 0xB61 JUMPI PUSH1 0x40 MLOAD PUSH32 0x8C379A000000000000000000000000000000000000000000000000000000000 DUP2 MSTORE PUSH1 0x4 ADD PUSH2 0xB58 SWAP1 PUSH2 0x1633 JUMP JUMPDEST PUSH1 0x40 MLOAD DUP1 SWAP2 SUB SWAP1 REVERT JUMPDEST PUSH0 PUSH1 0x3 DUP2 GT ISZERO PUSH2 0xB74 JUMPI PUSH2 0xB73 PUSH2 0xE28 JUMP JUMPDEST JUMPDEST PUSH1 0x5 PUSH0 SWAP1 SLOAD SWAP1 PUSH2 0x100 EXP SWAP1 DIV PUSH1 0xFF AND PUSH1 0x3 DUP2 GT ISZERO PUSH2 0xB95 JUMPI PUSH2 0xB94 PUSH2 0xE28 JUMP JUMPDEST JUMPDEST SUB PUSH2 0xBF5 JUMPI PUSH1 0x1 PUSH1 0x5 PUSH0 PUSH2 0x100 EXP DUP2 SLOAD DUP2 PUSH1 0xFF MUL NOT AND SWAP1 DUP4 PUSH1 0x3 DUP2 GT ISZERO PUSH2 0xBBF JUMPI PUSH2 0xBBE PUSH2 0xE28 JUMP JUMPDEST JUMPDEST MUL OR SWAP1 SSTORE POP PUSH32 0x2C124E22EE7DA1C9905BBB317CF67658C1CC3EA1C0953B1633F85D0B5C281D9 PUSH1 0x40 MLOAD PUSH1 0x40 MLOAD DUP1 SWAP2 SUB SWAP1 LOG1 PUSH2 0xCF1 JUMP JUMPDEST PUSH1 0x1 PUSH1 0x3 DUP2 GT ISZERO PUSH2 0xC09 JUMPI PUSH2 0xC08 PUSH2 0xE28 JUMP JUMPDEST JUMPDEST PUSH1 0x5 PUSH0 SWAP1 SLOAD SWAP1 PUSH2 0x100 EXP SWAP1 DIV PUSH1 0xFF AND PUSH1 0x3 DUP2 GT ISZERO PUSH2 0xC2A JUMPI PUSH2 0xC29 PUSH2 0xE28 JUMP JUMPDEST JUMPDEST SUB PUSH2 0xC8A JUMPI PUSH1 0x2 PUSH1 0x5 PUSH0 PUSH2 0x100 EXP DUP2 SLOAD DUP2 PUSH1 0xFF MUL NOT AND SWAP1 DUP4 PUSH1 0x3 DUP2 GT ISZERO PUSH2 0xC54 JUMPI PUSH2 0xC53 PUSH2 0xE28 JUMP JUMPDEST JUMPDEST MUL OR SWAP1 SSTORE POP PUSH32 0x3BCC93D35219AA0512D7C0D1CA10B0231F473E3D5F9396877D1B7215EE0AB3D5 PUSH1 0x40 MLOAD PUSH1 0x40 MLOAD DUP1 SWAP2 SUB SWAP1 LOG1 PUSH2 0xCF0 JUMP JUMPDEST PUSH1 0x2 PUSH1 0x3 DUP2 GT ISZERO PUSH2 0xC9E JUMPI PUSH2 0xC9D PUSH2 0xE28 JUMP JUMPDEST JUMPDEST PUSH1 0x5 PUSH0 SWAP1 SLOAD SWAP1 PUSH2 0x100 EXP SWAP1 DIV PUSH1 0xFF AND PUSH1 0x3 DUP2 GT ISZERO PUSH2 0xCBF JUMPI PUSH2 0xCBE PUSH2 0xE28 JUMP JUMPDEST JUMPDEST SUB PUSH2 0xCEF JUMPI PUSH1 0x3 PUSH1 0x5 PUSH0 PUSH2 0x100 EXP DUP2 SLOAD DUP2 PUSH1 0xFF MUL NOT AND SWAP1 DUP4 PUSH1 0x3 DUP2 GT ISZERO PUSH2 0xCE9 JUMPI PUSH2 0xCE8 PUSH2 0xE28 JUMP JUMPDEST JUMPDEST MUL OR SWAP1 SSTORE POP JUMPDEST JUMPDEST JUMPDEST JUMP JUMPDEST PUSH1 0x2 SLOAD DUP2 JUMP JUMPDEST PUSH0 PUSH1 0x2 SLOAD DUP3 GT PUSH2 0xD0B JUMPI PUSH0 SWAP1 POP PUSH2 0xE22 JUMP JUMPDEST PUSH0 PUSH20 0xFFFFFFFFFFFFFFFFFFFFFFFFFFFFFFFFFFFFFFFF AND PUSH1 0x1 PUSH0 SWAP1 SLOAD SWAP1 PUSH2 0x100 EXP SWAP1 DIV PUSH20 0xFFFFFFFFFFFFFFFFFFFFFFFFFFFFFFFFFFFFFFFF AND PUSH20 0xFFFFFFFFFFFFFFFFFFFFFFFFFFFFFFFFFFFFFFFF AND EQ PUSH2 0xDD6 JUMPI PUSH1 0x2 SLOAD PUSH1 0x4 PUSH0 PUSH1 0x1 PUSH0 SWAP1 SLOAD SWAP1 PUSH2 0x100 EXP SWAP1 DIV PUSH20 0xFFFFFFFFFFFFFFFFFFFFFFFFFFFFFFFFFFFFFFFF AND PUSH20 0xFFFFFFFFFFFFFFFFFFFFFFFFFFFFFFFFFFFFFFFF AND PUSH20 0xFFFFFFFFFFFFFFFFFFFFFFFFFFFFFFFFFFFFFFFF AND DUP2 MSTORE PUSH1 0x20 ADD SWAP1 DUP2 MSTORE PUSH1 0x20 ADD PUSH0 KECCAK256 PUSH0 DUP3 DUP3 SLOAD PUSH2 0xDCE SWAP2 SWAP1 PUSH2 0x1651 JUMP JUMPDEST SWAP3 POP POP DUP2 SWAP1 SSTORE POP JUMPDEST DUP2 PUSH1 0x2 DUP2 SWAP1 SSTORE POP DUP3 PUSH1 0x1 PUSH0 PUSH2 0x100 EXP DUP2 SLOAD DUP2 PUSH20 0xFFFFFFFFFFFFFFFFFFFFFFFFFFFFFFFFFFFFFFFF MUL NOT AND SWAP1 DUP4 PUSH20 0xFFFFFFFFFFFFFFFFFFFFFFFFFFFFFFFFFFFFFFFF AND MUL OR SWAP1 SSTORE POP PUSH1 0x1 SWAP1 POP JUMPDEST SWAP3 SWAP2 POP POP JUMP JUMPDEST PUSH32 0x4E487B7100000000000000000000000000000000000000000000000000000000 PUSH0 MSTORE PUSH1 0x21 PUSH1 0x4 MSTORE PUSH1 0x24 PUSH0 REVERT JUMPDEST PUSH1 0x4 DUP2 LT PUSH2 0xE66 JUMPI PUSH2 0xE65 PUSH2 0xE28 JUMP JUMPDEST JUMPDEST POP JUMP JUMPDEST PUSH0 DUP2 SWAP1 POP PUSH2 0xE76 DUP3 PUSH2 0xE55 JUMP JUMPDEST SWAP2 SWAP1 POP JUMP JUMPDEST PUSH0 PUSH2 0xE85 DUP3 PUSH2 0xE69 JUMP JUMPDEST SWAP1 POP SWAP2 SWAP1 POP JUMP JUMPDEST PUSH2 0xE95 DUP2 PUSH2 0xE7B JUMP JUMPDEST DUP3 MSTORE POP POP JUMP JUMPDEST PUSH0 PUSH1 0x20 DUP3 ADD SWAP1 POP PUSH2 0xEAE PUSH0 DUP4 ADD DUP5 PUSH2 0xE8C JUMP JUMPDEST SWAP3 SWAP2 POP POP JUMP JUMPDEST PUSH0 DUP2 ISZERO ISZERO SWAP1 POP SWAP2 SWAP1 POP JUMP JUMPDEST PUSH2 0xEC8 DUP2 PUSH2 0xEB4 JUMP JUMPDEST DUP3 MSTORE POP POP JUMP JUMPDEST PUSH0 PUSH1 0x20 DUP3 ADD SWAP1 POP PUSH2 0xEE1 PUSH0 DUP4 ADD DUP5 PUSH2 0xEBF JUMP JUMPDEST SWAP3 SWAP2 POP POP JUMP JUMPDEST PUSH0 PUSH20 0xFFFFFFFFFFFFFFFFFFFFFFFFFFFFFFFFFFFFFFFF DUP3 AND SWAP1 POP SWAP2 SWAP1 POP JUMP JUMPDEST PUSH0 PUSH2 0xF10 DUP3 PUSH2 0xEE7 JUMP JUMPDEST SWAP1 POP SWAP2 SWAP1 POP JUMP JUMPDEST PUSH2 0xF20 DUP2 PUSH2 0xF06 JUMP JUMPDEST DUP3 MSTORE POP POP JUMP JUMPDEST PUSH0 PUSH1 0x20 DUP3 ADD SWAP1 POP PUSH2 0xF39 PUSH0 DUP4 ADD DUP5 PUSH2 0xF17 JUMP JUMPDEST SWAP3 SWAP2 POP POP JUMP JUMPDEST PUSH0 PUSH0 REVERT JUMPDEST PUSH0 DUP2 SWAP1 POP SWAP2 SWAP1 POP JUMP JUMPDEST PUSH2 0xF55 DUP2 PUSH2 0xF43 JUMP JUMPDEST DUP2 EQ PUSH2 0xF5F JUMPI PUSH0 PUSH0 REVERT JUMPDEST POP JUMP JUMPDEST PUSH0 DUP2 CALLDATALOAD SWAP1 POP PUSH2 0xF70 DUP2 PUSH2 0xF4C JUMP JUMPDEST SWAP3 SWAP2 POP POP JUMP JUMPDEST PUSH0 DUP2 SWAP1 POP SWAP2 SWAP1 POP JUMP JUMPDEST PUSH2 0xF88 DUP2 PUSH2 0xF76 JUMP JUMPDEST DUP2 EQ PUSH2 0xF92 JUMPI PUSH0 PUSH0 REVERT JUMPDEST POP JUMP JUMPDEST PUSH0 DUP2 CALLDATALOAD SWAP1 POP PUSH2 0xFA3 DUP2 PUSH2 0xF7F JUMP JUMPDEST SWAP3 SWAP2 POP POP JUMP JUMPDEST PUSH0 PUSH0 PUSH1 0x40 DUP4 DUP6 SUB SLT ISZERO PUSH2 0xFBF JUMPI PUSH2 0xFBE PUSH2 0xF3F JUMP JUMPDEST JUMPDEST PUSH0 PUSH2 0xFCC DUP6 DUP3 DUP7 ADD PUSH2 0xF62 JUMP JUMPDEST SWAP3 POP POP PUSH1 0x20 PUSH2 0xFDD DUP6 DUP3 DUP7 ADD PUSH2 0xF95 JUMP JUMPDEST SWAP2 POP POP SWAP3 POP SWAP3 SWAP1 POP JUMP JUMPDEST PUSH0 PUSH2 0xFF1 DUP3 PUSH2 0xEE7 JUMP JUMPDEST SWAP1 POP SWAP2 SWAP1 POP JUMP JUMPDEST PUSH2 0x1001 DUP2 PUSH2 0xFE7 JUMP JUMPDEST DUP2 EQ PUSH2 0x100B JUMPI PUSH0 PUSH0 REVERT JUMPDEST POP JUMP JUMPDEST PUSH0 DUP2 CALLDATALOAD SWAP1 POP PUSH2 0x101C DUP2 PUSH2 0xFF8 JUMP JUMPDEST SWAP3 SWAP2 POP POP JUMP JUMPDEST PUSH0 PUSH1 0x20 DUP3 DUP5 SUB SLT ISZERO PUSH2 0x1037 JUMPI PUSH2 0x1036 PUSH2 0xF3F JUMP JUMPDEST JUMPDEST PUSH0 PUSH2 0x1044 DUP5 DUP3 DUP6 ADD PUSH2 0x100E JUMP JUMPDEST SWAP2 POP POP SWAP3 SWAP2 POP POP JUMP JUMPDEST PUSH2 0x1056 DUP2 PUSH2 0xF76 JUMP JUMPDEST DUP3 MSTORE POP POP JUMP JUMPDEST PUSH2 0x1065 DUP2 PUSH2 0xF43 JUMP JUMPDEST DUP3 MSTORE POP POP JUMP JUMPDEST PUSH0 PUSH1 0x40 DUP3 ADD SWAP1 POP PUSH2 0x107E PUSH0 DUP4 ADD DUP6 PUSH2 0x104D JUMP JUMPDEST PUSH2 0x108B PUSH1 0x20 DUP4 ADD DUP5 PUSH2 0x105C JUMP JUMPDEST SWAP4 SWAP3 POP POP POP JUMP JUMPDEST PUSH2 0x109B DUP2 PUSH2 0xFE7 JUMP JUMPDEST DUP3 MSTORE POP POP JUMP JUMPDEST PUSH0 PUSH1 0x20 DUP3 ADD SWAP1 POP PUSH2 0x10B4 PUSH0 DUP4 ADD DUP5 PUSH2 0x1092 JUMP JUMPDEST SWAP3 SWAP2 POP POP JUMP JUMPDEST PUSH0 PUSH1 0x20 DUP3 DUP5 SUB SLT ISZERO PUSH2 0x10CF JUMPI PUSH2 0x10CE PUSH2 0xF3F JUMP JUMPDEST JUMPDEST PUSH0 PUSH2 0x10DC DUP5 DUP3 DUP6 ADD PUSH2 0xF95 JUMP JUMPDEST SWAP2 POP POP SWAP3 SWAP2 POP POP JUMP JUMPDEST PUSH0 PUSH1 0x20 DUP3 ADD SWAP1 POP PUSH2 0x10F8 PUSH0 DUP4 ADD DUP5 PUSH2 0x105C JUMP JUMPDEST SWAP3 SWAP2 POP POP JUMP JUMPDEST PUSH0 DUP3 DUP3 MSTORE PUSH1 0x20 DUP3 ADD SWAP1 POP SWAP3 SWAP2 POP POP JUMP JUMPDEST PUSH32 0x4F6E6C792062656E656669636961727900000000000000000000000000000000 PUSH0 DUP3 ADD MSTORE POP JUMP JUMPDEST PUSH0 PUSH2 0x1142 PUSH1 0x10 DUP4 PUSH2 0x10FE JUMP JUMPDEST SWAP2 POP PUSH2 0x114D DUP3 PUSH2 0x110E JUMP JUMPDEST PUSH1 0x20 DUP3 ADD SWAP1 POP SWAP2 SWAP1 POP JUMP JUMPDEST PUSH0 PUSH1 0x20 DUP3 ADD SWAP1 POP DUP2 DUP2 SUB PUSH0 DUP4 ADD MSTORE PUSH2 0x116F DUP2 PUSH2 0x1136 JUMP JUMPDEST SWAP1 POP SWAP2 SWAP1 POP JUMP JUMPDEST PUSH32 0x57726F6E67207068617365000000000000000000000000000000000000000000 PUSH0 DUP3 ADD MSTORE POP JUMP JUMPDEST PUSH0 PUSH2 0x11AA PUSH1 0xB DUP4 PUSH2 0x10FE JUMP JUMPDEST SWAP2 POP PUSH2 0x11B5 DUP3 PUSH2 0x1176 JUMP JUMPDEST PUSH1 0x20 DUP3 ADD SWAP1 POP SWAP2 SWAP1 POP JUMP JUMPDEST PUSH0 PUSH1 0x20 DUP3 ADD SWAP1 POP DUP2 DUP2 SUB PUSH0 DUP4 ADD MSTORE PUSH2 0x11D7 DUP2 PUSH2 0x119E JUMP JUMPDEST SWAP1 POP SWAP2 SWAP1 POP JUMP JUMPDEST PUSH32 0x61756374696F6E456E6420616C72656164792063616C6C656400000000000000 PUSH0 DUP3 ADD MSTORE POP JUMP JUMPDEST PUSH0 PUSH2 0x1212 PUSH1 0x19 DUP4 PUSH2 0x10FE JUMP JUMPDEST SWAP2 POP PUSH2 0x121D DUP3 PUSH2 0x11DE JUMP JUMPDEST PUSH1 0x20 DUP3 ADD SWAP1 POP SWAP2 SWAP1 POP JUMP JUMPDEST PUSH0 PUSH1 0x20 DUP3 ADD SWAP1 POP DUP2 DUP2 SUB PUSH0 DUP4 ADD MSTORE PUSH2 0x123F DUP2 PUSH2 0x1206 JUMP JUMPDEST SWAP1 POP SWAP2 SWAP1 POP JUMP JUMPDEST PUSH0 PUSH1 0x40 DUP3 ADD SWAP1 POP PUSH2 0x1259 PUSH0 DUP4 ADD DUP6 PUSH2 0x1092 JUMP JUMPDEST PUSH2 0x1266 PUSH1 0x20 DUP4 ADD DUP5 PUSH2 0x105C JUMP JUMPDEST SWAP4 SWAP3 POP POP POP JUMP JUMPDEST PUSH32 0x4E6F7468696E6720746F20776974686472617700000000000000000000000000 PUSH0 DUP3 ADD MSTORE POP JUMP JUMPDEST PUSH0 PUSH2 0x12A1 PUSH1 0x13 DUP4 PUSH2 0x10FE JUMP JUMPDEST SWAP2 POP PUSH2 0x12AC DUP3 PUSH2 0x126D JUMP JUMPDEST PUSH1 0x20 DUP3 ADD SWAP1 POP SWAP2 SWAP1 POP JUMP JUMPDEST PUSH0 PUSH1 0x20 DUP3 ADD SWAP1 POP DUP2 DUP2 SUB PUSH0 DUP4 ADD MSTORE PUSH2 0x12CE DUP2 PUSH2 0x1295 JUMP JUMPDEST SWAP1 POP SWAP2 SWAP1 POP JUMP JUMPDEST PUSH32 0x4E6F2062696420666F756E640000000000000000000000000000000000000000 PUSH0 DUP3 ADD MSTORE POP JUMP JUMPDEST PUSH0 PUSH2 0x1309 PUSH1 0xC DUP4 PUSH2 0x10FE JUMP JUMPDEST SWAP2 POP PUSH2 0x1314 DUP3 PUSH2 0x12D5 JUMP JUMPDEST PUSH1 0x20 DUP3 ADD SWAP1 POP SWAP2 SWAP1 POP JUMP JUMPDEST PUSH0 PUSH1 0x20 DUP3 ADD SWAP1 POP DUP2 DUP2 SUB PUSH0 DUP4 ADD MSTORE PUSH2 0x1336 DUP2 PUSH2 0x12FD JUMP JUMPDEST SWAP1 POP SWAP2 SWAP1 POP JUMP JUMPDEST PUSH0 DUP2 SWAP1 POP SWAP2 SWAP1 POP JUMP JUMPDEST PUSH2 0x1357 PUSH2 0x1352 DUP3 PUSH2 0xF43 JUMP JUMPDEST PUSH2 0x133D JUMP JUMPDEST DUP3 MSTORE POP POP JUMP JUMPDEST PUSH0 DUP2 SWAP1 POP SWAP2 SWAP1 POP JUMP JUMPDEST PUSH2 0x1377 PUSH2 0x1372 DUP3 PUSH2 0xF76 JUMP JUMPDEST PUSH2 0x135D JUMP JUMPDEST DUP3 MSTORE POP POP JUMP JUMPDEST PUSH0 PUSH2 0x1388 DUP3 DUP6 PUSH2 0x1346 JUMP JUMPDEST PUSH1 0x20 DUP3 ADD SWAP2 POP PUSH2 0x1398 DUP3 DUP5 PUSH2 0x1366 JUMP JUMPDEST PUSH1 0x20 DUP3 ADD SWAP2 POP DUP2 SWAP1 POP SWAP4 SWAP3 POP POP POP JUMP JUMPDEST PUSH32 0x48617368206D69736D6174636800000000000000000000000000000000000000 PUSH0 DUP3 ADD MSTORE POP JUMP JUMPDEST PUSH0 PUSH2 0x13DC PUSH1 0xD DUP4 PUSH2 0x10FE JUMP JUMPDEST SWAP2 POP PUSH2 0x13E7 DUP3 PUSH2 0x13A8 JUMP JUMPDEST PUSH1 0x20 DUP3 ADD SWAP1 POP SWAP2 SWAP1 POP JUMP JUMPDEST PUSH0 PUSH1 0x20 DUP3 ADD SWAP1 POP DUP2 DUP2 SUB PUSH0 DUP4 ADD MSTORE PUSH2 0x1409 DUP2 PUSH2 0x13D0 JUMP JUMPDEST SWAP1 POP SWAP2 SWAP1 POP JUMP JUMPDEST PUSH32 0x4E487B7100000000000000000000000000000000000000000000000000000000 PUSH0 MSTORE PUSH1 0x11 PUSH1 0x4 MSTORE PUSH1 0x24 PUSH0 REVERT JUMPDEST PUSH0 PUSH2 0x1447 DUP3 PUSH2 0xF43 JUMP JUMPDEST SWAP2 POP PUSH2 0x1452 DUP4 PUSH2 0xF43 JUMP JUMPDEST SWAP3 POP DUP3 DUP3 MUL PUSH2 0x1460 DUP2 PUSH2 0xF43 JUMP JUMPDEST SWAP2 POP DUP3 DUP3 DIV DUP5 EQ DUP4 ISZERO OR PUSH2 0x1477 JUMPI PUSH2 0x1476 PUSH2 0x1410 JUMP JUMPDEST JUMPDEST POP SWAP3 SWAP2 POP POP JUMP JUMPDEST PUSH0 PUSH2 0x1488 DUP3 PUSH2 0xF43 JUMP JUMPDEST SWAP2 POP PUSH2 0x1493 DUP4 PUSH2 0xF43 JUMP JUMPDEST SWAP3 POP DUP3 DUP3 SUB SWAP1 POP DUP2 DUP2 GT ISZERO PUSH2 0x14AB JUMPI PUSH2 0x14AA PUSH2 0x1410 JUMP JUMPDEST JUMPDEST SWAP3 SWAP2 POP POP JUMP JUMPDEST PUSH32 0x496E76616C696420626C696E6465642062696400000000000000000000000000 PUSH0 DUP3 ADD MSTORE POP JUMP JUMPDEST PUSH0 PUSH2 0x14E5 PUSH1 0x13 DUP4 PUSH2 0x10FE JUMP JUMPDEST SWAP2 POP PUSH2 0x14F0 DUP3 PUSH2 0x14B1 JUMP JUMPDEST PUSH1 0x20 DUP3 ADD SWAP1 POP SWAP2 SWAP1 POP JUMP JUMPDEST PUSH0 PUSH1 0x20 DUP3 ADD SWAP1 POP DUP2 DUP2 SUB PUSH0 DUP4 ADD MSTORE PUSH2 0x1512 DUP2 PUSH2 0x14D9 JUMP JUMPDEST SWAP1 POP SWAP2 SWAP1 POP JUMP JUMPDEST PUSH32 0x42696420616C7265616479207375626D69747465640000000000000000000000 PUSH0 DUP3 ADD MSTORE POP JUMP JUMPDEST PUSH0 PUSH2 0x154D PUSH1 0x15 DUP4 PUSH2 0x10FE JUMP JUMPDEST SWAP2 POP PUSH2 0x1558 DUP3 PUSH2 0x1519 JUMP JUMPDEST PUSH1 0x20 DUP3 ADD SWAP1 POP SWAP2 SWAP1 POP JUMP JUMPDEST PUSH0 PUSH1 0x20 DUP3 ADD SWAP1 POP DUP2 DUP2 SUB PUSH0 DUP4 ADD MSTORE PUSH2 0x157A DUP2 PUSH2 0x1541 JUMP JUMPDEST SWAP1 POP SWAP2 SWAP1 POP JUMP JUMPDEST PUSH32 0x4465706F736974206D757374206265203E203000000000000000000000000000 PUSH0 DUP3 ADD MSTORE POP JUMP JUMPDEST PUSH0 PUSH2 0x15B5 PUSH1 0x13 DUP4 PUSH2 0x10FE JUMP JUMPDEST SWAP2 POP PUSH2 0x15C0 DUP3 PUSH2 0x1581 JUMP JUMPDEST PUSH1 0x20 DUP3 ADD SWAP1 POP SWAP2 SWAP1 POP JUMP JUMPDEST PUSH0 PUSH1 0x20 DUP3 ADD SWAP1 POP DUP2 DUP2 SUB PUSH0 DUP4 ADD MSTORE PUSH2 0x15E2 DUP2 PUSH2 0x15A9 JUMP JUMPDEST SWAP1 POP SWAP2 SWAP1 POP JUMP JUMPDEST PUSH32 0x416C7265616479206C6173742070686173650000000000000000000000000000 PUSH0 DUP3 ADD MSTORE POP JUMP JUMPDEST PUSH0 PUSH2 0x161D PUSH1 0x12 DUP4 PUSH2 0x10FE JUMP JUMPDEST SWAP2 POP PUSH2 0x1628 DUP3 PUSH2 0x15E9 JUMP JUMPDEST PUSH1 0x20 DUP3 ADD SWAP1 POP SWAP2 SWAP1 POP JUMP JUMPDEST PUSH0 PUSH1 0x20 DUP3 ADD SWAP1 POP DUP2 DUP2 SUB PUSH0 DUP4 ADD MSTORE PUSH2 0x164A DUP2 PUSH2 0x1611 JUMP JUMPDEST SWAP1 POP SWAP2 SWAP1 POP JUMP JUMPDEST PUSH0 PUSH2 0x165B DUP3 PUSH2 0xF43 JUMP JUMPDEST SWAP2 POP PUSH2 0x1666 DUP4 PUSH2 0xF43 JUMP JUMPDEST SWAP3 POP DUP3 DUP3 ADD SWAP1 POP DUP1 DUP3 GT ISZERO PUSH2 0x167E JUMPI PUSH2 0x167D PUSH2 0x1410 JUMP JUMPDEST JUMPDEST SWAP3 SWAP2 POP POP JUMP INVALID LOG2 PUSH5 0x6970667358 0x22 SLT KECCAK256 TLOAD ADD GT EXP STATICCALL GASLIMIT DUP13 PUSH13 0xBCB1553AA82B7737BAC4F19DED DUP15 0x28 EXP SWAP5 DUP12 SSTORE SWAP9 SELFBALANCE JUMP SWAP6 CALLVALUE PUSH5 0x736F6C6343 STOP ADDMOD 0x1E STOP CALLER "
				},
				"gasEstimates": {
					"creation": {
						"codeDepositCost": "1163600",
						"executionCost": "55548",
						"totalCost": "1219148"
					},
					"external": {
						"advancePhase()": "35526",
						"auctionEnd()": "infinite",
						"beneficiary()": "2574",
						"bid(bytes32)": "49320",
						"bids(address)": "5048",
						"currentPhase()": "2555",
						"ended()": "2540",
						"highestBid()": "2535",
						"highestBidder()": "2552",
						"reveal(uint256,bytes32)": "infinite",
						"withdraw()": "infinite"
					},
					"internal": {
						"_placeBid(address,uint256)": "infinite"
					}
				},
				"methodIdentifiers": {
					"advancePhase()": "be25a718",
					"auctionEnd()": "2a24f46c",
					"beneficiary()": "38af3eed",
					"bid(bytes32)": "957bb1e0",
					"bids(address)": "62ea82db",
					"currentPhase()": "055ad42e",
					"ended()": "12fa6feb",
					"highestBid()": "d57bde79",
					"highestBidder()": "91f90157",
					"reveal(uint256,bytes32)": "4036778f",
					"withdraw()": "3ccfd60b"
				}
			},
			"storageLayout": {
				"storage": [
					{
						"astId": 13,
						"contract": "project(auction)/BlindAuction.sol:BlindAuction",
						"label": "beneficiary",
						"offset": 0,
						"slot": "0",
						"type": "t_address_payable"
					},
					{
						"astId": 15,
						"contract": "project(auction)/BlindAuction.sol:BlindAuction",
						"label": "highestBidder",
						"offset": 0,
						"slot": "1",
						"type": "t_address"
					},
					{
						"astId": 18,
						"contract": "project(auction)/BlindAuction.sol:BlindAuction",
						"label": "highestBid",
						"offset": 0,
						"slot": "2",
						"type": "t_uint256"
					},
					{
						"astId": 23,
						"contract": "project(auction)/BlindAuction.sol:BlindAuction",
						"label": "bids",
						"offset": 0,
						"slot": "3",
						"type": "t_mapping(t_address,t_struct(Bid)6_storage)"
					},
					{
						"astId": 27,
						"contract": "project(auction)/BlindAuction.sol:BlindAuction",
						"label": "pendingReturns",
						"offset": 0,
						"slot": "4",
						"type": "t_mapping(t_address,t_uint256)"
					},
					{
						"astId": 33,
						"contract": "project(auction)/BlindAuction.sol:BlindAuction",
						"label": "currentPhase",
						"offset": 0,
						"slot": "5",
						"type": "t_enum(Phase)11"
					},
					{
						"astId": 35,
						"contract": "project(auction)/BlindAuction.sol:BlindAuction",
						"label": "ended",
						"offset": 1,
						"slot": "5",
						"type": "t_bool"
					}
				],
				"types": {
					"t_address": {
						"encoding": "inplace",
						"label": "address",
						"numberOfBytes": "20"
					},
					"t_address_payable": {
						"encoding": "inplace",
						"label": "address payable",
						"numberOfBytes": "20"
					},
					"t_bool": {
						"encoding": "inplace",
						"label": "bool",
						"numberOfBytes": "1"
					},
					"t_bytes32": {
						"encoding": "inplace",
						"label": "bytes32",
						"numberOfBytes": "32"
					},
					"t_enum(Phase)11": {
						"encoding": "inplace",
						"label": "enum BlindAuction.Phase",
						"numberOfBytes": "1"
					},
					"t_mapping(t_address,t_struct(Bid)6_storage)": {
						"encoding": "mapping",
						"key": "t_address",
						"label": "mapping(address => struct BlindAuction.Bid)",
						"numberOfBytes": "32",
						"value": "t_struct(Bid)6_storage"
					},
					"t_mapping(t_address,t_uint256)": {
						"encoding": "mapping",
						"key": "t_address",
						"label": "mapping(address => uint256)",
						"numberOfBytes": "32",
						"value": "t_uint256"
					},
					"t_struct(Bid)6_storage": {
						"encoding": "inplace",
						"label": "struct BlindAuction.Bid",
						"members": [
							{
								"astId": 3,
								"contract": "project(auction)/BlindAuction.sol:BlindAuction",
								"label": "blindedBid",
								"offset": 0,
								"slot": "0",
								"type": "t_bytes32"
							},
							{
								"astId": 5,
								"contract": "project(auction)/BlindAuction.sol:BlindAuction",
								"label": "deposit",
								"offset": 0,
								"slot": "1",
								"type": "t_uint256"
							}
						],
						"numberOfBytes": "64"
					},
					"t_uint256": {
						"encoding": "inplace",
						"label": "uint256",
						"numberOfBytes": "32"
					}
				}
			},
			"userdoc": {
				"kind": "user",
				"methods": {
					"currentPhase()": {
						"notice": "나중에 돌려줄 금액(최고입찰자였다가 밀려난 사람 등)"
					}
				},
				"version": 1
			}
		}
	}
}