{
	"week5/Ex4_21.sol": {
		"Ex4_21": {
			"abi": [
				{
					"inputs": [],
					"name": "funExt",
					"outputs": [
						{
							"internalType": "uint256",
							"name": "",
							"type": "uint256"
						},
						{
							"internalType": "uint256",
							"name": "",
							"type": "uint256"
						},
						{
							"internalType": "uint256",
							"name": "",
							"type": "uint256"
						}
					],
					"stateMutability": "view",
					"type": "function"
				},
				{
					"inputs": [],
					"name": "funPub",
					"outputs": [
						{
							"internalType": "uint256",
							"name": "",
							"type": "uint256"
						},
						{
							"internalType": "uint256",
							"name": "",
							"type": "uint256"
						},
						{
							"internalType": "uint256",
							"name": "",
							"type": "uint256"
						}
					],
					"stateMutability": "view",
					"type": "function"
				},
				{
					"inputs": [],
					"name": "pub",
					"outputs": [
						{
							"internalType": "uint256",
							"name": "",
							"type": "uint256"
						}
					],
					"stateMutability": "view",
					"type": "function"
				}
			],
			"devdoc": {
				"kind": "dev",
				"methods": {},
				"version": 1
			},
			"evm": {
				"assembly": "    /* \"week5/Ex4_21.sol\":72:636  contract Ex4_21{\r... */\n  mstore(0x40, 0x80)\n    /* \"week5/Ex4_21.sol\":112:113  1 */\n  0x01\n    /* \"week5/Ex4_21.sol\":94:113  uint public pub = 1 */\n  0x00\n  sstore\n    /* \"week5/Ex4_21.sol\":139:140  2 */\n  0x02\n    /* \"week5/Ex4_21.sol\":120:140  uint private pri = 2 */\n  0x01\n  sstore\n    /* \"week5/Ex4_21.sol\":169:170  3 */\n  0x03\n    /* \"week5/Ex4_21.sol\":147:170  uint internal inter = 3 */\n  0x02\n  sstore\n    /* \"week5/Ex4_21.sol\":72:636  contract Ex4_21{\r... */\n  callvalue\n  dup1\n  iszero\n  tag_1\n  jumpi\n  0x00\n  dup1\n  revert\ntag_1:\n  pop\n  dataSize(sub_0)\n  dup1\n  dataOffset(sub_0)\n  0x00\n  codecopy\n  0x00\n  return\nstop\n\nsub_0: assembly {\n        /* \"week5/Ex4_21.sol\":72:636  contract Ex4_21{\r... */\n      mstore(0x40, 0x80)\n      callvalue\n      dup1\n      iszero\n      tag_1\n      jumpi\n      0x00\n      dup1\n      revert\n    tag_1:\n      pop\n      jumpi(tag_2, lt(calldatasize, 0x04))\n      shr(0xe0, calldataload(0x00))\n      dup1\n      0x03383d95\n      eq\n      tag_3\n      jumpi\n      dup1\n      0x7defb410\n      eq\n      tag_4\n      jumpi\n      dup1\n      0xbfc3ef44\n      eq\n      tag_5\n      jumpi\n    tag_2:\n      0x00\n      dup1\n      revert\n        /* \"week5/Ex4_21.sol\":209:307  function funPub() public view returns(uint, uint, uint){\r... */\n    tag_3:\n      tag_6\n      tag_7\n      jump\t// in\n    tag_6:\n      mload(0x40)\n      dup1\n      dup5\n      dup2\n      mstore\n      0x20\n      add\n      dup4\n      dup2\n      mstore\n      0x20\n      add\n      dup3\n      dup2\n      mstore\n      0x20\n      add\n      swap4\n      pop\n      pop\n      pop\n      pop\n      mload(0x40)\n      dup1\n      swap2\n      sub\n      swap1\n      return\n        /* \"week5/Ex4_21.sol\":94:113  uint public pub = 1 */\n    tag_4:\n      tag_8\n      tag_9\n      jump\t// in\n    tag_8:\n      mload(0x40)\n      dup1\n      dup3\n      dup2\n      mstore\n      0x20\n      add\n      swap2\n      pop\n      pop\n      mload(0x40)\n      dup1\n      swap2\n      sub\n      swap1\n      return\n        /* \"week5/Ex4_21.sol\":533:633  function funExt() external view returns(uint, uint, uint){\r... */\n    tag_5:\n      tag_10\n      tag_11\n      jump\t// in\n    tag_10:\n      mload(0x40)\n      dup1\n      dup5\n      dup2\n      mstore\n      0x20\n      add\n      dup4\n      dup2\n      mstore\n      0x20\n      add\n      dup3\n      dup2\n      mstore\n      0x20\n      add\n      swap4\n      pop\n      pop\n      pop\n      pop\n      mload(0x40)\n      dup1\n      swap2\n      sub\n      swap1\n      return\n        /* \"week5/Ex4_21.sol\":209:307  function funPub() public view returns(uint, uint, uint){\r... */\n    tag_7:\n        /* \"week5/Ex4_21.sol\":247:251  uint */\n      0x00\n        /* \"week5/Ex4_21.sol\":253:257  uint */\n      dup1\n        /* \"week5/Ex4_21.sol\":259:263  uint */\n      0x00\n        /* \"week5/Ex4_21.sol\":283:286  pub */\n      dup1\n      sload\n        /* \"week5/Ex4_21.sol\":288:291  pri */\n      sload(0x01)\n        /* \"week5/Ex4_21.sol\":293:298  inter */\n      sload(0x02)\n        /* \"week5/Ex4_21.sol\":275:299  return (pub, pri, inter) */\n      swap3\n      pop\n      swap3\n      pop\n      swap3\n      pop\n        /* \"week5/Ex4_21.sol\":209:307  function funPub() public view returns(uint, uint, uint){\r... */\n      swap1\n      swap2\n      swap3\n      jump\t// out\n        /* \"week5/Ex4_21.sol\":94:113  uint public pub = 1 */\n    tag_9:\n      sload(0x00)\n      dup2\n      jump\t// out\n        /* \"week5/Ex4_21.sol\":533:633  function funExt() external view returns(uint, uint, uint){\r... */\n    tag_11:\n        /* \"week5/Ex4_21.sol\":573:577  uint */\n      0x00\n        /* \"week5/Ex4_21.sol\":579:583  uint */\n      dup1\n        /* \"week5/Ex4_21.sol\":585:589  uint */\n      0x00\n        /* \"week5/Ex4_21.sol\":609:612  pub */\n      dup1\n      sload\n        /* \"week5/Ex4_21.sol\":614:617  pri */\n      sload(0x01)\n        /* \"week5/Ex4_21.sol\":619:624  inter */\n      sload(0x02)\n        /* \"week5/Ex4_21.sol\":601:625  return (pub, pri, inter) */\n      swap3\n      pop\n      swap3\n      pop\n      swap3\n      pop\n        /* \"week5/Ex4_21.sol\":533:633  function funExt() external view returns(uint, uint, uint){\r... */\n      swap1\n      swap2\n      swap3\n      jump\t// out\n\n    auxdata: 0xa2646970667358221220c620cfdba61598e72a3ff7edc85301c4369aae7a78dfd5fc94a315cc427177a064736f6c63430007000033\n}\n",
				"bytecode": {
					"linkReferences": {},
					"object": "608060405260016000556002600155600360025534801561001f57600080fd5b5061011d8061002f6000396000f3fe6080604052348015600f57600080fd5b5060043610603c5760003560e01c806303383d951460415780637defb41014606b578063bfc3ef44146087575b600080fd5b604760b1565b60405180848152602001838152602001828152602001935050505060405180910390f35b607160c9565b6040518082815260200191505060405180910390f35b608d60cf565b60405180848152602001838152602001828152602001935050505060405180910390f35b60008060008054600154600254925092509250909192565b60005481565b6000806000805460015460025492509250925090919256fea2646970667358221220c620cfdba61598e72a3ff7edc85301c4369aae7a78dfd5fc94a315cc427177a064736f6c63430007000033",
					"opcodes": "PUSH1 0x80 PUSH1 0x40 MSTORE PUSH1 0x1 PUSH1 0x0 SSTORE PUSH1 0x2 PUSH1 0x1 SSTORE PUSH1 0x3 PUSH1 0x2 SSTORE CALLVALUE DUP1 ISZERO PUSH2 0x1F JUMPI PUSH1 0x0 DUP1 REVERT JUMPDEST POP PUSH2 0x11D DUP1 PUSH2 0x2F PUSH1 0x0 CODECOPY PUSH1 0x0 RETURN INVALID PUSH1 0x80 PUSH1 0x40 MSTORE CALLVALUE DUP1 ISZERO PUSH1 0xF JUMPI PUSH1 0x0 DUP1 REVERT JUMPDEST POP PUSH1 0x4 CALLDATASIZE LT PUSH1 0x3C JUMPI PUSH1 0x0 CALLDATALOAD PUSH1 0xE0 SHR DUP1 PUSH4 0x3383D95 EQ PUSH1 0x41 JUMPI DUP1 PUSH4 0x7DEFB410 EQ PUSH1 0x6B JUMPI DUP1 PUSH4 0xBFC3EF44 EQ PUSH1 0x87 JUMPI JUMPDEST PUSH1 0x0 DUP1 REVERT JUMPDEST PUSH1 0x47 PUSH1 0xB1 JUMP JUMPDEST PUSH1 0x40 MLOAD DUP1 DUP5 DUP2 MSTORE PUSH1 0x20 ADD DUP4 DUP2 MSTORE PUSH1 0x20 ADD DUP3 DUP2 MSTORE PUSH1 0x20 ADD SWAP4 POP POP POP POP PUSH1 0x40 MLOAD DUP1 SWAP2 SUB SWAP1 RETURN JUMPDEST PUSH1 0x71 PUSH1 0xC9 JUMP JUMPDEST PUSH1 0x40 MLOAD DUP1 DUP3 DUP2 MSTORE PUSH1 0x20 ADD SWAP2 POP POP PUSH1 0x40 MLOAD DUP1 SWAP2 SUB SWAP1 RETURN JUMPDEST PUSH1 0x8D PUSH1 0xCF JUMP JUMPDEST PUSH1 0x40 MLOAD DUP1 DUP5 DUP2 MSTORE PUSH1 0x20 ADD DUP4 DUP2 MSTORE PUSH1 0x20 ADD DUP3 DUP2 MSTORE PUSH1 0x20 ADD SWAP4 POP POP POP POP PUSH1 0x40 MLOAD DUP1 SWAP2 SUB SWAP1 RETURN JUMPDEST PUSH1 0x0 DUP1 PUSH1 0x0 DUP1 SLOAD PUSH1 0x1 SLOAD PUSH1 0x2 SLOAD SWAP3 POP SWAP3 POP SWAP3 POP SWAP1 SWAP2 SWAP3 JUMP JUMPDEST PUSH1 0x0 SLOAD DUP2 JUMP JUMPDEST PUSH1 0x0 DUP1 PUSH1 0x0 DUP1 SLOAD PUSH1 0x1 SLOAD PUSH1 0x2 SLOAD SWAP3 POP SWAP3 POP SWAP3 POP SWAP1 SWAP2 SWAP3 JUMP INVALID LOG2 PUSH5 0x6970667358 0x22 SLT KECCAK256 0xC6 KECCAK256 0xCF 0xDB 0xA6 ISZERO SWAP9 0xE7 0x2A EXTCODEHASH 0xF7 0xED 0xC8 MSTORE8 ADD 0xC4 CALLDATASIZE SWAP11 0xAE PUSH27 0x78DFD5FC94A315CC427177A064736F6C6343000700003300000000 "
				},
				"gasEstimates": {
					"creation": {
						"codeDepositCost": "57000",
						"executionCost": "60123",
						"totalCost": "117123"
					},
					"external": {
						"funExt()": "2703",
						"funPub()": "2659",
						"pub()": "1005"
					},
					"internal": {
						"funInter()": "infinite",
						"funPriv()": "infinite"
					}
				},
				"methodIdentifiers": {
					"funExt()": "bfc3ef44",
					"funPub()": "03383d95",
					"pub()": "7defb410"
				}
			},
			"storageLayout": {
				"storage": [
					{
						"astId": 4,
						"contract": "week5/Ex4_21.sol:Ex4_21",
						"label": "pub",
						"offset": 0,
						"slot": "0",
						"type": "t_uint256"
					},
					{
						"astId": 7,
						"contract": "week5/Ex4_21.sol:Ex4_21",
						"label": "pri",
						"offset": 0,
						"slot": "1",
						"type": "t_uint256"
					},
					{
						"astId": 10,
						"contract": "week5/Ex4_21.sol:Ex4_21",
						"label": "inter",
						"offset": 0,
						"slot": "2",
						"type": "t_uint256"
					}
				],
				"types": {
					"t_uint256": {
						"encoding": "inplace",
						"label": "uint256",
						"numberOfBytes": "32"
					}
				}
			},
			"userdoc": {
				"kind": "user",
				"methods": {},
				"version": 1
			}
		}
	}
}