{
	"week5/Ex4_32.sol": {
		"Ex4_32": {
			"abi": [
				{
					"inputs": [],
					"name": "fun1",
					"outputs": [
						{
							"internalType": "uint256",
							"name": "",
							"type": "uint256"
						}
					],
					"stateMutability": "pure",
					"type": "function"
				}
			],
			"devdoc": {
				"kind": "dev",
				"methods": {},
				"version": 1
			},
			"evm": {
				"assembly": "    /* \"week5/Ex4_32.sol\":74:349  contract Ex4_32{\r... */\n  mstore(0x40, 0x80)\n  callvalue\n  dup1\n  iszero\n  tag_1\n  jumpi\n  0x00\n  dup1\n  revert\ntag_1:\n  pop\n  dataSize(sub_0)\n  dup1\n  dataOffset(sub_0)\n  0x00\n  codecopy\n  0x00\n  return\nstop\n\nsub_0: assembly {\n        /* \"week5/Ex4_32.sol\":74:349  contract Ex4_32{\r... */\n      mstore(0x40, 0x80)\n      callvalue\n      dup1\n      iszero\n      tag_1\n      jumpi\n      0x00\n      dup1\n      revert\n    tag_1:\n      pop\n      jumpi(tag_2, lt(calldatasize, 0x04))\n      shr(0xe0, calldataload(0x00))\n      dup1\n      0x446a45b7\n      eq\n      tag_3\n      jumpi\n    tag_2:\n      0x00\n      dup1\n      revert\n        /* \"week5/Ex4_32.sol\":96:346  function fun1() public pure returns(uint){\r... */\n    tag_3:\n      tag_4\n      tag_5\n      jump\t// in\n    tag_4:\n      mload(0x40)\n      dup1\n      dup3\n      dup2\n      mstore\n      0x20\n      add\n      swap2\n      pop\n      pop\n      mload(0x40)\n      dup1\n      swap2\n      sub\n      swap1\n      return\n    tag_5:\n        /* \"week5/Ex4_32.sol\":132:136  uint */\n      0x00\n        /* \"week5/Ex4_32.sol\":148:159  uint result */\n      dup1\n        /* \"week5/Ex4_32.sol\":162:163  0 */\n      0x00\n        /* \"week5/Ex4_32.sol\":148:163  uint result = 0 */\n      swap1\n      pop\n        /* \"week5/Ex4_32.sol\":178:184  uint a */\n      0x00\n        /* \"week5/Ex4_32.sol\":174:315  for(uint a = 0; a<10;++a){\r... */\n    tag_7:\n        /* \"week5/Ex4_32.sol\":192:194  10 */\n      0x0a\n        /* \"week5/Ex4_32.sol\":190:191  a */\n      dup2\n        /* \"week5/Ex4_32.sol\":190:194  a<10 */\n      lt\n        /* \"week5/Ex4_32.sol\":174:315  for(uint a = 0; a<10;++a){\r... */\n      iszero\n      tag_8\n      jumpi\n        /* \"week5/Ex4_32.sol\":220:221  1 */\n      0x01\n        /* \"week5/Ex4_32.sol\":217:218  a */\n      dup2\n        /* \"week5/Ex4_32.sol\":217:221  a==1 */\n      eq\n        /* \"week5/Ex4_32.sol\":214:270  if(a==1){\r... */\n      iszero\n      tag_10\n      jumpi\n        /* \"week5/Ex4_32.sol\":248:254  result */\n      dup2\n        /* \"week5/Ex4_32.sol\":241:254  return result */\n      swap3\n      pop\n      pop\n      pop\n      jump(tag_6)\n        /* \"week5/Ex4_32.sol\":214:270  if(a==1){\r... */\n    tag_10:\n        /* \"week5/Ex4_32.sol\":302:303  a */\n      dup1\n        /* \"week5/Ex4_32.sol\":293:299  result */\n      dup3\n        /* \"week5/Ex4_32.sol\":293:303  result + a */\n      add\n        /* \"week5/Ex4_32.sol\":284:303  result = result + a */\n      swap2\n      pop\n        /* \"week5/Ex4_32.sol\":195:198  ++a */\n      dup1\n      0x01\n      add\n      swap1\n      pop\n        /* \"week5/Ex4_32.sol\":174:315  for(uint a = 0; a<10;++a){\r... */\n      jump(tag_7)\n    tag_8:\n      pop\n        /* \"week5/Ex4_32.sol\":332:338  result */\n      dup1\n        /* \"week5/Ex4_32.sol\":325:338  return result */\n      swap2\n      pop\n      pop\n        /* \"week5/Ex4_32.sol\":96:346  function fun1() public pure returns(uint){\r... */\n    tag_6:\n      swap1\n      jump\t// out\n\n    auxdata: 0xa2646970667358221220af24c26e6b3379286fa8c2f3c702b6807c5aad32f3e6534f8855ba2fd3d7805c64736f6c63430007000033\n}\n",
				"bytecode": {
					"linkReferences": {},
					"object": "608060405234801561001057600080fd5b5060ba8061001f6000396000f3fe6080604052348015600f57600080fd5b506004361060285760003560e01c8063446a45b714602d575b600080fd5b60336049565b6040518082815260200191505060405180910390f35b6000806000905060005b600a811015607b576001811415606c5781925050506081565b80820191508060010190506053565b50809150505b9056fea2646970667358221220af24c26e6b3379286fa8c2f3c702b6807c5aad32f3e6534f8855ba2fd3d7805c64736f6c63430007000033",
					"opcodes": "PUSH1 0x80 PUSH1 0x40 MSTORE CALLVALUE DUP1 ISZERO PUSH2 0x10 JUMPI PUSH1 0x0 DUP1 REVERT JUMPDEST POP PUSH1 0xBA DUP1 PUSH2 0x1F PUSH1 0x0 CODECOPY PUSH1 0x0 RETURN INVALID PUSH1 0x80 PUSH1 0x40 MSTORE CALLVALUE DUP1 ISZERO PUSH1 0xF JUMPI PUSH1 0x0 DUP1 REVERT JUMPDEST POP PUSH1 0x4 CALLDATASIZE LT PUSH1 0x28 JUMPI PUSH1 0x0 CALLDATALOAD PUSH1 0xE0 SHR DUP1 PUSH4 0x446A45B7 EQ PUSH1 0x2D JUMPI JUMPDEST PUSH1 0x0 DUP1 REVERT JUMPDEST PUSH1 0x33 PUSH1 0x49 JUMP JUMPDEST PUSH1 0x40 MLOAD DUP1 DUP3 DUP2 MSTORE PUSH1 0x20 ADD SWAP2 POP POP PUSH1 0x40 MLOAD DUP1 SWAP2 SUB SWAP1 RETURN JUMPDEST PUSH1 0x0 DUP1 PUSH1 0x0 SWAP1 POP PUSH1 0x0 JUMPDEST PUSH1 0xA DUP2 LT ISZERO PUSH1 0x7B JUMPI PUSH1 0x1 DUP2 EQ ISZERO PUSH1 0x6C JUMPI DUP2 SWAP3 POP POP POP PUSH1 0x81 JUMP JUMPDEST DUP1 DUP3 ADD SWAP2 POP DUP1 PUSH1 0x1 ADD SWAP1 POP PUSH1 0x53 JUMP JUMPDEST POP DUP1 SWAP2 POP POP JUMPDEST SWAP1 JUMP INVALID LOG2 PUSH5 0x6970667358 0x22 SLT KECCAK256 0xAF 0x24 0xC2 PUSH15 0x6B3379286FA8C2F3C702B6807C5AAD ORIGIN RETURN 0xE6 MSTORE8 0x4F DUP9 SSTORE 0xBA 0x2F 0xD3 0xD7 DUP1 0x5C PUSH5 0x736F6C6343 STOP SMOD STOP STOP CALLER "
				},
				"gasEstimates": {
					"creation": {
						"codeDepositCost": "37200",
						"executionCost": "87",
						"totalCost": "37287"
					},
					"external": {
						"fun1()": "infinite"
					}
				},
				"methodIdentifiers": {
					"fun1()": "446a45b7"
				}
			},
			"storageLayout": {
				"storage": [],
				"types": null
			},
			"userdoc": {
				"kind": "user",
				"methods": {},
				"version": 1
			}
		}
	}
}