{
	"week5/Ex4_28.sol": {
		"Ex4_28": {
			"abi": [
				{
					"inputs": [],
					"name": "fun1",
					"outputs": [
						{
							"internalType": "uint256",
							"name": "",
							"type": "uint256"
						}
					],
					"stateMutability": "pure",
					"type": "function"
				}
			],
			"devdoc": {
				"kind": "dev",
				"methods": {},
				"version": 1
			},
			"evm": {
				"assembly": "    /* \"week5/Ex4_28.sol\":72:277  contract Ex4_28{\r... */\n  mstore(0x40, 0x80)\n  callvalue\n  dup1\n  iszero\n  tag_1\n  jumpi\n  0x00\n  dup1\n  revert\ntag_1:\n  pop\n  dataSize(sub_0)\n  dup1\n  dataOffset(sub_0)\n  0x00\n  codecopy\n  0x00\n  return\nstop\n\nsub_0: assembly {\n        /* \"week5/Ex4_28.sol\":72:277  contract Ex4_28{\r... */\n      mstore(0x40, 0x80)\n      callvalue\n      dup1\n      iszero\n      tag_1\n      jumpi\n      0x00\n      dup1\n      revert\n    tag_1:\n      pop\n      jumpi(tag_2, lt(calldatasize, 0x04))\n      shr(0xe0, calldataload(0x00))\n      dup1\n      0x446a45b7\n      eq\n      tag_3\n      jumpi\n    tag_2:\n      0x00\n      dup1\n      revert\n        /* \"week5/Ex4_28.sol\":96:274  function fun1() public pure returns(uint){\r... */\n    tag_3:\n      tag_4\n      tag_5\n      jump\t// in\n    tag_4:\n      mload(0x40)\n      dup1\n      dup3\n      dup2\n      mstore\n      0x20\n      add\n      swap2\n      pop\n      pop\n      mload(0x40)\n      dup1\n      swap2\n      sub\n      swap1\n      return\n    tag_5:\n        /* \"week5/Ex4_28.sol\":132:136  uint */\n      0x00\n        /* \"week5/Ex4_28.sol\":148:159  uint result */\n      dup1\n        /* \"week5/Ex4_28.sol\":162:163  0 */\n      0x00\n        /* \"week5/Ex4_28.sol\":148:163  uint result = 0 */\n      swap1\n      pop\n        /* \"week5/Ex4_28.sol\":178:184  uint a */\n      0x00\n        /* \"week5/Ex4_28.sol\":174:243  for(uint a = 0;a<3;++a){\r... */\n    tag_7:\n        /* \"week5/Ex4_28.sol\":191:192  3 */\n      0x03\n        /* \"week5/Ex4_28.sol\":189:190  a */\n      dup2\n        /* \"week5/Ex4_28.sol\":189:192  a<3 */\n      lt\n        /* \"week5/Ex4_28.sol\":174:243  for(uint a = 0;a<3;++a){\r... */\n      iszero\n      tag_8\n      jumpi\n        /* \"week5/Ex4_28.sol\":230:231  a */\n      dup1\n        /* \"week5/Ex4_28.sol\":221:227  result */\n      dup3\n        /* \"week5/Ex4_28.sol\":221:231  result + a */\n      add\n        /* \"week5/Ex4_28.sol\":212:231  result = result + a */\n      swap2\n      pop\n        /* \"week5/Ex4_28.sol\":193:196  ++a */\n      dup1\n      0x01\n      add\n      swap1\n      pop\n        /* \"week5/Ex4_28.sol\":174:243  for(uint a = 0;a<3;++a){\r... */\n      jump(tag_7)\n    tag_8:\n      pop\n        /* \"week5/Ex4_28.sol\":260:266  result */\n      dup1\n        /* \"week5/Ex4_28.sol\":253:266  return result */\n      swap2\n      pop\n      pop\n        /* \"week5/Ex4_28.sol\":96:274  function fun1() public pure returns(uint){\r... */\n      swap1\n      jump\t// out\n\n    auxdata: 0xa2646970667358221220f7546175ec35bf5e6bb94a27c55c8d09eadd0217d4492ba77cc5285ff69db72364736f6c63430007000033\n}\n",
				"bytecode": {
					"linkReferences": {},
					"object": "6080604052348015600f57600080fd5b5060a88061001e6000396000f3fe6080604052348015600f57600080fd5b506004361060285760003560e01c8063446a45b714602d575b600080fd5b60336049565b6040518082815260200191505060405180910390f35b6000806000905060005b6003811015606a5780820191508060010190506053565b50809150509056fea2646970667358221220f7546175ec35bf5e6bb94a27c55c8d09eadd0217d4492ba77cc5285ff69db72364736f6c63430007000033",
					"opcodes": "PUSH1 0x80 PUSH1 0x40 MSTORE CALLVALUE DUP1 ISZERO PUSH1 0xF JUMPI PUSH1 0x0 DUP1 REVERT JUMPDEST POP PUSH1 0xA8 DUP1 PUSH2 0x1E PUSH1 0x0 CODECOPY PUSH1 0x0 RETURN INVALID PUSH1 0x80 PUSH1 0x40 MSTORE CALLVALUE DUP1 ISZERO PUSH1 0xF JUMPI PUSH1 0x0 DUP1 REVERT JUMPDEST POP PUSH1 0x4 CALLDATASIZE LT PUSH1 0x28 JUMPI PUSH1 0x0 CALLDATALOAD PUSH1 0xE0 SHR DUP1 PUSH4 0x446A45B7 EQ PUSH1 0x2D JUMPI JUMPDEST PUSH1 0x0 DUP1 REVERT JUMPDEST PUSH1 0x33 PUSH1 0x49 JUMP JUMPDEST PUSH1 0x40 MLOAD DUP1 DUP3 DUP2 MSTORE PUSH1 0x20 ADD SWAP2 POP POP PUSH1 0x40 MLOAD DUP1 SWAP2 SUB SWAP1 RETURN JUMPDEST PUSH1 0x0 DUP1 PUSH1 0x0 SWAP1 POP PUSH1 0x0 JUMPDEST PUSH1 0x3 DUP2 LT ISZERO PUSH1 0x6A JUMPI DUP1 DUP3 ADD SWAP2 POP DUP1 PUSH1 0x1 ADD SWAP1 POP PUSH1 0x53 JUMP JUMPDEST POP DUP1 SWAP2 POP POP SWAP1 JUMP INVALID LOG2 PUSH5 0x6970667358 0x22 SLT KECCAK256 0xF7 SLOAD PUSH2 0x75EC CALLDATALOAD 0xBF 0x5E PUSH12 0xB94A27C55C8D09EADD0217D4 0x49 0x2B 0xA7 PUSH29 0xC5285FF69DB72364736F6C634300070000330000000000000000000000 "
				},
				"gasEstimates": {
					"creation": {
						"codeDepositCost": "33600",
						"executionCost": "87",
						"totalCost": "33687"
					},
					"external": {
						"fun1()": "infinite"
					}
				},
				"methodIdentifiers": {
					"fun1()": "446a45b7"
				}
			},
			"storageLayout": {
				"storage": [],
				"types": null
			},
			"userdoc": {
				"kind": "user",
				"methods": {},
				"version": 1
			}
		}
	}
}