{
	"week5/Ex4_22.sol": {
		"Ex4_22": {
			"abi": [
				{
					"inputs": [],
					"name": "funExt",
					"outputs": [
						{
							"internalType": "uint256",
							"name": "",
							"type": "uint256"
						}
					],
					"stateMutability": "pure",
					"type": "function"
				},
				{
					"inputs": [],
					"name": "outPutPri",
					"outputs": [
						{
							"internalType": "uint256",
							"name": "",
							"type": "uint256"
						}
					],
					"stateMutability": "pure",
					"type": "function"
				}
			],
			"devdoc": {
				"kind": "dev",
				"methods": {},
				"version": 1
			},
			"evm": {
				"assembly": "    /* \"week5/Ex4_22.sol\":73:442  contract Ex4_22{\r... */\n  mstore(0x40, 0x80)\n  callvalue\n  dup1\n  iszero\n  tag_1\n  jumpi\n  0x00\n  dup1\n  revert\ntag_1:\n  pop\n  dataSize(sub_0)\n  dup1\n  dataOffset(sub_0)\n  0x00\n  codecopy\n  0x00\n  return\nstop\n\nsub_0: assembly {\n        /* \"week5/Ex4_22.sol\":73:442  contract Ex4_22{\r... */\n      mstore(0x40, 0x80)\n      callvalue\n      dup1\n      iszero\n      tag_1\n      jumpi\n      0x00\n      dup1\n      revert\n    tag_1:\n      pop\n      jumpi(tag_2, lt(calldatasize, 0x04))\n      shr(0xe0, calldataload(0x00))\n      dup1\n      0x6719ae01\n      eq\n      tag_3\n      jumpi\n      dup1\n      0xbfc3ef44\n      eq\n      tag_4\n      jumpi\n    tag_2:\n      0x00\n      dup1\n      revert\n        /* \"week5/Ex4_22.sol\":356:437  function outPutPri() public pure returns (uint){\r... */\n    tag_3:\n      tag_5\n      tag_6\n      jump\t// in\n    tag_5:\n      mload(0x40)\n      dup1\n      dup3\n      dup2\n      mstore\n      0x20\n      add\n      swap2\n      pop\n      pop\n      mload(0x40)\n      dup1\n      swap2\n      sub\n      swap1\n      return\n        /* \"week5/Ex4_22.sol\":97:169  function funExt() external pure returns(uint){\r... */\n    tag_4:\n      tag_7\n      tag_8\n      jump\t// in\n    tag_7:\n      mload(0x40)\n      dup1\n      dup3\n      dup2\n      mstore\n      0x20\n      add\n      swap2\n      pop\n      pop\n      mload(0x40)\n      dup1\n      swap2\n      sub\n      swap1\n      return\n        /* \"week5/Ex4_22.sol\":356:437  function outPutPri() public pure returns (uint){\r... */\n    tag_6:\n        /* \"week5/Ex4_22.sol\":398:402  uint */\n      0x00\n        /* \"week5/Ex4_22.sol\":421:429  funPri() */\n      tag_10\n        /* \"week5/Ex4_22.sol\":421:427  funPri */\n      tag_11\n        /* \"week5/Ex4_22.sol\":421:429  funPri() */\n      jump\t// in\n    tag_10:\n        /* \"week5/Ex4_22.sol\":414:429  return funPri() */\n      swap1\n      pop\n        /* \"week5/Ex4_22.sol\":356:437  function outPutPri() public pure returns (uint){\r... */\n      swap1\n      jump\t// out\n        /* \"week5/Ex4_22.sol\":97:169  function funExt() external pure returns(uint){\r... */\n    tag_8:\n        /* \"week5/Ex4_22.sol\":137:141  uint */\n      0x00\n        /* \"week5/Ex4_22.sol\":160:161  2 */\n      0x02\n        /* \"week5/Ex4_22.sol\":153:161  return 2 */\n      swap1\n      pop\n        /* \"week5/Ex4_22.sol\":97:169  function funExt() external pure returns(uint){\r... */\n      swap1\n      jump\t// out\n        /* \"week5/Ex4_22.sol\":175:246  function funPri() private pure returns(uint){\r... */\n    tag_11:\n        /* \"week5/Ex4_22.sol\":214:218  uint */\n      0x00\n        /* \"week5/Ex4_22.sol\":237:238  3 */\n      0x03\n        /* \"week5/Ex4_22.sol\":230:238  return 3 */\n      swap1\n      pop\n        /* \"week5/Ex4_22.sol\":175:246  function funPri() private pure returns(uint){\r... */\n      swap1\n      jump\t// out\n\n    auxdata: 0xa264697066735822122024fa440cae5d155eb40de4f97823d74376da2b12e8925191a9836bce157f8aa564736f6c63430007000033\n}\n",
				"bytecode": {
					"linkReferences": {},
					"object": "608060405234801561001057600080fd5b5060c48061001f6000396000f3fe6080604052348015600f57600080fd5b506004361060325760003560e01c80636719ae01146037578063bfc3ef44146053575b600080fd5b603d606f565b6040518082815260200191505060405180910390f35b6059607c565b6040518082815260200191505060405180910390f35b600060776085565b905090565b60006002905090565b6000600390509056fea264697066735822122024fa440cae5d155eb40de4f97823d74376da2b12e8925191a9836bce157f8aa564736f6c63430007000033",
					"opcodes": "PUSH1 0x80 PUSH1 0x40 MSTORE CALLVALUE DUP1 ISZERO PUSH2 0x10 JUMPI PUSH1 0x0 DUP1 REVERT JUMPDEST POP PUSH1 0xC4 DUP1 PUSH2 0x1F PUSH1 0x0 CODECOPY PUSH1 0x0 RETURN INVALID PUSH1 0x80 PUSH1 0x40 MSTORE CALLVALUE DUP1 ISZERO PUSH1 0xF JUMPI PUSH1 0x0 DUP1 REVERT JUMPDEST POP PUSH1 0x4 CALLDATASIZE LT PUSH1 0x32 JUMPI PUSH1 0x0 CALLDATALOAD PUSH1 0xE0 SHR DUP1 PUSH4 0x6719AE01 EQ PUSH1 0x37 JUMPI DUP1 PUSH4 0xBFC3EF44 EQ PUSH1 0x53 JUMPI JUMPDEST PUSH1 0x0 DUP1 REVERT JUMPDEST PUSH1 0x3D PUSH1 0x6F JUMP JUMPDEST PUSH1 0x40 MLOAD DUP1 DUP3 DUP2 MSTORE PUSH1 0x20 ADD SWAP2 POP POP PUSH1 0x40 MLOAD DUP1 SWAP2 SUB SWAP1 RETURN JUMPDEST PUSH1 0x59 PUSH1 0x7C JUMP JUMPDEST PUSH1 0x40 MLOAD DUP1 DUP3 DUP2 MSTORE PUSH1 0x20 ADD SWAP2 POP POP PUSH1 0x40 MLOAD DUP1 SWAP2 SUB SWAP1 RETURN JUMPDEST PUSH1 0x0 PUSH1 0x77 PUSH1 0x85 JUMP JUMPDEST SWAP1 POP SWAP1 JUMP JUMPDEST PUSH1 0x0 PUSH1 0x2 SWAP1 POP SWAP1 JUMP JUMPDEST PUSH1 0x0 PUSH1 0x3 SWAP1 POP SWAP1 JUMP INVALID LOG2 PUSH5 0x6970667358 0x22 SLT KECCAK256 0x24 STATICCALL DIFFICULTY 0xC 0xAE 0x5D ISZERO 0x5E 0xB4 0xD 0xE4 0xF9 PUSH25 0x23D74376DA2B12E8925191A9836BCE157F8AA564736F6C6343 STOP SMOD STOP STOP CALLER "
				},
				"gasEstimates": {
					"creation": {
						"codeDepositCost": "39200",
						"executionCost": "93",
						"totalCost": "39293"
					},
					"external": {
						"funExt()": "213",
						"outPutPri()": "226"
					},
					"internal": {
						"funPri()": "23"
					}
				},
				"methodIdentifiers": {
					"funExt()": "bfc3ef44",
					"outPutPri()": "6719ae01"
				}
			},
			"storageLayout": {
				"storage": [],
				"types": null
			},
			"userdoc": {
				"kind": "user",
				"methods": {},
				"version": 1
			}
		}
	}
}