{
	"project(auction)/newBlindAuction.sol": {
		"BlindAuction": {
			"abi": [
				{
					"inputs": [],
					"stateMutability": "nonpayable",
					"type": "constructor"
				},
				{
					"anonymous": false,
					"inputs": [
						{
							"indexed": false,
							"internalType": "address",
							"name": "winner",
							"type": "address"
						},
						{
							"indexed": false,
							"internalType": "uint256",
							"name": "highestBid",
							"type": "uint256"
						}
					],
					"name": "AuctionEnded",
					"type": "event"
				},
				{
					"anonymous": false,
					"inputs": [],
					"name": "AuctionInit",
					"type": "event"
				},
				{
					"anonymous": false,
					"inputs": [],
					"name": "BiddingStarted",
					"type": "event"
				},
				{
					"anonymous": false,
					"inputs": [],
					"name": "RevealStarted",
					"type": "event"
				},
				{
					"inputs": [],
					"name": "auctionEnd",
					"outputs": [],
					"stateMutability": "nonpayable",
					"type": "function"
				},
				{
					"inputs": [],
					"name": "beneficiary",
					"outputs": [
						{
							"internalType": "address payable",
							"name": "",
							"type": "address"
						}
					],
					"stateMutability": "view",
					"type": "function"
				},
				{
					"inputs": [
						{
							"internalType": "bytes32",
							"name": "blindBid",
							"type": "bytes32"
						}
					],
					"name": "bid",
					"outputs": [],
					"stateMutability": "payable",
					"type": "function"
				},
				{
					"inputs": [],
					"name": "biddingEndTime",
					"outputs": [
						{
							"internalType": "uint256",
							"name": "",
							"type": "uint256"
						}
					],
					"stateMutability": "view",
					"type": "function"
				},
				{
					"inputs": [
						{
							"internalType": "address",
							"name": "",
							"type": "address"
						}
					],
					"name": "bids",
					"outputs": [
						{
							"internalType": "bytes32",
							"name": "blindedBid",
							"type": "bytes32"
						},
						{
							"internalType": "uint256",
							"name": "deposit",
							"type": "uint256"
						}
					],
					"stateMutability": "view",
					"type": "function"
				},
				{
					"inputs": [],
					"name": "currentPhase",
					"outputs": [
						{
							"internalType": "enum BlindAuction.Phase",
							"name": "",
							"type": "uint8"
						}
					],
					"stateMutability": "view",
					"type": "function"
				},
				{
					"inputs": [],
					"name": "ended",
					"outputs": [
						{
							"internalType": "bool",
							"name": "",
							"type": "bool"
						}
					],
					"stateMutability": "view",
					"type": "function"
				},
				{
					"inputs": [],
					"name": "highestBid",
					"outputs": [
						{
							"internalType": "uint256",
							"name": "",
							"type": "uint256"
						}
					],
					"stateMutability": "view",
					"type": "function"
				},
				{
					"inputs": [],
					"name": "highestBidder",
					"outputs": [
						{
							"internalType": "address",
							"name": "",
							"type": "address"
						}
					],
					"stateMutability": "view",
					"type": "function"
				},
				{
					"inputs": [],
					"name": "lateRefund",
					"outputs": [],
					"stateMutability": "nonpayable",
					"type": "function"
				},
				{
					"inputs": [
						{
							"internalType": "address",
							"name": "",
							"type": "address"
						}
					],
					"name": "pendingReturns",
					"outputs": [
						{
							"internalType": "uint256",
							"name": "",
							"type": "uint256"
						}
					],
					"stateMutability": "view",
					"type": "function"
				},
				{
					"inputs": [
						{
							"internalType": "uint256",
							"name": "value",
							"type": "uint256"
						},
						{
							"internalType": "bytes32",
							"name": "secret",
							"type": "bytes32"
						}
					],
					"name": "reveal",
					"outputs": [],
					"stateMutability": "nonpayable",
					"type": "function"
				},
				{
					"inputs": [],
					"name": "revealEndTime",
					"outputs": [
						{
							"internalType": "uint256",
							"name": "",
							"type": "uint256"
						}
					],
					"stateMutability": "view",
					"type": "function"
				},
				{
					"inputs": [
						{
							"internalType": "uint256",
							"name": "biddingDuration",
							"type": "uint256"
						},
						{
							"internalType": "uint256",
							"name": "revealDuration",
							"type": "uint256"
						}
					],
					"name": "setAuctionTimes",
					"outputs": [],
					"stateMutability": "nonpayable",
					"type": "function"
				},
				{
					"inputs": [],
					"name": "timesSet",
					"outputs": [
						{
							"internalType": "bool",
							"name": "",
							"type": "bool"
						}
					],
					"stateMutability": "view",
					"type": "function"
				},
				{
					"inputs": [],
					"name": "withdraw",
					"outputs": [],
					"stateMutability": "nonpayable",
					"type": "function"
				}
			],
			"devdoc": {
				"kind": "dev",
				"methods": {},
				"version": 1
			},
			"evm": {
				"assembly": "    /* \"project(auction)/newBlindAuction.sol\":72:9312  contract BlindAuction {  ... */\n  mstore(0x40, 0x80)\n    /* \"project(auction)/newBlindAuction.sol\":654:655  0 */\n  0x00\n    /* \"project(auction)/newBlindAuction.sol\":626:655  uint    public highestBid = 0 */\n  0x02\n  sstore\n    /* \"project(auction)/newBlindAuction.sol\":936:946  Phase.Init */\n  0x00\n    /* \"project(auction)/newBlindAuction.sol\":908:946  Phase public currentPhase = Phase.Init */\n  0x05\n  exp(0x0100, 0x00)\n  dup2\n  sload\n  dup2\n  0xff\n  mul\n  not\n  and\n  swap1\n  dup4\n  0x03\n  dup2\n  gt\n  iszero\n  tag_1\n  jumpi\n  tag_2\n  tag_3\n  jump\t// in\ntag_2:\ntag_1:\n  mul\n  or\n  swap1\n  sstore\n  pop\n    /* \"project(auction)/newBlindAuction.sol\":1959:2054  constructor() {... */\n  callvalue\n  dup1\n  iszero\n  tag_4\n  jumpi\n  revert(0x00, 0x00)\ntag_4:\n  pop\n    /* \"project(auction)/newBlindAuction.sol\":2006:2016  msg.sender */\n  caller\n    /* \"project(auction)/newBlindAuction.sol\":1984:1995  beneficiary */\n  0x00\n  0x00\n    /* \"project(auction)/newBlindAuction.sol\":1984:2017  beneficiary = payable(msg.sender) */\n  0x0100\n  exp\n  dup2\n  sload\n  dup2\n  0xffffffffffffffffffffffffffffffffffffffff\n  mul\n  not\n  and\n  swap1\n  dup4\n  0xffffffffffffffffffffffffffffffffffffffff\n  and\n  mul\n  or\n  swap1\n  sstore\n  pop\n    /* \"project(auction)/newBlindAuction.sol\":2033:2046  AuctionInit() */\n  0x8ad2842071cb64589c8e006941bc20b615aae08a93530e211ca7c9639bd26d97\n  mload(0x40)\n  mload(0x40)\n  dup1\n  swap2\n  sub\n  swap1\n  log1\n    /* \"project(auction)/newBlindAuction.sol\":72:9312  contract BlindAuction {  ... */\n  jump(tag_7)\n    /* \"#utility.yul\":7:187   */\ntag_3:\n    /* \"#utility.yul\":55:132   */\n  0x4e487b7100000000000000000000000000000000000000000000000000000000\n    /* \"#utility.yul\":52:53   */\n  0x00\n    /* \"#utility.yul\":45:133   */\n  mstore\n    /* \"#utility.yul\":152:156   */\n  0x21\n    /* \"#utility.yul\":149:150   */\n  0x04\n    /* \"#utility.yul\":142:157   */\n  mstore\n    /* \"#utility.yul\":176:180   */\n  0x24\n    /* \"#utility.yul\":173:174   */\n  0x00\n    /* \"#utility.yul\":166:181   */\n  revert\n    /* \"project(auction)/newBlindAuction.sol\":72:9312  contract BlindAuction {  ... */\ntag_7:\n  dataSize(sub_0)\n  dup1\n  dataOffset(sub_0)\n  0x00\n  codecopy\n  0x00\n  return\nstop\n\nsub_0: assembly {\n        /* \"project(auction)/newBlindAuction.sol\":72:9312  contract BlindAuction {  ... */\n      mstore(0x40, 0x80)\n      jumpi(tag_1, lt(calldatasize, 0x04))\n      shr(0xe0, calldataload(0x00))\n      dup1\n      0x62ea82db\n      gt\n      tag_18\n      jumpi\n      dup1\n      0xc16c917e\n      gt\n      tag_19\n      jumpi\n      dup1\n      0xc16c917e\n      eq\n      tag_14\n      jumpi\n      dup1\n      0xd49dc1d8\n      eq\n      tag_15\n      jumpi\n      dup1\n      0xd57bde79\n      eq\n      tag_16\n      jumpi\n      dup1\n      0xf5950a07\n      eq\n      tag_17\n      jumpi\n      jump(tag_1)\n    tag_19:\n      dup1\n      0x62ea82db\n      eq\n      tag_10\n      jumpi\n      dup1\n      0x91f90157\n      eq\n      tag_11\n      jumpi\n      dup1\n      0x957bb1e0\n      eq\n      tag_12\n      jumpi\n      dup1\n      0x9f1b2fc1\n      eq\n      tag_13\n      jumpi\n      jump(tag_1)\n    tag_18:\n      dup1\n      0x2a24f46c\n      gt\n      tag_20\n      jumpi\n      dup1\n      0x2a24f46c\n      eq\n      tag_6\n      jumpi\n      dup1\n      0x38af3eed\n      eq\n      tag_7\n      jumpi\n      dup1\n      0x3ccfd60b\n      eq\n      tag_8\n      jumpi\n      dup1\n      0x4036778f\n      eq\n      tag_9\n      jumpi\n      jump(tag_1)\n    tag_20:\n      dup1\n      0x055ad42e\n      eq\n      tag_2\n      jumpi\n      dup1\n      0x1022eccb\n      eq\n      tag_3\n      jumpi\n      dup1\n      0x12fa6feb\n      eq\n      tag_4\n      jumpi\n      dup1\n      0x26b387bb\n      eq\n      tag_5\n      jumpi\n    tag_1:\n      revert(0x00, 0x00)\n        /* \"project(auction)/newBlindAuction.sol\":908:946  Phase public currentPhase = Phase.Init */\n    tag_2:\n      callvalue\n      dup1\n      iszero\n      tag_21\n      jumpi\n      revert(0x00, 0x00)\n    tag_21:\n      pop\n      tag_22\n      tag_23\n      jump\t// in\n    tag_22:\n      mload(0x40)\n      tag_24\n      swap2\n      swap1\n      tag_25\n      jump\t// in\n    tag_24:\n      mload(0x40)\n      dup1\n      swap2\n      sub\n      swap1\n      return\n        /* \"project(auction)/newBlindAuction.sol\":1101:1127  uint public biddingEndTime */\n    tag_3:\n      callvalue\n      dup1\n      iszero\n      tag_26\n      jumpi\n      revert(0x00, 0x00)\n    tag_26:\n      pop\n      tag_27\n      tag_28\n      jump\t// in\n    tag_27:\n      mload(0x40)\n      tag_29\n      swap2\n      swap1\n      tag_30\n      jump\t// in\n    tag_29:\n      mload(0x40)\n      dup1\n      swap2\n      sub\n      swap1\n      return\n        /* \"project(auction)/newBlindAuction.sol\":953:970  bool public ended */\n    tag_4:\n      callvalue\n      dup1\n      iszero\n      tag_31\n      jumpi\n      revert(0x00, 0x00)\n    tag_31:\n      pop\n      tag_32\n      tag_33\n      jump\t// in\n    tag_32:\n      mload(0x40)\n      tag_34\n      swap2\n      swap1\n      tag_35\n      jump\t// in\n    tag_34:\n      mload(0x40)\n      dup1\n      swap2\n      sub\n      swap1\n      return\n        /* \"project(auction)/newBlindAuction.sol\":747:793  mapping(address => uint) public pendingReturns */\n    tag_5:\n      callvalue\n      dup1\n      iszero\n      tag_36\n      jumpi\n      revert(0x00, 0x00)\n    tag_36:\n      pop\n      tag_37\n      0x04\n      dup1\n      calldatasize\n      sub\n      dup2\n      add\n      swap1\n      tag_38\n      swap2\n      swap1\n      tag_39\n      jump\t// in\n    tag_38:\n      tag_40\n      jump\t// in\n    tag_37:\n      mload(0x40)\n      tag_41\n      swap2\n      swap1\n      tag_30\n      jump\t// in\n    tag_41:\n      mload(0x40)\n      dup1\n      swap2\n      sub\n      swap1\n      return\n        /* \"project(auction)/newBlindAuction.sol\":8827:9309  function auctionEnd() public onlyBeneficiary inPhase(Phase.Done) {... */\n    tag_6:\n      callvalue\n      dup1\n      iszero\n      tag_42\n      jumpi\n      revert(0x00, 0x00)\n    tag_42:\n      pop\n      tag_43\n      tag_44\n      jump\t// in\n    tag_43:\n      stop\n        /* \"project(auction)/newBlindAuction.sol\":483:517  address payable public beneficiary */\n    tag_7:\n      callvalue\n      dup1\n      iszero\n      tag_45\n      jumpi\n      revert(0x00, 0x00)\n    tag_45:\n      pop\n      tag_46\n      tag_47\n      jump\t// in\n    tag_46:\n      mload(0x40)\n      tag_48\n      swap2\n      swap1\n      tag_49\n      jump\t// in\n    tag_48:\n      mload(0x40)\n      dup1\n      swap2\n      sub\n      swap1\n      return\n        /* \"project(auction)/newBlindAuction.sol\":8420:8727  function withdraw() public {... */\n    tag_8:\n      callvalue\n      dup1\n      iszero\n      tag_50\n      jumpi\n      revert(0x00, 0x00)\n    tag_50:\n      pop\n      tag_51\n      tag_52\n      jump\t// in\n    tag_51:\n      stop\n        /* \"project(auction)/newBlindAuction.sol\":5679:7082  function reveal(uint value, bytes32 secret) public inPhase(Phase.Reveal) {... */\n    tag_9:\n      callvalue\n      dup1\n      iszero\n      tag_53\n      jumpi\n      revert(0x00, 0x00)\n    tag_53:\n      pop\n      tag_54\n      0x04\n      dup1\n      calldatasize\n      sub\n      dup2\n      add\n      swap1\n      tag_55\n      swap2\n      swap1\n      tag_56\n      jump\t// in\n    tag_55:\n      tag_57\n      jump\t// in\n    tag_54:\n      stop\n        /* \"project(auction)/newBlindAuction.sol\":701:736  mapping(address => Bid) public bids */\n    tag_10:\n      callvalue\n      dup1\n      iszero\n      tag_58\n      jumpi\n      revert(0x00, 0x00)\n    tag_58:\n      pop\n      tag_59\n      0x04\n      dup1\n      calldatasize\n      sub\n      dup2\n      add\n      swap1\n      tag_60\n      swap2\n      swap1\n      tag_39\n      jump\t// in\n    tag_60:\n      tag_61\n      jump\t// in\n    tag_59:\n      mload(0x40)\n      tag_62\n      swap3\n      swap2\n      swap1\n      tag_63\n      jump\t// in\n    tag_62:\n      mload(0x40)\n      dup1\n      swap2\n      sub\n      swap1\n      return\n        /* \"project(auction)/newBlindAuction.sol\":591:619  address public highestBidder */\n    tag_11:\n      callvalue\n      dup1\n      iszero\n      tag_64\n      jumpi\n      revert(0x00, 0x00)\n    tag_64:\n      pop\n      tag_65\n      tag_66\n      jump\t// in\n    tag_65:\n      mload(0x40)\n      tag_67\n      swap2\n      swap1\n      tag_68\n      jump\t// in\n    tag_67:\n      mload(0x40)\n      dup1\n      swap2\n      sub\n      swap1\n      return\n        /* \"project(auction)/newBlindAuction.sol\":5137:5609  function bid(bytes32 blindBid) public payable inPhase(Phase.Bidding) {... */\n    tag_12:\n      tag_69\n      0x04\n      dup1\n      calldatasize\n      sub\n      dup2\n      add\n      swap1\n      tag_70\n      swap2\n      swap1\n      tag_71\n      jump\t// in\n    tag_70:\n      tag_72\n      jump\t// in\n    tag_69:\n      stop\n        /* \"project(auction)/newBlindAuction.sol\":2366:2965  function setAuctionTimes(uint biddingDuration, uint revealDuration)... */\n    tag_13:\n      callvalue\n      dup1\n      iszero\n      tag_73\n      jumpi\n      revert(0x00, 0x00)\n    tag_73:\n      pop\n      tag_74\n      0x04\n      dup1\n      calldatasize\n      sub\n      dup2\n      add\n      swap1\n      tag_75\n      swap2\n      swap1\n      tag_76\n      jump\t// in\n    tag_75:\n      tag_77\n      jump\t// in\n    tag_74:\n      stop\n        /* \"project(auction)/newBlindAuction.sol\":1215:1235  bool public timesSet */\n    tag_14:\n      callvalue\n      dup1\n      iszero\n      tag_78\n      jumpi\n      revert(0x00, 0x00)\n    tag_78:\n      pop\n      tag_79\n      tag_80\n      jump\t// in\n    tag_79:\n      mload(0x40)\n      tag_81\n      swap2\n      swap1\n      tag_35\n      jump\t// in\n    tag_81:\n      mload(0x40)\n      dup1\n      swap2\n      sub\n      swap1\n      return\n        /* \"project(auction)/newBlindAuction.sol\":1158:1183  uint public revealEndTime */\n    tag_15:\n      callvalue\n      dup1\n      iszero\n      tag_82\n      jumpi\n      revert(0x00, 0x00)\n    tag_82:\n      pop\n      tag_83\n      tag_84\n      jump\t// in\n    tag_83:\n      mload(0x40)\n      tag_85\n      swap2\n      swap1\n      tag_30\n      jump\t// in\n    tag_85:\n      mload(0x40)\n      dup1\n      swap2\n      sub\n      swap1\n      return\n        /* \"project(auction)/newBlindAuction.sol\":626:655  uint    public highestBid = 0 */\n    tag_16:\n      callvalue\n      dup1\n      iszero\n      tag_86\n      jumpi\n      revert(0x00, 0x00)\n    tag_86:\n      pop\n      tag_87\n      tag_88\n      jump\t// in\n    tag_87:\n      mload(0x40)\n      tag_89\n      swap2\n      swap1\n      tag_30\n      jump\t// in\n    tag_89:\n      mload(0x40)\n      dup1\n      swap2\n      sub\n      swap1\n      return\n        /* \"project(auction)/newBlindAuction.sol\":7228:7710  function lateRefund() public {... */\n    tag_17:\n      callvalue\n      dup1\n      iszero\n      tag_90\n      jumpi\n      revert(0x00, 0x00)\n    tag_90:\n      pop\n      tag_91\n      tag_92\n      jump\t// in\n    tag_91:\n      stop\n        /* \"project(auction)/newBlindAuction.sol\":908:946  Phase public currentPhase = Phase.Init */\n    tag_23:\n      0x05\n      0x00\n      swap1\n      sload\n      swap1\n      0x0100\n      exp\n      swap1\n      div\n      0xff\n      and\n      dup2\n      jump\t// out\n        /* \"project(auction)/newBlindAuction.sol\":1101:1127  uint public biddingEndTime */\n    tag_28:\n      sload(0x06)\n      dup2\n      jump\t// out\n        /* \"project(auction)/newBlindAuction.sol\":953:970  bool public ended */\n    tag_33:\n      0x05\n      0x01\n      swap1\n      sload\n      swap1\n      0x0100\n      exp\n      swap1\n      div\n      0xff\n      and\n      dup2\n      jump\t// out\n        /* \"project(auction)/newBlindAuction.sol\":747:793  mapping(address => uint) public pendingReturns */\n    tag_40:\n      mstore(0x20, 0x04)\n      dup1\n      0x00\n      mstore\n      keccak256(0x00, 0x40)\n      0x00\n      swap2\n      pop\n      swap1\n      pop\n      sload\n      dup2\n      jump\t// out\n        /* \"project(auction)/newBlindAuction.sol\":8827:9309  function auctionEnd() public onlyBeneficiary inPhase(Phase.Done) {... */\n    tag_44:\n        /* \"project(auction)/newBlindAuction.sol\":1599:1610  beneficiary */\n      0x00\n      0x00\n      swap1\n      sload\n      swap1\n      0x0100\n      exp\n      swap1\n      div\n      0xffffffffffffffffffffffffffffffffffffffff\n      and\n        /* \"project(auction)/newBlindAuction.sol\":1585:1610  msg.sender == beneficiary */\n      0xffffffffffffffffffffffffffffffffffffffff\n      and\n        /* \"project(auction)/newBlindAuction.sol\":1585:1595  msg.sender */\n      caller\n        /* \"project(auction)/newBlindAuction.sol\":1585:1610  msg.sender == beneficiary */\n      0xffffffffffffffffffffffffffffffffffffffff\n      and\n      eq\n        /* \"project(auction)/newBlindAuction.sol\":1577:1631  require(msg.sender == beneficiary, \"Only beneficiary\") */\n      tag_94\n      jumpi\n      mload(0x40)\n      0x08c379a000000000000000000000000000000000000000000000000000000000\n      dup2\n      mstore\n      0x04\n      add\n      tag_95\n      swap1\n      tag_96\n      jump\t// in\n    tag_95:\n      mload(0x40)\n      dup1\n      swap2\n      sub\n      swap1\n      revert\n    tag_94:\n        /* \"project(auction)/newBlindAuction.sol\":8880:8890  Phase.Done */\n      0x03\n        /* \"project(auction)/newBlindAuction.sol\":1837:1857  _updatePhaseByTime() */\n      tag_98\n        /* \"project(auction)/newBlindAuction.sol\":1837:1855  _updatePhaseByTime */\n      tag_99\n        /* \"project(auction)/newBlindAuction.sol\":1837:1857  _updatePhaseByTime() */\n      jump\t// in\n    tag_98:\n        /* \"project(auction)/newBlindAuction.sol\":1892:1893  P */\n      dup1\n        /* \"project(auction)/newBlindAuction.sol\":1876:1893  currentPhase == P */\n      0x03\n      dup2\n      gt\n      iszero\n      tag_100\n      jumpi\n      tag_101\n      tag_102\n      jump\t// in\n    tag_101:\n    tag_100:\n        /* \"project(auction)/newBlindAuction.sol\":1876:1888  currentPhase */\n      0x05\n      0x00\n      swap1\n      sload\n      swap1\n      0x0100\n      exp\n      swap1\n      div\n      0xff\n      and\n        /* \"project(auction)/newBlindAuction.sol\":1876:1893  currentPhase == P */\n      0x03\n      dup2\n      gt\n      iszero\n      tag_103\n      jumpi\n      tag_104\n      tag_102\n      jump\t// in\n    tag_104:\n    tag_103:\n      eq\n        /* \"project(auction)/newBlindAuction.sol\":1868:1909  require(currentPhase == P, \"Wrong phase\") */\n      tag_105\n      jumpi\n      mload(0x40)\n      0x08c379a000000000000000000000000000000000000000000000000000000000\n      dup2\n      mstore\n      0x04\n      add\n      tag_106\n      swap1\n      tag_107\n      jump\t// in\n    tag_106:\n      mload(0x40)\n      dup1\n      swap2\n      sub\n      swap1\n      revert\n    tag_105:\n        /* \"project(auction)/newBlindAuction.sol\":8912:8917  ended */\n      0x05\n      0x01\n      swap1\n      sload\n      swap1\n      0x0100\n      exp\n      swap1\n      div\n      0xff\n      and\n        /* \"project(auction)/newBlindAuction.sol\":8911:8917  !ended */\n      iszero\n        /* \"project(auction)/newBlindAuction.sol\":8903:8947  require(!ended, \"auctionEnd already called\") */\n      tag_109\n      jumpi\n      mload(0x40)\n      0x08c379a000000000000000000000000000000000000000000000000000000000\n      dup2\n      mstore\n      0x04\n      add\n      tag_110\n      swap1\n      tag_111\n      jump\t// in\n    tag_110:\n      mload(0x40)\n      dup1\n      swap2\n      sub\n      swap1\n      revert\n    tag_109:\n        /* \"project(auction)/newBlindAuction.sol\":8966:8970  true */\n      0x01\n        /* \"project(auction)/newBlindAuction.sol\":8958:8963  ended */\n      0x05\n      0x01\n        /* \"project(auction)/newBlindAuction.sol\":8958:8970  ended = true */\n      0x0100\n      exp\n      dup2\n      sload\n      dup2\n      0xff\n      mul\n      not\n      and\n      swap1\n      dup4\n      iszero\n      iszero\n      mul\n      or\n      swap1\n      sstore\n      pop\n        /* \"project(auction)/newBlindAuction.sol\":8988:9027  AuctionEnded(highestBidder, highestBid) */\n      0xdaec4582d5d9595688c8c98545fdd1c696d41c6aeaeb636737e84ed2f5c00eda\n        /* \"project(auction)/newBlindAuction.sol\":9001:9014  highestBidder */\n      0x01\n      0x00\n      swap1\n      sload\n      swap1\n      0x0100\n      exp\n      swap1\n      div\n      0xffffffffffffffffffffffffffffffffffffffff\n      and\n        /* \"project(auction)/newBlindAuction.sol\":9016:9026  highestBid */\n      sload(0x02)\n        /* \"project(auction)/newBlindAuction.sol\":8988:9027  AuctionEnded(highestBidder, highestBid) */\n      mload(0x40)\n      tag_112\n      swap3\n      swap2\n      swap1\n      tag_113\n      jump\t// in\n    tag_112:\n      mload(0x40)\n      dup1\n      swap2\n      sub\n      swap1\n      log1\n        /* \"project(auction)/newBlindAuction.sol\":9240:9241  0 */\n      0x00\n        /* \"project(auction)/newBlindAuction.sol\":9227:9237  highestBid */\n      sload(0x02)\n        /* \"project(auction)/newBlindAuction.sol\":9227:9241  highestBid > 0 */\n      gt\n        /* \"project(auction)/newBlindAuction.sol\":9223:9302  if (highestBid > 0) {... */\n      iszero\n      tag_114\n      jumpi\n        /* \"project(auction)/newBlindAuction.sol\":9258:9269  beneficiary */\n      0x00\n      0x00\n      swap1\n      sload\n      swap1\n      0x0100\n      exp\n      swap1\n      div\n      0xffffffffffffffffffffffffffffffffffffffff\n      and\n        /* \"project(auction)/newBlindAuction.sol\":9258:9278  beneficiary.transfer */\n      0xffffffffffffffffffffffffffffffffffffffff\n      and\n        /* \"project(auction)/newBlindAuction.sol\":9258:9290  beneficiary.transfer(highestBid) */\n      0x08fc\n        /* \"project(auction)/newBlindAuction.sol\":9279:9289  highestBid */\n      sload(0x02)\n        /* \"project(auction)/newBlindAuction.sol\":9258:9290  beneficiary.transfer(highestBid) */\n      swap1\n      dup2\n      iszero\n      mul\n      swap1\n      mload(0x40)\n      0x00\n      mload(0x40)\n      dup1\n      dup4\n      sub\n      dup2\n      dup6\n      dup9\n      dup9\n      call\n      swap4\n      pop\n      pop\n      pop\n      pop\n      iszero\n      dup1\n      iszero\n      tag_116\n      jumpi\n      returndatacopy(0x00, 0x00, returndatasize)\n      revert(0x00, returndatasize)\n    tag_116:\n      pop\n        /* \"project(auction)/newBlindAuction.sol\":9223:9302  if (highestBid > 0) {... */\n    tag_114:\n        /* \"project(auction)/newBlindAuction.sol\":1642:1643  _ */\n      pop\n        /* \"project(auction)/newBlindAuction.sol\":8827:9309  function auctionEnd() public onlyBeneficiary inPhase(Phase.Done) {... */\n      jump\t// out\n        /* \"project(auction)/newBlindAuction.sol\":483:517  address payable public beneficiary */\n    tag_47:\n      0x00\n      0x00\n      swap1\n      sload\n      swap1\n      0x0100\n      exp\n      swap1\n      div\n      0xffffffffffffffffffffffffffffffffffffffff\n      and\n      dup2\n      jump\t// out\n        /* \"project(auction)/newBlindAuction.sol\":8420:8727  function withdraw() public {... */\n    tag_52:\n        /* \"project(auction)/newBlindAuction.sol\":8458:8469  uint amount */\n      0x00\n        /* \"project(auction)/newBlindAuction.sol\":8472:8486  pendingReturns */\n      0x04\n        /* \"project(auction)/newBlindAuction.sol\":8472:8498  pendingReturns[msg.sender] */\n      0x00\n        /* \"project(auction)/newBlindAuction.sol\":8487:8497  msg.sender */\n      caller\n        /* \"project(auction)/newBlindAuction.sol\":8472:8498  pendingReturns[msg.sender] */\n      0xffffffffffffffffffffffffffffffffffffffff\n      and\n      0xffffffffffffffffffffffffffffffffffffffff\n      and\n      dup2\n      mstore\n      0x20\n      add\n      swap1\n      dup2\n      mstore\n      0x20\n      add\n      0x00\n      keccak256\n      sload\n        /* \"project(auction)/newBlindAuction.sol\":8458:8498  uint amount = pendingReturns[msg.sender] */\n      swap1\n      pop\n        /* \"project(auction)/newBlindAuction.sol\":8526:8527  0 */\n      0x00\n        /* \"project(auction)/newBlindAuction.sol\":8517:8523  amount */\n      dup2\n        /* \"project(auction)/newBlindAuction.sol\":8517:8527  amount > 0 */\n      gt\n        /* \"project(auction)/newBlindAuction.sol\":8509:8551  require(amount > 0, \"Nothing to withdraw\") */\n      tag_118\n      jumpi\n      mload(0x40)\n      0x08c379a000000000000000000000000000000000000000000000000000000000\n      dup2\n      mstore\n      0x04\n      add\n      tag_119\n      swap1\n      tag_120\n      jump\t// in\n    tag_119:\n      mload(0x40)\n      dup1\n      swap2\n      sub\n      swap1\n      revert\n    tag_118:\n        /* \"project(auction)/newBlindAuction.sol\":8671:8672  0 */\n      0x00\n        /* \"project(auction)/newBlindAuction.sol\":8642:8656  pendingReturns */\n      0x04\n        /* \"project(auction)/newBlindAuction.sol\":8642:8668  pendingReturns[msg.sender] */\n      0x00\n        /* \"project(auction)/newBlindAuction.sol\":8657:8667  msg.sender */\n      caller\n        /* \"project(auction)/newBlindAuction.sol\":8642:8668  pendingReturns[msg.sender] */\n      0xffffffffffffffffffffffffffffffffffffffff\n      and\n      0xffffffffffffffffffffffffffffffffffffffff\n      and\n      dup2\n      mstore\n      0x20\n      add\n      swap1\n      dup2\n      mstore\n      0x20\n      add\n      0x00\n      keccak256\n        /* \"project(auction)/newBlindAuction.sol\":8642:8672  pendingReturns[msg.sender] = 0 */\n      dup2\n      swap1\n      sstore\n      pop\n        /* \"project(auction)/newBlindAuction.sol\":8691:8701  msg.sender */\n      caller\n        /* \"project(auction)/newBlindAuction.sol\":8683:8711  payable(msg.sender).transfer */\n      0xffffffffffffffffffffffffffffffffffffffff\n      and\n        /* \"project(auction)/newBlindAuction.sol\":8683:8719  payable(msg.sender).transfer(amount) */\n      0x08fc\n        /* \"project(auction)/newBlindAuction.sol\":8712:8718  amount */\n      dup3\n        /* \"project(auction)/newBlindAuction.sol\":8683:8719  payable(msg.sender).transfer(amount) */\n      swap1\n      dup2\n      iszero\n      mul\n      swap1\n      mload(0x40)\n      0x00\n      mload(0x40)\n      dup1\n      dup4\n      sub\n      dup2\n      dup6\n      dup9\n      dup9\n      call\n      swap4\n      pop\n      pop\n      pop\n      pop\n      iszero\n      dup1\n      iszero\n      tag_122\n      jumpi\n      returndatacopy(0x00, 0x00, returndatasize)\n      revert(0x00, returndatasize)\n    tag_122:\n      pop\n        /* \"project(auction)/newBlindAuction.sol\":8447:8727  {... */\n      pop\n        /* \"project(auction)/newBlindAuction.sol\":8420:8727  function withdraw() public {... */\n      jump\t// out\n        /* \"project(auction)/newBlindAuction.sol\":5679:7082  function reveal(uint value, bytes32 secret) public inPhase(Phase.Reveal) {... */\n    tag_57:\n        /* \"project(auction)/newBlindAuction.sol\":5738:5750  Phase.Reveal */\n      0x02\n        /* \"project(auction)/newBlindAuction.sol\":1837:1857  _updatePhaseByTime() */\n      tag_124\n        /* \"project(auction)/newBlindAuction.sol\":1837:1855  _updatePhaseByTime */\n      tag_99\n        /* \"project(auction)/newBlindAuction.sol\":1837:1857  _updatePhaseByTime() */\n      jump\t// in\n    tag_124:\n        /* \"project(auction)/newBlindAuction.sol\":1892:1893  P */\n      dup1\n        /* \"project(auction)/newBlindAuction.sol\":1876:1893  currentPhase == P */\n      0x03\n      dup2\n      gt\n      iszero\n      tag_125\n      jumpi\n      tag_126\n      tag_102\n      jump\t// in\n    tag_126:\n    tag_125:\n        /* \"project(auction)/newBlindAuction.sol\":1876:1888  currentPhase */\n      0x05\n      0x00\n      swap1\n      sload\n      swap1\n      0x0100\n      exp\n      swap1\n      div\n      0xff\n      and\n        /* \"project(auction)/newBlindAuction.sol\":1876:1893  currentPhase == P */\n      0x03\n      dup2\n      gt\n      iszero\n      tag_127\n      jumpi\n      tag_128\n      tag_102\n      jump\t// in\n    tag_128:\n    tag_127:\n      eq\n        /* \"project(auction)/newBlindAuction.sol\":1868:1909  require(currentPhase == P, \"Wrong phase\") */\n      tag_129\n      jumpi\n      mload(0x40)\n      0x08c379a000000000000000000000000000000000000000000000000000000000\n      dup2\n      mstore\n      0x04\n      add\n      tag_130\n      swap1\n      tag_107\n      jump\t// in\n    tag_130:\n      mload(0x40)\n      dup1\n      swap2\n      sub\n      swap1\n      revert\n    tag_129:\n        /* \"project(auction)/newBlindAuction.sol\":5763:5776  Bid storage b */\n      0x00\n        /* \"project(auction)/newBlindAuction.sol\":5779:5783  bids */\n      0x03\n        /* \"project(auction)/newBlindAuction.sol\":5779:5795  bids[msg.sender] */\n      0x00\n        /* \"project(auction)/newBlindAuction.sol\":5784:5794  msg.sender */\n      caller\n        /* \"project(auction)/newBlindAuction.sol\":5779:5795  bids[msg.sender] */\n      0xffffffffffffffffffffffffffffffffffffffff\n      and\n      0xffffffffffffffffffffffffffffffffffffffff\n      and\n      dup2\n      mstore\n      0x20\n      add\n      swap1\n      dup2\n      mstore\n      0x20\n      add\n      0x00\n      keccak256\n        /* \"project(auction)/newBlindAuction.sol\":5763:5795  Bid storage b = bids[msg.sender] */\n      swap1\n      pop\n        /* \"project(auction)/newBlindAuction.sol\":5826:5827  0 */\n      0x00\n        /* \"project(auction)/newBlindAuction.sol\":5814:5815  b */\n      dup2\n        /* \"project(auction)/newBlindAuction.sol\":5814:5823  b.deposit */\n      0x01\n      add\n      sload\n        /* \"project(auction)/newBlindAuction.sol\":5814:5827  b.deposit > 0 */\n      gt\n        /* \"project(auction)/newBlindAuction.sol\":5806:5844  require(b.deposit > 0, \"No bid found\") */\n      tag_132\n      jumpi\n      mload(0x40)\n      0x08c379a000000000000000000000000000000000000000000000000000000000\n      dup2\n      mstore\n      0x04\n      add\n      tag_133\n      swap1\n      tag_134\n      jump\t// in\n    tag_133:\n      mload(0x40)\n      dup1\n      swap2\n      sub\n      swap1\n      revert\n    tag_132:\n        /* \"project(auction)/newBlindAuction.sol\":5923:5935  bytes32 calc */\n      0x00\n        /* \"project(auction)/newBlindAuction.sol\":5965:5970  value */\n      dup5\n        /* \"project(auction)/newBlindAuction.sol\":5972:5978  secret */\n      dup5\n        /* \"project(auction)/newBlindAuction.sol\":5948:5979  abi.encodePacked(value, secret) */\n      add(0x20, mload(0x40))\n      tag_135\n      swap3\n      swap2\n      swap1\n      tag_136\n      jump\t// in\n    tag_135:\n      mload(0x40)\n      0x20\n      dup2\n      dup4\n      sub\n      sub\n      dup2\n      mstore\n      swap1\n      0x40\n      mstore\n        /* \"project(auction)/newBlindAuction.sol\":5938:5980  keccak256(abi.encodePacked(value, secret)) */\n      dup1\n      mload\n      swap1\n      0x20\n      add\n      keccak256\n        /* \"project(auction)/newBlindAuction.sol\":5923:5980  bytes32 calc = keccak256(abi.encodePacked(value, secret)) */\n      swap1\n      pop\n        /* \"project(auction)/newBlindAuction.sol\":6007:6008  b */\n      dup2\n        /* \"project(auction)/newBlindAuction.sol\":6007:6019  b.blindedBid */\n      0x00\n      add\n      sload\n        /* \"project(auction)/newBlindAuction.sol\":5999:6003  calc */\n      dup2\n        /* \"project(auction)/newBlindAuction.sol\":5999:6019  calc == b.blindedBid */\n      eq\n        /* \"project(auction)/newBlindAuction.sol\":5991:6037  require(calc == b.blindedBid, \"Hash mismatch\") */\n      tag_137\n      jumpi\n      mload(0x40)\n      0x08c379a000000000000000000000000000000000000000000000000000000000\n      dup2\n      mstore\n      0x04\n      add\n      tag_138\n      swap1\n      tag_139\n      jump\t// in\n    tag_138:\n      mload(0x40)\n      dup1\n      swap2\n      sub\n      swap1\n      revert\n    tag_137:\n        /* \"project(auction)/newBlindAuction.sol\":6090:6101  uint bidWei */\n      0x00\n        /* \"project(auction)/newBlindAuction.sol\":6112:6119  1 ether */\n      0x0de0b6b3a7640000\n        /* \"project(auction)/newBlindAuction.sol\":6104:6109  value */\n      dup7\n        /* \"project(auction)/newBlindAuction.sol\":6104:6119  value * 1 ether */\n      tag_140\n      swap2\n      swap1\n      tag_141\n      jump\t// in\n    tag_140:\n        /* \"project(auction)/newBlindAuction.sol\":6090:6119  uint bidWei = value * 1 ether */\n      swap1\n      pop\n        /* \"project(auction)/newBlindAuction.sol\":6236:6237  0 */\n      0x00\n        /* \"project(auction)/newBlindAuction.sol\":6228:6238  bytes32(0) */\n      0x00\n      shl\n        /* \"project(auction)/newBlindAuction.sol\":6198:6202  bids */\n      0x03\n        /* \"project(auction)/newBlindAuction.sol\":6198:6214  bids[msg.sender] */\n      0x00\n        /* \"project(auction)/newBlindAuction.sol\":6203:6213  msg.sender */\n      caller\n        /* \"project(auction)/newBlindAuction.sol\":6198:6214  bids[msg.sender] */\n      0xffffffffffffffffffffffffffffffffffffffff\n      and\n      0xffffffffffffffffffffffffffffffffffffffff\n      and\n      dup2\n      mstore\n      0x20\n      add\n      swap1\n      dup2\n      mstore\n      0x20\n      add\n      0x00\n      keccak256\n        /* \"project(auction)/newBlindAuction.sol\":6198:6225  bids[msg.sender].blindedBid */\n      0x00\n      add\n        /* \"project(auction)/newBlindAuction.sol\":6198:6238  bids[msg.sender].blindedBid = bytes32(0) */\n      dup2\n      swap1\n      sstore\n      pop\n        /* \"project(auction)/newBlindAuction.sol\":6251:6262  uint refund */\n      0x00\n        /* \"project(auction)/newBlindAuction.sol\":6265:6266  b */\n      dup4\n        /* \"project(auction)/newBlindAuction.sol\":6265:6274  b.deposit */\n      0x01\n      add\n      sload\n        /* \"project(auction)/newBlindAuction.sol\":6251:6274  uint refund = b.deposit */\n      swap1\n      pop\n        /* \"project(auction)/newBlindAuction.sol\":6525:6531  bidWei */\n      dup2\n        /* \"project(auction)/newBlindAuction.sol\":6512:6513  b */\n      dup5\n        /* \"project(auction)/newBlindAuction.sol\":6512:6521  b.deposit */\n      0x01\n      add\n      sload\n        /* \"project(auction)/newBlindAuction.sol\":6512:6531  b.deposit >= bidWei */\n      lt\n      iszero\n        /* \"project(auction)/newBlindAuction.sol\":6512:6544  b.deposit >= bidWei && value > 0 */\n      dup1\n      iszero\n      tag_142\n      jumpi\n      pop\n        /* \"project(auction)/newBlindAuction.sol\":6543:6544  0 */\n      0x00\n        /* \"project(auction)/newBlindAuction.sol\":6535:6540  value */\n      dup8\n        /* \"project(auction)/newBlindAuction.sol\":6535:6544  value > 0 */\n      gt\n        /* \"project(auction)/newBlindAuction.sol\":6512:6544  b.deposit >= bidWei && value > 0 */\n    tag_142:\n        /* \"project(auction)/newBlindAuction.sol\":6508:6853  if (b.deposit >= bidWei && value > 0) {... */\n      iszero\n      tag_143\n      jumpi\n        /* \"project(auction)/newBlindAuction.sol\":6645:6674  _placeBid(msg.sender, bidWei) */\n      tag_144\n        /* \"project(auction)/newBlindAuction.sol\":6655:6665  msg.sender */\n      caller\n        /* \"project(auction)/newBlindAuction.sol\":6667:6673  bidWei */\n      dup4\n        /* \"project(auction)/newBlindAuction.sol\":6645:6654  _placeBid */\n      tag_145\n        /* \"project(auction)/newBlindAuction.sol\":6645:6674  _placeBid(msg.sender, bidWei) */\n      jump\t// in\n    tag_144:\n        /* \"project(auction)/newBlindAuction.sol\":6641:6842  if (_placeBid(msg.sender, bidWei)) {... */\n      iszero\n      tag_146\n      jumpi\n        /* \"project(auction)/newBlindAuction.sol\":6820:6826  bidWei */\n      dup2\n        /* \"project(auction)/newBlindAuction.sol\":6810:6826  refund -= bidWei */\n      dup2\n      tag_147\n      swap2\n      swap1\n      tag_148\n      jump\t// in\n    tag_147:\n      swap1\n      pop\n        /* \"project(auction)/newBlindAuction.sol\":6641:6842  if (_placeBid(msg.sender, bidWei)) {... */\n    tag_146:\n        /* \"project(auction)/newBlindAuction.sol\":6508:6853  if (b.deposit >= bidWei && value > 0) {... */\n    tag_143:\n        /* \"project(auction)/newBlindAuction.sol\":6982:6983  0 */\n      0x00\n        /* \"project(auction)/newBlindAuction.sol\":6970:6971  b */\n      dup5\n        /* \"project(auction)/newBlindAuction.sol\":6970:6979  b.deposit */\n      0x01\n      add\n        /* \"project(auction)/newBlindAuction.sol\":6970:6983  b.deposit = 0 */\n      dup2\n      swap1\n      sstore\n      pop\n        /* \"project(auction)/newBlindAuction.sol\":7009:7010  0 */\n      0x00\n        /* \"project(auction)/newBlindAuction.sol\":7000:7006  refund */\n      dup2\n        /* \"project(auction)/newBlindAuction.sol\":7000:7010  refund > 0 */\n      gt\n        /* \"project(auction)/newBlindAuction.sol\":6996:7075  if (refund > 0) {... */\n      iszero\n      tag_149\n      jumpi\n        /* \"project(auction)/newBlindAuction.sol\":7035:7045  msg.sender */\n      caller\n        /* \"project(auction)/newBlindAuction.sol\":7027:7055  payable(msg.sender).transfer */\n      0xffffffffffffffffffffffffffffffffffffffff\n      and\n        /* \"project(auction)/newBlindAuction.sol\":7027:7063  payable(msg.sender).transfer(refund) */\n      0x08fc\n        /* \"project(auction)/newBlindAuction.sol\":7056:7062  refund */\n      dup3\n        /* \"project(auction)/newBlindAuction.sol\":7027:7063  payable(msg.sender).transfer(refund) */\n      swap1\n      dup2\n      iszero\n      mul\n      swap1\n      mload(0x40)\n      0x00\n      mload(0x40)\n      dup1\n      dup4\n      sub\n      dup2\n      dup6\n      dup9\n      dup9\n      call\n      swap4\n      pop\n      pop\n      pop\n      pop\n      iszero\n      dup1\n      iszero\n      tag_151\n      jumpi\n      returndatacopy(0x00, 0x00, returndatasize)\n      revert(0x00, returndatasize)\n    tag_151:\n      pop\n        /* \"project(auction)/newBlindAuction.sol\":6996:7075  if (refund > 0) {... */\n    tag_149:\n        /* \"project(auction)/newBlindAuction.sol\":5752:7082  {... */\n      pop\n      pop\n      pop\n      pop\n        /* \"project(auction)/newBlindAuction.sol\":5679:7082  function reveal(uint value, bytes32 secret) public inPhase(Phase.Reveal) {... */\n      pop\n      pop\n      pop\n      jump\t// out\n        /* \"project(auction)/newBlindAuction.sol\":701:736  mapping(address => Bid) public bids */\n    tag_61:\n      mstore(0x20, 0x03)\n      dup1\n      0x00\n      mstore\n      keccak256(0x00, 0x40)\n      0x00\n      swap2\n      pop\n      swap1\n      pop\n      dup1\n      0x00\n      add\n      sload\n      swap1\n      dup1\n      0x01\n      add\n      sload\n      swap1\n      pop\n      dup3\n      jump\t// out\n        /* \"project(auction)/newBlindAuction.sol\":591:619  address public highestBidder */\n    tag_66:\n      0x01\n      0x00\n      swap1\n      sload\n      swap1\n      0x0100\n      exp\n      swap1\n      div\n      0xffffffffffffffffffffffffffffffffffffffff\n      and\n      dup2\n      jump\t// out\n        /* \"project(auction)/newBlindAuction.sol\":5137:5609  function bid(bytes32 blindBid) public payable inPhase(Phase.Bidding) {... */\n    tag_72:\n        /* \"project(auction)/newBlindAuction.sol\":5191:5204  Phase.Bidding */\n      0x01\n        /* \"project(auction)/newBlindAuction.sol\":1837:1857  _updatePhaseByTime() */\n      tag_153\n        /* \"project(auction)/newBlindAuction.sol\":1837:1855  _updatePhaseByTime */\n      tag_99\n        /* \"project(auction)/newBlindAuction.sol\":1837:1857  _updatePhaseByTime() */\n      jump\t// in\n    tag_153:\n        /* \"project(auction)/newBlindAuction.sol\":1892:1893  P */\n      dup1\n        /* \"project(auction)/newBlindAuction.sol\":1876:1893  currentPhase == P */\n      0x03\n      dup2\n      gt\n      iszero\n      tag_154\n      jumpi\n      tag_155\n      tag_102\n      jump\t// in\n    tag_155:\n    tag_154:\n        /* \"project(auction)/newBlindAuction.sol\":1876:1888  currentPhase */\n      0x05\n      0x00\n      swap1\n      sload\n      swap1\n      0x0100\n      exp\n      swap1\n      div\n      0xff\n      and\n        /* \"project(auction)/newBlindAuction.sol\":1876:1893  currentPhase == P */\n      0x03\n      dup2\n      gt\n      iszero\n      tag_156\n      jumpi\n      tag_157\n      tag_102\n      jump\t// in\n    tag_157:\n    tag_156:\n      eq\n        /* \"project(auction)/newBlindAuction.sol\":1868:1909  require(currentPhase == P, \"Wrong phase\") */\n      tag_158\n      jumpi\n      mload(0x40)\n      0x08c379a000000000000000000000000000000000000000000000000000000000\n      dup2\n      mstore\n      0x04\n      add\n      tag_159\n      swap1\n      tag_107\n      jump\t// in\n    tag_159:\n      mload(0x40)\n      dup1\n      swap2\n      sub\n      swap1\n      revert\n    tag_158:\n        /* \"project(auction)/newBlindAuction.sol\":5245:5246  0 */\n      0x00\n        /* \"project(auction)/newBlindAuction.sol\":5237:5247  bytes32(0) */\n      0x00\n      shl\n        /* \"project(auction)/newBlindAuction.sol\":5225:5233  blindBid */\n      dup3\n        /* \"project(auction)/newBlindAuction.sol\":5225:5247  blindBid != bytes32(0) */\n      sub\n        /* \"project(auction)/newBlindAuction.sol\":5217:5271  require(blindBid != bytes32(0), \"Invalid blinded bid\") */\n      tag_161\n      jumpi\n      mload(0x40)\n      0x08c379a000000000000000000000000000000000000000000000000000000000\n      dup2\n      mstore\n      0x04\n      add\n      tag_162\n      swap1\n      tag_163\n      jump\t// in\n    tag_162:\n      mload(0x40)\n      dup1\n      swap2\n      sub\n      swap1\n      revert\n    tag_161:\n        /* \"project(auction)/newBlindAuction.sol\":5329:5330  0 */\n      0x00\n        /* \"project(auction)/newBlindAuction.sol\":5321:5331  bytes32(0) */\n      0x00\n      shl\n        /* \"project(auction)/newBlindAuction.sol\":5290:5294  bids */\n      0x03\n        /* \"project(auction)/newBlindAuction.sol\":5290:5306  bids[msg.sender] */\n      0x00\n        /* \"project(auction)/newBlindAuction.sol\":5295:5305  msg.sender */\n      caller\n        /* \"project(auction)/newBlindAuction.sol\":5290:5306  bids[msg.sender] */\n      0xffffffffffffffffffffffffffffffffffffffff\n      and\n      0xffffffffffffffffffffffffffffffffffffffff\n      and\n      dup2\n      mstore\n      0x20\n      add\n      swap1\n      dup2\n      mstore\n      0x20\n      add\n      0x00\n      keccak256\n        /* \"project(auction)/newBlindAuction.sol\":5290:5317  bids[msg.sender].blindedBid */\n      0x00\n      add\n      sload\n        /* \"project(auction)/newBlindAuction.sol\":5290:5331  bids[msg.sender].blindedBid == bytes32(0) */\n      eq\n        /* \"project(auction)/newBlindAuction.sol\":5282:5357  require(bids[msg.sender].blindedBid == bytes32(0), \"Bid already submitted\") */\n      tag_164\n      jumpi\n      mload(0x40)\n      0x08c379a000000000000000000000000000000000000000000000000000000000\n      dup2\n      mstore\n      0x04\n      add\n      tag_165\n      swap1\n      tag_166\n      jump\t// in\n    tag_165:\n      mload(0x40)\n      dup1\n      swap2\n      sub\n      swap1\n      revert\n    tag_164:\n        /* \"project(auction)/newBlindAuction.sol\":5388:5389  0 */\n      0x00\n        /* \"project(auction)/newBlindAuction.sol\":5376:5385  msg.value */\n      callvalue\n        /* \"project(auction)/newBlindAuction.sol\":5376:5389  msg.value > 0 */\n      gt\n        /* \"project(auction)/newBlindAuction.sol\":5368:5413  require(msg.value > 0, \"Deposit must be > 0\") */\n      tag_167\n      jumpi\n      mload(0x40)\n      0x08c379a000000000000000000000000000000000000000000000000000000000\n      dup2\n      mstore\n      0x04\n      add\n      tag_168\n      swap1\n      tag_169\n      jump\t// in\n    tag_168:\n      mload(0x40)\n      dup1\n      swap2\n      sub\n      swap1\n      revert\n    tag_167:\n        /* \"project(auction)/newBlindAuction.sol\":5445:5529  Bid({... */\n      mload(0x40)\n      dup1\n      0x40\n      add\n      0x40\n      mstore\n      dup1\n        /* \"project(auction)/newBlindAuction.sol\":5476:5484  blindBid */\n      dup4\n        /* \"project(auction)/newBlindAuction.sol\":5445:5529  Bid({... */\n      dup2\n      mstore\n      0x20\n      add\n        /* \"project(auction)/newBlindAuction.sol\":5508:5517  msg.value */\n      callvalue\n        /* \"project(auction)/newBlindAuction.sol\":5445:5529  Bid({... */\n      dup2\n      mstore\n      pop\n        /* \"project(auction)/newBlindAuction.sol\":5426:5430  bids */\n      0x03\n        /* \"project(auction)/newBlindAuction.sol\":5426:5442  bids[msg.sender] */\n      0x00\n        /* \"project(auction)/newBlindAuction.sol\":5431:5441  msg.sender */\n      caller\n        /* \"project(auction)/newBlindAuction.sol\":5426:5442  bids[msg.sender] */\n      0xffffffffffffffffffffffffffffffffffffffff\n      and\n      0xffffffffffffffffffffffffffffffffffffffff\n      and\n      dup2\n      mstore\n      0x20\n      add\n      swap1\n      dup2\n      mstore\n      0x20\n      add\n      0x00\n      keccak256\n        /* \"project(auction)/newBlindAuction.sol\":5426:5529  bids[msg.sender] = Bid({... */\n      0x00\n      dup3\n      add\n      mload\n      dup2\n      0x00\n      add\n      sstore\n      0x20\n      dup3\n      add\n      mload\n      dup2\n      0x01\n      add\n      sstore\n      swap1\n      pop\n      pop\n        /* \"project(auction)/newBlindAuction.sol\":5137:5609  function bid(bytes32 blindBid) public payable inPhase(Phase.Bidding) {... */\n      pop\n      pop\n      jump\t// out\n        /* \"project(auction)/newBlindAuction.sol\":2366:2965  function setAuctionTimes(uint biddingDuration, uint revealDuration)... */\n    tag_77:\n        /* \"project(auction)/newBlindAuction.sol\":1599:1610  beneficiary */\n      0x00\n      0x00\n      swap1\n      sload\n      swap1\n      0x0100\n      exp\n      swap1\n      div\n      0xffffffffffffffffffffffffffffffffffffffff\n      and\n        /* \"project(auction)/newBlindAuction.sol\":1585:1610  msg.sender == beneficiary */\n      0xffffffffffffffffffffffffffffffffffffffff\n      and\n        /* \"project(auction)/newBlindAuction.sol\":1585:1595  msg.sender */\n      caller\n        /* \"project(auction)/newBlindAuction.sol\":1585:1610  msg.sender == beneficiary */\n      0xffffffffffffffffffffffffffffffffffffffff\n      and\n      eq\n        /* \"project(auction)/newBlindAuction.sol\":1577:1631  require(msg.sender == beneficiary, \"Only beneficiary\") */\n      tag_171\n      jumpi\n      mload(0x40)\n      0x08c379a000000000000000000000000000000000000000000000000000000000\n      dup2\n      mstore\n      0x04\n      add\n      tag_172\n      swap1\n      tag_96\n      jump\t// in\n    tag_172:\n      mload(0x40)\n      dup1\n      swap2\n      sub\n      swap1\n      revert\n    tag_171:\n        /* \"project(auction)/newBlindAuction.sol\":2502:2510  timesSet */\n      0x08\n      0x00\n      swap1\n      sload\n      swap1\n      0x0100\n      exp\n      swap1\n      div\n      0xff\n      and\n        /* \"project(auction)/newBlindAuction.sol\":2501:2510  !timesSet */\n      iszero\n        /* \"project(auction)/newBlindAuction.sol\":2493:2532  require(!timesSet, \"Times already set\") */\n      tag_174\n      jumpi\n      mload(0x40)\n      0x08c379a000000000000000000000000000000000000000000000000000000000\n      dup2\n      mstore\n      0x04\n      add\n      tag_175\n      swap1\n      tag_176\n      jump\t// in\n    tag_175:\n      mload(0x40)\n      dup1\n      swap2\n      sub\n      swap1\n      revert\n    tag_174:\n        /* \"project(auction)/newBlindAuction.sol\":2567:2577  Phase.Init */\n      0x00\n        /* \"project(auction)/newBlindAuction.sol\":2551:2577  currentPhase == Phase.Init */\n      0x03\n      dup2\n      gt\n      iszero\n      tag_177\n      jumpi\n      tag_178\n      tag_102\n      jump\t// in\n    tag_178:\n    tag_177:\n        /* \"project(auction)/newBlindAuction.sol\":2551:2563  currentPhase */\n      0x05\n      0x00\n      swap1\n      sload\n      swap1\n      0x0100\n      exp\n      swap1\n      div\n      0xff\n      and\n        /* \"project(auction)/newBlindAuction.sol\":2551:2577  currentPhase == Phase.Init */\n      0x03\n      dup2\n      gt\n      iszero\n      tag_179\n      jumpi\n      tag_180\n      tag_102\n      jump\t// in\n    tag_180:\n    tag_179:\n      eq\n        /* \"project(auction)/newBlindAuction.sol\":2543:2597  require(currentPhase == Phase.Init, \"Already started\") */\n      tag_181\n      jumpi\n      mload(0x40)\n      0x08c379a000000000000000000000000000000000000000000000000000000000\n      dup2\n      mstore\n      0x04\n      add\n      tag_182\n      swap1\n      tag_183\n      jump\t// in\n    tag_182:\n      mload(0x40)\n      dup1\n      swap2\n      sub\n      swap1\n      revert\n    tag_181:\n        /* \"project(auction)/newBlindAuction.sol\":2634:2635  0 */\n      0x00\n        /* \"project(auction)/newBlindAuction.sol\":2616:2631  biddingDuration */\n      dup3\n        /* \"project(auction)/newBlindAuction.sol\":2616:2635  biddingDuration > 0 */\n      gt\n        /* \"project(auction)/newBlindAuction.sol\":2608:2667  require(biddingDuration > 0, \"biddingDuration must be > 0\") */\n      tag_184\n      jumpi\n      mload(0x40)\n      0x08c379a000000000000000000000000000000000000000000000000000000000\n      dup2\n      mstore\n      0x04\n      add\n      tag_185\n      swap1\n      tag_186\n      jump\t// in\n    tag_185:\n      mload(0x40)\n      dup1\n      swap2\n      sub\n      swap1\n      revert\n    tag_184:\n        /* \"project(auction)/newBlindAuction.sol\":2703:2704  0 */\n      0x00\n        /* \"project(auction)/newBlindAuction.sol\":2686:2700  revealDuration */\n      dup2\n        /* \"project(auction)/newBlindAuction.sol\":2686:2704  revealDuration > 0 */\n      gt\n        /* \"project(auction)/newBlindAuction.sol\":2678:2736  require(revealDuration > 0,  \"revealDuration must be > 0\") */\n      tag_187\n      jumpi\n      mload(0x40)\n      0x08c379a000000000000000000000000000000000000000000000000000000000\n      dup2\n      mstore\n      0x04\n      add\n      tag_188\n      swap1\n      tag_189\n      jump\t// in\n    tag_188:\n      mload(0x40)\n      dup1\n      swap2\n      sub\n      swap1\n      revert\n    tag_187:\n        /* \"project(auction)/newBlindAuction.sol\":2784:2799  biddingDuration */\n      dup2\n        /* \"project(auction)/newBlindAuction.sol\":2766:2781  block.timestamp */\n      timestamp\n        /* \"project(auction)/newBlindAuction.sol\":2766:2799  block.timestamp + biddingDuration */\n      tag_190\n      swap2\n      swap1\n      tag_191\n      jump\t// in\n    tag_190:\n        /* \"project(auction)/newBlindAuction.sol\":2749:2763  biddingEndTime */\n      0x06\n        /* \"project(auction)/newBlindAuction.sol\":2749:2799  biddingEndTime = block.timestamp + biddingDuration */\n      dup2\n      swap1\n      sstore\n      pop\n        /* \"project(auction)/newBlindAuction.sol\":2844:2858  revealDuration */\n      dup1\n        /* \"project(auction)/newBlindAuction.sol\":2827:2841  biddingEndTime */\n      sload(0x06)\n        /* \"project(auction)/newBlindAuction.sol\":2827:2858  biddingEndTime + revealDuration */\n      tag_192\n      swap2\n      swap1\n      tag_191\n      jump\t// in\n    tag_192:\n        /* \"project(auction)/newBlindAuction.sol\":2810:2823  revealEndTime */\n      0x07\n        /* \"project(auction)/newBlindAuction.sol\":2810:2858  revealEndTime  = biddingEndTime + revealDuration */\n      dup2\n      swap1\n      sstore\n      pop\n        /* \"project(auction)/newBlindAuction.sol\":2880:2884  true */\n      0x01\n        /* \"project(auction)/newBlindAuction.sol\":2869:2877  timesSet */\n      0x08\n      0x00\n        /* \"project(auction)/newBlindAuction.sol\":2869:2884  timesSet = true */\n      0x0100\n      exp\n      dup2\n      sload\n      dup2\n      0xff\n      mul\n      not\n      and\n      swap1\n      dup4\n      iszero\n      iszero\n      mul\n      or\n      swap1\n      sstore\n      pop\n        /* \"project(auction)/newBlindAuction.sol\":2912:2925  Phase.Bidding */\n      0x01\n        /* \"project(auction)/newBlindAuction.sol\":2897:2909  currentPhase */\n      0x05\n      0x00\n        /* \"project(auction)/newBlindAuction.sol\":2897:2925  currentPhase = Phase.Bidding */\n      0x0100\n      exp\n      dup2\n      sload\n      dup2\n      0xff\n      mul\n      not\n      and\n      swap1\n      dup4\n      0x03\n      dup2\n      gt\n      iszero\n      tag_193\n      jumpi\n      tag_194\n      tag_102\n      jump\t// in\n    tag_194:\n    tag_193:\n      mul\n      or\n      swap1\n      sstore\n      pop\n        /* \"project(auction)/newBlindAuction.sol\":2941:2957  BiddingStarted() */\n      0x02c124e22ee7da1c9905bbb317cf67658c1cc3ea1c0953b1633f85d0b5c281d9\n      mload(0x40)\n      mload(0x40)\n      dup1\n      swap2\n      sub\n      swap1\n      log1\n        /* \"project(auction)/newBlindAuction.sol\":2366:2965  function setAuctionTimes(uint biddingDuration, uint revealDuration)... */\n      pop\n      pop\n      jump\t// out\n        /* \"project(auction)/newBlindAuction.sol\":1215:1235  bool public timesSet */\n    tag_80:\n      0x08\n      0x00\n      swap1\n      sload\n      swap1\n      0x0100\n      exp\n      swap1\n      div\n      0xff\n      and\n      dup2\n      jump\t// out\n        /* \"project(auction)/newBlindAuction.sol\":1158:1183  uint public revealEndTime */\n    tag_84:\n      sload(0x07)\n      dup2\n      jump\t// out\n        /* \"project(auction)/newBlindAuction.sol\":626:655  uint    public highestBid = 0 */\n    tag_88:\n      sload(0x02)\n      dup2\n      jump\t// out\n        /* \"project(auction)/newBlindAuction.sol\":7228:7710  function lateRefund() public {... */\n    tag_92:\n        /* \"project(auction)/newBlindAuction.sol\":7276:7284  timesSet */\n      0x08\n      0x00\n      swap1\n      sload\n      swap1\n      0x0100\n      exp\n      swap1\n      div\n      0xff\n      and\n        /* \"project(auction)/newBlindAuction.sol\":7268:7312  require(timesSet, \"Auction not started yet\") */\n      tag_196\n      jumpi\n      mload(0x40)\n      0x08c379a000000000000000000000000000000000000000000000000000000000\n      dup2\n      mstore\n      0x04\n      add\n      tag_197\n      swap1\n      tag_198\n      jump\t// in\n    tag_197:\n      mload(0x40)\n      dup1\n      swap2\n      sub\n      swap1\n      revert\n    tag_196:\n        /* \"project(auction)/newBlindAuction.sol\":7350:7363  revealEndTime */\n      sload(0x07)\n        /* \"project(auction)/newBlindAuction.sol\":7331:7346  block.timestamp */\n      timestamp\n        /* \"project(auction)/newBlindAuction.sol\":7331:7363  block.timestamp >= revealEndTime */\n      lt\n      iszero\n        /* \"project(auction)/newBlindAuction.sol\":7323:7395  require(block.timestamp >= revealEndTime, \"Reveal period not yet ended\") */\n      tag_199\n      jumpi\n      mload(0x40)\n      0x08c379a000000000000000000000000000000000000000000000000000000000\n      dup2\n      mstore\n      0x04\n      add\n      tag_200\n      swap1\n      tag_201\n      jump\t// in\n    tag_200:\n      mload(0x40)\n      dup1\n      swap2\n      sub\n      swap1\n      revert\n    tag_199:\n        /* \"project(auction)/newBlindAuction.sol\":7408:7421  Bid storage b */\n      0x00\n        /* \"project(auction)/newBlindAuction.sol\":7424:7428  bids */\n      0x03\n        /* \"project(auction)/newBlindAuction.sol\":7424:7440  bids[msg.sender] */\n      0x00\n        /* \"project(auction)/newBlindAuction.sol\":7429:7439  msg.sender */\n      caller\n        /* \"project(auction)/newBlindAuction.sol\":7424:7440  bids[msg.sender] */\n      0xffffffffffffffffffffffffffffffffffffffff\n      and\n      0xffffffffffffffffffffffffffffffffffffffff\n      and\n      dup2\n      mstore\n      0x20\n      add\n      swap1\n      dup2\n      mstore\n      0x20\n      add\n      0x00\n      keccak256\n        /* \"project(auction)/newBlindAuction.sol\":7408:7440  Bid storage b = bids[msg.sender] */\n      swap1\n      pop\n        /* \"project(auction)/newBlindAuction.sol\":7451:7462  uint amount */\n      0x00\n        /* \"project(auction)/newBlindAuction.sol\":7465:7466  b */\n      dup2\n        /* \"project(auction)/newBlindAuction.sol\":7465:7474  b.deposit */\n      0x01\n      add\n      sload\n        /* \"project(auction)/newBlindAuction.sol\":7451:7474  uint amount = b.deposit */\n      swap1\n      pop\n        /* \"project(auction)/newBlindAuction.sol\":7502:7503  0 */\n      0x00\n        /* \"project(auction)/newBlindAuction.sol\":7493:7499  amount */\n      dup2\n        /* \"project(auction)/newBlindAuction.sol\":7493:7503  amount > 0 */\n      gt\n        /* \"project(auction)/newBlindAuction.sol\":7485:7525  require(amount > 0, \"Nothing to refund\") */\n      tag_202\n      jumpi\n      mload(0x40)\n      0x08c379a000000000000000000000000000000000000000000000000000000000\n      dup2\n      mstore\n      0x04\n      add\n      tag_203\n      swap1\n      tag_204\n      jump\t// in\n    tag_203:\n      mload(0x40)\n      dup1\n      swap2\n      sub\n      swap1\n      revert\n    tag_202:\n        /* \"project(auction)/newBlindAuction.sol\":7616:7617  0 */\n      0x00\n        /* \"project(auction)/newBlindAuction.sol\":7604:7605  b */\n      dup3\n        /* \"project(auction)/newBlindAuction.sol\":7604:7613  b.deposit */\n      0x01\n      add\n        /* \"project(auction)/newBlindAuction.sol\":7604:7617  b.deposit = 0 */\n      dup2\n      swap1\n      sstore\n      pop\n        /* \"project(auction)/newBlindAuction.sol\":7651:7652  0 */\n      0x00\n        /* \"project(auction)/newBlindAuction.sol\":7643:7653  bytes32(0) */\n      0x00\n      shl\n        /* \"project(auction)/newBlindAuction.sol\":7628:7629  b */\n      dup3\n        /* \"project(auction)/newBlindAuction.sol\":7628:7640  b.blindedBid */\n      0x00\n      add\n        /* \"project(auction)/newBlindAuction.sol\":7628:7653  b.blindedBid = bytes32(0) */\n      dup2\n      swap1\n      sstore\n      pop\n        /* \"project(auction)/newBlindAuction.sol\":7674:7684  msg.sender */\n      caller\n        /* \"project(auction)/newBlindAuction.sol\":7666:7694  payable(msg.sender).transfer */\n      0xffffffffffffffffffffffffffffffffffffffff\n      and\n        /* \"project(auction)/newBlindAuction.sol\":7666:7702  payable(msg.sender).transfer(amount) */\n      0x08fc\n        /* \"project(auction)/newBlindAuction.sol\":7695:7701  amount */\n      dup3\n        /* \"project(auction)/newBlindAuction.sol\":7666:7702  payable(msg.sender).transfer(amount) */\n      swap1\n      dup2\n      iszero\n      mul\n      swap1\n      mload(0x40)\n      0x00\n      mload(0x40)\n      dup1\n      dup4\n      sub\n      dup2\n      dup6\n      dup9\n      dup9\n      call\n      swap4\n      pop\n      pop\n      pop\n      pop\n      iszero\n      dup1\n      iszero\n      tag_206\n      jumpi\n      returndatacopy(0x00, 0x00, returndatasize)\n      revert(0x00, returndatasize)\n    tag_206:\n      pop\n        /* \"project(auction)/newBlindAuction.sol\":7257:7710  {... */\n      pop\n      pop\n        /* \"project(auction)/newBlindAuction.sol\":7228:7710  function lateRefund() public {... */\n      jump\t// out\n        /* \"project(auction)/newBlindAuction.sol\":3073:4090  function _updatePhaseByTime() internal {... */\n    tag_99:\n        /* \"project(auction)/newBlindAuction.sol\":3128:3136  timesSet */\n      0x08\n      0x00\n      swap1\n      sload\n      swap1\n      0x0100\n      exp\n      swap1\n      div\n      0xff\n      and\n        /* \"project(auction)/newBlindAuction.sol\":3123:3282  if (!timesSet) {... */\n      tag_208\n      jumpi\n        /* \"project(auction)/newBlindAuction.sol\":3239:3249  Phase.Init */\n      0x00\n        /* \"project(auction)/newBlindAuction.sol\":3224:3236  currentPhase */\n      0x05\n      0x00\n        /* \"project(auction)/newBlindAuction.sol\":3224:3249  currentPhase = Phase.Init */\n      0x0100\n      exp\n      dup2\n      sload\n      dup2\n      0xff\n      mul\n      not\n      and\n      swap1\n      dup4\n      0x03\n      dup2\n      gt\n      iszero\n      tag_209\n      jumpi\n      tag_210\n      tag_102\n      jump\t// in\n    tag_210:\n    tag_209:\n      mul\n      or\n      swap1\n      sstore\n      pop\n        /* \"project(auction)/newBlindAuction.sol\":3264:3271  return; */\n      jump(tag_207)\n        /* \"project(auction)/newBlindAuction.sol\":3123:3282  if (!timesSet) {... */\n    tag_208:\n        /* \"project(auction)/newBlindAuction.sol\":3392:3402  Phase.Done */\n      0x03\n        /* \"project(auction)/newBlindAuction.sol\":3376:3402  currentPhase == Phase.Done */\n      dup1\n      dup2\n      gt\n      iszero\n      tag_211\n      jumpi\n      tag_212\n      tag_102\n      jump\t// in\n    tag_212:\n    tag_211:\n        /* \"project(auction)/newBlindAuction.sol\":3376:3388  currentPhase */\n      0x05\n      0x00\n      swap1\n      sload\n      swap1\n      0x0100\n      exp\n      swap1\n      div\n      0xff\n      and\n        /* \"project(auction)/newBlindAuction.sol\":3376:3402  currentPhase == Phase.Done */\n      0x03\n      dup2\n      gt\n      iszero\n      tag_213\n      jumpi\n      tag_214\n      tag_102\n      jump\t// in\n    tag_214:\n    tag_213:\n      sub\n        /* \"project(auction)/newBlindAuction.sol\":3372:3437  if (currentPhase == Phase.Done) {... */\n      iszero\n        /* \"project(auction)/newBlindAuction.sol\":3419:3426  return; */\n      tag_207\n        /* \"project(auction)/newBlindAuction.sol\":3372:3437  if (currentPhase == Phase.Done) {... */\n      jumpi\n        /* \"project(auction)/newBlindAuction.sol\":3449:3461  uint nowTime */\n      0x00\n        /* \"project(auction)/newBlindAuction.sol\":3464:3479  block.timestamp */\n      timestamp\n        /* \"project(auction)/newBlindAuction.sol\":3449:3479  uint nowTime = block.timestamp */\n      swap1\n      pop\n        /* \"project(auction)/newBlindAuction.sol\":3506:3520  biddingEndTime */\n      sload(0x06)\n        /* \"project(auction)/newBlindAuction.sol\":3496:3503  nowTime */\n      dup2\n        /* \"project(auction)/newBlindAuction.sol\":3496:3520  nowTime < biddingEndTime */\n      lt\n        /* \"project(auction)/newBlindAuction.sol\":3492:4083  if (nowTime < biddingEndTime) {... */\n      iszero\n      tag_216\n      jumpi\n        /* \"project(auction)/newBlindAuction.sol\":3582:3595  Phase.Bidding */\n      0x01\n        /* \"project(auction)/newBlindAuction.sol\":3567:3579  currentPhase */\n      0x05\n      0x00\n        /* \"project(auction)/newBlindAuction.sol\":3567:3595  currentPhase = Phase.Bidding */\n      0x0100\n      exp\n      dup2\n      sload\n      dup2\n      0xff\n      mul\n      not\n      and\n      swap1\n      dup4\n      0x03\n      dup2\n      gt\n      iszero\n      tag_217\n      jumpi\n      tag_218\n      tag_102\n      jump\t// in\n    tag_218:\n    tag_217:\n      mul\n      or\n      swap1\n      sstore\n      pop\n        /* \"project(auction)/newBlindAuction.sol\":3492:4083  if (nowTime < biddingEndTime) {... */\n      jump(tag_219)\n    tag_216:\n        /* \"project(auction)/newBlindAuction.sol\":3627:3640  revealEndTime */\n      sload(0x07)\n        /* \"project(auction)/newBlindAuction.sol\":3617:3624  nowTime */\n      dup2\n        /* \"project(auction)/newBlindAuction.sol\":3617:3640  nowTime < revealEndTime */\n      lt\n        /* \"project(auction)/newBlindAuction.sol\":3613:4083  if (nowTime < revealEndTime) {... */\n      iszero\n      tag_220\n      jumpi\n        /* \"project(auction)/newBlindAuction.sol\":3759:3771  Phase.Reveal */\n      0x02\n        /* \"project(auction)/newBlindAuction.sol\":3743:3771  currentPhase != Phase.Reveal */\n      0x03\n      dup2\n      gt\n      iszero\n      tag_221\n      jumpi\n      tag_222\n      tag_102\n      jump\t// in\n    tag_222:\n    tag_221:\n        /* \"project(auction)/newBlindAuction.sol\":3743:3755  currentPhase */\n      0x05\n      0x00\n      swap1\n      sload\n      swap1\n      0x0100\n      exp\n      swap1\n      div\n      0xff\n      and\n        /* \"project(auction)/newBlindAuction.sol\":3743:3771  currentPhase != Phase.Reveal */\n      0x03\n      dup2\n      gt\n      iszero\n      tag_223\n      jumpi\n      tag_224\n      tag_102\n      jump\t// in\n    tag_224:\n    tag_223:\n      eq\n        /* \"project(auction)/newBlindAuction.sol\":3739:3874  if (currentPhase != Phase.Reveal) {... */\n      tag_225\n      jumpi\n        /* \"project(auction)/newBlindAuction.sol\":3807:3819  Phase.Reveal */\n      0x02\n        /* \"project(auction)/newBlindAuction.sol\":3792:3804  currentPhase */\n      0x05\n      0x00\n        /* \"project(auction)/newBlindAuction.sol\":3792:3819  currentPhase = Phase.Reveal */\n      0x0100\n      exp\n      dup2\n      sload\n      dup2\n      0xff\n      mul\n      not\n      and\n      swap1\n      dup4\n      0x03\n      dup2\n      gt\n      iszero\n      tag_226\n      jumpi\n      tag_227\n      tag_102\n      jump\t// in\n    tag_227:\n    tag_226:\n      mul\n      or\n      swap1\n      sstore\n      pop\n        /* \"project(auction)/newBlindAuction.sol\":3843:3858  RevealStarted() */\n      0x3bcc93d35219aa0512d7c0d1ca10b0231f473e3d5f9396877d1b7215ee0ab3d5\n      mload(0x40)\n      mload(0x40)\n      dup1\n      swap2\n      sub\n      swap1\n      log1\n        /* \"project(auction)/newBlindAuction.sol\":3739:3874  if (currentPhase != Phase.Reveal) {... */\n    tag_225:\n        /* \"project(auction)/newBlindAuction.sol\":3613:4083  if (nowTime < revealEndTime) {... */\n      jump(tag_228)\n    tag_220:\n        /* \"project(auction)/newBlindAuction.sol\":3978:3988  Phase.Done */\n      0x03\n        /* \"project(auction)/newBlindAuction.sol\":3963:3975  currentPhase */\n      0x05\n      0x00\n        /* \"project(auction)/newBlindAuction.sol\":3963:3988  currentPhase = Phase.Done */\n      0x0100\n      exp\n      dup2\n      sload\n      dup2\n      0xff\n      mul\n      not\n      and\n      swap1\n      dup4\n      0x03\n      dup2\n      gt\n      iszero\n      tag_229\n      jumpi\n      tag_230\n      tag_102\n      jump\t// in\n    tag_230:\n    tag_229:\n      mul\n      or\n      swap1\n      sstore\n      pop\n        /* \"project(auction)/newBlindAuction.sol\":3613:4083  if (nowTime < revealEndTime) {... */\n    tag_228:\n        /* \"project(auction)/newBlindAuction.sol\":3492:4083  if (nowTime < biddingEndTime) {... */\n    tag_219:\n        /* \"project(auction)/newBlindAuction.sol\":3112:4090  {... */\n      pop\n        /* \"project(auction)/newBlindAuction.sol\":3073:4090  function _updatePhaseByTime() internal {... */\n    tag_207:\n      jump\t// out\n        /* \"project(auction)/newBlindAuction.sol\":7761:8218  function _placeBid(address bidder, uint valueWei) internal returns (bool) {... */\n    tag_145:\n        /* \"project(auction)/newBlindAuction.sol\":7829:7833  bool */\n      0x00\n        /* \"project(auction)/newBlindAuction.sol\":7862:7872  highestBid */\n      sload(0x02)\n        /* \"project(auction)/newBlindAuction.sol\":7850:7858  valueWei */\n      dup3\n        /* \"project(auction)/newBlindAuction.sol\":7850:7872  valueWei <= highestBid */\n      gt\n        /* \"project(auction)/newBlindAuction.sol\":7846:7913  if (valueWei <= highestBid) {... */\n      tag_232\n      jumpi\n        /* \"project(auction)/newBlindAuction.sol\":7896:7901  false */\n      0x00\n        /* \"project(auction)/newBlindAuction.sol\":7889:7901  return false */\n      swap1\n      pop\n      jump(tag_231)\n        /* \"project(auction)/newBlindAuction.sol\":7846:7913  if (valueWei <= highestBid) {... */\n    tag_232:\n        /* \"project(auction)/newBlindAuction.sol\":8048:8049  0 */\n      0x00\n        /* \"project(auction)/newBlindAuction.sol\":8023:8050  highestBidder != address(0) */\n      0xffffffffffffffffffffffffffffffffffffffff\n      and\n        /* \"project(auction)/newBlindAuction.sol\":8023:8036  highestBidder */\n      0x01\n      0x00\n      swap1\n      sload\n      swap1\n      0x0100\n      exp\n      swap1\n      div\n      0xffffffffffffffffffffffffffffffffffffffff\n      and\n        /* \"project(auction)/newBlindAuction.sol\":8023:8050  highestBidder != address(0) */\n      0xffffffffffffffffffffffffffffffffffffffff\n      and\n      eq\n        /* \"project(auction)/newBlindAuction.sol\":8019:8122  if (highestBidder != address(0)) {... */\n      tag_233\n      jumpi\n        /* \"project(auction)/newBlindAuction.sol\":8100:8110  highestBid */\n      sload(0x02)\n        /* \"project(auction)/newBlindAuction.sol\":8067:8081  pendingReturns */\n      0x04\n        /* \"project(auction)/newBlindAuction.sol\":8067:8096  pendingReturns[highestBidder] */\n      0x00\n        /* \"project(auction)/newBlindAuction.sol\":8082:8095  highestBidder */\n      0x01\n      0x00\n      swap1\n      sload\n      swap1\n      0x0100\n      exp\n      swap1\n      div\n      0xffffffffffffffffffffffffffffffffffffffff\n      and\n        /* \"project(auction)/newBlindAuction.sol\":8067:8096  pendingReturns[highestBidder] */\n      0xffffffffffffffffffffffffffffffffffffffff\n      and\n      0xffffffffffffffffffffffffffffffffffffffff\n      and\n      dup2\n      mstore\n      0x20\n      add\n      swap1\n      dup2\n      mstore\n      0x20\n      add\n      0x00\n      keccak256\n      0x00\n        /* \"project(auction)/newBlindAuction.sol\":8067:8110  pendingReturns[highestBidder] += highestBid */\n      dup3\n      dup3\n      sload\n      tag_234\n      swap2\n      swap1\n      tag_191\n      jump\t// in\n    tag_234:\n      swap3\n      pop\n      pop\n      dup2\n      swap1\n      sstore\n      pop\n        /* \"project(auction)/newBlindAuction.sol\":8019:8122  if (highestBidder != address(0)) {... */\n    tag_233:\n        /* \"project(auction)/newBlindAuction.sol\":8147:8155  valueWei */\n      dup2\n        /* \"project(auction)/newBlindAuction.sol\":8134:8144  highestBid */\n      0x02\n        /* \"project(auction)/newBlindAuction.sol\":8134:8155  highestBid = valueWei */\n      dup2\n      swap1\n      sstore\n      pop\n        /* \"project(auction)/newBlindAuction.sol\":8182:8188  bidder */\n      dup3\n        /* \"project(auction)/newBlindAuction.sol\":8166:8179  highestBidder */\n      0x01\n      0x00\n        /* \"project(auction)/newBlindAuction.sol\":8166:8188  highestBidder = bidder */\n      0x0100\n      exp\n      dup2\n      sload\n      dup2\n      0xffffffffffffffffffffffffffffffffffffffff\n      mul\n      not\n      and\n      swap1\n      dup4\n      0xffffffffffffffffffffffffffffffffffffffff\n      and\n      mul\n      or\n      swap1\n      sstore\n      pop\n        /* \"project(auction)/newBlindAuction.sol\":8206:8210  true */\n      0x01\n        /* \"project(auction)/newBlindAuction.sol\":8199:8210  return true */\n      swap1\n      pop\n        /* \"project(auction)/newBlindAuction.sol\":7761:8218  function _placeBid(address bidder, uint valueWei) internal returns (bool) {... */\n    tag_231:\n      swap3\n      swap2\n      pop\n      pop\n      jump\t// out\n        /* \"#utility.yul\":7:187   */\n    tag_102:\n        /* \"#utility.yul\":55:132   */\n      0x4e487b7100000000000000000000000000000000000000000000000000000000\n        /* \"#utility.yul\":52:53   */\n      0x00\n        /* \"#utility.yul\":45:133   */\n      mstore\n        /* \"#utility.yul\":152:156   */\n      0x21\n        /* \"#utility.yul\":149:150   */\n      0x04\n        /* \"#utility.yul\":142:157   */\n      mstore\n        /* \"#utility.yul\":176:180   */\n      0x24\n        /* \"#utility.yul\":173:174   */\n      0x00\n        /* \"#utility.yul\":166:181   */\n      revert\n        /* \"#utility.yul\":193:306   */\n    tag_235:\n        /* \"#utility.yul\":274:275   */\n      0x04\n        /* \"#utility.yul\":267:272   */\n      dup2\n        /* \"#utility.yul\":264:276   */\n      lt\n        /* \"#utility.yul\":254:300   */\n      tag_300\n      jumpi\n        /* \"#utility.yul\":280:298   */\n      tag_301\n      tag_102\n      jump\t// in\n    tag_301:\n        /* \"#utility.yul\":254:300   */\n    tag_300:\n        /* \"#utility.yul\":193:306   */\n      pop\n      jump\t// out\n        /* \"#utility.yul\":312:439   */\n    tag_236:\n        /* \"#utility.yul\":357:364   */\n      0x00\n        /* \"#utility.yul\":386:391   */\n      dup2\n        /* \"#utility.yul\":375:391   */\n      swap1\n      pop\n        /* \"#utility.yul\":392:433   */\n      tag_303\n        /* \"#utility.yul\":427:432   */\n      dup3\n        /* \"#utility.yul\":392:433   */\n      tag_235\n      jump\t// in\n    tag_303:\n        /* \"#utility.yul\":312:439   */\n      swap2\n      swap1\n      pop\n      jump\t// out\n        /* \"#utility.yul\":445:572   */\n    tag_237:\n        /* \"#utility.yul\":501:510   */\n      0x00\n        /* \"#utility.yul\":534:566   */\n      tag_305\n        /* \"#utility.yul\":560:565   */\n      dup3\n        /* \"#utility.yul\":534:566   */\n      tag_236\n      jump\t// in\n    tag_305:\n        /* \"#utility.yul\":521:566   */\n      swap1\n      pop\n        /* \"#utility.yul\":445:572   */\n      swap2\n      swap1\n      pop\n      jump\t// out\n        /* \"#utility.yul\":578:721   */\n    tag_238:\n        /* \"#utility.yul\":671:714   */\n      tag_307\n        /* \"#utility.yul\":708:713   */\n      dup2\n        /* \"#utility.yul\":671:714   */\n      tag_237\n      jump\t// in\n    tag_307:\n        /* \"#utility.yul\":666:669   */\n      dup3\n        /* \"#utility.yul\":659:715   */\n      mstore\n        /* \"#utility.yul\":578:721   */\n      pop\n      pop\n      jump\t// out\n        /* \"#utility.yul\":727:961   */\n    tag_25:\n        /* \"#utility.yul\":826:830   */\n      0x00\n        /* \"#utility.yul\":864:866   */\n      0x20\n        /* \"#utility.yul\":853:862   */\n      dup3\n        /* \"#utility.yul\":849:867   */\n      add\n        /* \"#utility.yul\":841:867   */\n      swap1\n      pop\n        /* \"#utility.yul\":877:954   */\n      tag_309\n        /* \"#utility.yul\":951:952   */\n      0x00\n        /* \"#utility.yul\":940:949   */\n      dup4\n        /* \"#utility.yul\":936:953   */\n      add\n        /* \"#utility.yul\":927:933   */\n      dup5\n        /* \"#utility.yul\":877:954   */\n      tag_238\n      jump\t// in\n    tag_309:\n        /* \"#utility.yul\":727:961   */\n      swap3\n      swap2\n      pop\n      pop\n      jump\t// out\n        /* \"#utility.yul\":967:1044   */\n    tag_239:\n        /* \"#utility.yul\":1004:1011   */\n      0x00\n        /* \"#utility.yul\":1033:1038   */\n      dup2\n        /* \"#utility.yul\":1022:1038   */\n      swap1\n      pop\n        /* \"#utility.yul\":967:1044   */\n      swap2\n      swap1\n      pop\n      jump\t// out\n        /* \"#utility.yul\":1050:1168   */\n    tag_240:\n        /* \"#utility.yul\":1137:1161   */\n      tag_312\n        /* \"#utility.yul\":1155:1160   */\n      dup2\n        /* \"#utility.yul\":1137:1161   */\n      tag_239\n      jump\t// in\n    tag_312:\n        /* \"#utility.yul\":1132:1135   */\n      dup3\n        /* \"#utility.yul\":1125:1162   */\n      mstore\n        /* \"#utility.yul\":1050:1168   */\n      pop\n      pop\n      jump\t// out\n        /* \"#utility.yul\":1174:1396   */\n    tag_30:\n        /* \"#utility.yul\":1267:1271   */\n      0x00\n        /* \"#utility.yul\":1305:1307   */\n      0x20\n        /* \"#utility.yul\":1294:1303   */\n      dup3\n        /* \"#utility.yul\":1290:1308   */\n      add\n        /* \"#utility.yul\":1282:1308   */\n      swap1\n      pop\n        /* \"#utility.yul\":1318:1389   */\n      tag_314\n        /* \"#utility.yul\":1386:1387   */\n      0x00\n        /* \"#utility.yul\":1375:1384   */\n      dup4\n        /* \"#utility.yul\":1371:1388   */\n      add\n        /* \"#utility.yul\":1362:1368   */\n      dup5\n        /* \"#utility.yul\":1318:1389   */\n      tag_240\n      jump\t// in\n    tag_314:\n        /* \"#utility.yul\":1174:1396   */\n      swap3\n      swap2\n      pop\n      pop\n      jump\t// out\n        /* \"#utility.yul\":1402:1492   */\n    tag_241:\n        /* \"#utility.yul\":1436:1443   */\n      0x00\n        /* \"#utility.yul\":1479:1484   */\n      dup2\n        /* \"#utility.yul\":1472:1485   */\n      iszero\n        /* \"#utility.yul\":1465:1486   */\n      iszero\n        /* \"#utility.yul\":1454:1486   */\n      swap1\n      pop\n        /* \"#utility.yul\":1402:1492   */\n      swap2\n      swap1\n      pop\n      jump\t// out\n        /* \"#utility.yul\":1498:1607   */\n    tag_242:\n        /* \"#utility.yul\":1579:1600   */\n      tag_317\n        /* \"#utility.yul\":1594:1599   */\n      dup2\n        /* \"#utility.yul\":1579:1600   */\n      tag_241\n      jump\t// in\n    tag_317:\n        /* \"#utility.yul\":1574:1577   */\n      dup3\n        /* \"#utility.yul\":1567:1601   */\n      mstore\n        /* \"#utility.yul\":1498:1607   */\n      pop\n      pop\n      jump\t// out\n        /* \"#utility.yul\":1613:1823   */\n    tag_35:\n        /* \"#utility.yul\":1700:1704   */\n      0x00\n        /* \"#utility.yul\":1738:1740   */\n      0x20\n        /* \"#utility.yul\":1727:1736   */\n      dup3\n        /* \"#utility.yul\":1723:1741   */\n      add\n        /* \"#utility.yul\":1715:1741   */\n      swap1\n      pop\n        /* \"#utility.yul\":1751:1816   */\n      tag_319\n        /* \"#utility.yul\":1813:1814   */\n      0x00\n        /* \"#utility.yul\":1802:1811   */\n      dup4\n        /* \"#utility.yul\":1798:1815   */\n      add\n        /* \"#utility.yul\":1789:1795   */\n      dup5\n        /* \"#utility.yul\":1751:1816   */\n      tag_242\n      jump\t// in\n    tag_319:\n        /* \"#utility.yul\":1613:1823   */\n      swap3\n      swap2\n      pop\n      pop\n      jump\t// out\n        /* \"#utility.yul\":1910:2027   */\n    tag_244:\n        /* \"#utility.yul\":2019:2020   */\n      0x00\n        /* \"#utility.yul\":2016:2017   */\n      0x00\n        /* \"#utility.yul\":2009:2021   */\n      revert\n        /* \"#utility.yul\":2156:2282   */\n    tag_246:\n        /* \"#utility.yul\":2193:2200   */\n      0x00\n        /* \"#utility.yul\":2233:2275   */\n      0xffffffffffffffffffffffffffffffffffffffff\n        /* \"#utility.yul\":2226:2231   */\n      dup3\n        /* \"#utility.yul\":2222:2276   */\n      and\n        /* \"#utility.yul\":2211:2276   */\n      swap1\n      pop\n        /* \"#utility.yul\":2156:2282   */\n      swap2\n      swap1\n      pop\n      jump\t// out\n        /* \"#utility.yul\":2288:2384   */\n    tag_247:\n        /* \"#utility.yul\":2325:2332   */\n      0x00\n        /* \"#utility.yul\":2354:2378   */\n      tag_325\n        /* \"#utility.yul\":2372:2377   */\n      dup3\n        /* \"#utility.yul\":2354:2378   */\n      tag_246\n      jump\t// in\n    tag_325:\n        /* \"#utility.yul\":2343:2378   */\n      swap1\n      pop\n        /* \"#utility.yul\":2288:2384   */\n      swap2\n      swap1\n      pop\n      jump\t// out\n        /* \"#utility.yul\":2390:2512   */\n    tag_248:\n        /* \"#utility.yul\":2463:2487   */\n      tag_327\n        /* \"#utility.yul\":2481:2486   */\n      dup2\n        /* \"#utility.yul\":2463:2487   */\n      tag_247\n      jump\t// in\n    tag_327:\n        /* \"#utility.yul\":2456:2461   */\n      dup2\n        /* \"#utility.yul\":2453:2488   */\n      eq\n        /* \"#utility.yul\":2443:2506   */\n      tag_328\n      jumpi\n        /* \"#utility.yul\":2502:2503   */\n      0x00\n        /* \"#utility.yul\":2499:2500   */\n      0x00\n        /* \"#utility.yul\":2492:2504   */\n      revert\n        /* \"#utility.yul\":2443:2506   */\n    tag_328:\n        /* \"#utility.yul\":2390:2512   */\n      pop\n      jump\t// out\n        /* \"#utility.yul\":2518:2657   */\n    tag_249:\n        /* \"#utility.yul\":2564:2569   */\n      0x00\n        /* \"#utility.yul\":2602:2608   */\n      dup2\n        /* \"#utility.yul\":2589:2609   */\n      calldataload\n        /* \"#utility.yul\":2580:2609   */\n      swap1\n      pop\n        /* \"#utility.yul\":2618:2651   */\n      tag_330\n        /* \"#utility.yul\":2645:2650   */\n      dup2\n        /* \"#utility.yul\":2618:2651   */\n      tag_248\n      jump\t// in\n    tag_330:\n        /* \"#utility.yul\":2518:2657   */\n      swap3\n      swap2\n      pop\n      pop\n      jump\t// out\n        /* \"#utility.yul\":2663:2992   */\n    tag_39:\n        /* \"#utility.yul\":2722:2728   */\n      0x00\n        /* \"#utility.yul\":2771:2773   */\n      0x20\n        /* \"#utility.yul\":2759:2768   */\n      dup3\n        /* \"#utility.yul\":2750:2757   */\n      dup5\n        /* \"#utility.yul\":2746:2769   */\n      sub\n        /* \"#utility.yul\":2742:2774   */\n      slt\n        /* \"#utility.yul\":2739:2858   */\n      iszero\n      tag_332\n      jumpi\n        /* \"#utility.yul\":2777:2856   */\n      tag_333\n      tag_244\n      jump\t// in\n    tag_333:\n        /* \"#utility.yul\":2739:2858   */\n    tag_332:\n        /* \"#utility.yul\":2897:2898   */\n      0x00\n        /* \"#utility.yul\":2922:2975   */\n      tag_334\n        /* \"#utility.yul\":2967:2974   */\n      dup5\n        /* \"#utility.yul\":2958:2964   */\n      dup3\n        /* \"#utility.yul\":2947:2956   */\n      dup6\n        /* \"#utility.yul\":2943:2965   */\n      add\n        /* \"#utility.yul\":2922:2975   */\n      tag_249\n      jump\t// in\n    tag_334:\n        /* \"#utility.yul\":2912:2975   */\n      swap2\n      pop\n        /* \"#utility.yul\":2868:2985   */\n      pop\n        /* \"#utility.yul\":2663:2992   */\n      swap3\n      swap2\n      pop\n      pop\n      jump\t// out\n        /* \"#utility.yul\":2998:3102   */\n    tag_250:\n        /* \"#utility.yul\":3043:3050   */\n      0x00\n        /* \"#utility.yul\":3072:3096   */\n      tag_336\n        /* \"#utility.yul\":3090:3095   */\n      dup3\n        /* \"#utility.yul\":3072:3096   */\n      tag_246\n      jump\t// in\n    tag_336:\n        /* \"#utility.yul\":3061:3096   */\n      swap1\n      pop\n        /* \"#utility.yul\":2998:3102   */\n      swap2\n      swap1\n      pop\n      jump\t// out\n        /* \"#utility.yul\":3108:3250   */\n    tag_251:\n        /* \"#utility.yul\":3211:3243   */\n      tag_338\n        /* \"#utility.yul\":3237:3242   */\n      dup2\n        /* \"#utility.yul\":3211:3243   */\n      tag_250\n      jump\t// in\n    tag_338:\n        /* \"#utility.yul\":3206:3209   */\n      dup3\n        /* \"#utility.yul\":3199:3244   */\n      mstore\n        /* \"#utility.yul\":3108:3250   */\n      pop\n      pop\n      jump\t// out\n        /* \"#utility.yul\":3256:3510   */\n    tag_49:\n        /* \"#utility.yul\":3365:3369   */\n      0x00\n        /* \"#utility.yul\":3403:3405   */\n      0x20\n        /* \"#utility.yul\":3392:3401   */\n      dup3\n        /* \"#utility.yul\":3388:3406   */\n      add\n        /* \"#utility.yul\":3380:3406   */\n      swap1\n      pop\n        /* \"#utility.yul\":3416:3503   */\n      tag_340\n        /* \"#utility.yul\":3500:3501   */\n      0x00\n        /* \"#utility.yul\":3489:3498   */\n      dup4\n        /* \"#utility.yul\":3485:3502   */\n      add\n        /* \"#utility.yul\":3476:3482   */\n      dup5\n        /* \"#utility.yul\":3416:3503   */\n      tag_251\n      jump\t// in\n    tag_340:\n        /* \"#utility.yul\":3256:3510   */\n      swap3\n      swap2\n      pop\n      pop\n      jump\t// out\n        /* \"#utility.yul\":3516:3638   */\n    tag_252:\n        /* \"#utility.yul\":3589:3613   */\n      tag_342\n        /* \"#utility.yul\":3607:3612   */\n      dup2\n        /* \"#utility.yul\":3589:3613   */\n      tag_239\n      jump\t// in\n    tag_342:\n        /* \"#utility.yul\":3582:3587   */\n      dup2\n        /* \"#utility.yul\":3579:3614   */\n      eq\n        /* \"#utility.yul\":3569:3632   */\n      tag_343\n      jumpi\n        /* \"#utility.yul\":3628:3629   */\n      0x00\n        /* \"#utility.yul\":3625:3626   */\n      0x00\n        /* \"#utility.yul\":3618:3630   */\n      revert\n        /* \"#utility.yul\":3569:3632   */\n    tag_343:\n        /* \"#utility.yul\":3516:3638   */\n      pop\n      jump\t// out\n        /* \"#utility.yul\":3644:3783   */\n    tag_253:\n        /* \"#utility.yul\":3690:3695   */\n      0x00\n        /* \"#utility.yul\":3728:3734   */\n      dup2\n        /* \"#utility.yul\":3715:3735   */\n      calldataload\n        /* \"#utility.yul\":3706:3735   */\n      swap1\n      pop\n        /* \"#utility.yul\":3744:3777   */\n      tag_345\n        /* \"#utility.yul\":3771:3776   */\n      dup2\n        /* \"#utility.yul\":3744:3777   */\n      tag_252\n      jump\t// in\n    tag_345:\n        /* \"#utility.yul\":3644:3783   */\n      swap3\n      swap2\n      pop\n      pop\n      jump\t// out\n        /* \"#utility.yul\":3789:3866   */\n    tag_254:\n        /* \"#utility.yul\":3826:3833   */\n      0x00\n        /* \"#utility.yul\":3855:3860   */\n      dup2\n        /* \"#utility.yul\":3844:3860   */\n      swap1\n      pop\n        /* \"#utility.yul\":3789:3866   */\n      swap2\n      swap1\n      pop\n      jump\t// out\n        /* \"#utility.yul\":3872:3994   */\n    tag_255:\n        /* \"#utility.yul\":3945:3969   */\n      tag_348\n        /* \"#utility.yul\":3963:3968   */\n      dup2\n        /* \"#utility.yul\":3945:3969   */\n      tag_254\n      jump\t// in\n    tag_348:\n        /* \"#utility.yul\":3938:3943   */\n      dup2\n        /* \"#utility.yul\":3935:3970   */\n      eq\n        /* \"#utility.yul\":3925:3988   */\n      tag_349\n      jumpi\n        /* \"#utility.yul\":3984:3985   */\n      0x00\n        /* \"#utility.yul\":3981:3982   */\n      0x00\n        /* \"#utility.yul\":3974:3986   */\n      revert\n        /* \"#utility.yul\":3925:3988   */\n    tag_349:\n        /* \"#utility.yul\":3872:3994   */\n      pop\n      jump\t// out\n        /* \"#utility.yul\":4000:4139   */\n    tag_256:\n        /* \"#utility.yul\":4046:4051   */\n      0x00\n        /* \"#utility.yul\":4084:4090   */\n      dup2\n        /* \"#utility.yul\":4071:4091   */\n      calldataload\n        /* \"#utility.yul\":4062:4091   */\n      swap1\n      pop\n        /* \"#utility.yul\":4100:4133   */\n      tag_351\n        /* \"#utility.yul\":4127:4132   */\n      dup2\n        /* \"#utility.yul\":4100:4133   */\n      tag_255\n      jump\t// in\n    tag_351:\n        /* \"#utility.yul\":4000:4139   */\n      swap3\n      swap2\n      pop\n      pop\n      jump\t// out\n        /* \"#utility.yul\":4145:4619   */\n    tag_56:\n        /* \"#utility.yul\":4213:4219   */\n      0x00\n        /* \"#utility.yul\":4221:4227   */\n      0x00\n        /* \"#utility.yul\":4270:4272   */\n      0x40\n        /* \"#utility.yul\":4258:4267   */\n      dup4\n        /* \"#utility.yul\":4249:4256   */\n      dup6\n        /* \"#utility.yul\":4245:4268   */\n      sub\n        /* \"#utility.yul\":4241:4273   */\n      slt\n        /* \"#utility.yul\":4238:4357   */\n      iszero\n      tag_353\n      jumpi\n        /* \"#utility.yul\":4276:4355   */\n      tag_354\n      tag_244\n      jump\t// in\n    tag_354:\n        /* \"#utility.yul\":4238:4357   */\n    tag_353:\n        /* \"#utility.yul\":4396:4397   */\n      0x00\n        /* \"#utility.yul\":4421:4474   */\n      tag_355\n        /* \"#utility.yul\":4466:4473   */\n      dup6\n        /* \"#utility.yul\":4457:4463   */\n      dup3\n        /* \"#utility.yul\":4446:4455   */\n      dup7\n        /* \"#utility.yul\":4442:4464   */\n      add\n        /* \"#utility.yul\":4421:4474   */\n      tag_253\n      jump\t// in\n    tag_355:\n        /* \"#utility.yul\":4411:4474   */\n      swap3\n      pop\n        /* \"#utility.yul\":4367:4484   */\n      pop\n        /* \"#utility.yul\":4523:4525   */\n      0x20\n        /* \"#utility.yul\":4549:4602   */\n      tag_356\n        /* \"#utility.yul\":4594:4601   */\n      dup6\n        /* \"#utility.yul\":4585:4591   */\n      dup3\n        /* \"#utility.yul\":4574:4583   */\n      dup7\n        /* \"#utility.yul\":4570:4592   */\n      add\n        /* \"#utility.yul\":4549:4602   */\n      tag_256\n      jump\t// in\n    tag_356:\n        /* \"#utility.yul\":4539:4602   */\n      swap2\n      pop\n        /* \"#utility.yul\":4494:4612   */\n      pop\n        /* \"#utility.yul\":4145:4619   */\n      swap3\n      pop\n      swap3\n      swap1\n      pop\n      jump\t// out\n        /* \"#utility.yul\":4625:4743   */\n    tag_257:\n        /* \"#utility.yul\":4712:4736   */\n      tag_358\n        /* \"#utility.yul\":4730:4735   */\n      dup2\n        /* \"#utility.yul\":4712:4736   */\n      tag_254\n      jump\t// in\n    tag_358:\n        /* \"#utility.yul\":4707:4710   */\n      dup3\n        /* \"#utility.yul\":4700:4737   */\n      mstore\n        /* \"#utility.yul\":4625:4743   */\n      pop\n      pop\n      jump\t// out\n        /* \"#utility.yul\":4749:5081   */\n    tag_63:\n        /* \"#utility.yul\":4870:4874   */\n      0x00\n        /* \"#utility.yul\":4908:4910   */\n      0x40\n        /* \"#utility.yul\":4897:4906   */\n      dup3\n        /* \"#utility.yul\":4893:4911   */\n      add\n        /* \"#utility.yul\":4885:4911   */\n      swap1\n      pop\n        /* \"#utility.yul\":4921:4992   */\n      tag_360\n        /* \"#utility.yul\":4989:4990   */\n      0x00\n        /* \"#utility.yul\":4978:4987   */\n      dup4\n        /* \"#utility.yul\":4974:4991   */\n      add\n        /* \"#utility.yul\":4965:4971   */\n      dup6\n        /* \"#utility.yul\":4921:4992   */\n      tag_257\n      jump\t// in\n    tag_360:\n        /* \"#utility.yul\":5002:5074   */\n      tag_361\n        /* \"#utility.yul\":5070:5072   */\n      0x20\n        /* \"#utility.yul\":5059:5068   */\n      dup4\n        /* \"#utility.yul\":5055:5073   */\n      add\n        /* \"#utility.yul\":5046:5052   */\n      dup5\n        /* \"#utility.yul\":5002:5074   */\n      tag_240\n      jump\t// in\n    tag_361:\n        /* \"#utility.yul\":4749:5081   */\n      swap4\n      swap3\n      pop\n      pop\n      pop\n      jump\t// out\n        /* \"#utility.yul\":5087:5205   */\n    tag_258:\n        /* \"#utility.yul\":5174:5198   */\n      tag_363\n        /* \"#utility.yul\":5192:5197   */\n      dup2\n        /* \"#utility.yul\":5174:5198   */\n      tag_247\n      jump\t// in\n    tag_363:\n        /* \"#utility.yul\":5169:5172   */\n      dup3\n        /* \"#utility.yul\":5162:5199   */\n      mstore\n        /* \"#utility.yul\":5087:5205   */\n      pop\n      pop\n      jump\t// out\n        /* \"#utility.yul\":5211:5433   */\n    tag_68:\n        /* \"#utility.yul\":5304:5308   */\n      0x00\n        /* \"#utility.yul\":5342:5344   */\n      0x20\n        /* \"#utility.yul\":5331:5340   */\n      dup3\n        /* \"#utility.yul\":5327:5345   */\n      add\n        /* \"#utility.yul\":5319:5345   */\n      swap1\n      pop\n        /* \"#utility.yul\":5355:5426   */\n      tag_365\n        /* \"#utility.yul\":5423:5424   */\n      0x00\n        /* \"#utility.yul\":5412:5421   */\n      dup4\n        /* \"#utility.yul\":5408:5425   */\n      add\n        /* \"#utility.yul\":5399:5405   */\n      dup5\n        /* \"#utility.yul\":5355:5426   */\n      tag_258\n      jump\t// in\n    tag_365:\n        /* \"#utility.yul\":5211:5433   */\n      swap3\n      swap2\n      pop\n      pop\n      jump\t// out\n        /* \"#utility.yul\":5439:5768   */\n    tag_71:\n        /* \"#utility.yul\":5498:5504   */\n      0x00\n        /* \"#utility.yul\":5547:5549   */\n      0x20\n        /* \"#utility.yul\":5535:5544   */\n      dup3\n        /* \"#utility.yul\":5526:5533   */\n      dup5\n        /* \"#utility.yul\":5522:5545   */\n      sub\n        /* \"#utility.yul\":5518:5550   */\n      slt\n        /* \"#utility.yul\":5515:5634   */\n      iszero\n      tag_367\n      jumpi\n        /* \"#utility.yul\":5553:5632   */\n      tag_368\n      tag_244\n      jump\t// in\n    tag_368:\n        /* \"#utility.yul\":5515:5634   */\n    tag_367:\n        /* \"#utility.yul\":5673:5674   */\n      0x00\n        /* \"#utility.yul\":5698:5751   */\n      tag_369\n        /* \"#utility.yul\":5743:5750   */\n      dup5\n        /* \"#utility.yul\":5734:5740   */\n      dup3\n        /* \"#utility.yul\":5723:5732   */\n      dup6\n        /* \"#utility.yul\":5719:5741   */\n      add\n        /* \"#utility.yul\":5698:5751   */\n      tag_256\n      jump\t// in\n    tag_369:\n        /* \"#utility.yul\":5688:5751   */\n      swap2\n      pop\n        /* \"#utility.yul\":5644:5761   */\n      pop\n        /* \"#utility.yul\":5439:5768   */\n      swap3\n      swap2\n      pop\n      pop\n      jump\t// out\n        /* \"#utility.yul\":5774:6248   */\n    tag_76:\n        /* \"#utility.yul\":5842:5848   */\n      0x00\n        /* \"#utility.yul\":5850:5856   */\n      0x00\n        /* \"#utility.yul\":5899:5901   */\n      0x40\n        /* \"#utility.yul\":5887:5896   */\n      dup4\n        /* \"#utility.yul\":5878:5885   */\n      dup6\n        /* \"#utility.yul\":5874:5897   */\n      sub\n        /* \"#utility.yul\":5870:5902   */\n      slt\n        /* \"#utility.yul\":5867:5986   */\n      iszero\n      tag_371\n      jumpi\n        /* \"#utility.yul\":5905:5984   */\n      tag_372\n      tag_244\n      jump\t// in\n    tag_372:\n        /* \"#utility.yul\":5867:5986   */\n    tag_371:\n        /* \"#utility.yul\":6025:6026   */\n      0x00\n        /* \"#utility.yul\":6050:6103   */\n      tag_373\n        /* \"#utility.yul\":6095:6102   */\n      dup6\n        /* \"#utility.yul\":6086:6092   */\n      dup3\n        /* \"#utility.yul\":6075:6084   */\n      dup7\n        /* \"#utility.yul\":6071:6093   */\n      add\n        /* \"#utility.yul\":6050:6103   */\n      tag_253\n      jump\t// in\n    tag_373:\n        /* \"#utility.yul\":6040:6103   */\n      swap3\n      pop\n        /* \"#utility.yul\":5996:6113   */\n      pop\n        /* \"#utility.yul\":6152:6154   */\n      0x20\n        /* \"#utility.yul\":6178:6231   */\n      tag_374\n        /* \"#utility.yul\":6223:6230   */\n      dup6\n        /* \"#utility.yul\":6214:6220   */\n      dup3\n        /* \"#utility.yul\":6203:6212   */\n      dup7\n        /* \"#utility.yul\":6199:6221   */\n      add\n        /* \"#utility.yul\":6178:6231   */\n      tag_253\n      jump\t// in\n    tag_374:\n        /* \"#utility.yul\":6168:6231   */\n      swap2\n      pop\n        /* \"#utility.yul\":6123:6241   */\n      pop\n        /* \"#utility.yul\":5774:6248   */\n      swap3\n      pop\n      swap3\n      swap1\n      pop\n      jump\t// out\n        /* \"#utility.yul\":6254:6423   */\n    tag_259:\n        /* \"#utility.yul\":6338:6349   */\n      0x00\n        /* \"#utility.yul\":6372:6378   */\n      dup3\n        /* \"#utility.yul\":6367:6370   */\n      dup3\n        /* \"#utility.yul\":6360:6379   */\n      mstore\n        /* \"#utility.yul\":6412:6416   */\n      0x20\n        /* \"#utility.yul\":6407:6410   */\n      dup3\n        /* \"#utility.yul\":6403:6417   */\n      add\n        /* \"#utility.yul\":6388:6417   */\n      swap1\n      pop\n        /* \"#utility.yul\":6254:6423   */\n      swap3\n      swap2\n      pop\n      pop\n      jump\t// out\n        /* \"#utility.yul\":6429:6595   */\n    tag_260:\n        /* \"#utility.yul\":6569:6587   */\n      0x4f6e6c792062656e656669636961727900000000000000000000000000000000\n        /* \"#utility.yul\":6565:6566   */\n      0x00\n        /* \"#utility.yul\":6557:6563   */\n      dup3\n        /* \"#utility.yul\":6553:6567   */\n      add\n        /* \"#utility.yul\":6546:6588   */\n      mstore\n        /* \"#utility.yul\":6429:6595   */\n      pop\n      jump\t// out\n        /* \"#utility.yul\":6601:6967   */\n    tag_261:\n        /* \"#utility.yul\":6743:6746   */\n      0x00\n        /* \"#utility.yul\":6764:6831   */\n      tag_378\n        /* \"#utility.yul\":6828:6830   */\n      0x10\n        /* \"#utility.yul\":6823:6826   */\n      dup4\n        /* \"#utility.yul\":6764:6831   */\n      tag_259\n      jump\t// in\n    tag_378:\n        /* \"#utility.yul\":6757:6831   */\n      swap2\n      pop\n        /* \"#utility.yul\":6840:6933   */\n      tag_379\n        /* \"#utility.yul\":6929:6932   */\n      dup3\n        /* \"#utility.yul\":6840:6933   */\n      tag_260\n      jump\t// in\n    tag_379:\n        /* \"#utility.yul\":6958:6960   */\n      0x20\n        /* \"#utility.yul\":6953:6956   */\n      dup3\n        /* \"#utility.yul\":6949:6961   */\n      add\n        /* \"#utility.yul\":6942:6961   */\n      swap1\n      pop\n        /* \"#utility.yul\":6601:6967   */\n      swap2\n      swap1\n      pop\n      jump\t// out\n        /* \"#utility.yul\":6973:7392   */\n    tag_96:\n        /* \"#utility.yul\":7139:7143   */\n      0x00\n        /* \"#utility.yul\":7177:7179   */\n      0x20\n        /* \"#utility.yul\":7166:7175   */\n      dup3\n        /* \"#utility.yul\":7162:7180   */\n      add\n        /* \"#utility.yul\":7154:7180   */\n      swap1\n      pop\n        /* \"#utility.yul\":7226:7235   */\n      dup2\n        /* \"#utility.yul\":7220:7224   */\n      dup2\n        /* \"#utility.yul\":7216:7236   */\n      sub\n        /* \"#utility.yul\":7212:7213   */\n      0x00\n        /* \"#utility.yul\":7201:7210   */\n      dup4\n        /* \"#utility.yul\":7197:7214   */\n      add\n        /* \"#utility.yul\":7190:7237   */\n      mstore\n        /* \"#utility.yul\":7254:7385   */\n      tag_381\n        /* \"#utility.yul\":7380:7384   */\n      dup2\n        /* \"#utility.yul\":7254:7385   */\n      tag_261\n      jump\t// in\n    tag_381:\n        /* \"#utility.yul\":7246:7385   */\n      swap1\n      pop\n        /* \"#utility.yul\":6973:7392   */\n      swap2\n      swap1\n      pop\n      jump\t// out\n        /* \"#utility.yul\":7398:7559   */\n    tag_262:\n        /* \"#utility.yul\":7538:7551   */\n      0x57726f6e67207068617365000000000000000000000000000000000000000000\n        /* \"#utility.yul\":7534:7535   */\n      0x00\n        /* \"#utility.yul\":7526:7532   */\n      dup3\n        /* \"#utility.yul\":7522:7536   */\n      add\n        /* \"#utility.yul\":7515:7552   */\n      mstore\n        /* \"#utility.yul\":7398:7559   */\n      pop\n      jump\t// out\n        /* \"#utility.yul\":7565:7931   */\n    tag_263:\n        /* \"#utility.yul\":7707:7710   */\n      0x00\n        /* \"#utility.yul\":7728:7795   */\n      tag_384\n        /* \"#utility.yul\":7792:7794   */\n      0x0b\n        /* \"#utility.yul\":7787:7790   */\n      dup4\n        /* \"#utility.yul\":7728:7795   */\n      tag_259\n      jump\t// in\n    tag_384:\n        /* \"#utility.yul\":7721:7795   */\n      swap2\n      pop\n        /* \"#utility.yul\":7804:7897   */\n      tag_385\n        /* \"#utility.yul\":7893:7896   */\n      dup3\n        /* \"#utility.yul\":7804:7897   */\n      tag_262\n      jump\t// in\n    tag_385:\n        /* \"#utility.yul\":7922:7924   */\n      0x20\n        /* \"#utility.yul\":7917:7920   */\n      dup3\n        /* \"#utility.yul\":7913:7925   */\n      add\n        /* \"#utility.yul\":7906:7925   */\n      swap1\n      pop\n        /* \"#utility.yul\":7565:7931   */\n      swap2\n      swap1\n      pop\n      jump\t// out\n        /* \"#utility.yul\":7937:8356   */\n    tag_107:\n        /* \"#utility.yul\":8103:8107   */\n      0x00\n        /* \"#utility.yul\":8141:8143   */\n      0x20\n        /* \"#utility.yul\":8130:8139   */\n      dup3\n        /* \"#utility.yul\":8126:8144   */\n      add\n        /* \"#utility.yul\":8118:8144   */\n      swap1\n      pop\n        /* \"#utility.yul\":8190:8199   */\n      dup2\n        /* \"#utility.yul\":8184:8188   */\n      dup2\n        /* \"#utility.yul\":8180:8200   */\n      sub\n        /* \"#utility.yul\":8176:8177   */\n      0x00\n        /* \"#utility.yul\":8165:8174   */\n      dup4\n        /* \"#utility.yul\":8161:8178   */\n      add\n        /* \"#utility.yul\":8154:8201   */\n      mstore\n        /* \"#utility.yul\":8218:8349   */\n      tag_387\n        /* \"#utility.yul\":8344:8348   */\n      dup2\n        /* \"#utility.yul\":8218:8349   */\n      tag_263\n      jump\t// in\n    tag_387:\n        /* \"#utility.yul\":8210:8349   */\n      swap1\n      pop\n        /* \"#utility.yul\":7937:8356   */\n      swap2\n      swap1\n      pop\n      jump\t// out\n        /* \"#utility.yul\":8362:8537   */\n    tag_264:\n        /* \"#utility.yul\":8502:8529   */\n      0x61756374696f6e456e6420616c72656164792063616c6c656400000000000000\n        /* \"#utility.yul\":8498:8499   */\n      0x00\n        /* \"#utility.yul\":8490:8496   */\n      dup3\n        /* \"#utility.yul\":8486:8500   */\n      add\n        /* \"#utility.yul\":8479:8530   */\n      mstore\n        /* \"#utility.yul\":8362:8537   */\n      pop\n      jump\t// out\n        /* \"#utility.yul\":8543:8909   */\n    tag_265:\n        /* \"#utility.yul\":8685:8688   */\n      0x00\n        /* \"#utility.yul\":8706:8773   */\n      tag_390\n        /* \"#utility.yul\":8770:8772   */\n      0x19\n        /* \"#utility.yul\":8765:8768   */\n      dup4\n        /* \"#utility.yul\":8706:8773   */\n      tag_259\n      jump\t// in\n    tag_390:\n        /* \"#utility.yul\":8699:8773   */\n      swap2\n      pop\n        /* \"#utility.yul\":8782:8875   */\n      tag_391\n        /* \"#utility.yul\":8871:8874   */\n      dup3\n        /* \"#utility.yul\":8782:8875   */\n      tag_264\n      jump\t// in\n    tag_391:\n        /* \"#utility.yul\":8900:8902   */\n      0x20\n        /* \"#utility.yul\":8895:8898   */\n      dup3\n        /* \"#utility.yul\":8891:8903   */\n      add\n        /* \"#utility.yul\":8884:8903   */\n      swap1\n      pop\n        /* \"#utility.yul\":8543:8909   */\n      swap2\n      swap1\n      pop\n      jump\t// out\n        /* \"#utility.yul\":8915:9334   */\n    tag_111:\n        /* \"#utility.yul\":9081:9085   */\n      0x00\n        /* \"#utility.yul\":9119:9121   */\n      0x20\n        /* \"#utility.yul\":9108:9117   */\n      dup3\n        /* \"#utility.yul\":9104:9122   */\n      add\n        /* \"#utility.yul\":9096:9122   */\n      swap1\n      pop\n        /* \"#utility.yul\":9168:9177   */\n      dup2\n        /* \"#utility.yul\":9162:9166   */\n      dup2\n        /* \"#utility.yul\":9158:9178   */\n      sub\n        /* \"#utility.yul\":9154:9155   */\n      0x00\n        /* \"#utility.yul\":9143:9152   */\n      dup4\n        /* \"#utility.yul\":9139:9156   */\n      add\n        /* \"#utility.yul\":9132:9179   */\n      mstore\n        /* \"#utility.yul\":9196:9327   */\n      tag_393\n        /* \"#utility.yul\":9322:9326   */\n      dup2\n        /* \"#utility.yul\":9196:9327   */\n      tag_265\n      jump\t// in\n    tag_393:\n        /* \"#utility.yul\":9188:9327   */\n      swap1\n      pop\n        /* \"#utility.yul\":8915:9334   */\n      swap2\n      swap1\n      pop\n      jump\t// out\n        /* \"#utility.yul\":9340:9672   */\n    tag_113:\n        /* \"#utility.yul\":9461:9465   */\n      0x00\n        /* \"#utility.yul\":9499:9501   */\n      0x40\n        /* \"#utility.yul\":9488:9497   */\n      dup3\n        /* \"#utility.yul\":9484:9502   */\n      add\n        /* \"#utility.yul\":9476:9502   */\n      swap1\n      pop\n        /* \"#utility.yul\":9512:9583   */\n      tag_395\n        /* \"#utility.yul\":9580:9581   */\n      0x00\n        /* \"#utility.yul\":9569:9578   */\n      dup4\n        /* \"#utility.yul\":9565:9582   */\n      add\n        /* \"#utility.yul\":9556:9562   */\n      dup6\n        /* \"#utility.yul\":9512:9583   */\n      tag_258\n      jump\t// in\n    tag_395:\n        /* \"#utility.yul\":9593:9665   */\n      tag_396\n        /* \"#utility.yul\":9661:9663   */\n      0x20\n        /* \"#utility.yul\":9650:9659   */\n      dup4\n        /* \"#utility.yul\":9646:9664   */\n      add\n        /* \"#utility.yul\":9637:9643   */\n      dup5\n        /* \"#utility.yul\":9593:9665   */\n      tag_240\n      jump\t// in\n    tag_396:\n        /* \"#utility.yul\":9340:9672   */\n      swap4\n      swap3\n      pop\n      pop\n      pop\n      jump\t// out\n        /* \"#utility.yul\":9678:9847   */\n    tag_266:\n        /* \"#utility.yul\":9818:9839   */\n      0x4e6f7468696e6720746f20776974686472617700000000000000000000000000\n        /* \"#utility.yul\":9814:9815   */\n      0x00\n        /* \"#utility.yul\":9806:9812   */\n      dup3\n        /* \"#utility.yul\":9802:9816   */\n      add\n        /* \"#utility.yul\":9795:9840   */\n      mstore\n        /* \"#utility.yul\":9678:9847   */\n      pop\n      jump\t// out\n        /* \"#utility.yul\":9853:10219   */\n    tag_267:\n        /* \"#utility.yul\":9995:9998   */\n      0x00\n        /* \"#utility.yul\":10016:10083   */\n      tag_399\n        /* \"#utility.yul\":10080:10082   */\n      0x13\n        /* \"#utility.yul\":10075:10078   */\n      dup4\n        /* \"#utility.yul\":10016:10083   */\n      tag_259\n      jump\t// in\n    tag_399:\n        /* \"#utility.yul\":10009:10083   */\n      swap2\n      pop\n        /* \"#utility.yul\":10092:10185   */\n      tag_400\n        /* \"#utility.yul\":10181:10184   */\n      dup3\n        /* \"#utility.yul\":10092:10185   */\n      tag_266\n      jump\t// in\n    tag_400:\n        /* \"#utility.yul\":10210:10212   */\n      0x20\n        /* \"#utility.yul\":10205:10208   */\n      dup3\n        /* \"#utility.yul\":10201:10213   */\n      add\n        /* \"#utility.yul\":10194:10213   */\n      swap1\n      pop\n        /* \"#utility.yul\":9853:10219   */\n      swap2\n      swap1\n      pop\n      jump\t// out\n        /* \"#utility.yul\":10225:10644   */\n    tag_120:\n        /* \"#utility.yul\":10391:10395   */\n      0x00\n        /* \"#utility.yul\":10429:10431   */\n      0x20\n        /* \"#utility.yul\":10418:10427   */\n      dup3\n        /* \"#utility.yul\":10414:10432   */\n      add\n        /* \"#utility.yul\":10406:10432   */\n      swap1\n      pop\n        /* \"#utility.yul\":10478:10487   */\n      dup2\n        /* \"#utility.yul\":10472:10476   */\n      dup2\n        /* \"#utility.yul\":10468:10488   */\n      sub\n        /* \"#utility.yul\":10464:10465   */\n      0x00\n        /* \"#utility.yul\":10453:10462   */\n      dup4\n        /* \"#utility.yul\":10449:10466   */\n      add\n        /* \"#utility.yul\":10442:10489   */\n      mstore\n        /* \"#utility.yul\":10506:10637   */\n      tag_402\n        /* \"#utility.yul\":10632:10636   */\n      dup2\n        /* \"#utility.yul\":10506:10637   */\n      tag_267\n      jump\t// in\n    tag_402:\n        /* \"#utility.yul\":10498:10637   */\n      swap1\n      pop\n        /* \"#utility.yul\":10225:10644   */\n      swap2\n      swap1\n      pop\n      jump\t// out\n        /* \"#utility.yul\":10650:10812   */\n    tag_268:\n        /* \"#utility.yul\":10790:10804   */\n      0x4e6f2062696420666f756e640000000000000000000000000000000000000000\n        /* \"#utility.yul\":10786:10787   */\n      0x00\n        /* \"#utility.yul\":10778:10784   */\n      dup3\n        /* \"#utility.yul\":10774:10788   */\n      add\n        /* \"#utility.yul\":10767:10805   */\n      mstore\n        /* \"#utility.yul\":10650:10812   */\n      pop\n      jump\t// out\n        /* \"#utility.yul\":10818:11184   */\n    tag_269:\n        /* \"#utility.yul\":10960:10963   */\n      0x00\n        /* \"#utility.yul\":10981:11048   */\n      tag_405\n        /* \"#utility.yul\":11045:11047   */\n      0x0c\n        /* \"#utility.yul\":11040:11043   */\n      dup4\n        /* \"#utility.yul\":10981:11048   */\n      tag_259\n      jump\t// in\n    tag_405:\n        /* \"#utility.yul\":10974:11048   */\n      swap2\n      pop\n        /* \"#utility.yul\":11057:11150   */\n      tag_406\n        /* \"#utility.yul\":11146:11149   */\n      dup3\n        /* \"#utility.yul\":11057:11150   */\n      tag_268\n      jump\t// in\n    tag_406:\n        /* \"#utility.yul\":11175:11177   */\n      0x20\n        /* \"#utility.yul\":11170:11173   */\n      dup3\n        /* \"#utility.yul\":11166:11178   */\n      add\n        /* \"#utility.yul\":11159:11178   */\n      swap1\n      pop\n        /* \"#utility.yul\":10818:11184   */\n      swap2\n      swap1\n      pop\n      jump\t// out\n        /* \"#utility.yul\":11190:11609   */\n    tag_134:\n        /* \"#utility.yul\":11356:11360   */\n      0x00\n        /* \"#utility.yul\":11394:11396   */\n      0x20\n        /* \"#utility.yul\":11383:11392   */\n      dup3\n        /* \"#utility.yul\":11379:11397   */\n      add\n        /* \"#utility.yul\":11371:11397   */\n      swap1\n      pop\n        /* \"#utility.yul\":11443:11452   */\n      dup2\n        /* \"#utility.yul\":11437:11441   */\n      dup2\n        /* \"#utility.yul\":11433:11453   */\n      sub\n        /* \"#utility.yul\":11429:11430   */\n      0x00\n        /* \"#utility.yul\":11418:11427   */\n      dup4\n        /* \"#utility.yul\":11414:11431   */\n      add\n        /* \"#utility.yul\":11407:11454   */\n      mstore\n        /* \"#utility.yul\":11471:11602   */\n      tag_408\n        /* \"#utility.yul\":11597:11601   */\n      dup2\n        /* \"#utility.yul\":11471:11602   */\n      tag_269\n      jump\t// in\n    tag_408:\n        /* \"#utility.yul\":11463:11602   */\n      swap1\n      pop\n        /* \"#utility.yul\":11190:11609   */\n      swap2\n      swap1\n      pop\n      jump\t// out\n        /* \"#utility.yul\":11615:11694   */\n    tag_270:\n        /* \"#utility.yul\":11654:11661   */\n      0x00\n        /* \"#utility.yul\":11683:11688   */\n      dup2\n        /* \"#utility.yul\":11672:11688   */\n      swap1\n      pop\n        /* \"#utility.yul\":11615:11694   */\n      swap2\n      swap1\n      pop\n      jump\t// out\n        /* \"#utility.yul\":11700:11857   */\n    tag_271:\n        /* \"#utility.yul\":11805:11850   */\n      tag_411\n        /* \"#utility.yul\":11825:11849   */\n      tag_412\n        /* \"#utility.yul\":11843:11848   */\n      dup3\n        /* \"#utility.yul\":11825:11849   */\n      tag_239\n      jump\t// in\n    tag_412:\n        /* \"#utility.yul\":11805:11850   */\n      tag_270\n      jump\t// in\n    tag_411:\n        /* \"#utility.yul\":11800:11803   */\n      dup3\n        /* \"#utility.yul\":11793:11851   */\n      mstore\n        /* \"#utility.yul\":11700:11857   */\n      pop\n      pop\n      jump\t// out\n        /* \"#utility.yul\":11863:11942   */\n    tag_272:\n        /* \"#utility.yul\":11902:11909   */\n      0x00\n        /* \"#utility.yul\":11931:11936   */\n      dup2\n        /* \"#utility.yul\":11920:11936   */\n      swap1\n      pop\n        /* \"#utility.yul\":11863:11942   */\n      swap2\n      swap1\n      pop\n      jump\t// out\n        /* \"#utility.yul\":11948:12105   */\n    tag_273:\n        /* \"#utility.yul\":12053:12098   */\n      tag_415\n        /* \"#utility.yul\":12073:12097   */\n      tag_416\n        /* \"#utility.yul\":12091:12096   */\n      dup3\n        /* \"#utility.yul\":12073:12097   */\n      tag_254\n      jump\t// in\n    tag_416:\n        /* \"#utility.yul\":12053:12098   */\n      tag_272\n      jump\t// in\n    tag_415:\n        /* \"#utility.yul\":12048:12051   */\n      dup3\n        /* \"#utility.yul\":12041:12099   */\n      mstore\n        /* \"#utility.yul\":11948:12105   */\n      pop\n      pop\n      jump\t// out\n        /* \"#utility.yul\":12111:12508   */\n    tag_136:\n        /* \"#utility.yul\":12251:12254   */\n      0x00\n        /* \"#utility.yul\":12266:12341   */\n      tag_418\n        /* \"#utility.yul\":12337:12340   */\n      dup3\n        /* \"#utility.yul\":12328:12334   */\n      dup6\n        /* \"#utility.yul\":12266:12341   */\n      tag_271\n      jump\t// in\n    tag_418:\n        /* \"#utility.yul\":12366:12368   */\n      0x20\n        /* \"#utility.yul\":12361:12364   */\n      dup3\n        /* \"#utility.yul\":12357:12369   */\n      add\n        /* \"#utility.yul\":12350:12369   */\n      swap2\n      pop\n        /* \"#utility.yul\":12379:12454   */\n      tag_419\n        /* \"#utility.yul\":12450:12453   */\n      dup3\n        /* \"#utility.yul\":12441:12447   */\n      dup5\n        /* \"#utility.yul\":12379:12454   */\n      tag_273\n      jump\t// in\n    tag_419:\n        /* \"#utility.yul\":12479:12481   */\n      0x20\n        /* \"#utility.yul\":12474:12477   */\n      dup3\n        /* \"#utility.yul\":12470:12482   */\n      add\n        /* \"#utility.yul\":12463:12482   */\n      swap2\n      pop\n        /* \"#utility.yul\":12499:12502   */\n      dup2\n        /* \"#utility.yul\":12492:12502   */\n      swap1\n      pop\n        /* \"#utility.yul\":12111:12508   */\n      swap4\n      swap3\n      pop\n      pop\n      pop\n      jump\t// out\n        /* \"#utility.yul\":12514:12677   */\n    tag_274:\n        /* \"#utility.yul\":12654:12669   */\n      0x48617368206d69736d6174636800000000000000000000000000000000000000\n        /* \"#utility.yul\":12650:12651   */\n      0x00\n        /* \"#utility.yul\":12642:12648   */\n      dup3\n        /* \"#utility.yul\":12638:12652   */\n      add\n        /* \"#utility.yul\":12631:12670   */\n      mstore\n        /* \"#utility.yul\":12514:12677   */\n      pop\n      jump\t// out\n        /* \"#utility.yul\":12683:13049   */\n    tag_275:\n        /* \"#utility.yul\":12825:12828   */\n      0x00\n        /* \"#utility.yul\":12846:12913   */\n      tag_422\n        /* \"#utility.yul\":12910:12912   */\n      0x0d\n        /* \"#utility.yul\":12905:12908   */\n      dup4\n        /* \"#utility.yul\":12846:12913   */\n      tag_259\n      jump\t// in\n    tag_422:\n        /* \"#utility.yul\":12839:12913   */\n      swap2\n      pop\n        /* \"#utility.yul\":12922:13015   */\n      tag_423\n        /* \"#utility.yul\":13011:13014   */\n      dup3\n        /* \"#utility.yul\":12922:13015   */\n      tag_274\n      jump\t// in\n    tag_423:\n        /* \"#utility.yul\":13040:13042   */\n      0x20\n        /* \"#utility.yul\":13035:13038   */\n      dup3\n        /* \"#utility.yul\":13031:13043   */\n      add\n        /* \"#utility.yul\":13024:13043   */\n      swap1\n      pop\n        /* \"#utility.yul\":12683:13049   */\n      swap2\n      swap1\n      pop\n      jump\t// out\n        /* \"#utility.yul\":13055:13474   */\n    tag_139:\n        /* \"#utility.yul\":13221:13225   */\n      0x00\n        /* \"#utility.yul\":13259:13261   */\n      0x20\n        /* \"#utility.yul\":13248:13257   */\n      dup3\n        /* \"#utility.yul\":13244:13262   */\n      add\n        /* \"#utility.yul\":13236:13262   */\n      swap1\n      pop\n        /* \"#utility.yul\":13308:13317   */\n      dup2\n        /* \"#utility.yul\":13302:13306   */\n      dup2\n        /* \"#utility.yul\":13298:13318   */\n      sub\n        /* \"#utility.yul\":13294:13295   */\n      0x00\n        /* \"#utility.yul\":13283:13292   */\n      dup4\n        /* \"#utility.yul\":13279:13296   */\n      add\n        /* \"#utility.yul\":13272:13319   */\n      mstore\n        /* \"#utility.yul\":13336:13467   */\n      tag_425\n        /* \"#utility.yul\":13462:13466   */\n      dup2\n        /* \"#utility.yul\":13336:13467   */\n      tag_275\n      jump\t// in\n    tag_425:\n        /* \"#utility.yul\":13328:13467   */\n      swap1\n      pop\n        /* \"#utility.yul\":13055:13474   */\n      swap2\n      swap1\n      pop\n      jump\t// out\n        /* \"#utility.yul\":13480:13660   */\n    tag_276:\n        /* \"#utility.yul\":13528:13605   */\n      0x4e487b7100000000000000000000000000000000000000000000000000000000\n        /* \"#utility.yul\":13525:13526   */\n      0x00\n        /* \"#utility.yul\":13518:13606   */\n      mstore\n        /* \"#utility.yul\":13625:13629   */\n      0x11\n        /* \"#utility.yul\":13622:13623   */\n      0x04\n        /* \"#utility.yul\":13615:13630   */\n      mstore\n        /* \"#utility.yul\":13649:13653   */\n      0x24\n        /* \"#utility.yul\":13646:13647   */\n      0x00\n        /* \"#utility.yul\":13639:13654   */\n      revert\n        /* \"#utility.yul\":13666:14076   */\n    tag_141:\n        /* \"#utility.yul\":13706:13713   */\n      0x00\n        /* \"#utility.yul\":13729:13749   */\n      tag_428\n        /* \"#utility.yul\":13747:13748   */\n      dup3\n        /* \"#utility.yul\":13729:13749   */\n      tag_239\n      jump\t// in\n    tag_428:\n        /* \"#utility.yul\":13724:13749   */\n      swap2\n      pop\n        /* \"#utility.yul\":13763:13783   */\n      tag_429\n        /* \"#utility.yul\":13781:13782   */\n      dup4\n        /* \"#utility.yul\":13763:13783   */\n      tag_239\n      jump\t// in\n    tag_429:\n        /* \"#utility.yul\":13758:13783   */\n      swap3\n      pop\n        /* \"#utility.yul\":13818:13819   */\n      dup3\n        /* \"#utility.yul\":13815:13816   */\n      dup3\n        /* \"#utility.yul\":13811:13820   */\n      mul\n        /* \"#utility.yul\":13840:13870   */\n      tag_430\n        /* \"#utility.yul\":13858:13869   */\n      dup2\n        /* \"#utility.yul\":13840:13870   */\n      tag_239\n      jump\t// in\n    tag_430:\n        /* \"#utility.yul\":13829:13870   */\n      swap2\n      pop\n        /* \"#utility.yul\":14019:14020   */\n      dup3\n        /* \"#utility.yul\":14010:14017   */\n      dup3\n        /* \"#utility.yul\":14006:14021   */\n      div\n        /* \"#utility.yul\":14003:14004   */\n      dup5\n        /* \"#utility.yul\":14000:14022   */\n      eq\n        /* \"#utility.yul\":13980:13981   */\n      dup4\n        /* \"#utility.yul\":13973:13982   */\n      iszero\n        /* \"#utility.yul\":13953:14036   */\n      or\n        /* \"#utility.yul\":13930:14069   */\n      tag_431\n      jumpi\n        /* \"#utility.yul\":14049:14067   */\n      tag_432\n      tag_276\n      jump\t// in\n    tag_432:\n        /* \"#utility.yul\":13930:14069   */\n    tag_431:\n        /* \"#utility.yul\":13714:14076   */\n      pop\n        /* \"#utility.yul\":13666:14076   */\n      swap3\n      swap2\n      pop\n      pop\n      jump\t// out\n        /* \"#utility.yul\":14082:14276   */\n    tag_148:\n        /* \"#utility.yul\":14122:14126   */\n      0x00\n        /* \"#utility.yul\":14142:14162   */\n      tag_434\n        /* \"#utility.yul\":14160:14161   */\n      dup3\n        /* \"#utility.yul\":14142:14162   */\n      tag_239\n      jump\t// in\n    tag_434:\n        /* \"#utility.yul\":14137:14162   */\n      swap2\n      pop\n        /* \"#utility.yul\":14176:14196   */\n      tag_435\n        /* \"#utility.yul\":14194:14195   */\n      dup4\n        /* \"#utility.yul\":14176:14196   */\n      tag_239\n      jump\t// in\n    tag_435:\n        /* \"#utility.yul\":14171:14196   */\n      swap3\n      pop\n        /* \"#utility.yul\":14220:14221   */\n      dup3\n        /* \"#utility.yul\":14217:14218   */\n      dup3\n        /* \"#utility.yul\":14213:14222   */\n      sub\n        /* \"#utility.yul\":14205:14222   */\n      swap1\n      pop\n        /* \"#utility.yul\":14244:14245   */\n      dup2\n        /* \"#utility.yul\":14238:14242   */\n      dup2\n        /* \"#utility.yul\":14235:14246   */\n      gt\n        /* \"#utility.yul\":14232:14269   */\n      iszero\n      tag_436\n      jumpi\n        /* \"#utility.yul\":14249:14267   */\n      tag_437\n      tag_276\n      jump\t// in\n    tag_437:\n        /* \"#utility.yul\":14232:14269   */\n    tag_436:\n        /* \"#utility.yul\":14082:14276   */\n      swap3\n      swap2\n      pop\n      pop\n      jump\t// out\n        /* \"#utility.yul\":14282:14451   */\n    tag_277:\n        /* \"#utility.yul\":14422:14443   */\n      0x496e76616c696420626c696e6465642062696400000000000000000000000000\n        /* \"#utility.yul\":14418:14419   */\n      0x00\n        /* \"#utility.yul\":14410:14416   */\n      dup3\n        /* \"#utility.yul\":14406:14420   */\n      add\n        /* \"#utility.yul\":14399:14444   */\n      mstore\n        /* \"#utility.yul\":14282:14451   */\n      pop\n      jump\t// out\n        /* \"#utility.yul\":14457:14823   */\n    tag_278:\n        /* \"#utility.yul\":14599:14602   */\n      0x00\n        /* \"#utility.yul\":14620:14687   */\n      tag_440\n        /* \"#utility.yul\":14684:14686   */\n      0x13\n        /* \"#utility.yul\":14679:14682   */\n      dup4\n        /* \"#utility.yul\":14620:14687   */\n      tag_259\n      jump\t// in\n    tag_440:\n        /* \"#utility.yul\":14613:14687   */\n      swap2\n      pop\n        /* \"#utility.yul\":14696:14789   */\n      tag_441\n        /* \"#utility.yul\":14785:14788   */\n      dup3\n        /* \"#utility.yul\":14696:14789   */\n      tag_277\n      jump\t// in\n    tag_441:\n        /* \"#utility.yul\":14814:14816   */\n      0x20\n        /* \"#utility.yul\":14809:14812   */\n      dup3\n        /* \"#utility.yul\":14805:14817   */\n      add\n        /* \"#utility.yul\":14798:14817   */\n      swap1\n      pop\n        /* \"#utility.yul\":14457:14823   */\n      swap2\n      swap1\n      pop\n      jump\t// out\n        /* \"#utility.yul\":14829:15248   */\n    tag_163:\n        /* \"#utility.yul\":14995:14999   */\n      0x00\n        /* \"#utility.yul\":15033:15035   */\n      0x20\n        /* \"#utility.yul\":15022:15031   */\n      dup3\n        /* \"#utility.yul\":15018:15036   */\n      add\n        /* \"#utility.yul\":15010:15036   */\n      swap1\n      pop\n        /* \"#utility.yul\":15082:15091   */\n      dup2\n        /* \"#utility.yul\":15076:15080   */\n      dup2\n        /* \"#utility.yul\":15072:15092   */\n      sub\n        /* \"#utility.yul\":15068:15069   */\n      0x00\n        /* \"#utility.yul\":15057:15066   */\n      dup4\n        /* \"#utility.yul\":15053:15070   */\n      add\n        /* \"#utility.yul\":15046:15093   */\n      mstore\n        /* \"#utility.yul\":15110:15241   */\n      tag_443\n        /* \"#utility.yul\":15236:15240   */\n      dup2\n        /* \"#utility.yul\":15110:15241   */\n      tag_278\n      jump\t// in\n    tag_443:\n        /* \"#utility.yul\":15102:15241   */\n      swap1\n      pop\n        /* \"#utility.yul\":14829:15248   */\n      swap2\n      swap1\n      pop\n      jump\t// out\n        /* \"#utility.yul\":15254:15425   */\n    tag_279:\n        /* \"#utility.yul\":15394:15417   */\n      0x42696420616c7265616479207375626d69747465640000000000000000000000\n        /* \"#utility.yul\":15390:15391   */\n      0x00\n        /* \"#utility.yul\":15382:15388   */\n      dup3\n        /* \"#utility.yul\":15378:15392   */\n      add\n        /* \"#utility.yul\":15371:15418   */\n      mstore\n        /* \"#utility.yul\":15254:15425   */\n      pop\n      jump\t// out\n        /* \"#utility.yul\":15431:15797   */\n    tag_280:\n        /* \"#utility.yul\":15573:15576   */\n      0x00\n        /* \"#utility.yul\":15594:15661   */\n      tag_446\n        /* \"#utility.yul\":15658:15660   */\n      0x15\n        /* \"#utility.yul\":15653:15656   */\n      dup4\n        /* \"#utility.yul\":15594:15661   */\n      tag_259\n      jump\t// in\n    tag_446:\n        /* \"#utility.yul\":15587:15661   */\n      swap2\n      pop\n        /* \"#utility.yul\":15670:15763   */\n      tag_447\n        /* \"#utility.yul\":15759:15762   */\n      dup3\n        /* \"#utility.yul\":15670:15763   */\n      tag_279\n      jump\t// in\n    tag_447:\n        /* \"#utility.yul\":15788:15790   */\n      0x20\n        /* \"#utility.yul\":15783:15786   */\n      dup3\n        /* \"#utility.yul\":15779:15791   */\n      add\n        /* \"#utility.yul\":15772:15791   */\n      swap1\n      pop\n        /* \"#utility.yul\":15431:15797   */\n      swap2\n      swap1\n      pop\n      jump\t// out\n        /* \"#utility.yul\":15803:16222   */\n    tag_166:\n        /* \"#utility.yul\":15969:15973   */\n      0x00\n        /* \"#utility.yul\":16007:16009   */\n      0x20\n        /* \"#utility.yul\":15996:16005   */\n      dup3\n        /* \"#utility.yul\":15992:16010   */\n      add\n        /* \"#utility.yul\":15984:16010   */\n      swap1\n      pop\n        /* \"#utility.yul\":16056:16065   */\n      dup2\n        /* \"#utility.yul\":16050:16054   */\n      dup2\n        /* \"#utility.yul\":16046:16066   */\n      sub\n        /* \"#utility.yul\":16042:16043   */\n      0x00\n        /* \"#utility.yul\":16031:16040   */\n      dup4\n        /* \"#utility.yul\":16027:16044   */\n      add\n        /* \"#utility.yul\":16020:16067   */\n      mstore\n        /* \"#utility.yul\":16084:16215   */\n      tag_449\n        /* \"#utility.yul\":16210:16214   */\n      dup2\n        /* \"#utility.yul\":16084:16215   */\n      tag_280\n      jump\t// in\n    tag_449:\n        /* \"#utility.yul\":16076:16215   */\n      swap1\n      pop\n        /* \"#utility.yul\":15803:16222   */\n      swap2\n      swap1\n      pop\n      jump\t// out\n        /* \"#utility.yul\":16228:16397   */\n    tag_281:\n        /* \"#utility.yul\":16368:16389   */\n      0x4465706f736974206d757374206265203e203000000000000000000000000000\n        /* \"#utility.yul\":16364:16365   */\n      0x00\n        /* \"#utility.yul\":16356:16362   */\n      dup3\n        /* \"#utility.yul\":16352:16366   */\n      add\n        /* \"#utility.yul\":16345:16390   */\n      mstore\n        /* \"#utility.yul\":16228:16397   */\n      pop\n      jump\t// out\n        /* \"#utility.yul\":16403:16769   */\n    tag_282:\n        /* \"#utility.yul\":16545:16548   */\n      0x00\n        /* \"#utility.yul\":16566:16633   */\n      tag_452\n        /* \"#utility.yul\":16630:16632   */\n      0x13\n        /* \"#utility.yul\":16625:16628   */\n      dup4\n        /* \"#utility.yul\":16566:16633   */\n      tag_259\n      jump\t// in\n    tag_452:\n        /* \"#utility.yul\":16559:16633   */\n      swap2\n      pop\n        /* \"#utility.yul\":16642:16735   */\n      tag_453\n        /* \"#utility.yul\":16731:16734   */\n      dup3\n        /* \"#utility.yul\":16642:16735   */\n      tag_281\n      jump\t// in\n    tag_453:\n        /* \"#utility.yul\":16760:16762   */\n      0x20\n        /* \"#utility.yul\":16755:16758   */\n      dup3\n        /* \"#utility.yul\":16751:16763   */\n      add\n        /* \"#utility.yul\":16744:16763   */\n      swap1\n      pop\n        /* \"#utility.yul\":16403:16769   */\n      swap2\n      swap1\n      pop\n      jump\t// out\n        /* \"#utility.yul\":16775:17194   */\n    tag_169:\n        /* \"#utility.yul\":16941:16945   */\n      0x00\n        /* \"#utility.yul\":16979:16981   */\n      0x20\n        /* \"#utility.yul\":16968:16977   */\n      dup3\n        /* \"#utility.yul\":16964:16982   */\n      add\n        /* \"#utility.yul\":16956:16982   */\n      swap1\n      pop\n        /* \"#utility.yul\":17028:17037   */\n      dup2\n        /* \"#utility.yul\":17022:17026   */\n      dup2\n        /* \"#utility.yul\":17018:17038   */\n      sub\n        /* \"#utility.yul\":17014:17015   */\n      0x00\n        /* \"#utility.yul\":17003:17012   */\n      dup4\n        /* \"#utility.yul\":16999:17016   */\n      add\n        /* \"#utility.yul\":16992:17039   */\n      mstore\n        /* \"#utility.yul\":17056:17187   */\n      tag_455\n        /* \"#utility.yul\":17182:17186   */\n      dup2\n        /* \"#utility.yul\":17056:17187   */\n      tag_282\n      jump\t// in\n    tag_455:\n        /* \"#utility.yul\":17048:17187   */\n      swap1\n      pop\n        /* \"#utility.yul\":16775:17194   */\n      swap2\n      swap1\n      pop\n      jump\t// out\n        /* \"#utility.yul\":17200:17367   */\n    tag_283:\n        /* \"#utility.yul\":17340:17359   */\n      0x54696d657320616c726561647920736574000000000000000000000000000000\n        /* \"#utility.yul\":17336:17337   */\n      0x00\n        /* \"#utility.yul\":17328:17334   */\n      dup3\n        /* \"#utility.yul\":17324:17338   */\n      add\n        /* \"#utility.yul\":17317:17360   */\n      mstore\n        /* \"#utility.yul\":17200:17367   */\n      pop\n      jump\t// out\n        /* \"#utility.yul\":17373:17739   */\n    tag_284:\n        /* \"#utility.yul\":17515:17518   */\n      0x00\n        /* \"#utility.yul\":17536:17603   */\n      tag_458\n        /* \"#utility.yul\":17600:17602   */\n      0x11\n        /* \"#utility.yul\":17595:17598   */\n      dup4\n        /* \"#utility.yul\":17536:17603   */\n      tag_259\n      jump\t// in\n    tag_458:\n        /* \"#utility.yul\":17529:17603   */\n      swap2\n      pop\n        /* \"#utility.yul\":17612:17705   */\n      tag_459\n        /* \"#utility.yul\":17701:17704   */\n      dup3\n        /* \"#utility.yul\":17612:17705   */\n      tag_283\n      jump\t// in\n    tag_459:\n        /* \"#utility.yul\":17730:17732   */\n      0x20\n        /* \"#utility.yul\":17725:17728   */\n      dup3\n        /* \"#utility.yul\":17721:17733   */\n      add\n        /* \"#utility.yul\":17714:17733   */\n      swap1\n      pop\n        /* \"#utility.yul\":17373:17739   */\n      swap2\n      swap1\n      pop\n      jump\t// out\n        /* \"#utility.yul\":17745:18164   */\n    tag_176:\n        /* \"#utility.yul\":17911:17915   */\n      0x00\n        /* \"#utility.yul\":17949:17951   */\n      0x20\n        /* \"#utility.yul\":17938:17947   */\n      dup3\n        /* \"#utility.yul\":17934:17952   */\n      add\n        /* \"#utility.yul\":17926:17952   */\n      swap1\n      pop\n        /* \"#utility.yul\":17998:18007   */\n      dup2\n        /* \"#utility.yul\":17992:17996   */\n      dup2\n        /* \"#utility.yul\":17988:18008   */\n      sub\n        /* \"#utility.yul\":17984:17985   */\n      0x00\n        /* \"#utility.yul\":17973:17982   */\n      dup4\n        /* \"#utility.yul\":17969:17986   */\n      add\n        /* \"#utility.yul\":17962:18009   */\n      mstore\n        /* \"#utility.yul\":18026:18157   */\n      tag_461\n        /* \"#utility.yul\":18152:18156   */\n      dup2\n        /* \"#utility.yul\":18026:18157   */\n      tag_284\n      jump\t// in\n    tag_461:\n        /* \"#utility.yul\":18018:18157   */\n      swap1\n      pop\n        /* \"#utility.yul\":17745:18164   */\n      swap2\n      swap1\n      pop\n      jump\t// out\n        /* \"#utility.yul\":18170:18335   */\n    tag_285:\n        /* \"#utility.yul\":18310:18327   */\n      0x416c726561647920737461727465640000000000000000000000000000000000\n        /* \"#utility.yul\":18306:18307   */\n      0x00\n        /* \"#utility.yul\":18298:18304   */\n      dup3\n        /* \"#utility.yul\":18294:18308   */\n      add\n        /* \"#utility.yul\":18287:18328   */\n      mstore\n        /* \"#utility.yul\":18170:18335   */\n      pop\n      jump\t// out\n        /* \"#utility.yul\":18341:18707   */\n    tag_286:\n        /* \"#utility.yul\":18483:18486   */\n      0x00\n        /* \"#utility.yul\":18504:18571   */\n      tag_464\n        /* \"#utility.yul\":18568:18570   */\n      0x0f\n        /* \"#utility.yul\":18563:18566   */\n      dup4\n        /* \"#utility.yul\":18504:18571   */\n      tag_259\n      jump\t// in\n    tag_464:\n        /* \"#utility.yul\":18497:18571   */\n      swap2\n      pop\n        /* \"#utility.yul\":18580:18673   */\n      tag_465\n        /* \"#utility.yul\":18669:18672   */\n      dup3\n        /* \"#utility.yul\":18580:18673   */\n      tag_285\n      jump\t// in\n    tag_465:\n        /* \"#utility.yul\":18698:18700   */\n      0x20\n        /* \"#utility.yul\":18693:18696   */\n      dup3\n        /* \"#utility.yul\":18689:18701   */\n      add\n        /* \"#utility.yul\":18682:18701   */\n      swap1\n      pop\n        /* \"#utility.yul\":18341:18707   */\n      swap2\n      swap1\n      pop\n      jump\t// out\n        /* \"#utility.yul\":18713:19132   */\n    tag_183:\n        /* \"#utility.yul\":18879:18883   */\n      0x00\n        /* \"#utility.yul\":18917:18919   */\n      0x20\n        /* \"#utility.yul\":18906:18915   */\n      dup3\n        /* \"#utility.yul\":18902:18920   */\n      add\n        /* \"#utility.yul\":18894:18920   */\n      swap1\n      pop\n        /* \"#utility.yul\":18966:18975   */\n      dup2\n        /* \"#utility.yul\":18960:18964   */\n      dup2\n        /* \"#utility.yul\":18956:18976   */\n      sub\n        /* \"#utility.yul\":18952:18953   */\n      0x00\n        /* \"#utility.yul\":18941:18950   */\n      dup4\n        /* \"#utility.yul\":18937:18954   */\n      add\n        /* \"#utility.yul\":18930:18977   */\n      mstore\n        /* \"#utility.yul\":18994:19125   */\n      tag_467\n        /* \"#utility.yul\":19120:19124   */\n      dup2\n        /* \"#utility.yul\":18994:19125   */\n      tag_286\n      jump\t// in\n    tag_467:\n        /* \"#utility.yul\":18986:19125   */\n      swap1\n      pop\n        /* \"#utility.yul\":18713:19132   */\n      swap2\n      swap1\n      pop\n      jump\t// out\n        /* \"#utility.yul\":19138:19315   */\n    tag_287:\n        /* \"#utility.yul\":19278:19307   */\n      0x62696464696e674475726174696f6e206d757374206265203e20300000000000\n        /* \"#utility.yul\":19274:19275   */\n      0x00\n        /* \"#utility.yul\":19266:19272   */\n      dup3\n        /* \"#utility.yul\":19262:19276   */\n      add\n        /* \"#utility.yul\":19255:19308   */\n      mstore\n        /* \"#utility.yul\":19138:19315   */\n      pop\n      jump\t// out\n        /* \"#utility.yul\":19321:19687   */\n    tag_288:\n        /* \"#utility.yul\":19463:19466   */\n      0x00\n        /* \"#utility.yul\":19484:19551   */\n      tag_470\n        /* \"#utility.yul\":19548:19550   */\n      0x1b\n        /* \"#utility.yul\":19543:19546   */\n      dup4\n        /* \"#utility.yul\":19484:19551   */\n      tag_259\n      jump\t// in\n    tag_470:\n        /* \"#utility.yul\":19477:19551   */\n      swap2\n      pop\n        /* \"#utility.yul\":19560:19653   */\n      tag_471\n        /* \"#utility.yul\":19649:19652   */\n      dup3\n        /* \"#utility.yul\":19560:19653   */\n      tag_287\n      jump\t// in\n    tag_471:\n        /* \"#utility.yul\":19678:19680   */\n      0x20\n        /* \"#utility.yul\":19673:19676   */\n      dup3\n        /* \"#utility.yul\":19669:19681   */\n      add\n        /* \"#utility.yul\":19662:19681   */\n      swap1\n      pop\n        /* \"#utility.yul\":19321:19687   */\n      swap2\n      swap1\n      pop\n      jump\t// out\n        /* \"#utility.yul\":19693:20112   */\n    tag_186:\n        /* \"#utility.yul\":19859:19863   */\n      0x00\n        /* \"#utility.yul\":19897:19899   */\n      0x20\n        /* \"#utility.yul\":19886:19895   */\n      dup3\n        /* \"#utility.yul\":19882:19900   */\n      add\n        /* \"#utility.yul\":19874:19900   */\n      swap1\n      pop\n        /* \"#utility.yul\":19946:19955   */\n      dup2\n        /* \"#utility.yul\":19940:19944   */\n      dup2\n        /* \"#utility.yul\":19936:19956   */\n      sub\n        /* \"#utility.yul\":19932:19933   */\n      0x00\n        /* \"#utility.yul\":19921:19930   */\n      dup4\n        /* \"#utility.yul\":19917:19934   */\n      add\n        /* \"#utility.yul\":19910:19957   */\n      mstore\n        /* \"#utility.yul\":19974:20105   */\n      tag_473\n        /* \"#utility.yul\":20100:20104   */\n      dup2\n        /* \"#utility.yul\":19974:20105   */\n      tag_288\n      jump\t// in\n    tag_473:\n        /* \"#utility.yul\":19966:20105   */\n      swap1\n      pop\n        /* \"#utility.yul\":19693:20112   */\n      swap2\n      swap1\n      pop\n      jump\t// out\n        /* \"#utility.yul\":20118:20294   */\n    tag_289:\n        /* \"#utility.yul\":20258:20286   */\n      0x72657665616c4475726174696f6e206d757374206265203e2030000000000000\n        /* \"#utility.yul\":20254:20255   */\n      0x00\n        /* \"#utility.yul\":20246:20252   */\n      dup3\n        /* \"#utility.yul\":20242:20256   */\n      add\n        /* \"#utility.yul\":20235:20287   */\n      mstore\n        /* \"#utility.yul\":20118:20294   */\n      pop\n      jump\t// out\n        /* \"#utility.yul\":20300:20666   */\n    tag_290:\n        /* \"#utility.yul\":20442:20445   */\n      0x00\n        /* \"#utility.yul\":20463:20530   */\n      tag_476\n        /* \"#utility.yul\":20527:20529   */\n      0x1a\n        /* \"#utility.yul\":20522:20525   */\n      dup4\n        /* \"#utility.yul\":20463:20530   */\n      tag_259\n      jump\t// in\n    tag_476:\n        /* \"#utility.yul\":20456:20530   */\n      swap2\n      pop\n        /* \"#utility.yul\":20539:20632   */\n      tag_477\n        /* \"#utility.yul\":20628:20631   */\n      dup3\n        /* \"#utility.yul\":20539:20632   */\n      tag_289\n      jump\t// in\n    tag_477:\n        /* \"#utility.yul\":20657:20659   */\n      0x20\n        /* \"#utility.yul\":20652:20655   */\n      dup3\n        /* \"#utility.yul\":20648:20660   */\n      add\n        /* \"#utility.yul\":20641:20660   */\n      swap1\n      pop\n        /* \"#utility.yul\":20300:20666   */\n      swap2\n      swap1\n      pop\n      jump\t// out\n        /* \"#utility.yul\":20672:21091   */\n    tag_189:\n        /* \"#utility.yul\":20838:20842   */\n      0x00\n        /* \"#utility.yul\":20876:20878   */\n      0x20\n        /* \"#utility.yul\":20865:20874   */\n      dup3\n        /* \"#utility.yul\":20861:20879   */\n      add\n        /* \"#utility.yul\":20853:20879   */\n      swap1\n      pop\n        /* \"#utility.yul\":20925:20934   */\n      dup2\n        /* \"#utility.yul\":20919:20923   */\n      dup2\n        /* \"#utility.yul\":20915:20935   */\n      sub\n        /* \"#utility.yul\":20911:20912   */\n      0x00\n        /* \"#utility.yul\":20900:20909   */\n      dup4\n        /* \"#utility.yul\":20896:20913   */\n      add\n        /* \"#utility.yul\":20889:20936   */\n      mstore\n        /* \"#utility.yul\":20953:21084   */\n      tag_479\n        /* \"#utility.yul\":21079:21083   */\n      dup2\n        /* \"#utility.yul\":20953:21084   */\n      tag_290\n      jump\t// in\n    tag_479:\n        /* \"#utility.yul\":20945:21084   */\n      swap1\n      pop\n        /* \"#utility.yul\":20672:21091   */\n      swap2\n      swap1\n      pop\n      jump\t// out\n        /* \"#utility.yul\":21097:21288   */\n    tag_191:\n        /* \"#utility.yul\":21137:21140   */\n      0x00\n        /* \"#utility.yul\":21156:21176   */\n      tag_481\n        /* \"#utility.yul\":21174:21175   */\n      dup3\n        /* \"#utility.yul\":21156:21176   */\n      tag_239\n      jump\t// in\n    tag_481:\n        /* \"#utility.yul\":21151:21176   */\n      swap2\n      pop\n        /* \"#utility.yul\":21190:21210   */\n      tag_482\n        /* \"#utility.yul\":21208:21209   */\n      dup4\n        /* \"#utility.yul\":21190:21210   */\n      tag_239\n      jump\t// in\n    tag_482:\n        /* \"#utility.yul\":21185:21210   */\n      swap3\n      pop\n        /* \"#utility.yul\":21233:21234   */\n      dup3\n        /* \"#utility.yul\":21230:21231   */\n      dup3\n        /* \"#utility.yul\":21226:21235   */\n      add\n        /* \"#utility.yul\":21219:21235   */\n      swap1\n      pop\n        /* \"#utility.yul\":21254:21257   */\n      dup1\n        /* \"#utility.yul\":21251:21252   */\n      dup3\n        /* \"#utility.yul\":21248:21258   */\n      gt\n        /* \"#utility.yul\":21245:21281   */\n      iszero\n      tag_483\n      jumpi\n        /* \"#utility.yul\":21261:21279   */\n      tag_484\n      tag_276\n      jump\t// in\n    tag_484:\n        /* \"#utility.yul\":21245:21281   */\n    tag_483:\n        /* \"#utility.yul\":21097:21288   */\n      swap3\n      swap2\n      pop\n      pop\n      jump\t// out\n        /* \"#utility.yul\":21294:21467   */\n    tag_291:\n        /* \"#utility.yul\":21434:21459   */\n      0x41756374696f6e206e6f74207374617274656420796574000000000000000000\n        /* \"#utility.yul\":21430:21431   */\n      0x00\n        /* \"#utility.yul\":21422:21428   */\n      dup3\n        /* \"#utility.yul\":21418:21432   */\n      add\n        /* \"#utility.yul\":21411:21460   */\n      mstore\n        /* \"#utility.yul\":21294:21467   */\n      pop\n      jump\t// out\n        /* \"#utility.yul\":21473:21839   */\n    tag_292:\n        /* \"#utility.yul\":21615:21618   */\n      0x00\n        /* \"#utility.yul\":21636:21703   */\n      tag_487\n        /* \"#utility.yul\":21700:21702   */\n      0x17\n        /* \"#utility.yul\":21695:21698   */\n      dup4\n        /* \"#utility.yul\":21636:21703   */\n      tag_259\n      jump\t// in\n    tag_487:\n        /* \"#utility.yul\":21629:21703   */\n      swap2\n      pop\n        /* \"#utility.yul\":21712:21805   */\n      tag_488\n        /* \"#utility.yul\":21801:21804   */\n      dup3\n        /* \"#utility.yul\":21712:21805   */\n      tag_291\n      jump\t// in\n    tag_488:\n        /* \"#utility.yul\":21830:21832   */\n      0x20\n        /* \"#utility.yul\":21825:21828   */\n      dup3\n        /* \"#utility.yul\":21821:21833   */\n      add\n        /* \"#utility.yul\":21814:21833   */\n      swap1\n      pop\n        /* \"#utility.yul\":21473:21839   */\n      swap2\n      swap1\n      pop\n      jump\t// out\n        /* \"#utility.yul\":21845:22264   */\n    tag_198:\n        /* \"#utility.yul\":22011:22015   */\n      0x00\n        /* \"#utility.yul\":22049:22051   */\n      0x20\n        /* \"#utility.yul\":22038:22047   */\n      dup3\n        /* \"#utility.yul\":22034:22052   */\n      add\n        /* \"#utility.yul\":22026:22052   */\n      swap1\n      pop\n        /* \"#utility.yul\":22098:22107   */\n      dup2\n        /* \"#utility.yul\":22092:22096   */\n      dup2\n        /* \"#utility.yul\":22088:22108   */\n      sub\n        /* \"#utility.yul\":22084:22085   */\n      0x00\n        /* \"#utility.yul\":22073:22082   */\n      dup4\n        /* \"#utility.yul\":22069:22086   */\n      add\n        /* \"#utility.yul\":22062:22109   */\n      mstore\n        /* \"#utility.yul\":22126:22257   */\n      tag_490\n        /* \"#utility.yul\":22252:22256   */\n      dup2\n        /* \"#utility.yul\":22126:22257   */\n      tag_292\n      jump\t// in\n    tag_490:\n        /* \"#utility.yul\":22118:22257   */\n      swap1\n      pop\n        /* \"#utility.yul\":21845:22264   */\n      swap2\n      swap1\n      pop\n      jump\t// out\n        /* \"#utility.yul\":22270:22447   */\n    tag_293:\n        /* \"#utility.yul\":22410:22439   */\n      0x52657665616c20706572696f64206e6f742079657420656e6465640000000000\n        /* \"#utility.yul\":22406:22407   */\n      0x00\n        /* \"#utility.yul\":22398:22404   */\n      dup3\n        /* \"#utility.yul\":22394:22408   */\n      add\n        /* \"#utility.yul\":22387:22440   */\n      mstore\n        /* \"#utility.yul\":22270:22447   */\n      pop\n      jump\t// out\n        /* \"#utility.yul\":22453:22819   */\n    tag_294:\n        /* \"#utility.yul\":22595:22598   */\n      0x00\n        /* \"#utility.yul\":22616:22683   */\n      tag_493\n        /* \"#utility.yul\":22680:22682   */\n      0x1b\n        /* \"#utility.yul\":22675:22678   */\n      dup4\n        /* \"#utility.yul\":22616:22683   */\n      tag_259\n      jump\t// in\n    tag_493:\n        /* \"#utility.yul\":22609:22683   */\n      swap2\n      pop\n        /* \"#utility.yul\":22692:22785   */\n      tag_494\n        /* \"#utility.yul\":22781:22784   */\n      dup3\n        /* \"#utility.yul\":22692:22785   */\n      tag_293\n      jump\t// in\n    tag_494:\n        /* \"#utility.yul\":22810:22812   */\n      0x20\n        /* \"#utility.yul\":22805:22808   */\n      dup3\n        /* \"#utility.yul\":22801:22813   */\n      add\n        /* \"#utility.yul\":22794:22813   */\n      swap1\n      pop\n        /* \"#utility.yul\":22453:22819   */\n      swap2\n      swap1\n      pop\n      jump\t// out\n        /* \"#utility.yul\":22825:23244   */\n    tag_201:\n        /* \"#utility.yul\":22991:22995   */\n      0x00\n        /* \"#utility.yul\":23029:23031   */\n      0x20\n        /* \"#utility.yul\":23018:23027   */\n      dup3\n        /* \"#utility.yul\":23014:23032   */\n      add\n        /* \"#utility.yul\":23006:23032   */\n      swap1\n      pop\n        /* \"#utility.yul\":23078:23087   */\n      dup2\n        /* \"#utility.yul\":23072:23076   */\n      dup2\n        /* \"#utility.yul\":23068:23088   */\n      sub\n        /* \"#utility.yul\":23064:23065   */\n      0x00\n        /* \"#utility.yul\":23053:23062   */\n      dup4\n        /* \"#utility.yul\":23049:23066   */\n      add\n        /* \"#utility.yul\":23042:23089   */\n      mstore\n        /* \"#utility.yul\":23106:23237   */\n      tag_496\n        /* \"#utility.yul\":23232:23236   */\n      dup2\n        /* \"#utility.yul\":23106:23237   */\n      tag_294\n      jump\t// in\n    tag_496:\n        /* \"#utility.yul\":23098:23237   */\n      swap1\n      pop\n        /* \"#utility.yul\":22825:23244   */\n      swap2\n      swap1\n      pop\n      jump\t// out\n        /* \"#utility.yul\":23250:23417   */\n    tag_295:\n        /* \"#utility.yul\":23390:23409   */\n      0x4e6f7468696e6720746f20726566756e64000000000000000000000000000000\n        /* \"#utility.yul\":23386:23387   */\n      0x00\n        /* \"#utility.yul\":23378:23384   */\n      dup3\n        /* \"#utility.yul\":23374:23388   */\n      add\n        /* \"#utility.yul\":23367:23410   */\n      mstore\n        /* \"#utility.yul\":23250:23417   */\n      pop\n      jump\t// out\n        /* \"#utility.yul\":23423:23789   */\n    tag_296:\n        /* \"#utility.yul\":23565:23568   */\n      0x00\n        /* \"#utility.yul\":23586:23653   */\n      tag_499\n        /* \"#utility.yul\":23650:23652   */\n      0x11\n        /* \"#utility.yul\":23645:23648   */\n      dup4\n        /* \"#utility.yul\":23586:23653   */\n      tag_259\n      jump\t// in\n    tag_499:\n        /* \"#utility.yul\":23579:23653   */\n      swap2\n      pop\n        /* \"#utility.yul\":23662:23755   */\n      tag_500\n        /* \"#utility.yul\":23751:23754   */\n      dup3\n        /* \"#utility.yul\":23662:23755   */\n      tag_295\n      jump\t// in\n    tag_500:\n        /* \"#utility.yul\":23780:23782   */\n      0x20\n        /* \"#utility.yul\":23775:23778   */\n      dup3\n        /* \"#utility.yul\":23771:23783   */\n      add\n        /* \"#utility.yul\":23764:23783   */\n      swap1\n      pop\n        /* \"#utility.yul\":23423:23789   */\n      swap2\n      swap1\n      pop\n      jump\t// out\n        /* \"#utility.yul\":23795:24214   */\n    tag_204:\n        /* \"#utility.yul\":23961:23965   */\n      0x00\n        /* \"#utility.yul\":23999:24001   */\n      0x20\n        /* \"#utility.yul\":23988:23997   */\n      dup3\n        /* \"#utility.yul\":23984:24002   */\n      add\n        /* \"#utility.yul\":23976:24002   */\n      swap1\n      pop\n        /* \"#utility.yul\":24048:24057   */\n      dup2\n        /* \"#utility.yul\":24042:24046   */\n      dup2\n        /* \"#utility.yul\":24038:24058   */\n      sub\n        /* \"#utility.yul\":24034:24035   */\n      0x00\n        /* \"#utility.yul\":24023:24032   */\n      dup4\n        /* \"#utility.yul\":24019:24036   */\n      add\n        /* \"#utility.yul\":24012:24059   */\n      mstore\n        /* \"#utility.yul\":24076:24207   */\n      tag_502\n        /* \"#utility.yul\":24202:24206   */\n      dup2\n        /* \"#utility.yul\":24076:24207   */\n      tag_296\n      jump\t// in\n    tag_502:\n        /* \"#utility.yul\":24068:24207   */\n      swap1\n      pop\n        /* \"#utility.yul\":23795:24214   */\n      swap2\n      swap1\n      pop\n      jump\t// out\n\n    auxdata: 0xa26469706673582212202623d5352d64063fc9fda064317a35306f17843d8ff106012be41d10f7c4f9b864736f6c634300081f0033\n}\n",
				"bytecode": {
					"linkReferences": {},
					"object": "60806040525f6002555f60055f6101000a81548160ff02191690836003811115602957602860a8565b5b02179055503480156038575f5ffd5b50335f5f6101000a81548173ffffffffffffffffffffffffffffffffffffffff021916908373ffffffffffffffffffffffffffffffffffffffff1602179055507f8ad2842071cb64589c8e006941bc20b615aae08a93530e211ca7c9639bd26d9760405160405180910390a160d5565b7f4e487b71000000000000000000000000000000000000000000000000000000005f52602160045260245ffd5b611dc7806100e25f395ff3fe6080604052600436106100f2575f3560e01c806362ea82db11610089578063c16c917e11610058578063c16c917e146102d9578063d49dc1d814610303578063d57bde791461032d578063f5950a0714610357576100f2565b806362ea82db1461022e57806391f901571461026b578063957bb1e0146102955780639f1b2fc1146102b1576100f2565b80632a24f46c116100c55780632a24f46c146101b057806338af3eed146101c65780633ccfd60b146101f05780634036778f14610206576100f2565b8063055ad42e146100f65780631022eccb1461012057806312fa6feb1461014a57806326b387bb14610174575b5f5ffd5b348015610101575f5ffd5b5061010a61036d565b60405161011791906112fa565b60405180910390f35b34801561012b575f5ffd5b5061013461037f565b604051610141919061132b565b60405180910390f35b348015610155575f5ffd5b5061015e610385565b60405161016b919061135e565b60405180910390f35b34801561017f575f5ffd5b5061019a600480360381019061019591906113d5565b610398565b6040516101a7919061132b565b60405180910390f35b3480156101bb575f5ffd5b506101c46103ad565b005b3480156101d1575f5ffd5b506101da6105f4565b6040516101e79190611420565b60405180910390f35b3480156101fb575f5ffd5b50610204610618565b005b348015610211575f5ffd5b5061022c60048036038101906102279190611496565b610724565b005b348015610239575f5ffd5b50610254600480360381019061024f91906113d5565b610994565b6040516102629291906114e3565b60405180910390f35b348015610276575f5ffd5b5061027f6109b4565b60405161028c9190611519565b60405180910390f35b6102af60048036038101906102aa9190611532565b6109d9565b005b3480156102bc575f5ffd5b506102d760048036038101906102d2919061155d565b610bcb565b005b3480156102e4575f5ffd5b506102ed610e3a565b6040516102fa919061135e565b60405180910390f35b34801561030e575f5ffd5b50610317610e4c565b604051610324919061132b565b60405180910390f35b348015610338575f5ffd5b50610341610e52565b60405161034e919061132b565b60405180910390f35b348015610362575f5ffd5b5061036b610e58565b005b60055f9054906101000a900460ff1681565b60065481565b600560019054906101000a900460ff1681565b6004602052805f5260405f205f915090505481565b5f5f9054906101000a900473ffffffffffffffffffffffffffffffffffffffff1673ffffffffffffffffffffffffffffffffffffffff163373ffffffffffffffffffffffffffffffffffffffff161461043b576040517f08c379a0000000000000000000000000000000000000000000000000000000008152600401610432906115f5565b60405180910390fd5b6003610445610fd0565b80600381111561045857610457611287565b5b60055f9054906101000a900460ff16600381111561047957610478611287565b5b146104b9576040517f08c379a00000000000000000000000000000000000000000000000000000000081526004016104b09061165d565b60405180910390fd5b600560019054906101000a900460ff1615610509576040517f08c379a0000000000000000000000000000000000000000000000000000000008152600401610500906116c5565b60405180910390fd5b6001600560016101000a81548160ff0219169083151502179055507fdaec4582d5d9595688c8c98545fdd1c696d41c6aeaeb636737e84ed2f5c00eda60015f9054906101000a900473ffffffffffffffffffffffffffffffffffffffff166002546040516105789291906116e3565b60405180910390a15f60025411156105f1575f5f9054906101000a900473ffffffffffffffffffffffffffffffffffffffff1673ffffffffffffffffffffffffffffffffffffffff166108fc60025490811502906040515f60405180830381858888f193505050501580156105ef573d5f5f3e3d5ffd5b505b50565b5f5f9054906101000a900473ffffffffffffffffffffffffffffffffffffffff1681565b5f60045f3373ffffffffffffffffffffffffffffffffffffffff1673ffffffffffffffffffffffffffffffffffffffff1681526020019081526020015f205490505f811161069b576040517f08c379a000000000000000000000000000000000000000000000000000000000815260040161069290611754565b60405180910390fd5b5f60045f3373ffffffffffffffffffffffffffffffffffffffff1673ffffffffffffffffffffffffffffffffffffffff1681526020019081526020015f20819055503373ffffffffffffffffffffffffffffffffffffffff166108fc8290811502906040515f60405180830381858888f19350505050158015610720573d5f5f3e3d5ffd5b5050565b600261072e610fd0565b80600381111561074157610740611287565b5b60055f9054906101000a900460ff16600381111561076257610761611287565b5b146107a2576040517f08c379a00000000000000000000000000000000000000000000000000000000081526004016107999061165d565b60405180910390fd5b5f60035f3373ffffffffffffffffffffffffffffffffffffffff1673ffffffffffffffffffffffffffffffffffffffff1681526020019081526020015f2090505f816001015411610828576040517f08c379a000000000000000000000000000000000000000000000000000000000815260040161081f906117bc565b60405180910390fd5b5f848460405160200161083c92919061181a565b604051602081830303815290604052805190602001209050815f01548114610899576040517f08c379a00000000000000000000000000000000000000000000000000000000081526004016108909061188f565b60405180910390fd5b5f670de0b6b3a7640000866108ae91906118da565b90505f5f1b60035f3373ffffffffffffffffffffffffffffffffffffffff1673ffffffffffffffffffffffffffffffffffffffff1681526020019081526020015f205f01819055505f836001015490508184600101541015801561091157505f87115b15610935576109203383611158565b15610934578181610931919061191b565b90505b5b5f84600101819055505f81111561098b573373ffffffffffffffffffffffffffffffffffffffff166108fc8290811502906040515f60405180830381858888f19350505050158015610989573d5f5f3e3d5ffd5b505b50505050505050565b6003602052805f5260405f205f91509050805f0154908060010154905082565b60015f9054906101000a900473ffffffffffffffffffffffffffffffffffffffff1681565b60016109e3610fd0565b8060038111156109f6576109f5611287565b5b60055f9054906101000a900460ff166003811115610a1757610a16611287565b5b14610a57576040517f08c379a0000000000000000000000000000000000000000000000000000000008152600401610a4e9061165d565b60405180910390fd5b5f5f1b8203610a9b576040517f08c379a0000000000000000000000000000000000000000000000000000000008152600401610a9290611998565b60405180910390fd5b5f5f1b60035f3373ffffffffffffffffffffffffffffffffffffffff1673ffffffffffffffffffffffffffffffffffffffff1681526020019081526020015f205f015414610b1e576040517f08c379a0000000000000000000000000000000000000000000000000000000008152600401610b1590611a00565b60405180910390fd5b5f3411610b60576040517f08c379a0000000000000000000000000000000000000000000000000000000008152600401610b5790611a68565b60405180910390fd5b60405180604001604052808381526020013481525060035f3373ffffffffffffffffffffffffffffffffffffffff1673ffffffffffffffffffffffffffffffffffffffff1681526020019081526020015f205f820151815f0155602082015181600101559050505050565b5f5f9054906101000a900473ffffffffffffffffffffffffffffffffffffffff1673ffffffffffffffffffffffffffffffffffffffff163373ffffffffffffffffffffffffffffffffffffffff1614610c59576040517f08c379a0000000000000000000000000000000000000000000000000000000008152600401610c50906115f5565b60405180910390fd5b60085f9054906101000a900460ff1615610ca8576040517f08c379a0000000000000000000000000000000000000000000000000000000008152600401610c9f90611ad0565b60405180910390fd5b5f6003811115610cbb57610cba611287565b5b60055f9054906101000a900460ff166003811115610cdc57610cdb611287565b5b14610d1c576040517f08c379a0000000000000000000000000000000000000000000000000000000008152600401610d1390611b38565b60405180910390fd5b5f8211610d5e576040517f08c379a0000000000000000000000000000000000000000000000000000000008152600401610d5590611ba0565b60405180910390fd5b5f8111610da0576040517f08c379a0000000000000000000000000000000000000000000000000000000008152600401610d9790611c08565b60405180910390fd5b8142610dac9190611c26565b60068190555080600654610dc09190611c26565b600781905550600160085f6101000a81548160ff021916908315150217905550600160055f6101000a81548160ff02191690836003811115610e0557610e04611287565b5b02179055507f02c124e22ee7da1c9905bbb317cf67658c1cc3ea1c0953b1633f85d0b5c281d960405160405180910390a15050565b60085f9054906101000a900460ff1681565b60075481565b60025481565b60085f9054906101000a900460ff16610ea6576040517f08c379a0000000000000000000000000000000000000000000000000000000008152600401610e9d90611ca3565b60405180910390fd5b600754421015610eeb576040517f08c379a0000000000000000000000000000000000000000000000000000000008152600401610ee290611d0b565b60405180910390fd5b5f60035f3373ffffffffffffffffffffffffffffffffffffffff1673ffffffffffffffffffffffffffffffffffffffff1681526020019081526020015f2090505f816001015490505f8111610f75576040517f08c379a0000000000000000000000000000000000000000000000000000000008152600401610f6c90611d73565b60405180910390fd5b5f82600101819055505f5f1b825f01819055503373ffffffffffffffffffffffffffffffffffffffff166108fc8290811502906040515f60405180830381858888f19350505050158015610fcb573d5f5f3e3d5ffd5b505050565b60085f9054906101000a900460ff16611011575f60055f6101000a81548160ff0219169083600381111561100757611006611287565b5b0217905550611156565b60038081111561102457611023611287565b5b60055f9054906101000a900460ff16600381111561104557611044611287565b5b0315611156575f42905060065481101561108857600160055f6101000a81548160ff0219169083600381111561107e5761107d611287565b5b0217905550611154565b60075481101561112857600260038111156110a6576110a5611287565b5b60055f9054906101000a900460ff1660038111156110c7576110c6611287565b5b1461112357600260055f6101000a81548160ff021916908360038111156110f1576110f0611287565b5b02179055507f3bcc93d35219aa0512d7c0d1ca10b0231f473e3d5f9396877d1b7215ee0ab3d560405160405180910390a15b611153565b600360055f6101000a81548160ff0219169083600381111561114d5761114c611287565b5b02179055505b5b505b565b5f600254821161116a575f9050611281565b5f73ffffffffffffffffffffffffffffffffffffffff1660015f9054906101000a900473ffffffffffffffffffffffffffffffffffffffff1673ffffffffffffffffffffffffffffffffffffffff16146112355760025460045f60015f9054906101000a900473ffffffffffffffffffffffffffffffffffffffff1673ffffffffffffffffffffffffffffffffffffffff1673ffffffffffffffffffffffffffffffffffffffff1681526020019081526020015f205f82825461122d9190611c26565b925050819055505b816002819055508260015f6101000a81548173ffffffffffffffffffffffffffffffffffffffff021916908373ffffffffffffffffffffffffffffffffffffffff160217905550600190505b92915050565b7f4e487b71000000000000000000000000000000000000000000000000000000005f52602160045260245ffd5b600481106112c5576112c4611287565b5b50565b5f8190506112d5826112b4565b919050565b5f6112e4826112c8565b9050919050565b6112f4816112da565b82525050565b5f60208201905061130d5f8301846112eb565b92915050565b5f819050919050565b61132581611313565b82525050565b5f60208201905061133e5f83018461131c565b92915050565b5f8115159050919050565b61135881611344565b82525050565b5f6020820190506113715f83018461134f565b92915050565b5f5ffd5b5f73ffffffffffffffffffffffffffffffffffffffff82169050919050565b5f6113a48261137b565b9050919050565b6113b48161139a565b81146113be575f5ffd5b50565b5f813590506113cf816113ab565b92915050565b5f602082840312156113ea576113e9611377565b5b5f6113f7848285016113c1565b91505092915050565b5f61140a8261137b565b9050919050565b61141a81611400565b82525050565b5f6020820190506114335f830184611411565b92915050565b61144281611313565b811461144c575f5ffd5b50565b5f8135905061145d81611439565b92915050565b5f819050919050565b61147581611463565b811461147f575f5ffd5b50565b5f813590506114908161146c565b92915050565b5f5f604083850312156114ac576114ab611377565b5b5f6114b98582860161144f565b92505060206114ca85828601611482565b9150509250929050565b6114dd81611463565b82525050565b5f6040820190506114f65f8301856114d4565b611503602083018461131c565b9392505050565b6115138161139a565b82525050565b5f60208201905061152c5f83018461150a565b92915050565b5f6020828403121561154757611546611377565b5b5f61155484828501611482565b91505092915050565b5f5f6040838503121561157357611572611377565b5b5f6115808582860161144f565b92505060206115918582860161144f565b9150509250929050565b5f82825260208201905092915050565b7f4f6e6c792062656e6566696369617279000000000000000000000000000000005f82015250565b5f6115df60108361159b565b91506115ea826115ab565b602082019050919050565b5f6020820190508181035f83015261160c816115d3565b9050919050565b7f57726f6e672070686173650000000000000000000000000000000000000000005f82015250565b5f611647600b8361159b565b915061165282611613565b602082019050919050565b5f6020820190508181035f8301526116748161163b565b9050919050565b7f61756374696f6e456e6420616c72656164792063616c6c6564000000000000005f82015250565b5f6116af60198361159b565b91506116ba8261167b565b602082019050919050565b5f6020820190508181035f8301526116dc816116a3565b9050919050565b5f6040820190506116f65f83018561150a565b611703602083018461131c565b9392505050565b7f4e6f7468696e6720746f207769746864726177000000000000000000000000005f82015250565b5f61173e60138361159b565b91506117498261170a565b602082019050919050565b5f6020820190508181035f83015261176b81611732565b9050919050565b7f4e6f2062696420666f756e6400000000000000000000000000000000000000005f82015250565b5f6117a6600c8361159b565b91506117b182611772565b602082019050919050565b5f6020820190508181035f8301526117d38161179a565b9050919050565b5f819050919050565b6117f46117ef82611313565b6117da565b82525050565b5f819050919050565b61181461180f82611463565b6117fa565b82525050565b5f61182582856117e3565b6020820191506118358284611803565b6020820191508190509392505050565b7f48617368206d69736d61746368000000000000000000000000000000000000005f82015250565b5f611879600d8361159b565b915061188482611845565b602082019050919050565b5f6020820190508181035f8301526118a68161186d565b9050919050565b7f4e487b71000000000000000000000000000000000000000000000000000000005f52601160045260245ffd5b5f6118e482611313565b91506118ef83611313565b92508282026118fd81611313565b91508282048414831517611914576119136118ad565b5b5092915050565b5f61192582611313565b915061193083611313565b9250828203905081811115611948576119476118ad565b5b92915050565b7f496e76616c696420626c696e64656420626964000000000000000000000000005f82015250565b5f61198260138361159b565b915061198d8261194e565b602082019050919050565b5f6020820190508181035f8301526119af81611976565b9050919050565b7f42696420616c7265616479207375626d697474656400000000000000000000005f82015250565b5f6119ea60158361159b565b91506119f5826119b6565b602082019050919050565b5f6020820190508181035f830152611a17816119de565b9050919050565b7f4465706f736974206d757374206265203e2030000000000000000000000000005f82015250565b5f611a5260138361159b565b9150611a5d82611a1e565b602082019050919050565b5f6020820190508181035f830152611a7f81611a46565b9050919050565b7f54696d657320616c7265616479207365740000000000000000000000000000005f82015250565b5f611aba60118361159b565b9150611ac582611a86565b602082019050919050565b5f6020820190508181035f830152611ae781611aae565b9050919050565b7f416c7265616479207374617274656400000000000000000000000000000000005f82015250565b5f611b22600f8361159b565b9150611b2d82611aee565b602082019050919050565b5f6020820190508181035f830152611b4f81611b16565b9050919050565b7f62696464696e674475726174696f6e206d757374206265203e203000000000005f82015250565b5f611b8a601b8361159b565b9150611b9582611b56565b602082019050919050565b5f6020820190508181035f830152611bb781611b7e565b9050919050565b7f72657665616c4475726174696f6e206d757374206265203e20300000000000005f82015250565b5f611bf2601a8361159b565b9150611bfd82611bbe565b602082019050919050565b5f6020820190508181035f830152611c1f81611be6565b9050919050565b5f611c3082611313565b9150611c3b83611313565b9250828201905080821115611c5357611c526118ad565b5b92915050565b7f41756374696f6e206e6f742073746172746564207965740000000000000000005f82015250565b5f611c8d60178361159b565b9150611c9882611c59565b602082019050919050565b5f6020820190508181035f830152611cba81611c81565b9050919050565b7f52657665616c20706572696f64206e6f742079657420656e64656400000000005f82015250565b5f611cf5601b8361159b565b9150611d0082611cc1565b602082019050919050565b5f6020820190508181035f830152611d2281611ce9565b9050919050565b7f4e6f7468696e6720746f20726566756e640000000000000000000000000000005f82015250565b5f611d5d60118361159b565b9150611d6882611d29565b602082019050919050565b5f6020820190508181035f830152611d8a81611d51565b905091905056fea26469706673582212202623d5352d64063fc9fda064317a35306f17843d8ff106012be41d10f7c4f9b864736f6c634300081f0033",
					"opcodes": "PUSH1 0x80 PUSH1 0x40 MSTORE PUSH0 PUSH1 0x2 SSTORE PUSH0 PUSH1 0x5 PUSH0 PUSH2 0x100 EXP DUP2 SLOAD DUP2 PUSH1 0xFF MUL NOT AND SWAP1 DUP4 PUSH1 0x3 DUP2 GT ISZERO PUSH1 0x29 JUMPI PUSH1 0x28 PUSH1 0xA8 JUMP JUMPDEST JUMPDEST MUL OR SWAP1 SSTORE POP CALLVALUE DUP1 ISZERO PUSH1 0x38 JUMPI PUSH0 PUSH0 REVERT JUMPDEST POP CALLER PUSH0 PUSH0 PUSH2 0x100 EXP DUP2 SLOAD DUP2 PUSH20 0xFFFFFFFFFFFFFFFFFFFFFFFFFFFFFFFFFFFFFFFF MUL NOT AND SWAP1 DUP4 PUSH20 0xFFFFFFFFFFFFFFFFFFFFFFFFFFFFFFFFFFFFFFFF AND MUL OR SWAP1 SSTORE POP PUSH32 0x8AD2842071CB64589C8E006941BC20B615AAE08A93530E211CA7C9639BD26D97 PUSH1 0x40 MLOAD PUSH1 0x40 MLOAD DUP1 SWAP2 SUB SWAP1 LOG1 PUSH1 0xD5 JUMP JUMPDEST PUSH32 0x4E487B7100000000000000000000000000000000000000000000000000000000 PUSH0 MSTORE PUSH1 0x21 PUSH1 0x4 MSTORE PUSH1 0x24 PUSH0 REVERT JUMPDEST PUSH2 0x1DC7 DUP1 PUSH2 0xE2 PUSH0 CODECOPY PUSH0 RETURN INVALID PUSH1 0x80 PUSH1 0x40 MSTORE PUSH1 0x4 CALLDATASIZE LT PUSH2 0xF2 JUMPI PUSH0 CALLDATALOAD PUSH1 0xE0 SHR DUP1 PUSH4 0x62EA82DB GT PUSH2 0x89 JUMPI DUP1 PUSH4 0xC16C917E GT PUSH2 0x58 JUMPI DUP1 PUSH4 0xC16C917E EQ PUSH2 0x2D9 JUMPI DUP1 PUSH4 0xD49DC1D8 EQ PUSH2 0x303 JUMPI DUP1 PUSH4 0xD57BDE79 EQ PUSH2 0x32D JUMPI DUP1 PUSH4 0xF5950A07 EQ PUSH2 0x357 JUMPI PUSH2 0xF2 JUMP JUMPDEST DUP1 PUSH4 0x62EA82DB EQ PUSH2 0x22E JUMPI DUP1 PUSH4 0x91F90157 EQ PUSH2 0x26B JUMPI DUP1 PUSH4 0x957BB1E0 EQ PUSH2 0x295 JUMPI DUP1 PUSH4 0x9F1B2FC1 EQ PUSH2 0x2B1 JUMPI PUSH2 0xF2 JUMP JUMPDEST DUP1 PUSH4 0x2A24F46C GT PUSH2 0xC5 JUMPI DUP1 PUSH4 0x2A24F46C EQ PUSH2 0x1B0 JUMPI DUP1 PUSH4 0x38AF3EED EQ PUSH2 0x1C6 JUMPI DUP1 PUSH4 0x3CCFD60B EQ PUSH2 0x1F0 JUMPI DUP1 PUSH4 0x4036778F EQ PUSH2 0x206 JUMPI PUSH2 0xF2 JUMP JUMPDEST DUP1 PUSH4 0x55AD42E EQ PUSH2 0xF6 JUMPI DUP1 PUSH4 0x1022ECCB EQ PUSH2 0x120 JUMPI DUP1 PUSH4 0x12FA6FEB EQ PUSH2 0x14A JUMPI DUP1 PUSH4 0x26B387BB EQ PUSH2 0x174 JUMPI JUMPDEST PUSH0 PUSH0 REVERT JUMPDEST CALLVALUE DUP1 ISZERO PUSH2 0x101 JUMPI PUSH0 PUSH0 REVERT JUMPDEST POP PUSH2 0x10A PUSH2 0x36D JUMP JUMPDEST PUSH1 0x40 MLOAD PUSH2 0x117 SWAP2 SWAP1 PUSH2 0x12FA JUMP JUMPDEST PUSH1 0x40 MLOAD DUP1 SWAP2 SUB SWAP1 RETURN JUMPDEST CALLVALUE DUP1 ISZERO PUSH2 0x12B JUMPI PUSH0 PUSH0 REVERT JUMPDEST POP PUSH2 0x134 PUSH2 0x37F JUMP JUMPDEST PUSH1 0x40 MLOAD PUSH2 0x141 SWAP2 SWAP1 PUSH2 0x132B JUMP JUMPDEST PUSH1 0x40 MLOAD DUP1 SWAP2 SUB SWAP1 RETURN JUMPDEST CALLVALUE DUP1 ISZERO PUSH2 0x155 JUMPI PUSH0 PUSH0 REVERT JUMPDEST POP PUSH2 0x15E PUSH2 0x385 JUMP JUMPDEST PUSH1 0x40 MLOAD PUSH2 0x16B SWAP2 SWAP1 PUSH2 0x135E JUMP JUMPDEST PUSH1 0x40 MLOAD DUP1 SWAP2 SUB SWAP1 RETURN JUMPDEST CALLVALUE DUP1 ISZERO PUSH2 0x17F JUMPI PUSH0 PUSH0 REVERT JUMPDEST POP PUSH2 0x19A PUSH1 0x4 DUP1 CALLDATASIZE SUB DUP2 ADD SWAP1 PUSH2 0x195 SWAP2 SWAP1 PUSH2 0x13D5 JUMP JUMPDEST PUSH2 0x398 JUMP JUMPDEST PUSH1 0x40 MLOAD PUSH2 0x1A7 SWAP2 SWAP1 PUSH2 0x132B JUMP JUMPDEST PUSH1 0x40 MLOAD DUP1 SWAP2 SUB SWAP1 RETURN JUMPDEST CALLVALUE DUP1 ISZERO PUSH2 0x1BB JUMPI PUSH0 PUSH0 REVERT JUMPDEST POP PUSH2 0x1C4 PUSH2 0x3AD JUMP JUMPDEST STOP JUMPDEST CALLVALUE DUP1 ISZERO PUSH2 0x1D1 JUMPI PUSH0 PUSH0 REVERT JUMPDEST POP PUSH2 0x1DA PUSH2 0x5F4 JUMP JUMPDEST PUSH1 0x40 MLOAD PUSH2 0x1E7 SWAP2 SWAP1 PUSH2 0x1420 JUMP JUMPDEST PUSH1 0x40 MLOAD DUP1 SWAP2 SUB SWAP1 RETURN JUMPDEST CALLVALUE DUP1 ISZERO PUSH2 0x1FB JUMPI PUSH0 PUSH0 REVERT JUMPDEST POP PUSH2 0x204 PUSH2 0x618 JUMP JUMPDEST STOP JUMPDEST CALLVALUE DUP1 ISZERO PUSH2 0x211 JUMPI PUSH0 PUSH0 REVERT JUMPDEST POP PUSH2 0x22C PUSH1 0x4 DUP1 CALLDATASIZE SUB DUP2 ADD SWAP1 PUSH2 0x227 SWAP2 SWAP1 PUSH2 0x1496 JUMP JUMPDEST PUSH2 0x724 JUMP JUMPDEST STOP JUMPDEST CALLVALUE DUP1 ISZERO PUSH2 0x239 JUMPI PUSH0 PUSH0 REVERT JUMPDEST POP PUSH2 0x254 PUSH1 0x4 DUP1 CALLDATASIZE SUB DUP2 ADD SWAP1 PUSH2 0x24F SWAP2 SWAP1 PUSH2 0x13D5 JUMP JUMPDEST PUSH2 0x994 JUMP JUMPDEST PUSH1 0x40 MLOAD PUSH2 0x262 SWAP3 SWAP2 SWAP1 PUSH2 0x14E3 JUMP JUMPDEST PUSH1 0x40 MLOAD DUP1 SWAP2 SUB SWAP1 RETURN JUMPDEST CALLVALUE DUP1 ISZERO PUSH2 0x276 JUMPI PUSH0 PUSH0 REVERT JUMPDEST POP PUSH2 0x27F PUSH2 0x9B4 JUMP JUMPDEST PUSH1 0x40 MLOAD PUSH2 0x28C SWAP2 SWAP1 PUSH2 0x1519 JUMP JUMPDEST PUSH1 0x40 MLOAD DUP1 SWAP2 SUB SWAP1 RETURN JUMPDEST PUSH2 0x2AF PUSH1 0x4 DUP1 CALLDATASIZE SUB DUP2 ADD SWAP1 PUSH2 0x2AA SWAP2 SWAP1 PUSH2 0x1532 JUMP JUMPDEST PUSH2 0x9D9 JUMP JUMPDEST STOP JUMPDEST CALLVALUE DUP1 ISZERO PUSH2 0x2BC JUMPI PUSH0 PUSH0 REVERT JUMPDEST POP PUSH2 0x2D7 PUSH1 0x4 DUP1 CALLDATASIZE SUB DUP2 ADD SWAP1 PUSH2 0x2D2 SWAP2 SWAP1 PUSH2 0x155D JUMP JUMPDEST PUSH2 0xBCB JUMP JUMPDEST STOP JUMPDEST CALLVALUE DUP1 ISZERO PUSH2 0x2E4 JUMPI PUSH0 PUSH0 REVERT JUMPDEST POP PUSH2 0x2ED PUSH2 0xE3A JUMP JUMPDEST PUSH1 0x40 MLOAD PUSH2 0x2FA SWAP2 SWAP1 PUSH2 0x135E JUMP JUMPDEST PUSH1 0x40 MLOAD DUP1 SWAP2 SUB SWAP1 RETURN JUMPDEST CALLVALUE DUP1 ISZERO PUSH2 0x30E JUMPI PUSH0 PUSH0 REVERT JUMPDEST POP PUSH2 0x317 PUSH2 0xE4C JUMP JUMPDEST PUSH1 0x40 MLOAD PUSH2 0x324 SWAP2 SWAP1 PUSH2 0x132B JUMP JUMPDEST PUSH1 0x40 MLOAD DUP1 SWAP2 SUB SWAP1 RETURN JUMPDEST CALLVALUE DUP1 ISZERO PUSH2 0x338 JUMPI PUSH0 PUSH0 REVERT JUMPDEST POP PUSH2 0x341 PUSH2 0xE52 JUMP JUMPDEST PUSH1 0x40 MLOAD PUSH2 0x34E SWAP2 SWAP1 PUSH2 0x132B JUMP JUMPDEST PUSH1 0x40 MLOAD DUP1 SWAP2 SUB SWAP1 RETURN JUMPDEST CALLVALUE DUP1 ISZERO PUSH2 0x362 JUMPI PUSH0 PUSH0 REVERT JUMPDEST POP PUSH2 0x36B PUSH2 0xE58 JUMP JUMPDEST STOP JUMPDEST PUSH1 0x5 PUSH0 SWAP1 SLOAD SWAP1 PUSH2 0x100 EXP SWAP1 DIV PUSH1 0xFF AND DUP2 JUMP JUMPDEST PUSH1 0x6 SLOAD DUP2 JUMP JUMPDEST PUSH1 0x5 PUSH1 0x1 SWAP1 SLOAD SWAP1 PUSH2 0x100 EXP SWAP1 DIV PUSH1 0xFF AND DUP2 JUMP JUMPDEST PUSH1 0x4 PUSH1 0x20 MSTORE DUP1 PUSH0 MSTORE PUSH1 0x40 PUSH0 KECCAK256 PUSH0 SWAP2 POP SWAP1 POP SLOAD DUP2 JUMP JUMPDEST PUSH0 PUSH0 SWAP1 SLOAD SWAP1 PUSH2 0x100 EXP SWAP1 DIV PUSH20 0xFFFFFFFFFFFFFFFFFFFFFFFFFFFFFFFFFFFFFFFF AND PUSH20 0xFFFFFFFFFFFFFFFFFFFFFFFFFFFFFFFFFFFFFFFF AND CALLER PUSH20 0xFFFFFFFFFFFFFFFFFFFFFFFFFFFFFFFFFFFFFFFF AND EQ PUSH2 0x43B JUMPI PUSH1 0x40 MLOAD PUSH32 0x8C379A000000000000000000000000000000000000000000000000000000000 DUP2 MSTORE PUSH1 0x4 ADD PUSH2 0x432 SWAP1 PUSH2 0x15F5 JUMP JUMPDEST PUSH1 0x40 MLOAD DUP1 SWAP2 SUB SWAP1 REVERT JUMPDEST PUSH1 0x3 PUSH2 0x445 PUSH2 0xFD0 JUMP JUMPDEST DUP1 PUSH1 0x3 DUP2 GT ISZERO PUSH2 0x458 JUMPI PUSH2 0x457 PUSH2 0x1287 JUMP JUMPDEST JUMPDEST PUSH1 0x5 PUSH0 SWAP1 SLOAD SWAP1 PUSH2 0x100 EXP SWAP1 DIV PUSH1 0xFF AND PUSH1 0x3 DUP2 GT ISZERO PUSH2 0x479 JUMPI PUSH2 0x478 PUSH2 0x1287 JUMP JUMPDEST JUMPDEST EQ PUSH2 0x4B9 JUMPI PUSH1 0x40 MLOAD PUSH32 0x8C379A000000000000000000000000000000000000000000000000000000000 DUP2 MSTORE PUSH1 0x4 ADD PUSH2 0x4B0 SWAP1 PUSH2 0x165D JUMP JUMPDEST PUSH1 0x40 MLOAD DUP1 SWAP2 SUB SWAP1 REVERT JUMPDEST PUSH1 0x5 PUSH1 0x1 SWAP1 SLOAD SWAP1 PUSH2 0x100 EXP SWAP1 DIV PUSH1 0xFF AND ISZERO PUSH2 0x509 JUMPI PUSH1 0x40 MLOAD PUSH32 0x8C379A000000000000000000000000000000000000000000000000000000000 DUP2 MSTORE PUSH1 0x4 ADD PUSH2 0x500 SWAP1 PUSH2 0x16C5 JUMP JUMPDEST PUSH1 0x40 MLOAD DUP1 SWAP2 SUB SWAP1 REVERT JUMPDEST PUSH1 0x1 PUSH1 0x5 PUSH1 0x1 PUSH2 0x100 EXP DUP2 SLOAD DUP2 PUSH1 0xFF MUL NOT AND SWAP1 DUP4 ISZERO ISZERO MUL OR SWAP1 SSTORE POP PUSH32 0xDAEC4582D5D9595688C8C98545FDD1C696D41C6AEAEB636737E84ED2F5C00EDA PUSH1 0x1 PUSH0 SWAP1 SLOAD SWAP1 PUSH2 0x100 EXP SWAP1 DIV PUSH20 0xFFFFFFFFFFFFFFFFFFFFFFFFFFFFFFFFFFFFFFFF AND PUSH1 0x2 SLOAD PUSH1 0x40 MLOAD PUSH2 0x578 SWAP3 SWAP2 SWAP1 PUSH2 0x16E3 JUMP JUMPDEST PUSH1 0x40 MLOAD DUP1 SWAP2 SUB SWAP1 LOG1 PUSH0 PUSH1 0x2 SLOAD GT ISZERO PUSH2 0x5F1 JUMPI PUSH0 PUSH0 SWAP1 SLOAD SWAP1 PUSH2 0x100 EXP SWAP1 DIV PUSH20 0xFFFFFFFFFFFFFFFFFFFFFFFFFFFFFFFFFFFFFFFF AND PUSH20 0xFFFFFFFFFFFFFFFFFFFFFFFFFFFFFFFFFFFFFFFF AND PUSH2 0x8FC PUSH1 0x2 SLOAD SWAP1 DUP2 ISZERO MUL SWAP1 PUSH1 0x40 MLOAD PUSH0 PUSH1 0x40 MLOAD DUP1 DUP4 SUB DUP2 DUP6 DUP9 DUP9 CALL SWAP4 POP POP POP POP ISZERO DUP1 ISZERO PUSH2 0x5EF JUMPI RETURNDATASIZE PUSH0 PUSH0 RETURNDATACOPY RETURNDATASIZE PUSH0 REVERT JUMPDEST POP JUMPDEST POP JUMP JUMPDEST PUSH0 PUSH0 SWAP1 SLOAD SWAP1 PUSH2 0x100 EXP SWAP1 DIV PUSH20 0xFFFFFFFFFFFFFFFFFFFFFFFFFFFFFFFFFFFFFFFF AND DUP2 JUMP JUMPDEST PUSH0 PUSH1 0x4 PUSH0 CALLER PUSH20 0xFFFFFFFFFFFFFFFFFFFFFFFFFFFFFFFFFFFFFFFF AND PUSH20 0xFFFFFFFFFFFFFFFFFFFFFFFFFFFFFFFFFFFFFFFF AND DUP2 MSTORE PUSH1 0x20 ADD SWAP1 DUP2 MSTORE PUSH1 0x20 ADD PUSH0 KECCAK256 SLOAD SWAP1 POP PUSH0 DUP2 GT PUSH2 0x69B JUMPI PUSH1 0x40 MLOAD PUSH32 0x8C379A000000000000000000000000000000000000000000000000000000000 DUP2 MSTORE PUSH1 0x4 ADD PUSH2 0x692 SWAP1 PUSH2 0x1754 JUMP JUMPDEST PUSH1 0x40 MLOAD DUP1 SWAP2 SUB SWAP1 REVERT JUMPDEST PUSH0 PUSH1 0x4 PUSH0 CALLER PUSH20 0xFFFFFFFFFFFFFFFFFFFFFFFFFFFFFFFFFFFFFFFF AND PUSH20 0xFFFFFFFFFFFFFFFFFFFFFFFFFFFFFFFFFFFFFFFF AND DUP2 MSTORE PUSH1 0x20 ADD SWAP1 DUP2 MSTORE PUSH1 0x20 ADD PUSH0 KECCAK256 DUP2 SWAP1 SSTORE POP CALLER PUSH20 0xFFFFFFFFFFFFFFFFFFFFFFFFFFFFFFFFFFFFFFFF AND PUSH2 0x8FC DUP3 SWAP1 DUP2 ISZERO MUL SWAP1 PUSH1 0x40 MLOAD PUSH0 PUSH1 0x40 MLOAD DUP1 DUP4 SUB DUP2 DUP6 DUP9 DUP9 CALL SWAP4 POP POP POP POP ISZERO DUP1 ISZERO PUSH2 0x720 JUMPI RETURNDATASIZE PUSH0 PUSH0 RETURNDATACOPY RETURNDATASIZE PUSH0 REVERT JUMPDEST POP POP JUMP JUMPDEST PUSH1 0x2 PUSH2 0x72E PUSH2 0xFD0 JUMP JUMPDEST DUP1 PUSH1 0x3 DUP2 GT ISZERO PUSH2 0x741 JUMPI PUSH2 0x740 PUSH2 0x1287 JUMP JUMPDEST JUMPDEST PUSH1 0x5 PUSH0 SWAP1 SLOAD SWAP1 PUSH2 0x100 EXP SWAP1 DIV PUSH1 0xFF AND PUSH1 0x3 DUP2 GT ISZERO PUSH2 0x762 JUMPI PUSH2 0x761 PUSH2 0x1287 JUMP JUMPDEST JUMPDEST EQ PUSH2 0x7A2 JUMPI PUSH1 0x40 MLOAD PUSH32 0x8C379A000000000000000000000000000000000000000000000000000000000 DUP2 MSTORE PUSH1 0x4 ADD PUSH2 0x799 SWAP1 PUSH2 0x165D JUMP JUMPDEST PUSH1 0x40 MLOAD DUP1 SWAP2 SUB SWAP1 REVERT JUMPDEST PUSH0 PUSH1 0x3 PUSH0 CALLER PUSH20 0xFFFFFFFFFFFFFFFFFFFFFFFFFFFFFFFFFFFFFFFF AND PUSH20 0xFFFFFFFFFFFFFFFFFFFFFFFFFFFFFFFFFFFFFFFF AND DUP2 MSTORE PUSH1 0x20 ADD SWAP1 DUP2 MSTORE PUSH1 0x20 ADD PUSH0 KECCAK256 SWAP1 POP PUSH0 DUP2 PUSH1 0x1 ADD SLOAD GT PUSH2 0x828 JUMPI PUSH1 0x40 MLOAD PUSH32 0x8C379A000000000000000000000000000000000000000000000000000000000 DUP2 MSTORE PUSH1 0x4 ADD PUSH2 0x81F SWAP1 PUSH2 0x17BC JUMP JUMPDEST PUSH1 0x40 MLOAD DUP1 SWAP2 SUB SWAP1 REVERT JUMPDEST PUSH0 DUP5 DUP5 PUSH1 0x40 MLOAD PUSH1 0x20 ADD PUSH2 0x83C SWAP3 SWAP2 SWAP1 PUSH2 0x181A JUMP JUMPDEST PUSH1 0x40 MLOAD PUSH1 0x20 DUP2 DUP4 SUB SUB DUP2 MSTORE SWAP1 PUSH1 0x40 MSTORE DUP1 MLOAD SWAP1 PUSH1 0x20 ADD KECCAK256 SWAP1 POP DUP2 PUSH0 ADD SLOAD DUP2 EQ PUSH2 0x899 JUMPI PUSH1 0x40 MLOAD PUSH32 0x8C379A000000000000000000000000000000000000000000000000000000000 DUP2 MSTORE PUSH1 0x4 ADD PUSH2 0x890 SWAP1 PUSH2 0x188F JUMP JUMPDEST PUSH1 0x40 MLOAD DUP1 SWAP2 SUB SWAP1 REVERT JUMPDEST PUSH0 PUSH8 0xDE0B6B3A7640000 DUP7 PUSH2 0x8AE SWAP2 SWAP1 PUSH2 0x18DA JUMP JUMPDEST SWAP1 POP PUSH0 PUSH0 SHL PUSH1 0x3 PUSH0 CALLER PUSH20 0xFFFFFFFFFFFFFFFFFFFFFFFFFFFFFFFFFFFFFFFF AND PUSH20 0xFFFFFFFFFFFFFFFFFFFFFFFFFFFFFFFFFFFFFFFF AND DUP2 MSTORE PUSH1 0x20 ADD SWAP1 DUP2 MSTORE PUSH1 0x20 ADD PUSH0 KECCAK256 PUSH0 ADD DUP2 SWAP1 SSTORE POP PUSH0 DUP4 PUSH1 0x1 ADD SLOAD SWAP1 POP DUP2 DUP5 PUSH1 0x1 ADD SLOAD LT ISZERO DUP1 ISZERO PUSH2 0x911 JUMPI POP PUSH0 DUP8 GT JUMPDEST ISZERO PUSH2 0x935 JUMPI PUSH2 0x920 CALLER DUP4 PUSH2 0x1158 JUMP JUMPDEST ISZERO PUSH2 0x934 JUMPI DUP2 DUP2 PUSH2 0x931 SWAP2 SWAP1 PUSH2 0x191B JUMP JUMPDEST SWAP1 POP JUMPDEST JUMPDEST PUSH0 DUP5 PUSH1 0x1 ADD DUP2 SWAP1 SSTORE POP PUSH0 DUP2 GT ISZERO PUSH2 0x98B JUMPI CALLER PUSH20 0xFFFFFFFFFFFFFFFFFFFFFFFFFFFFFFFFFFFFFFFF AND PUSH2 0x8FC DUP3 SWAP1 DUP2 ISZERO MUL SWAP1 PUSH1 0x40 MLOAD PUSH0 PUSH1 0x40 MLOAD DUP1 DUP4 SUB DUP2 DUP6 DUP9 DUP9 CALL SWAP4 POP POP POP POP ISZERO DUP1 ISZERO PUSH2 0x989 JUMPI RETURNDATASIZE PUSH0 PUSH0 RETURNDATACOPY RETURNDATASIZE PUSH0 REVERT JUMPDEST POP JUMPDEST POP POP POP POP POP POP POP JUMP JUMPDEST PUSH1 0x3 PUSH1 0x20 MSTORE DUP1 PUSH0 MSTORE PUSH1 0x40 PUSH0 KECCAK256 PUSH0 SWAP2 POP SWAP1 POP DUP1 PUSH0 ADD SLOAD SWAP1 DUP1 PUSH1 0x1 ADD SLOAD SWAP1 POP DUP3 JUMP JUMPDEST PUSH1 0x1 PUSH0 SWAP1 SLOAD SWAP1 PUSH2 0x100 EXP SWAP1 DIV PUSH20 0xFFFFFFFFFFFFFFFFFFFFFFFFFFFFFFFFFFFFFFFF AND DUP2 JUMP JUMPDEST PUSH1 0x1 PUSH2 0x9E3 PUSH2 0xFD0 JUMP JUMPDEST DUP1 PUSH1 0x3 DUP2 GT ISZERO PUSH2 0x9F6 JUMPI PUSH2 0x9F5 PUSH2 0x1287 JUMP JUMPDEST JUMPDEST PUSH1 0x5 PUSH0 SWAP1 SLOAD SWAP1 PUSH2 0x100 EXP SWAP1 DIV PUSH1 0xFF AND PUSH1 0x3 DUP2 GT ISZERO PUSH2 0xA17 JUMPI PUSH2 0xA16 PUSH2 0x1287 JUMP JUMPDEST JUMPDEST EQ PUSH2 0xA57 JUMPI PUSH1 0x40 MLOAD PUSH32 0x8C379A000000000000000000000000000000000000000000000000000000000 DUP2 MSTORE PUSH1 0x4 ADD PUSH2 0xA4E SWAP1 PUSH2 0x165D JUMP JUMPDEST PUSH1 0x40 MLOAD DUP1 SWAP2 SUB SWAP1 REVERT JUMPDEST PUSH0 PUSH0 SHL DUP3 SUB PUSH2 0xA9B JUMPI PUSH1 0x40 MLOAD PUSH32 0x8C379A000000000000000000000000000000000000000000000000000000000 DUP2 MSTORE PUSH1 0x4 ADD PUSH2 0xA92 SWAP1 PUSH2 0x1998 JUMP JUMPDEST PUSH1 0x40 MLOAD DUP1 SWAP2 SUB SWAP1 REVERT JUMPDEST PUSH0 PUSH0 SHL PUSH1 0x3 PUSH0 CALLER PUSH20 0xFFFFFFFFFFFFFFFFFFFFFFFFFFFFFFFFFFFFFFFF AND PUSH20 0xFFFFFFFFFFFFFFFFFFFFFFFFFFFFFFFFFFFFFFFF AND DUP2 MSTORE PUSH1 0x20 ADD SWAP1 DUP2 MSTORE PUSH1 0x20 ADD PUSH0 KECCAK256 PUSH0 ADD SLOAD EQ PUSH2 0xB1E JUMPI PUSH1 0x40 MLOAD PUSH32 0x8C379A000000000000000000000000000000000000000000000000000000000 DUP2 MSTORE PUSH1 0x4 ADD PUSH2 0xB15 SWAP1 PUSH2 0x1A00 JUMP JUMPDEST PUSH1 0x40 MLOAD DUP1 SWAP2 SUB SWAP1 REVERT JUMPDEST PUSH0 CALLVALUE GT PUSH2 0xB60 JUMPI PUSH1 0x40 MLOAD PUSH32 0x8C379A000000000000000000000000000000000000000000000000000000000 DUP2 MSTORE PUSH1 0x4 ADD PUSH2 0xB57 SWAP1 PUSH2 0x1A68 JUMP JUMPDEST PUSH1 0x40 MLOAD DUP1 SWAP2 SUB SWAP1 REVERT JUMPDEST PUSH1 0x40 MLOAD DUP1 PUSH1 0x40 ADD PUSH1 0x40 MSTORE DUP1 DUP4 DUP2 MSTORE PUSH1 0x20 ADD CALLVALUE DUP2 MSTORE POP PUSH1 0x3 PUSH0 CALLER PUSH20 0xFFFFFFFFFFFFFFFFFFFFFFFFFFFFFFFFFFFFFFFF AND PUSH20 0xFFFFFFFFFFFFFFFFFFFFFFFFFFFFFFFFFFFFFFFF AND DUP2 MSTORE PUSH1 0x20 ADD SWAP1 DUP2 MSTORE PUSH1 0x20 ADD PUSH0 KECCAK256 PUSH0 DUP3 ADD MLOAD DUP2 PUSH0 ADD SSTORE PUSH1 0x20 DUP3 ADD MLOAD DUP2 PUSH1 0x1 ADD SSTORE SWAP1 POP POP POP POP JUMP JUMPDEST PUSH0 PUSH0 SWAP1 SLOAD SWAP1 PUSH2 0x100 EXP SWAP1 DIV PUSH20 0xFFFFFFFFFFFFFFFFFFFFFFFFFFFFFFFFFFFFFFFF AND PUSH20 0xFFFFFFFFFFFFFFFFFFFFFFFFFFFFFFFFFFFFFFFF AND CALLER PUSH20 0xFFFFFFFFFFFFFFFFFFFFFFFFFFFFFFFFFFFFFFFF AND EQ PUSH2 0xC59 JUMPI PUSH1 0x40 MLOAD PUSH32 0x8C379A000000000000000000000000000000000000000000000000000000000 DUP2 MSTORE PUSH1 0x4 ADD PUSH2 0xC50 SWAP1 PUSH2 0x15F5 JUMP JUMPDEST PUSH1 0x40 MLOAD DUP1 SWAP2 SUB SWAP1 REVERT JUMPDEST PUSH1 0x8 PUSH0 SWAP1 SLOAD SWAP1 PUSH2 0x100 EXP SWAP1 DIV PUSH1 0xFF AND ISZERO PUSH2 0xCA8 JUMPI PUSH1 0x40 MLOAD PUSH32 0x8C379A000000000000000000000000000000000000000000000000000000000 DUP2 MSTORE PUSH1 0x4 ADD PUSH2 0xC9F SWAP1 PUSH2 0x1AD0 JUMP JUMPDEST PUSH1 0x40 MLOAD DUP1 SWAP2 SUB SWAP1 REVERT JUMPDEST PUSH0 PUSH1 0x3 DUP2 GT ISZERO PUSH2 0xCBB JUMPI PUSH2 0xCBA PUSH2 0x1287 JUMP JUMPDEST JUMPDEST PUSH1 0x5 PUSH0 SWAP1 SLOAD SWAP1 PUSH2 0x100 EXP SWAP1 DIV PUSH1 0xFF AND PUSH1 0x3 DUP2 GT ISZERO PUSH2 0xCDC JUMPI PUSH2 0xCDB PUSH2 0x1287 JUMP JUMPDEST JUMPDEST EQ PUSH2 0xD1C JUMPI PUSH1 0x40 MLOAD PUSH32 0x8C379A000000000000000000000000000000000000000000000000000000000 DUP2 MSTORE PUSH1 0x4 ADD PUSH2 0xD13 SWAP1 PUSH2 0x1B38 JUMP JUMPDEST PUSH1 0x40 MLOAD DUP1 SWAP2 SUB SWAP1 REVERT JUMPDEST PUSH0 DUP3 GT PUSH2 0xD5E JUMPI PUSH1 0x40 MLOAD PUSH32 0x8C379A000000000000000000000000000000000000000000000000000000000 DUP2 MSTORE PUSH1 0x4 ADD PUSH2 0xD55 SWAP1 PUSH2 0x1BA0 JUMP JUMPDEST PUSH1 0x40 MLOAD DUP1 SWAP2 SUB SWAP1 REVERT JUMPDEST PUSH0 DUP2 GT PUSH2 0xDA0 JUMPI PUSH1 0x40 MLOAD PUSH32 0x8C379A000000000000000000000000000000000000000000000000000000000 DUP2 MSTORE PUSH1 0x4 ADD PUSH2 0xD97 SWAP1 PUSH2 0x1C08 JUMP JUMPDEST PUSH1 0x40 MLOAD DUP1 SWAP2 SUB SWAP1 REVERT JUMPDEST DUP2 TIMESTAMP PUSH2 0xDAC SWAP2 SWAP1 PUSH2 0x1C26 JUMP JUMPDEST PUSH1 0x6 DUP2 SWAP1 SSTORE POP DUP1 PUSH1 0x6 SLOAD PUSH2 0xDC0 SWAP2 SWAP1 PUSH2 0x1C26 JUMP JUMPDEST PUSH1 0x7 DUP2 SWAP1 SSTORE POP PUSH1 0x1 PUSH1 0x8 PUSH0 PUSH2 0x100 EXP DUP2 SLOAD DUP2 PUSH1 0xFF MUL NOT AND SWAP1 DUP4 ISZERO ISZERO MUL OR SWAP1 SSTORE POP PUSH1 0x1 PUSH1 0x5 PUSH0 PUSH2 0x100 EXP DUP2 SLOAD DUP2 PUSH1 0xFF MUL NOT AND SWAP1 DUP4 PUSH1 0x3 DUP2 GT ISZERO PUSH2 0xE05 JUMPI PUSH2 0xE04 PUSH2 0x1287 JUMP JUMPDEST JUMPDEST MUL OR SWAP1 SSTORE POP PUSH32 0x2C124E22EE7DA1C9905BBB317CF67658C1CC3EA1C0953B1633F85D0B5C281D9 PUSH1 0x40 MLOAD PUSH1 0x40 MLOAD DUP1 SWAP2 SUB SWAP1 LOG1 POP POP JUMP JUMPDEST PUSH1 0x8 PUSH0 SWAP1 SLOAD SWAP1 PUSH2 0x100 EXP SWAP1 DIV PUSH1 0xFF AND DUP2 JUMP JUMPDEST PUSH1 0x7 SLOAD DUP2 JUMP JUMPDEST PUSH1 0x2 SLOAD DUP2 JUMP JUMPDEST PUSH1 0x8 PUSH0 SWAP1 SLOAD SWAP1 PUSH2 0x100 EXP SWAP1 DIV PUSH1 0xFF AND PUSH2 0xEA6 JUMPI PUSH1 0x40 MLOAD PUSH32 0x8C379A000000000000000000000000000000000000000000000000000000000 DUP2 MSTORE PUSH1 0x4 ADD PUSH2 0xE9D SWAP1 PUSH2 0x1CA3 JUMP JUMPDEST PUSH1 0x40 MLOAD DUP1 SWAP2 SUB SWAP1 REVERT JUMPDEST PUSH1 0x7 SLOAD TIMESTAMP LT ISZERO PUSH2 0xEEB JUMPI PUSH1 0x40 MLOAD PUSH32 0x8C379A000000000000000000000000000000000000000000000000000000000 DUP2 MSTORE PUSH1 0x4 ADD PUSH2 0xEE2 SWAP1 PUSH2 0x1D0B JUMP JUMPDEST PUSH1 0x40 MLOAD DUP1 SWAP2 SUB SWAP1 REVERT JUMPDEST PUSH0 PUSH1 0x3 PUSH0 CALLER PUSH20 0xFFFFFFFFFFFFFFFFFFFFFFFFFFFFFFFFFFFFFFFF AND PUSH20 0xFFFFFFFFFFFFFFFFFFFFFFFFFFFFFFFFFFFFFFFF AND DUP2 MSTORE PUSH1 0x20 ADD SWAP1 DUP2 MSTORE PUSH1 0x20 ADD PUSH0 KECCAK256 SWAP1 POP PUSH0 DUP2 PUSH1 0x1 ADD SLOAD SWAP1 POP PUSH0 DUP2 GT PUSH2 0xF75 JUMPI PUSH1 0x40 MLOAD PUSH32 0x8C379A000000000000000000000000000000000000000000000000000000000 DUP2 MSTORE PUSH1 0x4 ADD PUSH2 0xF6C SWAP1 PUSH2 0x1D73 JUMP JUMPDEST PUSH1 0x40 MLOAD DUP1 SWAP2 SUB SWAP1 REVERT JUMPDEST PUSH0 DUP3 PUSH1 0x1 ADD DUP2 SWAP1 SSTORE POP PUSH0 PUSH0 SHL DUP3 PUSH0 ADD DUP2 SWAP1 SSTORE POP CALLER PUSH20 0xFFFFFFFFFFFFFFFFFFFFFFFFFFFFFFFFFFFFFFFF AND PUSH2 0x8FC DUP3 SWAP1 DUP2 ISZERO MUL SWAP1 PUSH1 0x40 MLOAD PUSH0 PUSH1 0x40 MLOAD DUP1 DUP4 SUB DUP2 DUP6 DUP9 DUP9 CALL SWAP4 POP POP POP POP ISZERO DUP1 ISZERO PUSH2 0xFCB JUMPI RETURNDATASIZE PUSH0 PUSH0 RETURNDATACOPY RETURNDATASIZE PUSH0 REVERT JUMPDEST POP POP POP JUMP JUMPDEST PUSH1 0x8 PUSH0 SWAP1 SLOAD SWAP1 PUSH2 0x100 EXP SWAP1 DIV PUSH1 0xFF AND PUSH2 0x1011 JUMPI PUSH0 PUSH1 0x5 PUSH0 PUSH2 0x100 EXP DUP2 SLOAD DUP2 PUSH1 0xFF MUL NOT AND SWAP1 DUP4 PUSH1 0x3 DUP2 GT ISZERO PUSH2 0x1007 JUMPI PUSH2 0x1006 PUSH2 0x1287 JUMP JUMPDEST JUMPDEST MUL OR SWAP1 SSTORE POP PUSH2 0x1156 JUMP JUMPDEST PUSH1 0x3 DUP1 DUP2 GT ISZERO PUSH2 0x1024 JUMPI PUSH2 0x1023 PUSH2 0x1287 JUMP JUMPDEST JUMPDEST PUSH1 0x5 PUSH0 SWAP1 SLOAD SWAP1 PUSH2 0x100 EXP SWAP1 DIV PUSH1 0xFF AND PUSH1 0x3 DUP2 GT ISZERO PUSH2 0x1045 JUMPI PUSH2 0x1044 PUSH2 0x1287 JUMP JUMPDEST JUMPDEST SUB ISZERO PUSH2 0x1156 JUMPI PUSH0 TIMESTAMP SWAP1 POP PUSH1 0x6 SLOAD DUP2 LT ISZERO PUSH2 0x1088 JUMPI PUSH1 0x1 PUSH1 0x5 PUSH0 PUSH2 0x100 EXP DUP2 SLOAD DUP2 PUSH1 0xFF MUL NOT AND SWAP1 DUP4 PUSH1 0x3 DUP2 GT ISZERO PUSH2 0x107E JUMPI PUSH2 0x107D PUSH2 0x1287 JUMP JUMPDEST JUMPDEST MUL OR SWAP1 SSTORE POP PUSH2 0x1154 JUMP JUMPDEST PUSH1 0x7 SLOAD DUP2 LT ISZERO PUSH2 0x1128 JUMPI PUSH1 0x2 PUSH1 0x3 DUP2 GT ISZERO PUSH2 0x10A6 JUMPI PUSH2 0x10A5 PUSH2 0x1287 JUMP JUMPDEST JUMPDEST PUSH1 0x5 PUSH0 SWAP1 SLOAD SWAP1 PUSH2 0x100 EXP SWAP1 DIV PUSH1 0xFF AND PUSH1 0x3 DUP2 GT ISZERO PUSH2 0x10C7 JUMPI PUSH2 0x10C6 PUSH2 0x1287 JUMP JUMPDEST JUMPDEST EQ PUSH2 0x1123 JUMPI PUSH1 0x2 PUSH1 0x5 PUSH0 PUSH2 0x100 EXP DUP2 SLOAD DUP2 PUSH1 0xFF MUL NOT AND SWAP1 DUP4 PUSH1 0x3 DUP2 GT ISZERO PUSH2 0x10F1 JUMPI PUSH2 0x10F0 PUSH2 0x1287 JUMP JUMPDEST JUMPDEST MUL OR SWAP1 SSTORE POP PUSH32 0x3BCC93D35219AA0512D7C0D1CA10B0231F473E3D5F9396877D1B7215EE0AB3D5 PUSH1 0x40 MLOAD PUSH1 0x40 MLOAD DUP1 SWAP2 SUB SWAP1 LOG1 JUMPDEST PUSH2 0x1153 JUMP JUMPDEST PUSH1 0x3 PUSH1 0x5 PUSH0 PUSH2 0x100 EXP DUP2 SLOAD DUP2 PUSH1 0xFF MUL NOT AND SWAP1 DUP4 PUSH1 0x3 DUP2 GT ISZERO PUSH2 0x114D JUMPI PUSH2 0x114C PUSH2 0x1287 JUMP JUMPDEST JUMPDEST MUL OR SWAP1 SSTORE POP JUMPDEST JUMPDEST POP JUMPDEST JUMP JUMPDEST PUSH0 PUSH1 0x2 SLOAD DUP3 GT PUSH2 0x116A JUMPI PUSH0 SWAP1 POP PUSH2 0x1281 JUMP JUMPDEST PUSH0 PUSH20 0xFFFFFFFFFFFFFFFFFFFFFFFFFFFFFFFFFFFFFFFF AND PUSH1 0x1 PUSH0 SWAP1 SLOAD SWAP1 PUSH2 0x100 EXP SWAP1 DIV PUSH20 0xFFFFFFFFFFFFFFFFFFFFFFFFFFFFFFFFFFFFFFFF AND PUSH20 0xFFFFFFFFFFFFFFFFFFFFFFFFFFFFFFFFFFFFFFFF AND EQ PUSH2 0x1235 JUMPI PUSH1 0x2 SLOAD PUSH1 0x4 PUSH0 PUSH1 0x1 PUSH0 SWAP1 SLOAD SWAP1 PUSH2 0x100 EXP SWAP1 DIV PUSH20 0xFFFFFFFFFFFFFFFFFFFFFFFFFFFFFFFFFFFFFFFF AND PUSH20 0xFFFFFFFFFFFFFFFFFFFFFFFFFFFFFFFFFFFFFFFF AND PUSH20 0xFFFFFFFFFFFFFFFFFFFFFFFFFFFFFFFFFFFFFFFF AND DUP2 MSTORE PUSH1 0x20 ADD SWAP1 DUP2 MSTORE PUSH1 0x20 ADD PUSH0 KECCAK256 PUSH0 DUP3 DUP3 SLOAD PUSH2 0x122D SWAP2 SWAP1 PUSH2 0x1C26 JUMP JUMPDEST SWAP3 POP POP DUP2 SWAP1 SSTORE POP JUMPDEST DUP2 PUSH1 0x2 DUP2 SWAP1 SSTORE POP DUP3 PUSH1 0x1 PUSH0 PUSH2 0x100 EXP DUP2 SLOAD DUP2 PUSH20 0xFFFFFFFFFFFFFFFFFFFFFFFFFFFFFFFFFFFFFFFF MUL NOT AND SWAP1 DUP4 PUSH20 0xFFFFFFFFFFFFFFFFFFFFFFFFFFFFFFFFFFFFFFFF AND MUL OR SWAP1 SSTORE POP PUSH1 0x1 SWAP1 POP JUMPDEST SWAP3 SWAP2 POP POP JUMP JUMPDEST PUSH32 0x4E487B7100000000000000000000000000000000000000000000000000000000 PUSH0 MSTORE PUSH1 0x21 PUSH1 0x4 MSTORE PUSH1 0x24 PUSH0 REVERT JUMPDEST PUSH1 0x4 DUP2 LT PUSH2 0x12C5 JUMPI PUSH2 0x12C4 PUSH2 0x1287 JUMP JUMPDEST JUMPDEST POP JUMP JUMPDEST PUSH0 DUP2 SWAP1 POP PUSH2 0x12D5 DUP3 PUSH2 0x12B4 JUMP JUMPDEST SWAP2 SWAP1 POP JUMP JUMPDEST PUSH0 PUSH2 0x12E4 DUP3 PUSH2 0x12C8 JUMP JUMPDEST SWAP1 POP SWAP2 SWAP1 POP JUMP JUMPDEST PUSH2 0x12F4 DUP2 PUSH2 0x12DA JUMP JUMPDEST DUP3 MSTORE POP POP JUMP JUMPDEST PUSH0 PUSH1 0x20 DUP3 ADD SWAP1 POP PUSH2 0x130D PUSH0 DUP4 ADD DUP5 PUSH2 0x12EB JUMP JUMPDEST SWAP3 SWAP2 POP POP JUMP JUMPDEST PUSH0 DUP2 SWAP1 POP SWAP2 SWAP1 POP JUMP JUMPDEST PUSH2 0x1325 DUP2 PUSH2 0x1313 JUMP JUMPDEST DUP3 MSTORE POP POP JUMP JUMPDEST PUSH0 PUSH1 0x20 DUP3 ADD SWAP1 POP PUSH2 0x133E PUSH0 DUP4 ADD DUP5 PUSH2 0x131C JUMP JUMPDEST SWAP3 SWAP2 POP POP JUMP JUMPDEST PUSH0 DUP2 ISZERO ISZERO SWAP1 POP SWAP2 SWAP1 POP JUMP JUMPDEST PUSH2 0x1358 DUP2 PUSH2 0x1344 JUMP JUMPDEST DUP3 MSTORE POP POP JUMP JUMPDEST PUSH0 PUSH1 0x20 DUP3 ADD SWAP1 POP PUSH2 0x1371 PUSH0 DUP4 ADD DUP5 PUSH2 0x134F JUMP JUMPDEST SWAP3 SWAP2 POP POP JUMP JUMPDEST PUSH0 PUSH0 REVERT JUMPDEST PUSH0 PUSH20 0xFFFFFFFFFFFFFFFFFFFFFFFFFFFFFFFFFFFFFFFF DUP3 AND SWAP1 POP SWAP2 SWAP1 POP JUMP JUMPDEST PUSH0 PUSH2 0x13A4 DUP3 PUSH2 0x137B JUMP JUMPDEST SWAP1 POP SWAP2 SWAP1 POP JUMP JUMPDEST PUSH2 0x13B4 DUP2 PUSH2 0x139A JUMP JUMPDEST DUP2 EQ PUSH2 0x13BE JUMPI PUSH0 PUSH0 REVERT JUMPDEST POP JUMP JUMPDEST PUSH0 DUP2 CALLDATALOAD SWAP1 POP PUSH2 0x13CF DUP2 PUSH2 0x13AB JUMP JUMPDEST SWAP3 SWAP2 POP POP JUMP JUMPDEST PUSH0 PUSH1 0x20 DUP3 DUP5 SUB SLT ISZERO PUSH2 0x13EA JUMPI PUSH2 0x13E9 PUSH2 0x1377 JUMP JUMPDEST JUMPDEST PUSH0 PUSH2 0x13F7 DUP5 DUP3 DUP6 ADD PUSH2 0x13C1 JUMP JUMPDEST SWAP2 POP POP SWAP3 SWAP2 POP POP JUMP JUMPDEST PUSH0 PUSH2 0x140A DUP3 PUSH2 0x137B JUMP JUMPDEST SWAP1 POP SWAP2 SWAP1 POP JUMP JUMPDEST PUSH2 0x141A DUP2 PUSH2 0x1400 JUMP JUMPDEST DUP3 MSTORE POP POP JUMP JUMPDEST PUSH0 PUSH1 0x20 DUP3 ADD SWAP1 POP PUSH2 0x1433 PUSH0 DUP4 ADD DUP5 PUSH2 0x1411 JUMP JUMPDEST SWAP3 SWAP2 POP POP JUMP JUMPDEST PUSH2 0x1442 DUP2 PUSH2 0x1313 JUMP JUMPDEST DUP2 EQ PUSH2 0x144C JUMPI PUSH0 PUSH0 REVERT JUMPDEST POP JUMP JUMPDEST PUSH0 DUP2 CALLDATALOAD SWAP1 POP PUSH2 0x145D DUP2 PUSH2 0x1439 JUMP JUMPDEST SWAP3 SWAP2 POP POP JUMP JUMPDEST PUSH0 DUP2 SWAP1 POP SWAP2 SWAP1 POP JUMP JUMPDEST PUSH2 0x1475 DUP2 PUSH2 0x1463 JUMP JUMPDEST DUP2 EQ PUSH2 0x147F JUMPI PUSH0 PUSH0 REVERT JUMPDEST POP JUMP JUMPDEST PUSH0 DUP2 CALLDATALOAD SWAP1 POP PUSH2 0x1490 DUP2 PUSH2 0x146C JUMP JUMPDEST SWAP3 SWAP2 POP POP JUMP JUMPDEST PUSH0 PUSH0 PUSH1 0x40 DUP4 DUP6 SUB SLT ISZERO PUSH2 0x14AC JUMPI PUSH2 0x14AB PUSH2 0x1377 JUMP JUMPDEST JUMPDEST PUSH0 PUSH2 0x14B9 DUP6 DUP3 DUP7 ADD PUSH2 0x144F JUMP JUMPDEST SWAP3 POP POP PUSH1 0x20 PUSH2 0x14CA DUP6 DUP3 DUP7 ADD PUSH2 0x1482 JUMP JUMPDEST SWAP2 POP POP SWAP3 POP SWAP3 SWAP1 POP JUMP JUMPDEST PUSH2 0x14DD DUP2 PUSH2 0x1463 JUMP JUMPDEST DUP3 MSTORE POP POP JUMP JUMPDEST PUSH0 PUSH1 0x40 DUP3 ADD SWAP1 POP PUSH2 0x14F6 PUSH0 DUP4 ADD DUP6 PUSH2 0x14D4 JUMP JUMPDEST PUSH2 0x1503 PUSH1 0x20 DUP4 ADD DUP5 PUSH2 0x131C JUMP JUMPDEST SWAP4 SWAP3 POP POP POP JUMP JUMPDEST PUSH2 0x1513 DUP2 PUSH2 0x139A JUMP JUMPDEST DUP3 MSTORE POP POP JUMP JUMPDEST PUSH0 PUSH1 0x20 DUP3 ADD SWAP1 POP PUSH2 0x152C PUSH0 DUP4 ADD DUP5 PUSH2 0x150A JUMP JUMPDEST SWAP3 SWAP2 POP POP JUMP JUMPDEST PUSH0 PUSH1 0x20 DUP3 DUP5 SUB SLT ISZERO PUSH2 0x1547 JUMPI PUSH2 0x1546 PUSH2 0x1377 JUMP JUMPDEST JUMPDEST PUSH0 PUSH2 0x1554 DUP5 DUP3 DUP6 ADD PUSH2 0x1482 JUMP JUMPDEST SWAP2 POP POP SWAP3 SWAP2 POP POP JUMP JUMPDEST PUSH0 PUSH0 PUSH1 0x40 DUP4 DUP6 SUB SLT ISZERO PUSH2 0x1573 JUMPI PUSH2 0x1572 PUSH2 0x1377 JUMP JUMPDEST JUMPDEST PUSH0 PUSH2 0x1580 DUP6 DUP3 DUP7 ADD PUSH2 0x144F JUMP JUMPDEST SWAP3 POP POP PUSH1 0x20 PUSH2 0x1591 DUP6 DUP3 DUP7 ADD PUSH2 0x144F JUMP JUMPDEST SWAP2 POP POP SWAP3 POP SWAP3 SWAP1 POP JUMP JUMPDEST PUSH0 DUP3 DUP3 MSTORE PUSH1 0x20 DUP3 ADD SWAP1 POP SWAP3 SWAP2 POP POP JUMP JUMPDEST PUSH32 0x4F6E6C792062656E656669636961727900000000000000000000000000000000 PUSH0 DUP3 ADD MSTORE POP JUMP JUMPDEST PUSH0 PUSH2 0x15DF PUSH1 0x10 DUP4 PUSH2 0x159B JUMP JUMPDEST SWAP2 POP PUSH2 0x15EA DUP3 PUSH2 0x15AB JUMP JUMPDEST PUSH1 0x20 DUP3 ADD SWAP1 POP SWAP2 SWAP1 POP JUMP JUMPDEST PUSH0 PUSH1 0x20 DUP3 ADD SWAP1 POP DUP2 DUP2 SUB PUSH0 DUP4 ADD MSTORE PUSH2 0x160C DUP2 PUSH2 0x15D3 JUMP JUMPDEST SWAP1 POP SWAP2 SWAP1 POP JUMP JUMPDEST PUSH32 0x57726F6E67207068617365000000000000000000000000000000000000000000 PUSH0 DUP3 ADD MSTORE POP JUMP JUMPDEST PUSH0 PUSH2 0x1647 PUSH1 0xB DUP4 PUSH2 0x159B JUMP JUMPDEST SWAP2 POP PUSH2 0x1652 DUP3 PUSH2 0x1613 JUMP JUMPDEST PUSH1 0x20 DUP3 ADD SWAP1 POP SWAP2 SWAP1 POP JUMP JUMPDEST PUSH0 PUSH1 0x20 DUP3 ADD SWAP1 POP DUP2 DUP2 SUB PUSH0 DUP4 ADD MSTORE PUSH2 0x1674 DUP2 PUSH2 0x163B JUMP JUMPDEST SWAP1 POP SWAP2 SWAP1 POP JUMP JUMPDEST PUSH32 0x61756374696F6E456E6420616C72656164792063616C6C656400000000000000 PUSH0 DUP3 ADD MSTORE POP JUMP JUMPDEST PUSH0 PUSH2 0x16AF PUSH1 0x19 DUP4 PUSH2 0x159B JUMP JUMPDEST SWAP2 POP PUSH2 0x16BA DUP3 PUSH2 0x167B JUMP JUMPDEST PUSH1 0x20 DUP3 ADD SWAP1 POP SWAP2 SWAP1 POP JUMP JUMPDEST PUSH0 PUSH1 0x20 DUP3 ADD SWAP1 POP DUP2 DUP2 SUB PUSH0 DUP4 ADD MSTORE PUSH2 0x16DC DUP2 PUSH2 0x16A3 JUMP JUMPDEST SWAP1 POP SWAP2 SWAP1 POP JUMP JUMPDEST PUSH0 PUSH1 0x40 DUP3 ADD SWAP1 POP PUSH2 0x16F6 PUSH0 DUP4 ADD DUP6 PUSH2 0x150A JUMP JUMPDEST PUSH2 0x1703 PUSH1 0x20 DUP4 ADD DUP5 PUSH2 0x131C JUMP JUMPDEST SWAP4 SWAP3 POP POP POP JUMP JUMPDEST PUSH32 0x4E6F7468696E6720746F20776974686472617700000000000000000000000000 PUSH0 DUP3 ADD MSTORE POP JUMP JUMPDEST PUSH0 PUSH2 0x173E PUSH1 0x13 DUP4 PUSH2 0x159B JUMP JUMPDEST SWAP2 POP PUSH2 0x1749 DUP3 PUSH2 0x170A JUMP JUMPDEST PUSH1 0x20 DUP3 ADD SWAP1 POP SWAP2 SWAP1 POP JUMP JUMPDEST PUSH0 PUSH1 0x20 DUP3 ADD SWAP1 POP DUP2 DUP2 SUB PUSH0 DUP4 ADD MSTORE PUSH2 0x176B DUP2 PUSH2 0x1732 JUMP JUMPDEST SWAP1 POP SWAP2 SWAP1 POP JUMP JUMPDEST PUSH32 0x4E6F2062696420666F756E640000000000000000000000000000000000000000 PUSH0 DUP3 ADD MSTORE POP JUMP JUMPDEST PUSH0 PUSH2 0x17A6 PUSH1 0xC DUP4 PUSH2 0x159B JUMP JUMPDEST SWAP2 POP PUSH2 0x17B1 DUP3 PUSH2 0x1772 JUMP JUMPDEST PUSH1 0x20 DUP3 ADD SWAP1 POP SWAP2 SWAP1 POP JUMP JUMPDEST PUSH0 PUSH1 0x20 DUP3 ADD SWAP1 POP DUP2 DUP2 SUB PUSH0 DUP4 ADD MSTORE PUSH2 0x17D3 DUP2 PUSH2 0x179A JUMP JUMPDEST SWAP1 POP SWAP2 SWAP1 POP JUMP JUMPDEST PUSH0 DUP2 SWAP1 POP SWAP2 SWAP1 POP JUMP JUMPDEST PUSH2 0x17F4 PUSH2 0x17EF DUP3 PUSH2 0x1313 JUMP JUMPDEST PUSH2 0x17DA JUMP JUMPDEST DUP3 MSTORE POP POP JUMP JUMPDEST PUSH0 DUP2 SWAP1 POP SWAP2 SWAP1 POP JUMP JUMPDEST PUSH2 0x1814 PUSH2 0x180F DUP3 PUSH2 0x1463 JUMP JUMPDEST PUSH2 0x17FA JUMP JUMPDEST DUP3 MSTORE POP POP JUMP JUMPDEST PUSH0 PUSH2 0x1825 DUP3 DUP6 PUSH2 0x17E3 JUMP JUMPDEST PUSH1 0x20 DUP3 ADD SWAP2 POP PUSH2 0x1835 DUP3 DUP5 PUSH2 0x1803 JUMP JUMPDEST PUSH1 0x20 DUP3 ADD SWAP2 POP DUP2 SWAP1 POP SWAP4 SWAP3 POP POP POP JUMP JUMPDEST PUSH32 0x48617368206D69736D6174636800000000000000000000000000000000000000 PUSH0 DUP3 ADD MSTORE POP JUMP JUMPDEST PUSH0 PUSH2 0x1879 PUSH1 0xD DUP4 PUSH2 0x159B JUMP JUMPDEST SWAP2 POP PUSH2 0x1884 DUP3 PUSH2 0x1845 JUMP JUMPDEST PUSH1 0x20 DUP3 ADD SWAP1 POP SWAP2 SWAP1 POP JUMP JUMPDEST PUSH0 PUSH1 0x20 DUP3 ADD SWAP1 POP DUP2 DUP2 SUB PUSH0 DUP4 ADD MSTORE PUSH2 0x18A6 DUP2 PUSH2 0x186D JUMP JUMPDEST SWAP1 POP SWAP2 SWAP1 POP JUMP JUMPDEST PUSH32 0x4E487B7100000000000000000000000000000000000000000000000000000000 PUSH0 MSTORE PUSH1 0x11 PUSH1 0x4 MSTORE PUSH1 0x24 PUSH0 REVERT JUMPDEST PUSH0 PUSH2 0x18E4 DUP3 PUSH2 0x1313 JUMP JUMPDEST SWAP2 POP PUSH2 0x18EF DUP4 PUSH2 0x1313 JUMP JUMPDEST SWAP3 POP DUP3 DUP3 MUL PUSH2 0x18FD DUP2 PUSH2 0x1313 JUMP JUMPDEST SWAP2 POP DUP3 DUP3 DIV DUP5 EQ DUP4 ISZERO OR PUSH2 0x1914 JUMPI PUSH2 0x1913 PUSH2 0x18AD JUMP JUMPDEST JUMPDEST POP SWAP3 SWAP2 POP POP JUMP JUMPDEST PUSH0 PUSH2 0x1925 DUP3 PUSH2 0x1313 JUMP JUMPDEST SWAP2 POP PUSH2 0x1930 DUP4 PUSH2 0x1313 JUMP JUMPDEST SWAP3 POP DUP3 DUP3 SUB SWAP1 POP DUP2 DUP2 GT ISZERO PUSH2 0x1948 JUMPI PUSH2 0x1947 PUSH2 0x18AD JUMP JUMPDEST JUMPDEST SWAP3 SWAP2 POP POP JUMP JUMPDEST PUSH32 0x496E76616C696420626C696E6465642062696400000000000000000000000000 PUSH0 DUP3 ADD MSTORE POP JUMP JUMPDEST PUSH0 PUSH2 0x1982 PUSH1 0x13 DUP4 PUSH2 0x159B JUMP JUMPDEST SWAP2 POP PUSH2 0x198D DUP3 PUSH2 0x194E JUMP JUMPDEST PUSH1 0x20 DUP3 ADD SWAP1 POP SWAP2 SWAP1 POP JUMP JUMPDEST PUSH0 PUSH1 0x20 DUP3 ADD SWAP1 POP DUP2 DUP2 SUB PUSH0 DUP4 ADD MSTORE PUSH2 0x19AF DUP2 PUSH2 0x1976 JUMP JUMPDEST SWAP1 POP SWAP2 SWAP1 POP JUMP JUMPDEST PUSH32 0x42696420616C7265616479207375626D69747465640000000000000000000000 PUSH0 DUP3 ADD MSTORE POP JUMP JUMPDEST PUSH0 PUSH2 0x19EA PUSH1 0x15 DUP4 PUSH2 0x159B JUMP JUMPDEST SWAP2 POP PUSH2 0x19F5 DUP3 PUSH2 0x19B6 JUMP JUMPDEST PUSH1 0x20 DUP3 ADD SWAP1 POP SWAP2 SWAP1 POP JUMP JUMPDEST PUSH0 PUSH1 0x20 DUP3 ADD SWAP1 POP DUP2 DUP2 SUB PUSH0 DUP4 ADD MSTORE PUSH2 0x1A17 DUP2 PUSH2 0x19DE JUMP JUMPDEST SWAP1 POP SWAP2 SWAP1 POP JUMP JUMPDEST PUSH32 0x4465706F736974206D757374206265203E203000000000000000000000000000 PUSH0 DUP3 ADD MSTORE POP JUMP JUMPDEST PUSH0 PUSH2 0x1A52 PUSH1 0x13 DUP4 PUSH2 0x159B JUMP JUMPDEST SWAP2 POP PUSH2 0x1A5D DUP3 PUSH2 0x1A1E JUMP JUMPDEST PUSH1 0x20 DUP3 ADD SWAP1 POP SWAP2 SWAP1 POP JUMP JUMPDEST PUSH0 PUSH1 0x20 DUP3 ADD SWAP1 POP DUP2 DUP2 SUB PUSH0 DUP4 ADD MSTORE PUSH2 0x1A7F DUP2 PUSH2 0x1A46 JUMP JUMPDEST SWAP1 POP SWAP2 SWAP1 POP JUMP JUMPDEST PUSH32 0x54696D657320616C726561647920736574000000000000000000000000000000 PUSH0 DUP3 ADD MSTORE POP JUMP JUMPDEST PUSH0 PUSH2 0x1ABA PUSH1 0x11 DUP4 PUSH2 0x159B JUMP JUMPDEST SWAP2 POP PUSH2 0x1AC5 DUP3 PUSH2 0x1A86 JUMP JUMPDEST PUSH1 0x20 DUP3 ADD SWAP1 POP SWAP2 SWAP1 POP JUMP JUMPDEST PUSH0 PUSH1 0x20 DUP3 ADD SWAP1 POP DUP2 DUP2 SUB PUSH0 DUP4 ADD MSTORE PUSH2 0x1AE7 DUP2 PUSH2 0x1AAE JUMP JUMPDEST SWAP1 POP SWAP2 SWAP1 POP JUMP JUMPDEST PUSH32 0x416C726561647920737461727465640000000000000000000000000000000000 PUSH0 DUP3 ADD MSTORE POP JUMP JUMPDEST PUSH0 PUSH2 0x1B22 PUSH1 0xF DUP4 PUSH2 0x159B JUMP JUMPDEST SWAP2 POP PUSH2 0x1B2D DUP3 PUSH2 0x1AEE JUMP JUMPDEST PUSH1 0x20 DUP3 ADD SWAP1 POP SWAP2 SWAP1 POP JUMP JUMPDEST PUSH0 PUSH1 0x20 DUP3 ADD SWAP1 POP DUP2 DUP2 SUB PUSH0 DUP4 ADD MSTORE PUSH2 0x1B4F DUP2 PUSH2 0x1B16 JUMP JUMPDEST SWAP1 POP SWAP2 SWAP1 POP JUMP JUMPDEST PUSH32 0x62696464696E674475726174696F6E206D757374206265203E20300000000000 PUSH0 DUP3 ADD MSTORE POP JUMP JUMPDEST PUSH0 PUSH2 0x1B8A PUSH1 0x1B DUP4 PUSH2 0x159B JUMP JUMPDEST SWAP2 POP PUSH2 0x1B95 DUP3 PUSH2 0x1B56 JUMP JUMPDEST PUSH1 0x20 DUP3 ADD SWAP1 POP SWAP2 SWAP1 POP JUMP JUMPDEST PUSH0 PUSH1 0x20 DUP3 ADD SWAP1 POP DUP2 DUP2 SUB PUSH0 DUP4 ADD MSTORE PUSH2 0x1BB7 DUP2 PUSH2 0x1B7E JUMP JUMPDEST SWAP1 POP SWAP2 SWAP1 POP JUMP JUMPDEST PUSH32 0x72657665616C4475726174696F6E206D757374206265203E2030000000000000 PUSH0 DUP3 ADD MSTORE POP JUMP JUMPDEST PUSH0 PUSH2 0x1BF2 PUSH1 0x1A DUP4 PUSH2 0x159B JUMP JUMPDEST SWAP2 POP PUSH2 0x1BFD DUP3 PUSH2 0x1BBE JUMP JUMPDEST PUSH1 0x20 DUP3 ADD SWAP1 POP SWAP2 SWAP1 POP JUMP JUMPDEST PUSH0 PUSH1 0x20 DUP3 ADD SWAP1 POP DUP2 DUP2 SUB PUSH0 DUP4 ADD MSTORE PUSH2 0x1C1F DUP2 PUSH2 0x1BE6 JUMP JUMPDEST SWAP1 POP SWAP2 SWAP1 POP JUMP JUMPDEST PUSH0 PUSH2 0x1C30 DUP3 PUSH2 0x1313 JUMP JUMPDEST SWAP2 POP PUSH2 0x1C3B DUP4 PUSH2 0x1313 JUMP JUMPDEST SWAP3 POP DUP3 DUP3 ADD SWAP1 POP DUP1 DUP3 GT ISZERO PUSH2 0x1C53 JUMPI PUSH2 0x1C52 PUSH2 0x18AD JUMP JUMPDEST JUMPDEST SWAP3 SWAP2 POP POP JUMP JUMPDEST PUSH32 0x41756374696F6E206E6F74207374617274656420796574000000000000000000 PUSH0 DUP3 ADD MSTORE POP JUMP JUMPDEST PUSH0 PUSH2 0x1C8D PUSH1 0x17 DUP4 PUSH2 0x159B JUMP JUMPDEST SWAP2 POP PUSH2 0x1C98 DUP3 PUSH2 0x1C59 JUMP JUMPDEST PUSH1 0x20 DUP3 ADD SWAP1 POP SWAP2 SWAP1 POP JUMP JUMPDEST PUSH0 PUSH1 0x20 DUP3 ADD SWAP1 POP DUP2 DUP2 SUB PUSH0 DUP4 ADD MSTORE PUSH2 0x1CBA DUP2 PUSH2 0x1C81 JUMP JUMPDEST SWAP1 POP SWAP2 SWAP1 POP JUMP JUMPDEST PUSH32 0x52657665616C20706572696F64206E6F742079657420656E6465640000000000 PUSH0 DUP3 ADD MSTORE POP JUMP JUMPDEST PUSH0 PUSH2 0x1CF5 PUSH1 0x1B DUP4 PUSH2 0x159B JUMP JUMPDEST SWAP2 POP PUSH2 0x1D00 DUP3 PUSH2 0x1CC1 JUMP JUMPDEST PUSH1 0x20 DUP3 ADD SWAP1 POP SWAP2 SWAP1 POP JUMP JUMPDEST PUSH0 PUSH1 0x20 DUP3 ADD SWAP1 POP DUP2 DUP2 SUB PUSH0 DUP4 ADD MSTORE PUSH2 0x1D22 DUP2 PUSH2 0x1CE9 JUMP JUMPDEST SWAP1 POP SWAP2 SWAP1 POP JUMP JUMPDEST PUSH32 0x4E6F7468696E6720746F20726566756E64000000000000000000000000000000 PUSH0 DUP3 ADD MSTORE POP JUMP JUMPDEST PUSH0 PUSH2 0x1D5D PUSH1 0x11 DUP4 PUSH2 0x159B JUMP JUMPDEST SWAP2 POP PUSH2 0x1D68 DUP3 PUSH2 0x1D29 JUMP JUMPDEST PUSH1 0x20 DUP3 ADD SWAP1 POP SWAP2 SWAP1 POP JUMP JUMPDEST PUSH0 PUSH1 0x20 DUP3 ADD SWAP1 POP DUP2 DUP2 SUB PUSH0 DUP4 ADD MSTORE PUSH2 0x1D8A DUP2 PUSH2 0x1D51 JUMP JUMPDEST SWAP1 POP SWAP2 SWAP1 POP JUMP INVALID LOG2 PUSH5 0x6970667358 0x22 SLT KECCAK256 0x26 0x23 0xD5 CALLDATALOAD 0x2D PUSH5 0x63FC9FDA0 PUSH5 0x317A35306F OR DUP5 RETURNDATASIZE DUP16 CALL MOD ADD 0x2B RETF SAR LT 0xF7 0xC4 EXTDELEGATECALL 0xB8 PUSH5 0x736F6C6343 STOP ADDMOD 0x1F STOP CALLER "
				},
				"gasEstimates": {
					"creation": {
						"codeDepositCost": "1524600",
						"executionCost": "55937",
						"totalCost": "1580537"
					},
					"external": {
						"auctionEnd()": "40768",
						"beneficiary()": "2552",
						"bid(bytes32)": "38876",
						"biddingEndTime()": "2471",
						"bids(address)": "5049",
						"currentPhase()": "2578",
						"ended()": "2585",
						"highestBid()": "2491",
						"highestBidder()": "2553",
						"lateRefund()": "infinite",
						"pendingReturns(address)": "2892",
						"reveal(uint256,bytes32)": "infinite",
						"revealEndTime()": "2469",
						"setAuctionTimes(uint256,uint256)": "infinite",
						"timesSet()": "2488",
						"withdraw()": "infinite"
					},
					"internal": {
						"_placeBid(address,uint256)": "infinite",
						"_updatePhaseByTime()": "35931"
					}
				},
				"methodIdentifiers": {
					"auctionEnd()": "2a24f46c",
					"beneficiary()": "38af3eed",
					"bid(bytes32)": "957bb1e0",
					"biddingEndTime()": "1022eccb",
					"bids(address)": "62ea82db",
					"currentPhase()": "055ad42e",
					"ended()": "12fa6feb",
					"highestBid()": "d57bde79",
					"highestBidder()": "91f90157",
					"lateRefund()": "f5950a07",
					"pendingReturns(address)": "26b387bb",
					"reveal(uint256,bytes32)": "4036778f",
					"revealEndTime()": "d49dc1d8",
					"setAuctionTimes(uint256,uint256)": "9f1b2fc1",
					"timesSet()": "c16c917e",
					"withdraw()": "3ccfd60b"
				}
			},
			"storageLayout": {
				"storage": [
					{
						"astId": 13,
						"contract": "project(auction)/newBlindAuction.sol:BlindAuction",
						"label": "beneficiary",
						"offset": 0,
						"slot": "0",
						"type": "t_address_payable"
					},
					{
						"astId": 15,
						"contract": "project(auction)/newBlindAuction.sol:BlindAuction",
						"label": "highestBidder",
						"offset": 0,
						"slot": "1",
						"type": "t_address"
					},
					{
						"astId": 18,
						"contract": "project(auction)/newBlindAuction.sol:BlindAuction",
						"label": "highestBid",
						"offset": 0,
						"slot": "2",
						"type": "t_uint256"
					},
					{
						"astId": 23,
						"contract": "project(auction)/newBlindAuction.sol:BlindAuction",
						"label": "bids",
						"offset": 0,
						"slot": "3",
						"type": "t_mapping(t_address,t_struct(Bid)6_storage)"
					},
					{
						"astId": 27,
						"contract": "project(auction)/newBlindAuction.sol:BlindAuction",
						"label": "pendingReturns",
						"offset": 0,
						"slot": "4",
						"type": "t_mapping(t_address,t_uint256)"
					},
					{
						"astId": 32,
						"contract": "project(auction)/newBlindAuction.sol:BlindAuction",
						"label": "currentPhase",
						"offset": 0,
						"slot": "5",
						"type": "t_enum(Phase)11"
					},
					{
						"astId": 34,
						"contract": "project(auction)/newBlindAuction.sol:BlindAuction",
						"label": "ended",
						"offset": 1,
						"slot": "5",
						"type": "t_bool"
					},
					{
						"astId": 36,
						"contract": "project(auction)/newBlindAuction.sol:BlindAuction",
						"label": "biddingEndTime",
						"offset": 0,
						"slot": "6",
						"type": "t_uint256"
					},
					{
						"astId": 38,
						"contract": "project(auction)/newBlindAuction.sol:BlindAuction",
						"label": "revealEndTime",
						"offset": 0,
						"slot": "7",
						"type": "t_uint256"
					},
					{
						"astId": 40,
						"contract": "project(auction)/newBlindAuction.sol:BlindAuction",
						"label": "timesSet",
						"offset": 0,
						"slot": "8",
						"type": "t_bool"
					}
				],
				"types": {
					"t_address": {
						"encoding": "inplace",
						"label": "address",
						"numberOfBytes": "20"
					},
					"t_address_payable": {
						"encoding": "inplace",
						"label": "address payable",
						"numberOfBytes": "20"
					},
					"t_bool": {
						"encoding": "inplace",
						"label": "bool",
						"numberOfBytes": "1"
					},
					"t_bytes32": {
						"encoding": "inplace",
						"label": "bytes32",
						"numberOfBytes": "32"
					},
					"t_enum(Phase)11": {
						"encoding": "inplace",
						"label": "enum BlindAuction.Phase",
						"numberOfBytes": "1"
					},
					"t_mapping(t_address,t_struct(Bid)6_storage)": {
						"encoding": "mapping",
						"key": "t_address",
						"label": "mapping(address => struct BlindAuction.Bid)",
						"numberOfBytes": "32",
						"value": "t_struct(Bid)6_storage"
					},
					"t_mapping(t_address,t_uint256)": {
						"encoding": "mapping",
						"key": "t_address",
						"label": "mapping(address => uint256)",
						"numberOfBytes": "32",
						"value": "t_uint256"
					},
					"t_struct(Bid)6_storage": {
						"encoding": "inplace",
						"label": "struct BlindAuction.Bid",
						"members": [
							{
								"astId": 3,
								"contract": "project(auction)/newBlindAuction.sol:BlindAuction",
								"label": "blindedBid",
								"offset": 0,
								"slot": "0",
								"type": "t_bytes32"
							},
							{
								"astId": 5,
								"contract": "project(auction)/newBlindAuction.sol:BlindAuction",
								"label": "deposit",
								"offset": 0,
								"slot": "1",
								"type": "t_uint256"
							}
						],
						"numberOfBytes": "64"
					},
					"t_uint256": {
						"encoding": "inplace",
						"label": "uint256",
						"numberOfBytes": "32"
					}
				}
			},
			"userdoc": {
				"kind": "user",
				"methods": {},
				"version": 1
			}
		}
	}
}