{
	"week10(dapp)/dapp.sol": {
		"Ballot": {
			"abi": [
				{
					"inputs": [
						{
							"internalType": "uint256",
							"name": "numProposals",
							"type": "uint256"
						}
					],
					"stateMutability": "nonpayable",
					"type": "constructor"
				},
				{
					"inputs": [],
					"name": "chairperson",
					"outputs": [
						{
							"internalType": "address",
							"name": "",
							"type": "address"
						}
					],
					"stateMutability": "view",
					"type": "function"
				},
				{
					"inputs": [
						{
							"internalType": "uint256",
							"name": "",
							"type": "uint256"
						}
					],
					"name": "proposals",
					"outputs": [
						{
							"internalType": "uint256",
							"name": "voteCount",
							"type": "uint256"
						}
					],
					"stateMutability": "view",
					"type": "function"
				},
				{
					"inputs": [
						{
							"internalType": "address",
							"name": "voterAddr",
							"type": "address"
						}
					],
					"name": "register",
					"outputs": [],
					"stateMutability": "nonpayable",
					"type": "function"
				},
				{
					"inputs": [],
					"name": "reqWinner",
					"outputs": [
						{
							"internalType": "uint256",
							"name": "winningProposal",
							"type": "uint256"
						}
					],
					"stateMutability": "view",
					"type": "function"
				},
				{
					"inputs": [
						{
							"internalType": "uint256",
							"name": "proposal",
							"type": "uint256"
						}
					],
					"name": "vote",
					"outputs": [],
					"stateMutability": "nonpayable",
					"type": "function"
				},
				{
					"inputs": [
						{
							"internalType": "address",
							"name": "",
							"type": "address"
						}
					],
					"name": "voters",
					"outputs": [
						{
							"internalType": "uint256",
							"name": "weight",
							"type": "uint256"
						},
						{
							"internalType": "bool",
							"name": "voted",
							"type": "bool"
						},
						{
							"internalType": "uint256",
							"name": "vote",
							"type": "uint256"
						}
					],
					"stateMutability": "view",
					"type": "function"
				}
			],
			"devdoc": {
				"kind": "dev",
				"methods": {},
				"version": 1
			},
			"evm": {
				"assembly": "    /* \"week10(dapp)/dapp.sol\":72:2693  contract Ballot {... */\n  mstore(0x40, 0x80)\n    /* \"week10(dapp)/dapp.sol\":1075:1296  constructor(uint numProposals) {... */\n  callvalue\n  dup1\n  iszero\n  tag_1\n  jumpi\n  revert(0x00, 0x00)\ntag_1:\n  pop\n  mload(0x40)\n  sub(codesize, bytecodeSize)\n  dup1\n  bytecodeSize\n  dup4\n  codecopy\n  dup2\n  dup2\n  add\n  0x40\n  mstore\n  dup2\n  add\n  swap1\n  tag_2\n  swap2\n  swap1\n  tag_3\n  jump\t// in\ntag_2:\n    /* \"week10(dapp)/dapp.sol\":1131:1141  msg.sender */\n  caller\n    /* \"week10(dapp)/dapp.sol\":1117:1128  chairperson */\n  0x00\n  0x00\n    /* \"week10(dapp)/dapp.sol\":1117:1141  chairperson = msg.sender */\n  0x0100\n  exp\n  dup2\n  sload\n  dup2\n  0xffffffffffffffffffffffffffffffffffffffff\n  mul\n  not\n  and\n  swap1\n  dup4\n  0xffffffffffffffffffffffffffffffffffffffff\n  and\n  mul\n  or\n  swap1\n  sstore\n  pop\n    /* \"week10(dapp)/dapp.sol\":1187:1193  uint i */\n  0x00\n    /* \"week10(dapp)/dapp.sol\":1196:1197  0 */\n  0x00\n    /* \"week10(dapp)/dapp.sol\":1187:1197  uint i = 0 */\n  swap1\n  pop\n    /* \"week10(dapp)/dapp.sol\":1182:1289  for (uint i = 0; i < numProposals; i++) {... */\ntag_6:\n    /* \"week10(dapp)/dapp.sol\":1203:1215  numProposals */\n  dup2\n    /* \"week10(dapp)/dapp.sol\":1199:1200  i */\n  dup2\n    /* \"week10(dapp)/dapp.sol\":1199:1215  i < numProposals */\n  lt\n    /* \"week10(dapp)/dapp.sol\":1182:1289  for (uint i = 0; i < numProposals; i++) {... */\n  iszero\n  tag_7\n  jumpi\n    /* \"week10(dapp)/dapp.sol\":1237:1246  proposals */\n  0x02\n    /* \"week10(dapp)/dapp.sol\":1252:1276  Proposal({voteCount: 0}) */\n  mload(0x40)\n  dup1\n  0x20\n  add\n  0x40\n  mstore\n  dup1\n    /* \"week10(dapp)/dapp.sol\":1273:1274  0 */\n  0x00\n    /* \"week10(dapp)/dapp.sol\":1252:1276  Proposal({voteCount: 0}) */\n  dup2\n  mstore\n  pop\n    /* \"week10(dapp)/dapp.sol\":1237:1277  proposals.push(Proposal({voteCount: 0})) */\n  swap1\n  dup1\n  0x01\n  dup2\n  sload\n  add\n  dup1\n  dup3\n  sstore\n  dup1\n  swap2\n  pop\n  pop\n  0x01\n  swap1\n  sub\n  swap1\n  0x00\n  mstore\n  keccak256(0x00, 0x20)\n  add\n  0x00\n  swap1\n  swap2\n  swap1\n  swap2\n  swap1\n  swap2\n  pop\n  0x00\n  dup3\n  add\n  mload\n  dup2\n  0x00\n  add\n  sstore\n  pop\n  pop\n    /* \"week10(dapp)/dapp.sol\":1217:1220  i++ */\n  dup1\n  dup1\n  0x01\n  add\n  swap2\n  pop\n  pop\n    /* \"week10(dapp)/dapp.sol\":1182:1289  for (uint i = 0; i < numProposals; i++) {... */\n  jump(tag_6)\ntag_7:\n  pop\n    /* \"week10(dapp)/dapp.sol\":1075:1296  constructor(uint numProposals) {... */\n  pop\n    /* \"week10(dapp)/dapp.sol\":72:2693  contract Ballot {... */\n  jump(tag_10)\n    /* \"#utility.yul\":88:205   */\ntag_12:\n    /* \"#utility.yul\":197:198   */\n  0x00\n    /* \"#utility.yul\":194:195   */\n  0x00\n    /* \"#utility.yul\":187:199   */\n  revert\n    /* \"#utility.yul\":334:411   */\ntag_14:\n    /* \"#utility.yul\":371:378   */\n  0x00\n    /* \"#utility.yul\":400:405   */\n  dup2\n    /* \"#utility.yul\":389:405   */\n  swap1\n  pop\n    /* \"#utility.yul\":334:411   */\n  swap2\n  swap1\n  pop\n  jump\t// out\n    /* \"#utility.yul\":417:539   */\ntag_15:\n    /* \"#utility.yul\":490:514   */\n  tag_23\n    /* \"#utility.yul\":508:513   */\n  dup2\n    /* \"#utility.yul\":490:514   */\n  tag_14\n  jump\t// in\ntag_23:\n    /* \"#utility.yul\":483:488   */\n  dup2\n    /* \"#utility.yul\":480:515   */\n  eq\n    /* \"#utility.yul\":470:533   */\n  tag_24\n  jumpi\n    /* \"#utility.yul\":529:530   */\n  0x00\n    /* \"#utility.yul\":526:527   */\n  0x00\n    /* \"#utility.yul\":519:531   */\n  revert\n    /* \"#utility.yul\":470:533   */\ntag_24:\n    /* \"#utility.yul\":417:539   */\n  pop\n  jump\t// out\n    /* \"#utility.yul\":545:688   */\ntag_16:\n    /* \"#utility.yul\":602:607   */\n  0x00\n    /* \"#utility.yul\":633:639   */\n  dup2\n    /* \"#utility.yul\":627:640   */\n  mload\n    /* \"#utility.yul\":618:640   */\n  swap1\n  pop\n    /* \"#utility.yul\":649:682   */\n  tag_26\n    /* \"#utility.yul\":676:681   */\n  dup2\n    /* \"#utility.yul\":649:682   */\n  tag_15\n  jump\t// in\ntag_26:\n    /* \"#utility.yul\":545:688   */\n  swap3\n  swap2\n  pop\n  pop\n  jump\t// out\n    /* \"#utility.yul\":694:1045   */\ntag_3:\n    /* \"#utility.yul\":764:770   */\n  0x00\n    /* \"#utility.yul\":813:815   */\n  0x20\n    /* \"#utility.yul\":801:810   */\n  dup3\n    /* \"#utility.yul\":792:799   */\n  dup5\n    /* \"#utility.yul\":788:811   */\n  sub\n    /* \"#utility.yul\":784:816   */\n  slt\n    /* \"#utility.yul\":781:900   */\n  iszero\n  tag_28\n  jumpi\n    /* \"#utility.yul\":819:898   */\n  tag_29\n  tag_12\n  jump\t// in\ntag_29:\n    /* \"#utility.yul\":781:900   */\ntag_28:\n    /* \"#utility.yul\":939:940   */\n  0x00\n    /* \"#utility.yul\":964:1028   */\n  tag_30\n    /* \"#utility.yul\":1020:1027   */\n  dup5\n    /* \"#utility.yul\":1011:1017   */\n  dup3\n    /* \"#utility.yul\":1000:1009   */\n  dup6\n    /* \"#utility.yul\":996:1018   */\n  add\n    /* \"#utility.yul\":964:1028   */\n  tag_16\n  jump\t// in\ntag_30:\n    /* \"#utility.yul\":954:1028   */\n  swap2\n  pop\n    /* \"#utility.yul\":910:1038   */\n  pop\n    /* \"#utility.yul\":694:1045   */\n  swap3\n  swap2\n  pop\n  pop\n  jump\t// out\n    /* \"week10(dapp)/dapp.sol\":72:2693  contract Ballot {... */\ntag_10:\n  dataSize(sub_0)\n  dup1\n  dataOffset(sub_0)\n  0x00\n  codecopy\n  0x00\n  return\nstop\n\nsub_0: assembly {\n        /* \"week10(dapp)/dapp.sol\":72:2693  contract Ballot {... */\n      mstore(0x40, 0x80)\n      callvalue\n      dup1\n      iszero\n      tag_1\n      jumpi\n      revert(0x00, 0x00)\n    tag_1:\n      pop\n      jumpi(tag_2, lt(calldatasize, 0x04))\n      shr(0xe0, calldataload(0x00))\n      dup1\n      0x0121b93f\n      eq\n      tag_3\n      jumpi\n      dup1\n      0x013cf08b\n      eq\n      tag_4\n      jumpi\n      dup1\n      0x2e4176cf\n      eq\n      tag_5\n      jumpi\n      dup1\n      0x4420e486\n      eq\n      tag_6\n      jumpi\n      dup1\n      0x508b30c9\n      eq\n      tag_7\n      jumpi\n      dup1\n      0xa3ec138d\n      eq\n      tag_8\n      jumpi\n    tag_2:\n      revert(0x00, 0x00)\n        /* \"week10(dapp)/dapp.sol\":1908:2251  function vote(uint proposal) public validVoter {... */\n    tag_3:\n      tag_9\n      0x04\n      dup1\n      calldatasize\n      sub\n      dup2\n      add\n      swap1\n      tag_10\n      swap2\n      swap1\n      tag_11\n      jump\t// in\n    tag_10:\n      tag_12\n      jump\t// in\n    tag_9:\n      stop\n        /* \"week10(dapp)/dapp.sol\":546:573  Proposal[] public proposals */\n    tag_4:\n      tag_13\n      0x04\n      dup1\n      calldatasize\n      sub\n      dup2\n      add\n      swap1\n      tag_14\n      swap2\n      swap1\n      tag_11\n      jump\t// in\n    tag_14:\n      tag_15\n      jump\t// in\n    tag_13:\n      mload(0x40)\n      tag_16\n      swap2\n      swap1\n      tag_17\n      jump\t// in\n    tag_16:\n      mload(0x40)\n      dup1\n      swap2\n      sub\n      swap1\n      return\n        /* \"week10(dapp)/dapp.sol\":403:429  address public chairperson */\n    tag_5:\n      tag_18\n      tag_19\n      jump\t// in\n    tag_18:\n      mload(0x40)\n      tag_20\n      swap2\n      swap1\n      tag_21\n      jump\t// in\n    tag_20:\n      mload(0x40)\n      dup1\n      swap2\n      sub\n      swap1\n      return\n        /* \"week10(dapp)/dapp.sol\":1349:1851  function register(address voterAddr) public onlyChair {... */\n    tag_6:\n      tag_22\n      0x04\n      dup1\n      calldatasize\n      sub\n      dup2\n      add\n      swap1\n      tag_23\n      swap2\n      swap1\n      tag_24\n      jump\t// in\n    tag_23:\n      tag_25\n      jump\t// in\n    tag_22:\n      stop\n        /* \"week10(dapp)/dapp.sol\":2338:2690  function reqWinner() public view returns (uint winningProposal) {... */\n    tag_7:\n      tag_26\n      tag_27\n      jump\t// in\n    tag_26:\n      mload(0x40)\n      tag_28\n      swap2\n      swap1\n      tag_17\n      jump\t// in\n    tag_28:\n      mload(0x40)\n      dup1\n      swap2\n      sub\n      swap1\n      return\n        /* \"week10(dapp)/dapp.sol\":438:477  mapping(address => Voter) public voters */\n    tag_8:\n      tag_29\n      0x04\n      dup1\n      calldatasize\n      sub\n      dup2\n      add\n      swap1\n      tag_30\n      swap2\n      swap1\n      tag_24\n      jump\t// in\n    tag_30:\n      tag_31\n      jump\t// in\n    tag_29:\n      mload(0x40)\n      tag_32\n      swap4\n      swap3\n      swap2\n      swap1\n      tag_33\n      jump\t// in\n    tag_32:\n      mload(0x40)\n      dup1\n      swap2\n      sub\n      swap1\n      return\n        /* \"week10(dapp)/dapp.sol\":1908:2251  function vote(uint proposal) public validVoter {... */\n    tag_12:\n        /* \"week10(dapp)/dapp.sol\":971:972  0 */\n      0x00\n        /* \"week10(dapp)/dapp.sol\":943:949  voters */\n      0x01\n        /* \"week10(dapp)/dapp.sol\":943:961  voters[msg.sender] */\n      0x00\n        /* \"week10(dapp)/dapp.sol\":950:960  msg.sender */\n      caller\n        /* \"week10(dapp)/dapp.sol\":943:961  voters[msg.sender] */\n      0xffffffffffffffffffffffffffffffffffffffff\n      and\n      0xffffffffffffffffffffffffffffffffffffffff\n      and\n      dup2\n      mstore\n      0x20\n      add\n      swap1\n      dup2\n      mstore\n      0x20\n      add\n      0x00\n      keccak256\n        /* \"week10(dapp)/dapp.sol\":943:968  voters[msg.sender].weight */\n      0x00\n      add\n      sload\n        /* \"week10(dapp)/dapp.sol\":943:972  voters[msg.sender].weight > 0 */\n      gt\n        /* \"week10(dapp)/dapp.sol\":935:997  require(voters[msg.sender].weight > 0, \"Not registered voter\") */\n      tag_35\n      jumpi\n      mload(0x40)\n      0x08c379a000000000000000000000000000000000000000000000000000000000\n      dup2\n      mstore\n      0x04\n      add\n      tag_36\n      swap1\n      tag_37\n      jump\t// in\n    tag_36:\n      mload(0x40)\n      dup1\n      swap2\n      sub\n      swap1\n      revert\n    tag_35:\n        /* \"week10(dapp)/dapp.sol\":1975:1981  voters */\n      0x01\n        /* \"week10(dapp)/dapp.sol\":1975:1993  voters[msg.sender] */\n      0x00\n        /* \"week10(dapp)/dapp.sol\":1982:1992  msg.sender */\n      caller\n        /* \"week10(dapp)/dapp.sol\":1975:1993  voters[msg.sender] */\n      0xffffffffffffffffffffffffffffffffffffffff\n      and\n      0xffffffffffffffffffffffffffffffffffffffff\n      and\n      dup2\n      mstore\n      0x20\n      add\n      swap1\n      dup2\n      mstore\n      0x20\n      add\n      0x00\n      keccak256\n        /* \"week10(dapp)/dapp.sol\":1975:1999  voters[msg.sender].voted */\n      0x01\n      add\n      0x00\n      swap1\n      sload\n      swap1\n      0x0100\n      exp\n      swap1\n      div\n      0xff\n      and\n        /* \"week10(dapp)/dapp.sol\":1974:1999  !voters[msg.sender].voted */\n      iszero\n        /* \"week10(dapp)/dapp.sol\":1966:2017  require(!voters[msg.sender].voted, \"Already voted\") */\n      tag_39\n      jumpi\n      mload(0x40)\n      0x08c379a000000000000000000000000000000000000000000000000000000000\n      dup2\n      mstore\n      0x04\n      add\n      tag_40\n      swap1\n      tag_41\n      jump\t// in\n    tag_40:\n      mload(0x40)\n      dup1\n      swap2\n      sub\n      swap1\n      revert\n    tag_39:\n        /* \"week10(dapp)/dapp.sol\":2047:2056  proposals */\n      0x02\n        /* \"week10(dapp)/dapp.sol\":2047:2063  proposals.length */\n      dup1\n      sload\n      swap1\n      pop\n        /* \"week10(dapp)/dapp.sol\":2036:2044  proposal */\n      dup2\n        /* \"week10(dapp)/dapp.sol\":2036:2063  proposal < proposals.length */\n      lt\n        /* \"week10(dapp)/dapp.sol\":2028:2084  require(proposal < proposals.length, \"Invalid proposal\") */\n      tag_42\n      jumpi\n      mload(0x40)\n      0x08c379a000000000000000000000000000000000000000000000000000000000\n      dup2\n      mstore\n      0x04\n      add\n      tag_43\n      swap1\n      tag_44\n      jump\t// in\n    tag_43:\n      mload(0x40)\n      dup1\n      swap2\n      sub\n      swap1\n      revert\n    tag_42:\n        /* \"week10(dapp)/dapp.sol\":2124:2128  true */\n      0x01\n        /* \"week10(dapp)/dapp.sol\":2097:2103  voters */\n      dup1\n        /* \"week10(dapp)/dapp.sol\":2097:2115  voters[msg.sender] */\n      0x00\n        /* \"week10(dapp)/dapp.sol\":2104:2114  msg.sender */\n      caller\n        /* \"week10(dapp)/dapp.sol\":2097:2115  voters[msg.sender] */\n      0xffffffffffffffffffffffffffffffffffffffff\n      and\n      0xffffffffffffffffffffffffffffffffffffffff\n      and\n      dup2\n      mstore\n      0x20\n      add\n      swap1\n      dup2\n      mstore\n      0x20\n      add\n      0x00\n      keccak256\n        /* \"week10(dapp)/dapp.sol\":2097:2121  voters[msg.sender].voted */\n      0x01\n      add\n      0x00\n        /* \"week10(dapp)/dapp.sol\":2097:2128  voters[msg.sender].voted = true */\n      0x0100\n      exp\n      dup2\n      sload\n      dup2\n      0xff\n      mul\n      not\n      and\n      swap1\n      dup4\n      iszero\n      iszero\n      mul\n      or\n      swap1\n      sstore\n      pop\n        /* \"week10(dapp)/dapp.sol\":2166:2174  proposal */\n      dup1\n        /* \"week10(dapp)/dapp.sol\":2139:2145  voters */\n      0x01\n        /* \"week10(dapp)/dapp.sol\":2139:2157  voters[msg.sender] */\n      0x00\n        /* \"week10(dapp)/dapp.sol\":2146:2156  msg.sender */\n      caller\n        /* \"week10(dapp)/dapp.sol\":2139:2157  voters[msg.sender] */\n      0xffffffffffffffffffffffffffffffffffffffff\n      and\n      0xffffffffffffffffffffffffffffffffffffffff\n      and\n      dup2\n      mstore\n      0x20\n      add\n      swap1\n      dup2\n      mstore\n      0x20\n      add\n      0x00\n      keccak256\n        /* \"week10(dapp)/dapp.sol\":2139:2162  voters[msg.sender].vote */\n      0x02\n      add\n        /* \"week10(dapp)/dapp.sol\":2139:2174  voters[msg.sender].vote  = proposal */\n      dup2\n      swap1\n      sstore\n      pop\n        /* \"week10(dapp)/dapp.sol\":2218:2224  voters */\n      0x01\n        /* \"week10(dapp)/dapp.sol\":2218:2236  voters[msg.sender] */\n      0x00\n        /* \"week10(dapp)/dapp.sol\":2225:2235  msg.sender */\n      caller\n        /* \"week10(dapp)/dapp.sol\":2218:2236  voters[msg.sender] */\n      0xffffffffffffffffffffffffffffffffffffffff\n      and\n      0xffffffffffffffffffffffffffffffffffffffff\n      and\n      dup2\n      mstore\n      0x20\n      add\n      swap1\n      dup2\n      mstore\n      0x20\n      add\n      0x00\n      keccak256\n        /* \"week10(dapp)/dapp.sol\":2218:2243  voters[msg.sender].weight */\n      0x00\n      add\n      sload\n        /* \"week10(dapp)/dapp.sol\":2185:2194  proposals */\n      0x02\n        /* \"week10(dapp)/dapp.sol\":2195:2203  proposal */\n      dup3\n        /* \"week10(dapp)/dapp.sol\":2185:2204  proposals[proposal] */\n      dup2\n      sload\n      dup2\n      lt\n      tag_45\n      jumpi\n      tag_46\n      tag_47\n      jump\t// in\n    tag_46:\n    tag_45:\n      swap1\n      0x00\n      mstore\n      keccak256(0x00, 0x20)\n      add\n        /* \"week10(dapp)/dapp.sol\":2185:2214  proposals[proposal].voteCount */\n      0x00\n      add\n      0x00\n        /* \"week10(dapp)/dapp.sol\":2185:2243  proposals[proposal].voteCount += voters[msg.sender].weight */\n      dup3\n      dup3\n      sload\n      tag_49\n      swap2\n      swap1\n      tag_50\n      jump\t// in\n    tag_49:\n      swap3\n      pop\n      pop\n      dup2\n      swap1\n      sstore\n      pop\n        /* \"week10(dapp)/dapp.sol\":1908:2251  function vote(uint proposal) public validVoter {... */\n      pop\n      jump\t// out\n        /* \"week10(dapp)/dapp.sol\":546:573  Proposal[] public proposals */\n    tag_15:\n      0x02\n      dup2\n      dup2\n      sload\n      dup2\n      lt\n      tag_51\n      jumpi\n      0x00\n      dup1\n      revert\n    tag_51:\n      swap1\n      0x00\n      mstore\n      keccak256(0x00, 0x20)\n      add\n      0x00\n      swap2\n      pop\n      swap1\n      pop\n      dup1\n      0x00\n      add\n      sload\n      swap1\n      pop\n      dup2\n      jump\t// out\n        /* \"week10(dapp)/dapp.sol\":403:429  address public chairperson */\n    tag_19:\n      0x00\n      0x00\n      swap1\n      sload\n      swap1\n      0x0100\n      exp\n      swap1\n      div\n      0xffffffffffffffffffffffffffffffffffffffff\n      and\n      dup2\n      jump\t// out\n        /* \"week10(dapp)/dapp.sol\":1349:1851  function register(address voterAddr) public onlyChair {... */\n    tag_25:\n        /* \"week10(dapp)/dapp.sol\":733:744  chairperson */\n      0x00\n      0x00\n      swap1\n      sload\n      swap1\n      0x0100\n      exp\n      swap1\n      div\n      0xffffffffffffffffffffffffffffffffffffffff\n      and\n        /* \"week10(dapp)/dapp.sol\":719:744  msg.sender == chairperson */\n      0xffffffffffffffffffffffffffffffffffffffff\n      and\n        /* \"week10(dapp)/dapp.sol\":719:729  msg.sender */\n      caller\n        /* \"week10(dapp)/dapp.sol\":719:744  msg.sender == chairperson */\n      0xffffffffffffffffffffffffffffffffffffffff\n      and\n      eq\n        /* \"week10(dapp)/dapp.sol\":711:765  require(msg.sender == chairperson, \"Only chairperson\") */\n      tag_54\n      jumpi\n      mload(0x40)\n      0x08c379a000000000000000000000000000000000000000000000000000000000\n      dup2\n      mstore\n      0x04\n      add\n      tag_55\n      swap1\n      tag_56\n      jump\t// in\n    tag_55:\n      mload(0x40)\n      dup1\n      swap2\n      sub\n      swap1\n      revert\n    tag_54:\n        /* \"week10(dapp)/dapp.sol\":1538:1539  0 */\n      0x00\n        /* \"week10(dapp)/dapp.sol\":1510:1516  voters */\n      0x01\n        /* \"week10(dapp)/dapp.sol\":1510:1527  voters[voterAddr] */\n      0x00\n        /* \"week10(dapp)/dapp.sol\":1517:1526  voterAddr */\n      dup4\n        /* \"week10(dapp)/dapp.sol\":1510:1527  voters[voterAddr] */\n      0xffffffffffffffffffffffffffffffffffffffff\n      and\n      0xffffffffffffffffffffffffffffffffffffffff\n      and\n      dup2\n      mstore\n      0x20\n      add\n      swap1\n      dup2\n      mstore\n      0x20\n      add\n      0x00\n      keccak256\n        /* \"week10(dapp)/dapp.sol\":1510:1534  voters[voterAddr].weight */\n      0x00\n      add\n      sload\n        /* \"week10(dapp)/dapp.sol\":1510:1539  voters[voterAddr].weight == 0 */\n      eq\n        /* \"week10(dapp)/dapp.sol\":1502:1562  require(voters[voterAddr].weight == 0, \"Already registered\") */\n      tag_58\n      jumpi\n      mload(0x40)\n      0x08c379a000000000000000000000000000000000000000000000000000000000\n      dup2\n      mstore\n      0x04\n      add\n      tag_59\n      swap1\n      tag_60\n      jump\t// in\n    tag_59:\n      mload(0x40)\n      dup1\n      swap2\n      sub\n      swap1\n      revert\n    tag_58:\n        /* \"week10(dapp)/dapp.sol\":1582:1588  voters */\n      0x01\n        /* \"week10(dapp)/dapp.sol\":1582:1599  voters[voterAddr] */\n      0x00\n        /* \"week10(dapp)/dapp.sol\":1589:1598  voterAddr */\n      dup3\n        /* \"week10(dapp)/dapp.sol\":1582:1599  voters[voterAddr] */\n      0xffffffffffffffffffffffffffffffffffffffff\n      and\n      0xffffffffffffffffffffffffffffffffffffffff\n      and\n      dup2\n      mstore\n      0x20\n      add\n      swap1\n      dup2\n      mstore\n      0x20\n      add\n      0x00\n      keccak256\n        /* \"week10(dapp)/dapp.sol\":1582:1605  voters[voterAddr].voted */\n      0x01\n      add\n      0x00\n      swap1\n      sload\n      swap1\n      0x0100\n      exp\n      swap1\n      div\n      0xff\n      and\n        /* \"week10(dapp)/dapp.sol\":1581:1605  !voters[voterAddr].voted */\n      iszero\n        /* \"week10(dapp)/dapp.sol\":1573:1623  require(!voters[voterAddr].voted, \"Already voted\") */\n      tag_61\n      jumpi\n      mload(0x40)\n      0x08c379a000000000000000000000000000000000000000000000000000000000\n      dup2\n      mstore\n      0x04\n      add\n      tag_62\n      swap1\n      tag_41\n      jump\t// in\n    tag_62:\n      mload(0x40)\n      dup1\n      swap2\n      sub\n      swap1\n      revert\n    tag_61:\n        /* \"week10(dapp)/dapp.sol\":1653:1664  chairperson */\n      0x00\n      0x00\n      swap1\n      sload\n      swap1\n      0x0100\n      exp\n      swap1\n      div\n      0xffffffffffffffffffffffffffffffffffffffff\n      and\n        /* \"week10(dapp)/dapp.sol\":1640:1664  voterAddr == chairperson */\n      0xffffffffffffffffffffffffffffffffffffffff\n      and\n        /* \"week10(dapp)/dapp.sol\":1640:1649  voterAddr */\n      dup2\n        /* \"week10(dapp)/dapp.sol\":1640:1664  voterAddr == chairperson */\n      0xffffffffffffffffffffffffffffffffffffffff\n      and\n      sub\n        /* \"week10(dapp)/dapp.sol\":1636:1844  if (voterAddr == chairperson) {... */\n      tag_63\n      jumpi\n        /* \"week10(dapp)/dapp.sol\":1708:1709  2 */\n      0x02\n        /* \"week10(dapp)/dapp.sol\":1681:1687  voters */\n      0x01\n        /* \"week10(dapp)/dapp.sol\":1681:1698  voters[voterAddr] */\n      0x00\n        /* \"week10(dapp)/dapp.sol\":1688:1697  voterAddr */\n      dup4\n        /* \"week10(dapp)/dapp.sol\":1681:1698  voters[voterAddr] */\n      0xffffffffffffffffffffffffffffffffffffffff\n      and\n      0xffffffffffffffffffffffffffffffffffffffff\n      and\n      dup2\n      mstore\n      0x20\n      add\n      swap1\n      dup2\n      mstore\n      0x20\n      add\n      0x00\n      keccak256\n        /* \"week10(dapp)/dapp.sol\":1681:1705  voters[voterAddr].weight */\n      0x00\n      add\n        /* \"week10(dapp)/dapp.sol\":1681:1709  voters[voterAddr].weight = 2 */\n      dup2\n      swap1\n      sstore\n      pop\n        /* \"week10(dapp)/dapp.sol\":1636:1844  if (voterAddr == chairperson) {... */\n      jump(tag_64)\n    tag_63:\n        /* \"week10(dapp)/dapp.sol\":1795:1796  1 */\n      0x01\n        /* \"week10(dapp)/dapp.sol\":1768:1774  voters */\n      dup1\n        /* \"week10(dapp)/dapp.sol\":1768:1785  voters[voterAddr] */\n      0x00\n        /* \"week10(dapp)/dapp.sol\":1775:1784  voterAddr */\n      dup4\n        /* \"week10(dapp)/dapp.sol\":1768:1785  voters[voterAddr] */\n      0xffffffffffffffffffffffffffffffffffffffff\n      and\n      0xffffffffffffffffffffffffffffffffffffffff\n      and\n      dup2\n      mstore\n      0x20\n      add\n      swap1\n      dup2\n      mstore\n      0x20\n      add\n      0x00\n      keccak256\n        /* \"week10(dapp)/dapp.sol\":1768:1792  voters[voterAddr].weight */\n      0x00\n      add\n        /* \"week10(dapp)/dapp.sol\":1768:1796  voters[voterAddr].weight = 1 */\n      dup2\n      swap1\n      sstore\n      pop\n        /* \"week10(dapp)/dapp.sol\":1636:1844  if (voterAddr == chairperson) {... */\n    tag_64:\n        /* \"week10(dapp)/dapp.sol\":1349:1851  function register(address voterAddr) public onlyChair {... */\n      pop\n      jump\t// out\n        /* \"week10(dapp)/dapp.sol\":2338:2690  function reqWinner() public view returns (uint winningProposal) {... */\n    tag_27:\n        /* \"week10(dapp)/dapp.sol\":2380:2400  uint winningProposal */\n      0x00\n        /* \"week10(dapp)/dapp.sol\":2413:2434  uint winningVoteCount */\n      0x00\n        /* \"week10(dapp)/dapp.sol\":2437:2438  0 */\n      0x00\n        /* \"week10(dapp)/dapp.sol\":2413:2438  uint winningVoteCount = 0 */\n      swap1\n      pop\n        /* \"week10(dapp)/dapp.sol\":2456:2462  uint i */\n      0x00\n        /* \"week10(dapp)/dapp.sol\":2465:2466  0 */\n      0x00\n        /* \"week10(dapp)/dapp.sol\":2456:2466  uint i = 0 */\n      swap1\n      pop\n        /* \"week10(dapp)/dapp.sol\":2451:2683  for (uint i = 0; i < proposals.length; i++) {... */\n    tag_66:\n        /* \"week10(dapp)/dapp.sol\":2472:2481  proposals */\n      0x02\n        /* \"week10(dapp)/dapp.sol\":2472:2488  proposals.length */\n      dup1\n      sload\n      swap1\n      pop\n        /* \"week10(dapp)/dapp.sol\":2468:2469  i */\n      dup2\n        /* \"week10(dapp)/dapp.sol\":2468:2488  i < proposals.length */\n      lt\n        /* \"week10(dapp)/dapp.sol\":2451:2683  for (uint i = 0; i < proposals.length; i++) {... */\n      iszero\n      tag_67\n      jumpi\n        /* \"week10(dapp)/dapp.sol\":2539:2555  winningVoteCount */\n      dup2\n        /* \"week10(dapp)/dapp.sol\":2514:2523  proposals */\n      0x02\n        /* \"week10(dapp)/dapp.sol\":2524:2525  i */\n      dup3\n        /* \"week10(dapp)/dapp.sol\":2514:2526  proposals[i] */\n      dup2\n      sload\n      dup2\n      lt\n      tag_69\n      jumpi\n      tag_70\n      tag_47\n      jump\t// in\n    tag_70:\n    tag_69:\n      swap1\n      0x00\n      mstore\n      keccak256(0x00, 0x20)\n      add\n        /* \"week10(dapp)/dapp.sol\":2514:2536  proposals[i].voteCount */\n      0x00\n      add\n      sload\n        /* \"week10(dapp)/dapp.sol\":2514:2555  proposals[i].voteCount > winningVoteCount */\n      gt\n        /* \"week10(dapp)/dapp.sol\":2510:2672  if (proposals[i].voteCount > winningVoteCount) {... */\n      iszero\n      tag_72\n      jumpi\n        /* \"week10(dapp)/dapp.sol\":2595:2604  proposals */\n      0x02\n        /* \"week10(dapp)/dapp.sol\":2605:2606  i */\n      dup2\n        /* \"week10(dapp)/dapp.sol\":2595:2607  proposals[i] */\n      dup2\n      sload\n      dup2\n      lt\n      tag_73\n      jumpi\n      tag_74\n      tag_47\n      jump\t// in\n    tag_74:\n    tag_73:\n      swap1\n      0x00\n      mstore\n      keccak256(0x00, 0x20)\n      add\n        /* \"week10(dapp)/dapp.sol\":2595:2617  proposals[i].voteCount */\n      0x00\n      add\n      sload\n        /* \"week10(dapp)/dapp.sol\":2576:2617  winningVoteCount = proposals[i].voteCount */\n      swap2\n      pop\n        /* \"week10(dapp)/dapp.sol\":2655:2656  i */\n      dup1\n        /* \"week10(dapp)/dapp.sol\":2636:2656  winningProposal  = i */\n      swap3\n      pop\n        /* \"week10(dapp)/dapp.sol\":2510:2672  if (proposals[i].voteCount > winningVoteCount) {... */\n    tag_72:\n        /* \"week10(dapp)/dapp.sol\":2490:2493  i++ */\n      dup1\n      dup1\n      0x01\n      add\n      swap2\n      pop\n      pop\n        /* \"week10(dapp)/dapp.sol\":2451:2683  for (uint i = 0; i < proposals.length; i++) {... */\n      jump(tag_66)\n    tag_67:\n      pop\n        /* \"week10(dapp)/dapp.sol\":2402:2690  {... */\n      pop\n        /* \"week10(dapp)/dapp.sol\":2338:2690  function reqWinner() public view returns (uint winningProposal) {... */\n      swap1\n      jump\t// out\n        /* \"week10(dapp)/dapp.sol\":438:477  mapping(address => Voter) public voters */\n    tag_31:\n      mstore(0x20, 0x01)\n      dup1\n      0x00\n      mstore\n      keccak256(0x00, 0x40)\n      0x00\n      swap2\n      pop\n      swap1\n      pop\n      dup1\n      0x00\n      add\n      sload\n      swap1\n      dup1\n      0x01\n      add\n      0x00\n      swap1\n      sload\n      swap1\n      0x0100\n      exp\n      swap1\n      div\n      0xff\n      and\n      swap1\n      dup1\n      0x02\n      add\n      sload\n      swap1\n      pop\n      dup4\n      jump\t// out\n        /* \"#utility.yul\":88:205   */\n    tag_77:\n        /* \"#utility.yul\":197:198   */\n      0x00\n        /* \"#utility.yul\":194:195   */\n      0x00\n        /* \"#utility.yul\":187:199   */\n      revert\n        /* \"#utility.yul\":334:411   */\n    tag_79:\n        /* \"#utility.yul\":371:378   */\n      0x00\n        /* \"#utility.yul\":400:405   */\n      dup2\n        /* \"#utility.yul\":389:405   */\n      swap1\n      pop\n        /* \"#utility.yul\":334:411   */\n      swap2\n      swap1\n      pop\n      jump\t// out\n        /* \"#utility.yul\":417:539   */\n    tag_80:\n        /* \"#utility.yul\":490:514   */\n      tag_108\n        /* \"#utility.yul\":508:513   */\n      dup2\n        /* \"#utility.yul\":490:514   */\n      tag_79\n      jump\t// in\n    tag_108:\n        /* \"#utility.yul\":483:488   */\n      dup2\n        /* \"#utility.yul\":480:515   */\n      eq\n        /* \"#utility.yul\":470:533   */\n      tag_109\n      jumpi\n        /* \"#utility.yul\":529:530   */\n      0x00\n        /* \"#utility.yul\":526:527   */\n      0x00\n        /* \"#utility.yul\":519:531   */\n      revert\n        /* \"#utility.yul\":470:533   */\n    tag_109:\n        /* \"#utility.yul\":417:539   */\n      pop\n      jump\t// out\n        /* \"#utility.yul\":545:684   */\n    tag_81:\n        /* \"#utility.yul\":591:596   */\n      0x00\n        /* \"#utility.yul\":629:635   */\n      dup2\n        /* \"#utility.yul\":616:636   */\n      calldataload\n        /* \"#utility.yul\":607:636   */\n      swap1\n      pop\n        /* \"#utility.yul\":645:678   */\n      tag_111\n        /* \"#utility.yul\":672:677   */\n      dup2\n        /* \"#utility.yul\":645:678   */\n      tag_80\n      jump\t// in\n    tag_111:\n        /* \"#utility.yul\":545:684   */\n      swap3\n      swap2\n      pop\n      pop\n      jump\t// out\n        /* \"#utility.yul\":690:1019   */\n    tag_11:\n        /* \"#utility.yul\":749:755   */\n      0x00\n        /* \"#utility.yul\":798:800   */\n      0x20\n        /* \"#utility.yul\":786:795   */\n      dup3\n        /* \"#utility.yul\":777:784   */\n      dup5\n        /* \"#utility.yul\":773:796   */\n      sub\n        /* \"#utility.yul\":769:801   */\n      slt\n        /* \"#utility.yul\":766:885   */\n      iszero\n      tag_113\n      jumpi\n        /* \"#utility.yul\":804:883   */\n      tag_114\n      tag_77\n      jump\t// in\n    tag_114:\n        /* \"#utility.yul\":766:885   */\n    tag_113:\n        /* \"#utility.yul\":924:925   */\n      0x00\n        /* \"#utility.yul\":949:1002   */\n      tag_115\n        /* \"#utility.yul\":994:1001   */\n      dup5\n        /* \"#utility.yul\":985:991   */\n      dup3\n        /* \"#utility.yul\":974:983   */\n      dup6\n        /* \"#utility.yul\":970:992   */\n      add\n        /* \"#utility.yul\":949:1002   */\n      tag_81\n      jump\t// in\n    tag_115:\n        /* \"#utility.yul\":939:1002   */\n      swap2\n      pop\n        /* \"#utility.yul\":895:1012   */\n      pop\n        /* \"#utility.yul\":690:1019   */\n      swap3\n      swap2\n      pop\n      pop\n      jump\t// out\n        /* \"#utility.yul\":1025:1143   */\n    tag_82:\n        /* \"#utility.yul\":1112:1136   */\n      tag_117\n        /* \"#utility.yul\":1130:1135   */\n      dup2\n        /* \"#utility.yul\":1112:1136   */\n      tag_79\n      jump\t// in\n    tag_117:\n        /* \"#utility.yul\":1107:1110   */\n      dup3\n        /* \"#utility.yul\":1100:1137   */\n      mstore\n        /* \"#utility.yul\":1025:1143   */\n      pop\n      pop\n      jump\t// out\n        /* \"#utility.yul\":1149:1371   */\n    tag_17:\n        /* \"#utility.yul\":1242:1246   */\n      0x00\n        /* \"#utility.yul\":1280:1282   */\n      0x20\n        /* \"#utility.yul\":1269:1278   */\n      dup3\n        /* \"#utility.yul\":1265:1283   */\n      add\n        /* \"#utility.yul\":1257:1283   */\n      swap1\n      pop\n        /* \"#utility.yul\":1293:1364   */\n      tag_119\n        /* \"#utility.yul\":1361:1362   */\n      0x00\n        /* \"#utility.yul\":1350:1359   */\n      dup4\n        /* \"#utility.yul\":1346:1363   */\n      add\n        /* \"#utility.yul\":1337:1343   */\n      dup5\n        /* \"#utility.yul\":1293:1364   */\n      tag_82\n      jump\t// in\n    tag_119:\n        /* \"#utility.yul\":1149:1371   */\n      swap3\n      swap2\n      pop\n      pop\n      jump\t// out\n        /* \"#utility.yul\":1377:1503   */\n    tag_83:\n        /* \"#utility.yul\":1414:1421   */\n      0x00\n        /* \"#utility.yul\":1454:1496   */\n      0xffffffffffffffffffffffffffffffffffffffff\n        /* \"#utility.yul\":1447:1452   */\n      dup3\n        /* \"#utility.yul\":1443:1497   */\n      and\n        /* \"#utility.yul\":1432:1497   */\n      swap1\n      pop\n        /* \"#utility.yul\":1377:1503   */\n      swap2\n      swap1\n      pop\n      jump\t// out\n        /* \"#utility.yul\":1509:1605   */\n    tag_84:\n        /* \"#utility.yul\":1546:1553   */\n      0x00\n        /* \"#utility.yul\":1575:1599   */\n      tag_122\n        /* \"#utility.yul\":1593:1598   */\n      dup3\n        /* \"#utility.yul\":1575:1599   */\n      tag_83\n      jump\t// in\n    tag_122:\n        /* \"#utility.yul\":1564:1599   */\n      swap1\n      pop\n        /* \"#utility.yul\":1509:1605   */\n      swap2\n      swap1\n      pop\n      jump\t// out\n        /* \"#utility.yul\":1611:1729   */\n    tag_85:\n        /* \"#utility.yul\":1698:1722   */\n      tag_124\n        /* \"#utility.yul\":1716:1721   */\n      dup2\n        /* \"#utility.yul\":1698:1722   */\n      tag_84\n      jump\t// in\n    tag_124:\n        /* \"#utility.yul\":1693:1696   */\n      dup3\n        /* \"#utility.yul\":1686:1723   */\n      mstore\n        /* \"#utility.yul\":1611:1729   */\n      pop\n      pop\n      jump\t// out\n        /* \"#utility.yul\":1735:1957   */\n    tag_21:\n        /* \"#utility.yul\":1828:1832   */\n      0x00\n        /* \"#utility.yul\":1866:1868   */\n      0x20\n        /* \"#utility.yul\":1855:1864   */\n      dup3\n        /* \"#utility.yul\":1851:1869   */\n      add\n        /* \"#utility.yul\":1843:1869   */\n      swap1\n      pop\n        /* \"#utility.yul\":1879:1950   */\n      tag_126\n        /* \"#utility.yul\":1947:1948   */\n      0x00\n        /* \"#utility.yul\":1936:1945   */\n      dup4\n        /* \"#utility.yul\":1932:1949   */\n      add\n        /* \"#utility.yul\":1923:1929   */\n      dup5\n        /* \"#utility.yul\":1879:1950   */\n      tag_85\n      jump\t// in\n    tag_126:\n        /* \"#utility.yul\":1735:1957   */\n      swap3\n      swap2\n      pop\n      pop\n      jump\t// out\n        /* \"#utility.yul\":1963:2085   */\n    tag_86:\n        /* \"#utility.yul\":2036:2060   */\n      tag_128\n        /* \"#utility.yul\":2054:2059   */\n      dup2\n        /* \"#utility.yul\":2036:2060   */\n      tag_84\n      jump\t// in\n    tag_128:\n        /* \"#utility.yul\":2029:2034   */\n      dup2\n        /* \"#utility.yul\":2026:2061   */\n      eq\n        /* \"#utility.yul\":2016:2079   */\n      tag_129\n      jumpi\n        /* \"#utility.yul\":2075:2076   */\n      0x00\n        /* \"#utility.yul\":2072:2073   */\n      0x00\n        /* \"#utility.yul\":2065:2077   */\n      revert\n        /* \"#utility.yul\":2016:2079   */\n    tag_129:\n        /* \"#utility.yul\":1963:2085   */\n      pop\n      jump\t// out\n        /* \"#utility.yul\":2091:2230   */\n    tag_87:\n        /* \"#utility.yul\":2137:2142   */\n      0x00\n        /* \"#utility.yul\":2175:2181   */\n      dup2\n        /* \"#utility.yul\":2162:2182   */\n      calldataload\n        /* \"#utility.yul\":2153:2182   */\n      swap1\n      pop\n        /* \"#utility.yul\":2191:2224   */\n      tag_131\n        /* \"#utility.yul\":2218:2223   */\n      dup2\n        /* \"#utility.yul\":2191:2224   */\n      tag_86\n      jump\t// in\n    tag_131:\n        /* \"#utility.yul\":2091:2230   */\n      swap3\n      swap2\n      pop\n      pop\n      jump\t// out\n        /* \"#utility.yul\":2236:2565   */\n    tag_24:\n        /* \"#utility.yul\":2295:2301   */\n      0x00\n        /* \"#utility.yul\":2344:2346   */\n      0x20\n        /* \"#utility.yul\":2332:2341   */\n      dup3\n        /* \"#utility.yul\":2323:2330   */\n      dup5\n        /* \"#utility.yul\":2319:2342   */\n      sub\n        /* \"#utility.yul\":2315:2347   */\n      slt\n        /* \"#utility.yul\":2312:2431   */\n      iszero\n      tag_133\n      jumpi\n        /* \"#utility.yul\":2350:2429   */\n      tag_134\n      tag_77\n      jump\t// in\n    tag_134:\n        /* \"#utility.yul\":2312:2431   */\n    tag_133:\n        /* \"#utility.yul\":2470:2471   */\n      0x00\n        /* \"#utility.yul\":2495:2548   */\n      tag_135\n        /* \"#utility.yul\":2540:2547   */\n      dup5\n        /* \"#utility.yul\":2531:2537   */\n      dup3\n        /* \"#utility.yul\":2520:2529   */\n      dup6\n        /* \"#utility.yul\":2516:2538   */\n      add\n        /* \"#utility.yul\":2495:2548   */\n      tag_87\n      jump\t// in\n    tag_135:\n        /* \"#utility.yul\":2485:2548   */\n      swap2\n      pop\n        /* \"#utility.yul\":2441:2558   */\n      pop\n        /* \"#utility.yul\":2236:2565   */\n      swap3\n      swap2\n      pop\n      pop\n      jump\t// out\n        /* \"#utility.yul\":2571:2661   */\n    tag_88:\n        /* \"#utility.yul\":2605:2612   */\n      0x00\n        /* \"#utility.yul\":2648:2653   */\n      dup2\n        /* \"#utility.yul\":2641:2654   */\n      iszero\n        /* \"#utility.yul\":2634:2655   */\n      iszero\n        /* \"#utility.yul\":2623:2655   */\n      swap1\n      pop\n        /* \"#utility.yul\":2571:2661   */\n      swap2\n      swap1\n      pop\n      jump\t// out\n        /* \"#utility.yul\":2667:2776   */\n    tag_89:\n        /* \"#utility.yul\":2748:2769   */\n      tag_138\n        /* \"#utility.yul\":2763:2768   */\n      dup2\n        /* \"#utility.yul\":2748:2769   */\n      tag_88\n      jump\t// in\n    tag_138:\n        /* \"#utility.yul\":2743:2746   */\n      dup3\n        /* \"#utility.yul\":2736:2770   */\n      mstore\n        /* \"#utility.yul\":2667:2776   */\n      pop\n      pop\n      jump\t// out\n        /* \"#utility.yul\":2782:3212   */\n    tag_33:\n        /* \"#utility.yul\":2925:2929   */\n      0x00\n        /* \"#utility.yul\":2963:2965   */\n      0x60\n        /* \"#utility.yul\":2952:2961   */\n      dup3\n        /* \"#utility.yul\":2948:2966   */\n      add\n        /* \"#utility.yul\":2940:2966   */\n      swap1\n      pop\n        /* \"#utility.yul\":2976:3047   */\n      tag_140\n        /* \"#utility.yul\":3044:3045   */\n      0x00\n        /* \"#utility.yul\":3033:3042   */\n      dup4\n        /* \"#utility.yul\":3029:3046   */\n      add\n        /* \"#utility.yul\":3020:3026   */\n      dup7\n        /* \"#utility.yul\":2976:3047   */\n      tag_82\n      jump\t// in\n    tag_140:\n        /* \"#utility.yul\":3057:3123   */\n      tag_141\n        /* \"#utility.yul\":3119:3121   */\n      0x20\n        /* \"#utility.yul\":3108:3117   */\n      dup4\n        /* \"#utility.yul\":3104:3122   */\n      add\n        /* \"#utility.yul\":3095:3101   */\n      dup6\n        /* \"#utility.yul\":3057:3123   */\n      tag_89\n      jump\t// in\n    tag_141:\n        /* \"#utility.yul\":3133:3205   */\n      tag_142\n        /* \"#utility.yul\":3201:3203   */\n      0x40\n        /* \"#utility.yul\":3190:3199   */\n      dup4\n        /* \"#utility.yul\":3186:3204   */\n      add\n        /* \"#utility.yul\":3177:3183   */\n      dup5\n        /* \"#utility.yul\":3133:3205   */\n      tag_82\n      jump\t// in\n    tag_142:\n        /* \"#utility.yul\":2782:3212   */\n      swap5\n      swap4\n      pop\n      pop\n      pop\n      pop\n      jump\t// out\n        /* \"#utility.yul\":3218:3387   */\n    tag_90:\n        /* \"#utility.yul\":3302:3313   */\n      0x00\n        /* \"#utility.yul\":3336:3342   */\n      dup3\n        /* \"#utility.yul\":3331:3334   */\n      dup3\n        /* \"#utility.yul\":3324:3343   */\n      mstore\n        /* \"#utility.yul\":3376:3380   */\n      0x20\n        /* \"#utility.yul\":3371:3374   */\n      dup3\n        /* \"#utility.yul\":3367:3381   */\n      add\n        /* \"#utility.yul\":3352:3381   */\n      swap1\n      pop\n        /* \"#utility.yul\":3218:3387   */\n      swap3\n      swap2\n      pop\n      pop\n      jump\t// out\n        /* \"#utility.yul\":3393:3563   */\n    tag_91:\n        /* \"#utility.yul\":3533:3555   */\n      0x4e6f74207265676973746572656420766f746572000000000000000000000000\n        /* \"#utility.yul\":3529:3530   */\n      0x00\n        /* \"#utility.yul\":3521:3527   */\n      dup3\n        /* \"#utility.yul\":3517:3531   */\n      add\n        /* \"#utility.yul\":3510:3556   */\n      mstore\n        /* \"#utility.yul\":3393:3563   */\n      pop\n      jump\t// out\n        /* \"#utility.yul\":3569:3935   */\n    tag_92:\n        /* \"#utility.yul\":3711:3714   */\n      0x00\n        /* \"#utility.yul\":3732:3799   */\n      tag_146\n        /* \"#utility.yul\":3796:3798   */\n      0x14\n        /* \"#utility.yul\":3791:3794   */\n      dup4\n        /* \"#utility.yul\":3732:3799   */\n      tag_90\n      jump\t// in\n    tag_146:\n        /* \"#utility.yul\":3725:3799   */\n      swap2\n      pop\n        /* \"#utility.yul\":3808:3901   */\n      tag_147\n        /* \"#utility.yul\":3897:3900   */\n      dup3\n        /* \"#utility.yul\":3808:3901   */\n      tag_91\n      jump\t// in\n    tag_147:\n        /* \"#utility.yul\":3926:3928   */\n      0x20\n        /* \"#utility.yul\":3921:3924   */\n      dup3\n        /* \"#utility.yul\":3917:3929   */\n      add\n        /* \"#utility.yul\":3910:3929   */\n      swap1\n      pop\n        /* \"#utility.yul\":3569:3935   */\n      swap2\n      swap1\n      pop\n      jump\t// out\n        /* \"#utility.yul\":3941:4360   */\n    tag_37:\n        /* \"#utility.yul\":4107:4111   */\n      0x00\n        /* \"#utility.yul\":4145:4147   */\n      0x20\n        /* \"#utility.yul\":4134:4143   */\n      dup3\n        /* \"#utility.yul\":4130:4148   */\n      add\n        /* \"#utility.yul\":4122:4148   */\n      swap1\n      pop\n        /* \"#utility.yul\":4194:4203   */\n      dup2\n        /* \"#utility.yul\":4188:4192   */\n      dup2\n        /* \"#utility.yul\":4184:4204   */\n      sub\n        /* \"#utility.yul\":4180:4181   */\n      0x00\n        /* \"#utility.yul\":4169:4178   */\n      dup4\n        /* \"#utility.yul\":4165:4182   */\n      add\n        /* \"#utility.yul\":4158:4205   */\n      mstore\n        /* \"#utility.yul\":4222:4353   */\n      tag_149\n        /* \"#utility.yul\":4348:4352   */\n      dup2\n        /* \"#utility.yul\":4222:4353   */\n      tag_92\n      jump\t// in\n    tag_149:\n        /* \"#utility.yul\":4214:4353   */\n      swap1\n      pop\n        /* \"#utility.yul\":3941:4360   */\n      swap2\n      swap1\n      pop\n      jump\t// out\n        /* \"#utility.yul\":4366:4529   */\n    tag_93:\n        /* \"#utility.yul\":4506:4521   */\n      0x416c726561647920766f74656400000000000000000000000000000000000000\n        /* \"#utility.yul\":4502:4503   */\n      0x00\n        /* \"#utility.yul\":4494:4500   */\n      dup3\n        /* \"#utility.yul\":4490:4504   */\n      add\n        /* \"#utility.yul\":4483:4522   */\n      mstore\n        /* \"#utility.yul\":4366:4529   */\n      pop\n      jump\t// out\n        /* \"#utility.yul\":4535:4901   */\n    tag_94:\n        /* \"#utility.yul\":4677:4680   */\n      0x00\n        /* \"#utility.yul\":4698:4765   */\n      tag_152\n        /* \"#utility.yul\":4762:4764   */\n      0x0d\n        /* \"#utility.yul\":4757:4760   */\n      dup4\n        /* \"#utility.yul\":4698:4765   */\n      tag_90\n      jump\t// in\n    tag_152:\n        /* \"#utility.yul\":4691:4765   */\n      swap2\n      pop\n        /* \"#utility.yul\":4774:4867   */\n      tag_153\n        /* \"#utility.yul\":4863:4866   */\n      dup3\n        /* \"#utility.yul\":4774:4867   */\n      tag_93\n      jump\t// in\n    tag_153:\n        /* \"#utility.yul\":4892:4894   */\n      0x20\n        /* \"#utility.yul\":4887:4890   */\n      dup3\n        /* \"#utility.yul\":4883:4895   */\n      add\n        /* \"#utility.yul\":4876:4895   */\n      swap1\n      pop\n        /* \"#utility.yul\":4535:4901   */\n      swap2\n      swap1\n      pop\n      jump\t// out\n        /* \"#utility.yul\":4907:5326   */\n    tag_41:\n        /* \"#utility.yul\":5073:5077   */\n      0x00\n        /* \"#utility.yul\":5111:5113   */\n      0x20\n        /* \"#utility.yul\":5100:5109   */\n      dup3\n        /* \"#utility.yul\":5096:5114   */\n      add\n        /* \"#utility.yul\":5088:5114   */\n      swap1\n      pop\n        /* \"#utility.yul\":5160:5169   */\n      dup2\n        /* \"#utility.yul\":5154:5158   */\n      dup2\n        /* \"#utility.yul\":5150:5170   */\n      sub\n        /* \"#utility.yul\":5146:5147   */\n      0x00\n        /* \"#utility.yul\":5135:5144   */\n      dup4\n        /* \"#utility.yul\":5131:5148   */\n      add\n        /* \"#utility.yul\":5124:5171   */\n      mstore\n        /* \"#utility.yul\":5188:5319   */\n      tag_155\n        /* \"#utility.yul\":5314:5318   */\n      dup2\n        /* \"#utility.yul\":5188:5319   */\n      tag_94\n      jump\t// in\n    tag_155:\n        /* \"#utility.yul\":5180:5319   */\n      swap1\n      pop\n        /* \"#utility.yul\":4907:5326   */\n      swap2\n      swap1\n      pop\n      jump\t// out\n        /* \"#utility.yul\":5332:5498   */\n    tag_95:\n        /* \"#utility.yul\":5472:5490   */\n      0x496e76616c69642070726f706f73616c00000000000000000000000000000000\n        /* \"#utility.yul\":5468:5469   */\n      0x00\n        /* \"#utility.yul\":5460:5466   */\n      dup3\n        /* \"#utility.yul\":5456:5470   */\n      add\n        /* \"#utility.yul\":5449:5491   */\n      mstore\n        /* \"#utility.yul\":5332:5498   */\n      pop\n      jump\t// out\n        /* \"#utility.yul\":5504:5870   */\n    tag_96:\n        /* \"#utility.yul\":5646:5649   */\n      0x00\n        /* \"#utility.yul\":5667:5734   */\n      tag_158\n        /* \"#utility.yul\":5731:5733   */\n      0x10\n        /* \"#utility.yul\":5726:5729   */\n      dup4\n        /* \"#utility.yul\":5667:5734   */\n      tag_90\n      jump\t// in\n    tag_158:\n        /* \"#utility.yul\":5660:5734   */\n      swap2\n      pop\n        /* \"#utility.yul\":5743:5836   */\n      tag_159\n        /* \"#utility.yul\":5832:5835   */\n      dup3\n        /* \"#utility.yul\":5743:5836   */\n      tag_95\n      jump\t// in\n    tag_159:\n        /* \"#utility.yul\":5861:5863   */\n      0x20\n        /* \"#utility.yul\":5856:5859   */\n      dup3\n        /* \"#utility.yul\":5852:5864   */\n      add\n        /* \"#utility.yul\":5845:5864   */\n      swap1\n      pop\n        /* \"#utility.yul\":5504:5870   */\n      swap2\n      swap1\n      pop\n      jump\t// out\n        /* \"#utility.yul\":5876:6295   */\n    tag_44:\n        /* \"#utility.yul\":6042:6046   */\n      0x00\n        /* \"#utility.yul\":6080:6082   */\n      0x20\n        /* \"#utility.yul\":6069:6078   */\n      dup3\n        /* \"#utility.yul\":6065:6083   */\n      add\n        /* \"#utility.yul\":6057:6083   */\n      swap1\n      pop\n        /* \"#utility.yul\":6129:6138   */\n      dup2\n        /* \"#utility.yul\":6123:6127   */\n      dup2\n        /* \"#utility.yul\":6119:6139   */\n      sub\n        /* \"#utility.yul\":6115:6116   */\n      0x00\n        /* \"#utility.yul\":6104:6113   */\n      dup4\n        /* \"#utility.yul\":6100:6117   */\n      add\n        /* \"#utility.yul\":6093:6140   */\n      mstore\n        /* \"#utility.yul\":6157:6288   */\n      tag_161\n        /* \"#utility.yul\":6283:6287   */\n      dup2\n        /* \"#utility.yul\":6157:6288   */\n      tag_96\n      jump\t// in\n    tag_161:\n        /* \"#utility.yul\":6149:6288   */\n      swap1\n      pop\n        /* \"#utility.yul\":5876:6295   */\n      swap2\n      swap1\n      pop\n      jump\t// out\n        /* \"#utility.yul\":6301:6481   */\n    tag_47:\n        /* \"#utility.yul\":6349:6426   */\n      0x4e487b7100000000000000000000000000000000000000000000000000000000\n        /* \"#utility.yul\":6346:6347   */\n      0x00\n        /* \"#utility.yul\":6339:6427   */\n      mstore\n        /* \"#utility.yul\":6446:6450   */\n      0x32\n        /* \"#utility.yul\":6443:6444   */\n      0x04\n        /* \"#utility.yul\":6436:6451   */\n      mstore\n        /* \"#utility.yul\":6470:6474   */\n      0x24\n        /* \"#utility.yul\":6467:6468   */\n      0x00\n        /* \"#utility.yul\":6460:6475   */\n      revert\n        /* \"#utility.yul\":6487:6667   */\n    tag_97:\n        /* \"#utility.yul\":6535:6612   */\n      0x4e487b7100000000000000000000000000000000000000000000000000000000\n        /* \"#utility.yul\":6532:6533   */\n      0x00\n        /* \"#utility.yul\":6525:6613   */\n      mstore\n        /* \"#utility.yul\":6632:6636   */\n      0x11\n        /* \"#utility.yul\":6629:6630   */\n      0x04\n        /* \"#utility.yul\":6622:6637   */\n      mstore\n        /* \"#utility.yul\":6656:6660   */\n      0x24\n        /* \"#utility.yul\":6653:6654   */\n      0x00\n        /* \"#utility.yul\":6646:6661   */\n      revert\n        /* \"#utility.yul\":6673:6864   */\n    tag_50:\n        /* \"#utility.yul\":6713:6716   */\n      0x00\n        /* \"#utility.yul\":6732:6752   */\n      tag_165\n        /* \"#utility.yul\":6750:6751   */\n      dup3\n        /* \"#utility.yul\":6732:6752   */\n      tag_79\n      jump\t// in\n    tag_165:\n        /* \"#utility.yul\":6727:6752   */\n      swap2\n      pop\n        /* \"#utility.yul\":6766:6786   */\n      tag_166\n        /* \"#utility.yul\":6784:6785   */\n      dup4\n        /* \"#utility.yul\":6766:6786   */\n      tag_79\n      jump\t// in\n    tag_166:\n        /* \"#utility.yul\":6761:6786   */\n      swap3\n      pop\n        /* \"#utility.yul\":6809:6810   */\n      dup3\n        /* \"#utility.yul\":6806:6807   */\n      dup3\n        /* \"#utility.yul\":6802:6811   */\n      add\n        /* \"#utility.yul\":6795:6811   */\n      swap1\n      pop\n        /* \"#utility.yul\":6830:6833   */\n      dup1\n        /* \"#utility.yul\":6827:6828   */\n      dup3\n        /* \"#utility.yul\":6824:6834   */\n      gt\n        /* \"#utility.yul\":6821:6857   */\n      iszero\n      tag_167\n      jumpi\n        /* \"#utility.yul\":6837:6855   */\n      tag_168\n      tag_97\n      jump\t// in\n    tag_168:\n        /* \"#utility.yul\":6821:6857   */\n    tag_167:\n        /* \"#utility.yul\":6673:6864   */\n      swap3\n      swap2\n      pop\n      pop\n      jump\t// out\n        /* \"#utility.yul\":6870:7036   */\n    tag_98:\n        /* \"#utility.yul\":7010:7028   */\n      0x4f6e6c79206368616972706572736f6e00000000000000000000000000000000\n        /* \"#utility.yul\":7006:7007   */\n      0x00\n        /* \"#utility.yul\":6998:7004   */\n      dup3\n        /* \"#utility.yul\":6994:7008   */\n      add\n        /* \"#utility.yul\":6987:7029   */\n      mstore\n        /* \"#utility.yul\":6870:7036   */\n      pop\n      jump\t// out\n        /* \"#utility.yul\":7042:7408   */\n    tag_99:\n        /* \"#utility.yul\":7184:7187   */\n      0x00\n        /* \"#utility.yul\":7205:7272   */\n      tag_171\n        /* \"#utility.yul\":7269:7271   */\n      0x10\n        /* \"#utility.yul\":7264:7267   */\n      dup4\n        /* \"#utility.yul\":7205:7272   */\n      tag_90\n      jump\t// in\n    tag_171:\n        /* \"#utility.yul\":7198:7272   */\n      swap2\n      pop\n        /* \"#utility.yul\":7281:7374   */\n      tag_172\n        /* \"#utility.yul\":7370:7373   */\n      dup3\n        /* \"#utility.yul\":7281:7374   */\n      tag_98\n      jump\t// in\n    tag_172:\n        /* \"#utility.yul\":7399:7401   */\n      0x20\n        /* \"#utility.yul\":7394:7397   */\n      dup3\n        /* \"#utility.yul\":7390:7402   */\n      add\n        /* \"#utility.yul\":7383:7402   */\n      swap1\n      pop\n        /* \"#utility.yul\":7042:7408   */\n      swap2\n      swap1\n      pop\n      jump\t// out\n        /* \"#utility.yul\":7414:7833   */\n    tag_56:\n        /* \"#utility.yul\":7580:7584   */\n      0x00\n        /* \"#utility.yul\":7618:7620   */\n      0x20\n        /* \"#utility.yul\":7607:7616   */\n      dup3\n        /* \"#utility.yul\":7603:7621   */\n      add\n        /* \"#utility.yul\":7595:7621   */\n      swap1\n      pop\n        /* \"#utility.yul\":7667:7676   */\n      dup2\n        /* \"#utility.yul\":7661:7665   */\n      dup2\n        /* \"#utility.yul\":7657:7677   */\n      sub\n        /* \"#utility.yul\":7653:7654   */\n      0x00\n        /* \"#utility.yul\":7642:7651   */\n      dup4\n        /* \"#utility.yul\":7638:7655   */\n      add\n        /* \"#utility.yul\":7631:7678   */\n      mstore\n        /* \"#utility.yul\":7695:7826   */\n      tag_174\n        /* \"#utility.yul\":7821:7825   */\n      dup2\n        /* \"#utility.yul\":7695:7826   */\n      tag_99\n      jump\t// in\n    tag_174:\n        /* \"#utility.yul\":7687:7826   */\n      swap1\n      pop\n        /* \"#utility.yul\":7414:7833   */\n      swap2\n      swap1\n      pop\n      jump\t// out\n        /* \"#utility.yul\":7839:8007   */\n    tag_100:\n        /* \"#utility.yul\":7979:7999   */\n      0x416c726561647920726567697374657265640000000000000000000000000000\n        /* \"#utility.yul\":7975:7976   */\n      0x00\n        /* \"#utility.yul\":7967:7973   */\n      dup3\n        /* \"#utility.yul\":7963:7977   */\n      add\n        /* \"#utility.yul\":7956:8000   */\n      mstore\n        /* \"#utility.yul\":7839:8007   */\n      pop\n      jump\t// out\n        /* \"#utility.yul\":8013:8379   */\n    tag_101:\n        /* \"#utility.yul\":8155:8158   */\n      0x00\n        /* \"#utility.yul\":8176:8243   */\n      tag_177\n        /* \"#utility.yul\":8240:8242   */\n      0x12\n        /* \"#utility.yul\":8235:8238   */\n      dup4\n        /* \"#utility.yul\":8176:8243   */\n      tag_90\n      jump\t// in\n    tag_177:\n        /* \"#utility.yul\":8169:8243   */\n      swap2\n      pop\n        /* \"#utility.yul\":8252:8345   */\n      tag_178\n        /* \"#utility.yul\":8341:8344   */\n      dup3\n        /* \"#utility.yul\":8252:8345   */\n      tag_100\n      jump\t// in\n    tag_178:\n        /* \"#utility.yul\":8370:8372   */\n      0x20\n        /* \"#utility.yul\":8365:8368   */\n      dup3\n        /* \"#utility.yul\":8361:8373   */\n      add\n        /* \"#utility.yul\":8354:8373   */\n      swap1\n      pop\n        /* \"#utility.yul\":8013:8379   */\n      swap2\n      swap1\n      pop\n      jump\t// out\n        /* \"#utility.yul\":8385:8804   */\n    tag_60:\n        /* \"#utility.yul\":8551:8555   */\n      0x00\n        /* \"#utility.yul\":8589:8591   */\n      0x20\n        /* \"#utility.yul\":8578:8587   */\n      dup3\n        /* \"#utility.yul\":8574:8592   */\n      add\n        /* \"#utility.yul\":8566:8592   */\n      swap1\n      pop\n        /* \"#utility.yul\":8638:8647   */\n      dup2\n        /* \"#utility.yul\":8632:8636   */\n      dup2\n        /* \"#utility.yul\":8628:8648   */\n      sub\n        /* \"#utility.yul\":8624:8625   */\n      0x00\n        /* \"#utility.yul\":8613:8622   */\n      dup4\n        /* \"#utility.yul\":8609:8626   */\n      add\n        /* \"#utility.yul\":8602:8649   */\n      mstore\n        /* \"#utility.yul\":8666:8797   */\n      tag_180\n        /* \"#utility.yul\":8792:8796   */\n      dup2\n        /* \"#utility.yul\":8666:8797   */\n      tag_101\n      jump\t// in\n    tag_180:\n        /* \"#utility.yul\":8658:8797   */\n      swap1\n      pop\n        /* \"#utility.yul\":8385:8804   */\n      swap2\n      swap1\n      pop\n      jump\t// out\n\n    auxdata: 0xa2646970667358221220dadde9f0755ebe502ec9d28cea450f012dfed701ae05b09b84215ae888949e6e64736f6c634300081e0033\n}\n",
				"bytecode": {
					"linkReferences": {},
					"object": "608060405234801561000f575f5ffd5b50604051610caf380380610caf83398181016040528101906100319190610105565b335f5f6101000a81548173ffffffffffffffffffffffffffffffffffffffff021916908373ffffffffffffffffffffffffffffffffffffffff1602179055505f5f90505b818110156100c757600260405180602001604052805f815250908060018154018082558091505060019003905f5260205f20015f909190919091505f820151815f015550508080600101915050610075565b5050610130565b5f5ffd5b5f819050919050565b6100e4816100d2565b81146100ee575f5ffd5b50565b5f815190506100ff816100db565b92915050565b5f6020828403121561011a576101196100ce565b5b5f610127848285016100f1565b91505092915050565b610b728061013d5f395ff3fe608060405234801561000f575f5ffd5b5060043610610060575f3560e01c80630121b93f14610064578063013cf08b146100805780632e4176cf146100b05780634420e486146100ce578063508b30c9146100ea578063a3ec138d14610108575b5f5ffd5b61007e60048036038101906100799190610748565b61013a565b005b61009a60048036038101906100959190610748565b6103a1565b6040516100a79190610782565b60405180910390f35b6100b86103c6565b6040516100c591906107da565b60405180910390f35b6100e860048036038101906100e3919061081d565b6103ea565b005b6100f261066b565b6040516100ff9190610782565b60405180910390f35b610122600480360381019061011d919061081d565b6106df565b60405161013193929190610862565b60405180910390f35b5f60015f3373ffffffffffffffffffffffffffffffffffffffff1673ffffffffffffffffffffffffffffffffffffffff1681526020019081526020015f205f0154116101bb576040517f08c379a00000000000000000000000000000000000000000000000000000000081526004016101b2906108f1565b60405180910390fd5b60015f3373ffffffffffffffffffffffffffffffffffffffff1673ffffffffffffffffffffffffffffffffffffffff1681526020019081526020015f206001015f9054906101000a900460ff1615610248576040517f08c379a000000000000000000000000000000000000000000000000000000000815260040161023f90610959565b60405180910390fd5b600280549050811061028f576040517f08c379a0000000000000000000000000000000000000000000000000000000008152600401610286906109c1565b60405180910390fd5b6001805f3373ffffffffffffffffffffffffffffffffffffffff1673ffffffffffffffffffffffffffffffffffffffff1681526020019081526020015f206001015f6101000a81548160ff0219169083151502179055508060015f3373ffffffffffffffffffffffffffffffffffffffff1673ffffffffffffffffffffffffffffffffffffffff1681526020019081526020015f206002018190555060015f3373ffffffffffffffffffffffffffffffffffffffff1673ffffffffffffffffffffffffffffffffffffffff1681526020019081526020015f205f01546002828154811061037f5761037e6109df565b5b905f5260205f20015f015f8282546103979190610a39565b9250508190555050565b600281815481106103b0575f80fd5b905f5260205f20015f91509050805f0154905081565b5f5f9054906101000a900473ffffffffffffffffffffffffffffffffffffffff1681565b5f5f9054906101000a900473ffffffffffffffffffffffffffffffffffffffff1673ffffffffffffffffffffffffffffffffffffffff163373ffffffffffffffffffffffffffffffffffffffff1614610478576040517f08c379a000000000000000000000000000000000000000000000000000000000815260040161046f90610ab6565b60405180910390fd5b5f60015f8373ffffffffffffffffffffffffffffffffffffffff1673ffffffffffffffffffffffffffffffffffffffff1681526020019081526020015f205f0154146104f9576040517f08c379a00000000000000000000000000000000000000000000000000000000081526004016104f090610b1e565b60405180910390fd5b60015f8273ffffffffffffffffffffffffffffffffffffffff1673ffffffffffffffffffffffffffffffffffffffff1681526020019081526020015f206001015f9054906101000a900460ff1615610586576040517f08c379a000000000000000000000000000000000000000000000000000000000815260040161057d90610959565b60405180910390fd5b5f5f9054906101000a900473ffffffffffffffffffffffffffffffffffffffff1673ffffffffffffffffffffffffffffffffffffffff168173ffffffffffffffffffffffffffffffffffffffff160361062357600260015f8373ffffffffffffffffffffffffffffffffffffffff1673ffffffffffffffffffffffffffffffffffffffff1681526020019081526020015f205f0181905550610668565b6001805f8373ffffffffffffffffffffffffffffffffffffffff1673ffffffffffffffffffffffffffffffffffffffff1681526020019081526020015f205f01819055505b50565b5f5f5f90505f5f90505b6002805490508110156106da578160028281548110610697576106966109df565b5b905f5260205f20015f015411156106cd57600281815481106106bc576106bb6109df565b5b905f5260205f20015f015491508092505b8080600101915050610675565b505090565b6001602052805f5260405f205f91509050805f015490806001015f9054906101000a900460ff16908060020154905083565b5f5ffd5b5f819050919050565b61072781610715565b8114610731575f5ffd5b50565b5f813590506107428161071e565b92915050565b5f6020828403121561075d5761075c610711565b5b5f61076a84828501610734565b91505092915050565b61077c81610715565b82525050565b5f6020820190506107955f830184610773565b92915050565b5f73ffffffffffffffffffffffffffffffffffffffff82169050919050565b5f6107c48261079b565b9050919050565b6107d4816107ba565b82525050565b5f6020820190506107ed5f8301846107cb565b92915050565b6107fc816107ba565b8114610806575f5ffd5b50565b5f81359050610817816107f3565b92915050565b5f6020828403121561083257610831610711565b5b5f61083f84828501610809565b91505092915050565b5f8115159050919050565b61085c81610848565b82525050565b5f6060820190506108755f830186610773565b6108826020830185610853565b61088f6040830184610773565b949350505050565b5f82825260208201905092915050565b7f4e6f74207265676973746572656420766f7465720000000000000000000000005f82015250565b5f6108db601483610897565b91506108e6826108a7565b602082019050919050565b5f6020820190508181035f830152610908816108cf565b9050919050565b7f416c726561647920766f746564000000000000000000000000000000000000005f82015250565b5f610943600d83610897565b915061094e8261090f565b602082019050919050565b5f6020820190508181035f83015261097081610937565b9050919050565b7f496e76616c69642070726f706f73616c000000000000000000000000000000005f82015250565b5f6109ab601083610897565b91506109b682610977565b602082019050919050565b5f6020820190508181035f8301526109d88161099f565b9050919050565b7f4e487b71000000000000000000000000000000000000000000000000000000005f52603260045260245ffd5b7f4e487b71000000000000000000000000000000000000000000000000000000005f52601160045260245ffd5b5f610a4382610715565b9150610a4e83610715565b9250828201905080821115610a6657610a65610a0c565b5b92915050565b7f4f6e6c79206368616972706572736f6e000000000000000000000000000000005f82015250565b5f610aa0601083610897565b9150610aab82610a6c565b602082019050919050565b5f6020820190508181035f830152610acd81610a94565b9050919050565b7f416c7265616479207265676973746572656400000000000000000000000000005f82015250565b5f610b08601283610897565b9150610b1382610ad4565b602082019050919050565b5f6020820190508181035f830152610b3581610afc565b905091905056fea2646970667358221220dadde9f0755ebe502ec9d28cea450f012dfed701ae05b09b84215ae888949e6e64736f6c634300081e0033",
					"opcodes": "PUSH1 0x80 PUSH1 0x40 MSTORE CALLVALUE DUP1 ISZERO PUSH2 0xF JUMPI PUSH0 PUSH0 REVERT JUMPDEST POP PUSH1 0x40 MLOAD PUSH2 0xCAF CODESIZE SUB DUP1 PUSH2 0xCAF DUP4 CODECOPY DUP2 DUP2 ADD PUSH1 0x40 MSTORE DUP2 ADD SWAP1 PUSH2 0x31 SWAP2 SWAP1 PUSH2 0x105 JUMP JUMPDEST CALLER PUSH0 PUSH0 PUSH2 0x100 EXP DUP2 SLOAD DUP2 PUSH20 0xFFFFFFFFFFFFFFFFFFFFFFFFFFFFFFFFFFFFFFFF MUL NOT AND SWAP1 DUP4 PUSH20 0xFFFFFFFFFFFFFFFFFFFFFFFFFFFFFFFFFFFFFFFF AND MUL OR SWAP1 SSTORE POP PUSH0 PUSH0 SWAP1 POP JUMPDEST DUP2 DUP2 LT ISZERO PUSH2 0xC7 JUMPI PUSH1 0x2 PUSH1 0x40 MLOAD DUP1 PUSH1 0x20 ADD PUSH1 0x40 MSTORE DUP1 PUSH0 DUP2 MSTORE POP SWAP1 DUP1 PUSH1 0x1 DUP2 SLOAD ADD DUP1 DUP3 SSTORE DUP1 SWAP2 POP POP PUSH1 0x1 SWAP1 SUB SWAP1 PUSH0 MSTORE PUSH1 0x20 PUSH0 KECCAK256 ADD PUSH0 SWAP1 SWAP2 SWAP1 SWAP2 SWAP1 SWAP2 POP PUSH0 DUP3 ADD MLOAD DUP2 PUSH0 ADD SSTORE POP POP DUP1 DUP1 PUSH1 0x1 ADD SWAP2 POP POP PUSH2 0x75 JUMP JUMPDEST POP POP PUSH2 0x130 JUMP JUMPDEST PUSH0 PUSH0 REVERT JUMPDEST PUSH0 DUP2 SWAP1 POP SWAP2 SWAP1 POP JUMP JUMPDEST PUSH2 0xE4 DUP2 PUSH2 0xD2 JUMP JUMPDEST DUP2 EQ PUSH2 0xEE JUMPI PUSH0 PUSH0 REVERT JUMPDEST POP JUMP JUMPDEST PUSH0 DUP2 MLOAD SWAP1 POP PUSH2 0xFF DUP2 PUSH2 0xDB JUMP JUMPDEST SWAP3 SWAP2 POP POP JUMP JUMPDEST PUSH0 PUSH1 0x20 DUP3 DUP5 SUB SLT ISZERO PUSH2 0x11A JUMPI PUSH2 0x119 PUSH2 0xCE JUMP JUMPDEST JUMPDEST PUSH0 PUSH2 0x127 DUP5 DUP3 DUP6 ADD PUSH2 0xF1 JUMP JUMPDEST SWAP2 POP POP SWAP3 SWAP2 POP POP JUMP JUMPDEST PUSH2 0xB72 DUP1 PUSH2 0x13D PUSH0 CODECOPY PUSH0 RETURN INVALID PUSH1 0x80 PUSH1 0x40 MSTORE CALLVALUE DUP1 ISZERO PUSH2 0xF JUMPI PUSH0 PUSH0 REVERT JUMPDEST POP PUSH1 0x4 CALLDATASIZE LT PUSH2 0x60 JUMPI PUSH0 CALLDATALOAD PUSH1 0xE0 SHR DUP1 PUSH4 0x121B93F EQ PUSH2 0x64 JUMPI DUP1 PUSH4 0x13CF08B EQ PUSH2 0x80 JUMPI DUP1 PUSH4 0x2E4176CF EQ PUSH2 0xB0 JUMPI DUP1 PUSH4 0x4420E486 EQ PUSH2 0xCE JUMPI DUP1 PUSH4 0x508B30C9 EQ PUSH2 0xEA JUMPI DUP1 PUSH4 0xA3EC138D EQ PUSH2 0x108 JUMPI JUMPDEST PUSH0 PUSH0 REVERT JUMPDEST PUSH2 0x7E PUSH1 0x4 DUP1 CALLDATASIZE SUB DUP2 ADD SWAP1 PUSH2 0x79 SWAP2 SWAP1 PUSH2 0x748 JUMP JUMPDEST PUSH2 0x13A JUMP JUMPDEST STOP JUMPDEST PUSH2 0x9A PUSH1 0x4 DUP1 CALLDATASIZE SUB DUP2 ADD SWAP1 PUSH2 0x95 SWAP2 SWAP1 PUSH2 0x748 JUMP JUMPDEST PUSH2 0x3A1 JUMP JUMPDEST PUSH1 0x40 MLOAD PUSH2 0xA7 SWAP2 SWAP1 PUSH2 0x782 JUMP JUMPDEST PUSH1 0x40 MLOAD DUP1 SWAP2 SUB SWAP1 RETURN JUMPDEST PUSH2 0xB8 PUSH2 0x3C6 JUMP JUMPDEST PUSH1 0x40 MLOAD PUSH2 0xC5 SWAP2 SWAP1 PUSH2 0x7DA JUMP JUMPDEST PUSH1 0x40 MLOAD DUP1 SWAP2 SUB SWAP1 RETURN JUMPDEST PUSH2 0xE8 PUSH1 0x4 DUP1 CALLDATASIZE SUB DUP2 ADD SWAP1 PUSH2 0xE3 SWAP2 SWAP1 PUSH2 0x81D JUMP JUMPDEST PUSH2 0x3EA JUMP JUMPDEST STOP JUMPDEST PUSH2 0xF2 PUSH2 0x66B JUMP JUMPDEST PUSH1 0x40 MLOAD PUSH2 0xFF SWAP2 SWAP1 PUSH2 0x782 JUMP JUMPDEST PUSH1 0x40 MLOAD DUP1 SWAP2 SUB SWAP1 RETURN JUMPDEST PUSH2 0x122 PUSH1 0x4 DUP1 CALLDATASIZE SUB DUP2 ADD SWAP1 PUSH2 0x11D SWAP2 SWAP1 PUSH2 0x81D JUMP JUMPDEST PUSH2 0x6DF JUMP JUMPDEST PUSH1 0x40 MLOAD PUSH2 0x131 SWAP4 SWAP3 SWAP2 SWAP1 PUSH2 0x862 JUMP JUMPDEST PUSH1 0x40 MLOAD DUP1 SWAP2 SUB SWAP1 RETURN JUMPDEST PUSH0 PUSH1 0x1 PUSH0 CALLER PUSH20 0xFFFFFFFFFFFFFFFFFFFFFFFFFFFFFFFFFFFFFFFF AND PUSH20 0xFFFFFFFFFFFFFFFFFFFFFFFFFFFFFFFFFFFFFFFF AND DUP2 MSTORE PUSH1 0x20 ADD SWAP1 DUP2 MSTORE PUSH1 0x20 ADD PUSH0 KECCAK256 PUSH0 ADD SLOAD GT PUSH2 0x1BB JUMPI PUSH1 0x40 MLOAD PUSH32 0x8C379A000000000000000000000000000000000000000000000000000000000 DUP2 MSTORE PUSH1 0x4 ADD PUSH2 0x1B2 SWAP1 PUSH2 0x8F1 JUMP JUMPDEST PUSH1 0x40 MLOAD DUP1 SWAP2 SUB SWAP1 REVERT JUMPDEST PUSH1 0x1 PUSH0 CALLER PUSH20 0xFFFFFFFFFFFFFFFFFFFFFFFFFFFFFFFFFFFFFFFF AND PUSH20 0xFFFFFFFFFFFFFFFFFFFFFFFFFFFFFFFFFFFFFFFF AND DUP2 MSTORE PUSH1 0x20 ADD SWAP1 DUP2 MSTORE PUSH1 0x20 ADD PUSH0 KECCAK256 PUSH1 0x1 ADD PUSH0 SWAP1 SLOAD SWAP1 PUSH2 0x100 EXP SWAP1 DIV PUSH1 0xFF AND ISZERO PUSH2 0x248 JUMPI PUSH1 0x40 MLOAD PUSH32 0x8C379A000000000000000000000000000000000000000000000000000000000 DUP2 MSTORE PUSH1 0x4 ADD PUSH2 0x23F SWAP1 PUSH2 0x959 JUMP JUMPDEST PUSH1 0x40 MLOAD DUP1 SWAP2 SUB SWAP1 REVERT JUMPDEST PUSH1 0x2 DUP1 SLOAD SWAP1 POP DUP2 LT PUSH2 0x28F JUMPI PUSH1 0x40 MLOAD PUSH32 0x8C379A000000000000000000000000000000000000000000000000000000000 DUP2 MSTORE PUSH1 0x4 ADD PUSH2 0x286 SWAP1 PUSH2 0x9C1 JUMP JUMPDEST PUSH1 0x40 MLOAD DUP1 SWAP2 SUB SWAP1 REVERT JUMPDEST PUSH1 0x1 DUP1 PUSH0 CALLER PUSH20 0xFFFFFFFFFFFFFFFFFFFFFFFFFFFFFFFFFFFFFFFF AND PUSH20 0xFFFFFFFFFFFFFFFFFFFFFFFFFFFFFFFFFFFFFFFF AND DUP2 MSTORE PUSH1 0x20 ADD SWAP1 DUP2 MSTORE PUSH1 0x20 ADD PUSH0 KECCAK256 PUSH1 0x1 ADD PUSH0 PUSH2 0x100 EXP DUP2 SLOAD DUP2 PUSH1 0xFF MUL NOT AND SWAP1 DUP4 ISZERO ISZERO MUL OR SWAP1 SSTORE POP DUP1 PUSH1 0x1 PUSH0 CALLER PUSH20 0xFFFFFFFFFFFFFFFFFFFFFFFFFFFFFFFFFFFFFFFF AND PUSH20 0xFFFFFFFFFFFFFFFFFFFFFFFFFFFFFFFFFFFFFFFF AND DUP2 MSTORE PUSH1 0x20 ADD SWAP1 DUP2 MSTORE PUSH1 0x20 ADD PUSH0 KECCAK256 PUSH1 0x2 ADD DUP2 SWAP1 SSTORE POP PUSH1 0x1 PUSH0 CALLER PUSH20 0xFFFFFFFFFFFFFFFFFFFFFFFFFFFFFFFFFFFFFFFF AND PUSH20 0xFFFFFFFFFFFFFFFFFFFFFFFFFFFFFFFFFFFFFFFF AND DUP2 MSTORE PUSH1 0x20 ADD SWAP1 DUP2 MSTORE PUSH1 0x20 ADD PUSH0 KECCAK256 PUSH0 ADD SLOAD PUSH1 0x2 DUP3 DUP2 SLOAD DUP2 LT PUSH2 0x37F JUMPI PUSH2 0x37E PUSH2 0x9DF JUMP JUMPDEST JUMPDEST SWAP1 PUSH0 MSTORE PUSH1 0x20 PUSH0 KECCAK256 ADD PUSH0 ADD PUSH0 DUP3 DUP3 SLOAD PUSH2 0x397 SWAP2 SWAP1 PUSH2 0xA39 JUMP JUMPDEST SWAP3 POP POP DUP2 SWAP1 SSTORE POP POP JUMP JUMPDEST PUSH1 0x2 DUP2 DUP2 SLOAD DUP2 LT PUSH2 0x3B0 JUMPI PUSH0 DUP1 REVERT JUMPDEST SWAP1 PUSH0 MSTORE PUSH1 0x20 PUSH0 KECCAK256 ADD PUSH0 SWAP2 POP SWAP1 POP DUP1 PUSH0 ADD SLOAD SWAP1 POP DUP2 JUMP JUMPDEST PUSH0 PUSH0 SWAP1 SLOAD SWAP1 PUSH2 0x100 EXP SWAP1 DIV PUSH20 0xFFFFFFFFFFFFFFFFFFFFFFFFFFFFFFFFFFFFFFFF AND DUP2 JUMP JUMPDEST PUSH0 PUSH0 SWAP1 SLOAD SWAP1 PUSH2 0x100 EXP SWAP1 DIV PUSH20 0xFFFFFFFFFFFFFFFFFFFFFFFFFFFFFFFFFFFFFFFF AND PUSH20 0xFFFFFFFFFFFFFFFFFFFFFFFFFFFFFFFFFFFFFFFF AND CALLER PUSH20 0xFFFFFFFFFFFFFFFFFFFFFFFFFFFFFFFFFFFFFFFF AND EQ PUSH2 0x478 JUMPI PUSH1 0x40 MLOAD PUSH32 0x8C379A000000000000000000000000000000000000000000000000000000000 DUP2 MSTORE PUSH1 0x4 ADD PUSH2 0x46F SWAP1 PUSH2 0xAB6 JUMP JUMPDEST PUSH1 0x40 MLOAD DUP1 SWAP2 SUB SWAP1 REVERT JUMPDEST PUSH0 PUSH1 0x1 PUSH0 DUP4 PUSH20 0xFFFFFFFFFFFFFFFFFFFFFFFFFFFFFFFFFFFFFFFF AND PUSH20 0xFFFFFFFFFFFFFFFFFFFFFFFFFFFFFFFFFFFFFFFF AND DUP2 MSTORE PUSH1 0x20 ADD SWAP1 DUP2 MSTORE PUSH1 0x20 ADD PUSH0 KECCAK256 PUSH0 ADD SLOAD EQ PUSH2 0x4F9 JUMPI PUSH1 0x40 MLOAD PUSH32 0x8C379A000000000000000000000000000000000000000000000000000000000 DUP2 MSTORE PUSH1 0x4 ADD PUSH2 0x4F0 SWAP1 PUSH2 0xB1E JUMP JUMPDEST PUSH1 0x40 MLOAD DUP1 SWAP2 SUB SWAP1 REVERT JUMPDEST PUSH1 0x1 PUSH0 DUP3 PUSH20 0xFFFFFFFFFFFFFFFFFFFFFFFFFFFFFFFFFFFFFFFF AND PUSH20 0xFFFFFFFFFFFFFFFFFFFFFFFFFFFFFFFFFFFFFFFF AND DUP2 MSTORE PUSH1 0x20 ADD SWAP1 DUP2 MSTORE PUSH1 0x20 ADD PUSH0 KECCAK256 PUSH1 0x1 ADD PUSH0 SWAP1 SLOAD SWAP1 PUSH2 0x100 EXP SWAP1 DIV PUSH1 0xFF AND ISZERO PUSH2 0x586 JUMPI PUSH1 0x40 MLOAD PUSH32 0x8C379A000000000000000000000000000000000000000000000000000000000 DUP2 MSTORE PUSH1 0x4 ADD PUSH2 0x57D SWAP1 PUSH2 0x959 JUMP JUMPDEST PUSH1 0x40 MLOAD DUP1 SWAP2 SUB SWAP1 REVERT JUMPDEST PUSH0 PUSH0 SWAP1 SLOAD SWAP1 PUSH2 0x100 EXP SWAP1 DIV PUSH20 0xFFFFFFFFFFFFFFFFFFFFFFFFFFFFFFFFFFFFFFFF AND PUSH20 0xFFFFFFFFFFFFFFFFFFFFFFFFFFFFFFFFFFFFFFFF AND DUP2 PUSH20 0xFFFFFFFFFFFFFFFFFFFFFFFFFFFFFFFFFFFFFFFF AND SUB PUSH2 0x623 JUMPI PUSH1 0x2 PUSH1 0x1 PUSH0 DUP4 PUSH20 0xFFFFFFFFFFFFFFFFFFFFFFFFFFFFFFFFFFFFFFFF AND PUSH20 0xFFFFFFFFFFFFFFFFFFFFFFFFFFFFFFFFFFFFFFFF AND DUP2 MSTORE PUSH1 0x20 ADD SWAP1 DUP2 MSTORE PUSH1 0x20 ADD PUSH0 KECCAK256 PUSH0 ADD DUP2 SWAP1 SSTORE POP PUSH2 0x668 JUMP JUMPDEST PUSH1 0x1 DUP1 PUSH0 DUP4 PUSH20 0xFFFFFFFFFFFFFFFFFFFFFFFFFFFFFFFFFFFFFFFF AND PUSH20 0xFFFFFFFFFFFFFFFFFFFFFFFFFFFFFFFFFFFFFFFF AND DUP2 MSTORE PUSH1 0x20 ADD SWAP1 DUP2 MSTORE PUSH1 0x20 ADD PUSH0 KECCAK256 PUSH0 ADD DUP2 SWAP1 SSTORE POP JUMPDEST POP JUMP JUMPDEST PUSH0 PUSH0 PUSH0 SWAP1 POP PUSH0 PUSH0 SWAP1 POP JUMPDEST PUSH1 0x2 DUP1 SLOAD SWAP1 POP DUP2 LT ISZERO PUSH2 0x6DA JUMPI DUP2 PUSH1 0x2 DUP3 DUP2 SLOAD DUP2 LT PUSH2 0x697 JUMPI PUSH2 0x696 PUSH2 0x9DF JUMP JUMPDEST JUMPDEST SWAP1 PUSH0 MSTORE PUSH1 0x20 PUSH0 KECCAK256 ADD PUSH0 ADD SLOAD GT ISZERO PUSH2 0x6CD JUMPI PUSH1 0x2 DUP2 DUP2 SLOAD DUP2 LT PUSH2 0x6BC JUMPI PUSH2 0x6BB PUSH2 0x9DF JUMP JUMPDEST JUMPDEST SWAP1 PUSH0 MSTORE PUSH1 0x20 PUSH0 KECCAK256 ADD PUSH0 ADD SLOAD SWAP2 POP DUP1 SWAP3 POP JUMPDEST DUP1 DUP1 PUSH1 0x1 ADD SWAP2 POP POP PUSH2 0x675 JUMP JUMPDEST POP POP SWAP1 JUMP JUMPDEST PUSH1 0x1 PUSH1 0x20 MSTORE DUP1 PUSH0 MSTORE PUSH1 0x40 PUSH0 KECCAK256 PUSH0 SWAP2 POP SWAP1 POP DUP1 PUSH0 ADD SLOAD SWAP1 DUP1 PUSH1 0x1 ADD PUSH0 SWAP1 SLOAD SWAP1 PUSH2 0x100 EXP SWAP1 DIV PUSH1 0xFF AND SWAP1 DUP1 PUSH1 0x2 ADD SLOAD SWAP1 POP DUP4 JUMP JUMPDEST PUSH0 PUSH0 REVERT JUMPDEST PUSH0 DUP2 SWAP1 POP SWAP2 SWAP1 POP JUMP JUMPDEST PUSH2 0x727 DUP2 PUSH2 0x715 JUMP JUMPDEST DUP2 EQ PUSH2 0x731 JUMPI PUSH0 PUSH0 REVERT JUMPDEST POP JUMP JUMPDEST PUSH0 DUP2 CALLDATALOAD SWAP1 POP PUSH2 0x742 DUP2 PUSH2 0x71E JUMP JUMPDEST SWAP3 SWAP2 POP POP JUMP JUMPDEST PUSH0 PUSH1 0x20 DUP3 DUP5 SUB SLT ISZERO PUSH2 0x75D JUMPI PUSH2 0x75C PUSH2 0x711 JUMP JUMPDEST JUMPDEST PUSH0 PUSH2 0x76A DUP5 DUP3 DUP6 ADD PUSH2 0x734 JUMP JUMPDEST SWAP2 POP POP SWAP3 SWAP2 POP POP JUMP JUMPDEST PUSH2 0x77C DUP2 PUSH2 0x715 JUMP JUMPDEST DUP3 MSTORE POP POP JUMP JUMPDEST PUSH0 PUSH1 0x20 DUP3 ADD SWAP1 POP PUSH2 0x795 PUSH0 DUP4 ADD DUP5 PUSH2 0x773 JUMP JUMPDEST SWAP3 SWAP2 POP POP JUMP JUMPDEST PUSH0 PUSH20 0xFFFFFFFFFFFFFFFFFFFFFFFFFFFFFFFFFFFFFFFF DUP3 AND SWAP1 POP SWAP2 SWAP1 POP JUMP JUMPDEST PUSH0 PUSH2 0x7C4 DUP3 PUSH2 0x79B JUMP JUMPDEST SWAP1 POP SWAP2 SWAP1 POP JUMP JUMPDEST PUSH2 0x7D4 DUP2 PUSH2 0x7BA JUMP JUMPDEST DUP3 MSTORE POP POP JUMP JUMPDEST PUSH0 PUSH1 0x20 DUP3 ADD SWAP1 POP PUSH2 0x7ED PUSH0 DUP4 ADD DUP5 PUSH2 0x7CB JUMP JUMPDEST SWAP3 SWAP2 POP POP JUMP JUMPDEST PUSH2 0x7FC DUP2 PUSH2 0x7BA JUMP JUMPDEST DUP2 EQ PUSH2 0x806 JUMPI PUSH0 PUSH0 REVERT JUMPDEST POP JUMP JUMPDEST PUSH0 DUP2 CALLDATALOAD SWAP1 POP PUSH2 0x817 DUP2 PUSH2 0x7F3 JUMP JUMPDEST SWAP3 SWAP2 POP POP JUMP JUMPDEST PUSH0 PUSH1 0x20 DUP3 DUP5 SUB SLT ISZERO PUSH2 0x832 JUMPI PUSH2 0x831 PUSH2 0x711 JUMP JUMPDEST JUMPDEST PUSH0 PUSH2 0x83F DUP5 DUP3 DUP6 ADD PUSH2 0x809 JUMP JUMPDEST SWAP2 POP POP SWAP3 SWAP2 POP POP JUMP JUMPDEST PUSH0 DUP2 ISZERO ISZERO SWAP1 POP SWAP2 SWAP1 POP JUMP JUMPDEST PUSH2 0x85C DUP2 PUSH2 0x848 JUMP JUMPDEST DUP3 MSTORE POP POP JUMP JUMPDEST PUSH0 PUSH1 0x60 DUP3 ADD SWAP1 POP PUSH2 0x875 PUSH0 DUP4 ADD DUP7 PUSH2 0x773 JUMP JUMPDEST PUSH2 0x882 PUSH1 0x20 DUP4 ADD DUP6 PUSH2 0x853 JUMP JUMPDEST PUSH2 0x88F PUSH1 0x40 DUP4 ADD DUP5 PUSH2 0x773 JUMP JUMPDEST SWAP5 SWAP4 POP POP POP POP JUMP JUMPDEST PUSH0 DUP3 DUP3 MSTORE PUSH1 0x20 DUP3 ADD SWAP1 POP SWAP3 SWAP2 POP POP JUMP JUMPDEST PUSH32 0x4E6F74207265676973746572656420766F746572000000000000000000000000 PUSH0 DUP3 ADD MSTORE POP JUMP JUMPDEST PUSH0 PUSH2 0x8DB PUSH1 0x14 DUP4 PUSH2 0x897 JUMP JUMPDEST SWAP2 POP PUSH2 0x8E6 DUP3 PUSH2 0x8A7 JUMP JUMPDEST PUSH1 0x20 DUP3 ADD SWAP1 POP SWAP2 SWAP1 POP JUMP JUMPDEST PUSH0 PUSH1 0x20 DUP3 ADD SWAP1 POP DUP2 DUP2 SUB PUSH0 DUP4 ADD MSTORE PUSH2 0x908 DUP2 PUSH2 0x8CF JUMP JUMPDEST SWAP1 POP SWAP2 SWAP1 POP JUMP JUMPDEST PUSH32 0x416C726561647920766F74656400000000000000000000000000000000000000 PUSH0 DUP3 ADD MSTORE POP JUMP JUMPDEST PUSH0 PUSH2 0x943 PUSH1 0xD DUP4 PUSH2 0x897 JUMP JUMPDEST SWAP2 POP PUSH2 0x94E DUP3 PUSH2 0x90F JUMP JUMPDEST PUSH1 0x20 DUP3 ADD SWAP1 POP SWAP2 SWAP1 POP JUMP JUMPDEST PUSH0 PUSH1 0x20 DUP3 ADD SWAP1 POP DUP2 DUP2 SUB PUSH0 DUP4 ADD MSTORE PUSH2 0x970 DUP2 PUSH2 0x937 JUMP JUMPDEST SWAP1 POP SWAP2 SWAP1 POP JUMP JUMPDEST PUSH32 0x496E76616C69642070726F706F73616C00000000000000000000000000000000 PUSH0 DUP3 ADD MSTORE POP JUMP JUMPDEST PUSH0 PUSH2 0x9AB PUSH1 0x10 DUP4 PUSH2 0x897 JUMP JUMPDEST SWAP2 POP PUSH2 0x9B6 DUP3 PUSH2 0x977 JUMP JUMPDEST PUSH1 0x20 DUP3 ADD SWAP1 POP SWAP2 SWAP1 POP JUMP JUMPDEST PUSH0 PUSH1 0x20 DUP3 ADD SWAP1 POP DUP2 DUP2 SUB PUSH0 DUP4 ADD MSTORE PUSH2 0x9D8 DUP2 PUSH2 0x99F JUMP JUMPDEST SWAP1 POP SWAP2 SWAP1 POP JUMP JUMPDEST PUSH32 0x4E487B7100000000000000000000000000000000000000000000000000000000 PUSH0 MSTORE PUSH1 0x32 PUSH1 0x4 MSTORE PUSH1 0x24 PUSH0 REVERT JUMPDEST PUSH32 0x4E487B7100000000000000000000000000000000000000000000000000000000 PUSH0 MSTORE PUSH1 0x11 PUSH1 0x4 MSTORE PUSH1 0x24 PUSH0 REVERT JUMPDEST PUSH0 PUSH2 0xA43 DUP3 PUSH2 0x715 JUMP JUMPDEST SWAP2 POP PUSH2 0xA4E DUP4 PUSH2 0x715 JUMP JUMPDEST SWAP3 POP DUP3 DUP3 ADD SWAP1 POP DUP1 DUP3 GT ISZERO PUSH2 0xA66 JUMPI PUSH2 0xA65 PUSH2 0xA0C JUMP JUMPDEST JUMPDEST SWAP3 SWAP2 POP POP JUMP JUMPDEST PUSH32 0x4F6E6C79206368616972706572736F6E00000000000000000000000000000000 PUSH0 DUP3 ADD MSTORE POP JUMP JUMPDEST PUSH0 PUSH2 0xAA0 PUSH1 0x10 DUP4 PUSH2 0x897 JUMP JUMPDEST SWAP2 POP PUSH2 0xAAB DUP3 PUSH2 0xA6C JUMP JUMPDEST PUSH1 0x20 DUP3 ADD SWAP1 POP SWAP2 SWAP1 POP JUMP JUMPDEST PUSH0 PUSH1 0x20 DUP3 ADD SWAP1 POP DUP2 DUP2 SUB PUSH0 DUP4 ADD MSTORE PUSH2 0xACD DUP2 PUSH2 0xA94 JUMP JUMPDEST SWAP1 POP SWAP2 SWAP1 POP JUMP JUMPDEST PUSH32 0x416C726561647920726567697374657265640000000000000000000000000000 PUSH0 DUP3 ADD MSTORE POP JUMP JUMPDEST PUSH0 PUSH2 0xB08 PUSH1 0x12 DUP4 PUSH2 0x897 JUMP JUMPDEST SWAP2 POP PUSH2 0xB13 DUP3 PUSH2 0xAD4 JUMP JUMPDEST PUSH1 0x20 DUP3 ADD SWAP1 POP SWAP2 SWAP1 POP JUMP JUMPDEST PUSH0 PUSH1 0x20 DUP3 ADD SWAP1 POP DUP2 DUP2 SUB PUSH0 DUP4 ADD MSTORE PUSH2 0xB35 DUP2 PUSH2 0xAFC JUMP JUMPDEST SWAP1 POP SWAP2 SWAP1 POP JUMP INVALID LOG2 PUSH5 0x6970667358 0x22 SLT KECCAK256 0xDA 0xDD 0xE9 CREATE PUSH22 0x5EBE502EC9D28CEA450F012DFED701AE05B09B84215A 0xE8 DUP9 SWAP5 SWAP15 PUSH15 0x64736F6C634300081E003300000000 "
				},
				"gasEstimates": {
					"creation": {
						"codeDepositCost": "586000",
						"executionCost": "infinite",
						"totalCost": "infinite"
					},
					"external": {
						"chairperson()": "2529",
						"proposals(uint256)": "infinite",
						"register(address)": "31512",
						"reqWinner()": "infinite",
						"vote(uint256)": "infinite",
						"voters(address)": "infinite"
					}
				},
				"methodIdentifiers": {
					"chairperson()": "2e4176cf",
					"proposals(uint256)": "013cf08b",
					"register(address)": "4420e486",
					"reqWinner()": "508b30c9",
					"vote(uint256)": "0121b93f",
					"voters(address)": "a3ec138d"
				}
			},
			"storageLayout": {
				"storage": [
					{
						"astId": 13,
						"contract": "week10(dapp)/dapp.sol:Ballot",
						"label": "chairperson",
						"offset": 0,
						"slot": "0",
						"type": "t_address"
					},
					{
						"astId": 18,
						"contract": "week10(dapp)/dapp.sol:Ballot",
						"label": "voters",
						"offset": 0,
						"slot": "1",
						"type": "t_mapping(t_address,t_struct(Voter)8_storage)"
					},
					{
						"astId": 22,
						"contract": "week10(dapp)/dapp.sol:Ballot",
						"label": "proposals",
						"offset": 0,
						"slot": "2",
						"type": "t_array(t_struct(Proposal)11_storage)dyn_storage"
					}
				],
				"types": {
					"t_address": {
						"encoding": "inplace",
						"label": "address",
						"numberOfBytes": "20"
					},
					"t_array(t_struct(Proposal)11_storage)dyn_storage": {
						"base": "t_struct(Proposal)11_storage",
						"encoding": "dynamic_array",
						"label": "struct Ballot.Proposal[]",
						"numberOfBytes": "32"
					},
					"t_bool": {
						"encoding": "inplace",
						"label": "bool",
						"numberOfBytes": "1"
					},
					"t_mapping(t_address,t_struct(Voter)8_storage)": {
						"encoding": "mapping",
						"key": "t_address",
						"label": "mapping(address => struct Ballot.Voter)",
						"numberOfBytes": "32",
						"value": "t_struct(Voter)8_storage"
					},
					"t_struct(Proposal)11_storage": {
						"encoding": "inplace",
						"label": "struct Ballot.Proposal",
						"members": [
							{
								"astId": 10,
								"contract": "week10(dapp)/dapp.sol:Ballot",
								"label": "voteCount",
								"offset": 0,
								"slot": "0",
								"type": "t_uint256"
							}
						],
						"numberOfBytes": "32"
					},
					"t_struct(Voter)8_storage": {
						"encoding": "inplace",
						"label": "struct Ballot.Voter",
						"members": [
							{
								"astId": 3,
								"contract": "week10(dapp)/dapp.sol:Ballot",
								"label": "weight",
								"offset": 0,
								"slot": "0",
								"type": "t_uint256"
							},
							{
								"astId": 5,
								"contract": "week10(dapp)/dapp.sol:Ballot",
								"label": "voted",
								"offset": 0,
								"slot": "1",
								"type": "t_bool"
							},
							{
								"astId": 7,
								"contract": "week10(dapp)/dapp.sol:Ballot",
								"label": "vote",
								"offset": 0,
								"slot": "2",
								"type": "t_uint256"
							}
						],
						"numberOfBytes": "96"
					},
					"t_uint256": {
						"encoding": "inplace",
						"label": "uint256",
						"numberOfBytes": "32"
					}
				}
			},
			"userdoc": {
				"kind": "user",
				"methods": {},
				"version": 1
			}
		}
	}
}