{
	"week4/Ex4_5.sol": {
		"Ex4_5": {
			"abi": [
				{
					"inputs": [],
					"name": "a",
					"outputs": [
						{
							"internalType": "uint256",
							"name": "",
							"type": "uint256"
						}
					],
					"stateMutability": "view",
					"type": "function"
				},
				{
					"inputs": [],
					"name": "b",
					"outputs": [
						{
							"internalType": "uint256",
							"name": "",
							"type": "uint256"
						}
					],
					"stateMutability": "view",
					"type": "function"
				},
				{
					"inputs": [],
					"name": "myFun",
					"outputs": [
						{
							"internalType": "uint256",
							"name": "",
							"type": "uint256"
						}
					],
					"stateMutability": "nonpayable",
					"type": "function"
				}
			],
			"devdoc": {
				"kind": "dev",
				"methods": {},
				"version": 1
			},
			"evm": {
				"assembly": "    /* \"week4/Ex4_5.sol\":72:236  contract Ex4_5{... */\n  mstore(0x40, 0x80)\n    /* \"week4/Ex4_5.sol\":111:112  3 */\n  0x03\n    /* \"week4/Ex4_5.sol\":95:112  uint public a = 3 */\n  0x00\n  sstore\n    /* \"week4/Ex4_5.sol\":135:142  myFun() */\n  tag_1\n    /* \"week4/Ex4_5.sol\":135:140  myFun */\n  shl(0x20, tag_2)\n    /* \"week4/Ex4_5.sol\":135:142  myFun() */\n  0x20\n  shr\n  jump\t// in\ntag_1:\n    /* \"week4/Ex4_5.sol\":119:142  uint public b = myFun() */\n  0x01\n  sstore\n    /* \"week4/Ex4_5.sol\":72:236  contract Ex4_5{... */\n  callvalue\n  dup1\n  iszero\n  tag_3\n  jumpi\n  revert(0x00, 0x00)\ntag_3:\n  pop\n  jump(tag_4)\n    /* \"week4/Ex4_5.sol\":151:233  function myFun() public returns(uint){... */\ntag_2:\n    /* \"week4/Ex4_5.sol\":183:187  uint */\n  0x00\n    /* \"week4/Ex4_5.sol\":203:206  100 */\n  0x64\n    /* \"week4/Ex4_5.sol\":199:200  a */\n  0x00\n    /* \"week4/Ex4_5.sol\":199:206  a = 100 */\n  dup2\n  swap1\n  sstore\n  pop\n    /* \"week4/Ex4_5.sol\":224:225  a */\n  sload(0x00)\n    /* \"week4/Ex4_5.sol\":217:225  return a */\n  swap1\n  pop\n    /* \"week4/Ex4_5.sol\":151:233  function myFun() public returns(uint){... */\n  swap1\n  jump\t// out\n    /* \"week4/Ex4_5.sol\":72:236  contract Ex4_5{... */\ntag_4:\n  dataSize(sub_0)\n  dup1\n  dataOffset(sub_0)\n  0x00\n  codecopy\n  0x00\n  return\nstop\n\nsub_0: assembly {\n        /* \"week4/Ex4_5.sol\":72:236  contract Ex4_5{... */\n      mstore(0x40, 0x80)\n      callvalue\n      dup1\n      iszero\n      tag_1\n      jumpi\n      revert(0x00, 0x00)\n    tag_1:\n      pop\n      jumpi(tag_2, lt(calldatasize, 0x04))\n      shr(0xe0, calldataload(0x00))\n      dup1\n      0x0dbe671f\n      eq\n      tag_3\n      jumpi\n      dup1\n      0x4df7e3d0\n      eq\n      tag_4\n      jumpi\n      dup1\n      0x75bbb4e7\n      eq\n      tag_5\n      jumpi\n    tag_2:\n      revert(0x00, 0x00)\n        /* \"week4/Ex4_5.sol\":95:112  uint public a = 3 */\n    tag_3:\n      tag_6\n      tag_7\n      jump\t// in\n    tag_6:\n      mload(0x40)\n      tag_8\n      swap2\n      swap1\n      tag_9\n      jump\t// in\n    tag_8:\n      mload(0x40)\n      dup1\n      swap2\n      sub\n      swap1\n      return\n        /* \"week4/Ex4_5.sol\":119:142  uint public b = myFun() */\n    tag_4:\n      tag_10\n      tag_11\n      jump\t// in\n    tag_10:\n      mload(0x40)\n      tag_12\n      swap2\n      swap1\n      tag_9\n      jump\t// in\n    tag_12:\n      mload(0x40)\n      dup1\n      swap2\n      sub\n      swap1\n      return\n        /* \"week4/Ex4_5.sol\":151:233  function myFun() public returns(uint){... */\n    tag_5:\n      tag_13\n      tag_14\n      jump\t// in\n    tag_13:\n      mload(0x40)\n      tag_15\n      swap2\n      swap1\n      tag_9\n      jump\t// in\n    tag_15:\n      mload(0x40)\n      dup1\n      swap2\n      sub\n      swap1\n      return\n        /* \"week4/Ex4_5.sol\":95:112  uint public a = 3 */\n    tag_7:\n      sload(0x00)\n      dup2\n      jump\t// out\n        /* \"week4/Ex4_5.sol\":119:142  uint public b = myFun() */\n    tag_11:\n      sload(0x01)\n      dup2\n      jump\t// out\n        /* \"week4/Ex4_5.sol\":151:233  function myFun() public returns(uint){... */\n    tag_14:\n        /* \"week4/Ex4_5.sol\":183:187  uint */\n      0x00\n        /* \"week4/Ex4_5.sol\":203:206  100 */\n      0x64\n        /* \"week4/Ex4_5.sol\":199:200  a */\n      0x00\n        /* \"week4/Ex4_5.sol\":199:206  a = 100 */\n      dup2\n      swap1\n      sstore\n      pop\n        /* \"week4/Ex4_5.sol\":224:225  a */\n      sload(0x00)\n        /* \"week4/Ex4_5.sol\":217:225  return a */\n      swap1\n      pop\n        /* \"week4/Ex4_5.sol\":151:233  function myFun() public returns(uint){... */\n      swap1\n      jump\t// out\n        /* \"#utility.yul\":7:84   */\n    tag_17:\n        /* \"#utility.yul\":44:51   */\n      0x00\n        /* \"#utility.yul\":73:78   */\n      dup2\n        /* \"#utility.yul\":62:78   */\n      swap1\n      pop\n        /* \"#utility.yul\":7:84   */\n      swap2\n      swap1\n      pop\n      jump\t// out\n        /* \"#utility.yul\":90:208   */\n    tag_18:\n        /* \"#utility.yul\":177:201   */\n      tag_22\n        /* \"#utility.yul\":195:200   */\n      dup2\n        /* \"#utility.yul\":177:201   */\n      tag_17\n      jump\t// in\n    tag_22:\n        /* \"#utility.yul\":172:175   */\n      dup3\n        /* \"#utility.yul\":165:202   */\n      mstore\n        /* \"#utility.yul\":90:208   */\n      pop\n      pop\n      jump\t// out\n        /* \"#utility.yul\":214:436   */\n    tag_9:\n        /* \"#utility.yul\":307:311   */\n      0x00\n        /* \"#utility.yul\":345:347   */\n      0x20\n        /* \"#utility.yul\":334:343   */\n      dup3\n        /* \"#utility.yul\":330:348   */\n      add\n        /* \"#utility.yul\":322:348   */\n      swap1\n      pop\n        /* \"#utility.yul\":358:429   */\n      tag_24\n        /* \"#utility.yul\":426:427   */\n      0x00\n        /* \"#utility.yul\":415:424   */\n      dup4\n        /* \"#utility.yul\":411:428   */\n      add\n        /* \"#utility.yul\":402:408   */\n      dup5\n        /* \"#utility.yul\":358:429   */\n      tag_18\n      jump\t// in\n    tag_24:\n        /* \"#utility.yul\":214:436   */\n      swap3\n      swap2\n      pop\n      pop\n      jump\t// out\n\n    auxdata: 0xa264697066735822122093845ef5526eb33fb9761a009d03f65dcb6a0620621779bb1a933452c8827c2164736f6c634300081e0033\n}\n",
				"bytecode": {
					"linkReferences": {},
					"object": "608060405260035f556014602660201b60201c565b6001553480156021575f5ffd5b506035565b5f60645f819055505f54905090565b610109806100425f395ff3fe6080604052348015600e575f5ffd5b5060043610603a575f3560e01c80630dbe671f14603e5780634df7e3d014605857806375bbb4e7146072575b5f5ffd5b6044608c565b604051604f919060bc565b60405180910390f35b605e6091565b6040516069919060bc565b60405180910390f35b60786097565b6040516083919060bc565b60405180910390f35b5f5481565b60015481565b5f60645f819055505f54905090565b5f819050919050565b60b68160a6565b82525050565b5f60208201905060cd5f83018460af565b9291505056fea264697066735822122093845ef5526eb33fb9761a009d03f65dcb6a0620621779bb1a933452c8827c2164736f6c634300081e0033",
					"opcodes": "PUSH1 0x80 PUSH1 0x40 MSTORE PUSH1 0x3 PUSH0 SSTORE PUSH1 0x14 PUSH1 0x26 PUSH1 0x20 SHL PUSH1 0x20 SHR JUMP JUMPDEST PUSH1 0x1 SSTORE CALLVALUE DUP1 ISZERO PUSH1 0x21 JUMPI PUSH0 PUSH0 REVERT JUMPDEST POP PUSH1 0x35 JUMP JUMPDEST PUSH0 PUSH1 0x64 PUSH0 DUP2 SWAP1 SSTORE POP PUSH0 SLOAD SWAP1 POP SWAP1 JUMP JUMPDEST PUSH2 0x109 DUP1 PUSH2 0x42 PUSH0 CODECOPY PUSH0 RETURN INVALID PUSH1 0x80 PUSH1 0x40 MSTORE CALLVALUE DUP1 ISZERO PUSH1 0xE JUMPI PUSH0 PUSH0 REVERT JUMPDEST POP PUSH1 0x4 CALLDATASIZE LT PUSH1 0x3A JUMPI PUSH0 CALLDATALOAD PUSH1 0xE0 SHR DUP1 PUSH4 0xDBE671F EQ PUSH1 0x3E JUMPI DUP1 PUSH4 0x4DF7E3D0 EQ PUSH1 0x58 JUMPI DUP1 PUSH4 0x75BBB4E7 EQ PUSH1 0x72 JUMPI JUMPDEST PUSH0 PUSH0 REVERT JUMPDEST PUSH1 0x44 PUSH1 0x8C JUMP JUMPDEST PUSH1 0x40 MLOAD PUSH1 0x4F SWAP2 SWAP1 PUSH1 0xBC JUMP JUMPDEST PUSH1 0x40 MLOAD DUP1 SWAP2 SUB SWAP1 RETURN JUMPDEST PUSH1 0x5E PUSH1 0x91 JUMP JUMPDEST PUSH1 0x40 MLOAD PUSH1 0x69 SWAP2 SWAP1 PUSH1 0xBC JUMP JUMPDEST PUSH1 0x40 MLOAD DUP1 SWAP2 SUB SWAP1 RETURN JUMPDEST PUSH1 0x78 PUSH1 0x97 JUMP JUMPDEST PUSH1 0x40 MLOAD PUSH1 0x83 SWAP2 SWAP1 PUSH1 0xBC JUMP JUMPDEST PUSH1 0x40 MLOAD DUP1 SWAP2 SUB SWAP1 RETURN JUMPDEST PUSH0 SLOAD DUP2 JUMP JUMPDEST PUSH1 0x1 SLOAD DUP2 JUMP JUMPDEST PUSH0 PUSH1 0x64 PUSH0 DUP2 SWAP1 SSTORE POP PUSH0 SLOAD SWAP1 POP SWAP1 JUMP JUMPDEST PUSH0 DUP2 SWAP1 POP SWAP2 SWAP1 POP JUMP JUMPDEST PUSH1 0xB6 DUP2 PUSH1 0xA6 JUMP JUMPDEST DUP3 MSTORE POP POP JUMP JUMPDEST PUSH0 PUSH1 0x20 DUP3 ADD SWAP1 POP PUSH1 0xCD PUSH0 DUP4 ADD DUP5 PUSH1 0xAF JUMP JUMPDEST SWAP3 SWAP2 POP POP JUMP INVALID LOG2 PUSH5 0x6970667358 0x22 SLT KECCAK256 SWAP4 DUP5 MCOPY CREATE2 MSTORE PUSH15 0xB33FB9761A009D03F65DCB6A062062 OR PUSH26 0xBB1A933452C8827C2164736F6C634300081E0033000000000000 "
				},
				"gasEstimates": {
					"creation": {
						"codeDepositCost": "53000",
						"executionCost": "infinite",
						"totalCost": "infinite"
					},
					"external": {
						"a()": "2402",
						"b()": "2425",
						"myFun()": "24566"
					}
				},
				"methodIdentifiers": {
					"a()": "0dbe671f",
					"b()": "4df7e3d0",
					"myFun()": "75bbb4e7"
				}
			},
			"storageLayout": {
				"storage": [
					{
						"astId": 4,
						"contract": "week4/Ex4_5.sol:Ex4_5",
						"label": "a",
						"offset": 0,
						"slot": "0",
						"type": "t_uint256"
					},
					{
						"astId": 8,
						"contract": "week4/Ex4_5.sol:Ex4_5",
						"label": "b",
						"offset": 0,
						"slot": "1",
						"type": "t_uint256"
					}
				],
				"types": {
					"t_uint256": {
						"encoding": "inplace",
						"label": "uint256",
						"numberOfBytes": "32"
					}
				}
			},
			"userdoc": {
				"kind": "user",
				"methods": {},
				"version": 1
			}
		}
	}
}