{
	"data": {
		"bytecode": {
			"linkReferences": {},
			"object": "60806040525f6002555f60055f6101000a81548160ff02191690836003811115602957602860a8565b5b02179055503480156038575f5ffd5b50335f5f6101000a81548173ffffffffffffffffffffffffffffffffffffffff021916908373ffffffffffffffffffffffffffffffffffffffff1602179055507f8ad2842071cb64589c8e006941bc20b615aae08a93530e211ca7c9639bd26d9760405160405180910390a160d5565b7f4e487b71000000000000000000000000000000000000000000000000000000005f52602160045260245ffd5b6116ba806100e25f395ff3fe60806040526004361061009b575f3560e01c80634036778f116100635780634036778f1461014957806362ea82db1461017157806391f90157146101ae578063957bb1e0146101d8578063be25a718146101f4578063d57bde791461020a5761009b565b8063055ad42e1461009f57806312fa6feb146100c95780632a24f46c146100f357806338af3eed146101095780633ccfd60b14610133575b5f5ffd5b3480156100aa575f5ffd5b506100b3610234565b6040516100c09190610e9b565b60405180910390f35b3480156100d4575f5ffd5b506100dd610246565b6040516100ea9190610ece565b60405180910390f35b3480156100fe575f5ffd5b50610107610259565b005b348015610114575f5ffd5b5061011d610498565b60405161012a9190610f26565b60405180910390f35b34801561013e575f5ffd5b506101476104bc565b005b348015610154575f5ffd5b5061016f600480360381019061016a9190610fa9565b6105c8565b005b34801561017c575f5ffd5b5061019760048036038101906101929190611022565b610830565b6040516101a592919061106b565b60405180910390f35b3480156101b9575f5ffd5b506101c2610850565b6040516101cf91906110a1565b60405180910390f35b6101f260048036038101906101ed91906110ba565b610875565b005b3480156101ff575f5ffd5b50610208610a5f565b005b348015610215575f5ffd5b5061021e610cf3565b60405161022b91906110e5565b60405180910390f35b60055f9054906101000a900460ff1681565b600560019054906101000a900460ff1681565b5f5f9054906101000a900473ffffffffffffffffffffffffffffffffffffffff1673ffffffffffffffffffffffffffffffffffffffff163373ffffffffffffffffffffffffffffffffffffffff16146102e7576040517f08c379a00000000000000000000000000000000000000000000000000000000081526004016102de90611158565b60405180910390fd5b60038060038111156102fc576102fb610e28565b5b60055f9054906101000a900460ff16600381111561031d5761031c610e28565b5b1461035d576040517f08c379a0000000000000000000000000000000000000000000000000000000008152600401610354906111c0565b60405180910390fd5b600560019054906101000a900460ff16156103ad576040517f08c379a00000000000000000000000000000000000000000000000000000000081526004016103a490611228565b60405180910390fd5b6001600560016101000a81548160ff0219169083151502179055507fdaec4582d5d9595688c8c98545fdd1c696d41c6aeaeb636737e84ed2f5c00eda60015f9054906101000a900473ffffffffffffffffffffffffffffffffffffffff1660025460405161041c929190611246565b60405180910390a15f6002541115610495575f5f9054906101000a900473ffffffffffffffffffffffffffffffffffffffff1673ffffffffffffffffffffffffffffffffffffffff166108fc60025490811502906040515f60405180830381858888f19350505050158015610493573d5f5f3e3d5ffd5b505b50565b5f5f9054906101000a900473ffffffffffffffffffffffffffffffffffffffff1681565b5f60045f3373ffffffffffffffffffffffffffffffffffffffff1673ffffffffffffffffffffffffffffffffffffffff1681526020019081526020015f205490505f811161053f576040517f08c379a0000000000000000000000000000000000000000000000000000000008152600401610536906112b7565b60405180910390fd5b5f60045f3373ffffffffffffffffffffffffffffffffffffffff1673ffffffffffffffffffffffffffffffffffffffff1681526020019081526020015f20819055503373ffffffffffffffffffffffffffffffffffffffff166108fc8290811502906040515f60405180830381858888f193505050501580156105c4573d5f5f3e3d5ffd5b5050565b60028060038111156105dd576105dc610e28565b5b60055f9054906101000a900460ff1660038111156105fe576105fd610e28565b5b1461063e576040517f08c379a0000000000000000000000000000000000000000000000000000000008152600401610635906111c0565b60405180910390fd5b5f60035f3373ffffffffffffffffffffffffffffffffffffffff1673ffffffffffffffffffffffffffffffffffffffff1681526020019081526020015f2090505f8160010154116106c4576040517f08c379a00000000000000000000000000000000000000000000000000000000081526004016106bb9061131f565b60405180910390fd5b5f84846040516020016106d892919061137d565b604051602081830303815290604052805190602001209050815f01548114610735576040517f08c379a000000000000000000000000000000000000000000000000000000000815260040161072c906113f2565b60405180910390fd5b5f670de0b6b3a76400008661074a919061143d565b90505f5f1b60035f3373ffffffffffffffffffffffffffffffffffffffff1673ffffffffffffffffffffffffffffffffffffffff1681526020019081526020015f205f01819055505f83600101549050868460010154101580156107ad57505f87115b156107d1576107bc3383610cf9565b156107d05781816107cd919061147e565b90505b5b5f84600101819055505f811115610827573373ffffffffffffffffffffffffffffffffffffffff166108fc8290811502906040515f60405180830381858888f19350505050158015610825573d5f5f3e3d5ffd5b505b50505050505050565b6003602052805f5260405f205f91509050805f0154908060010154905082565b60015f9054906101000a900473ffffffffffffffffffffffffffffffffffffffff1681565b600180600381111561088a57610889610e28565b5b60055f9054906101000a900460ff1660038111156108ab576108aa610e28565b5b146108eb576040517f08c379a00000000000000000000000000000000000000000000000000000000081526004016108e2906111c0565b60405180910390fd5b5f5f1b820361092f576040517f08c379a0000000000000000000000000000000000000000000000000000000008152600401610926906114fb565b60405180910390fd5b5f5f1b60035f3373ffffffffffffffffffffffffffffffffffffffff1673ffffffffffffffffffffffffffffffffffffffff1681526020019081526020015f205f0154146109b2576040517f08c379a00000000000000000000000000000000000000000000000000000000081526004016109a990611563565b60405180910390fd5b5f34116109f4576040517f08c379a00000000000000000000000000000000000000000000000000000000081526004016109eb906115cb565b60405180910390fd5b60405180604001604052808381526020013481525060035f3373ffffffffffffffffffffffffffffffffffffffff1673ffffffffffffffffffffffffffffffffffffffff1681526020019081526020015f205f820151815f0155602082015181600101559050505050565b5f5f9054906101000a900473ffffffffffffffffffffffffffffffffffffffff1673ffffffffffffffffffffffffffffffffffffffff163373ffffffffffffffffffffffffffffffffffffffff1614610aed576040517f08c379a0000000000000000000000000000000000000000000000000000000008152600401610ae490611158565b60405180910390fd5b600380811115610b0057610aff610e28565b5b60055f9054906101000a900460ff166003811115610b2157610b20610e28565b5b03610b61576040517f08c379a0000000000000000000000000000000000000000000000000000000008152600401610b5890611633565b60405180910390fd5b5f6003811115610b7457610b73610e28565b5b60055f9054906101000a900460ff166003811115610b9557610b94610e28565b5b03610bf557600160055f6101000a81548160ff02191690836003811115610bbf57610bbe610e28565b5b02179055507f02c124e22ee7da1c9905bbb317cf67658c1cc3ea1c0953b1633f85d0b5c281d960405160405180910390a1610cf1565b60016003811115610c0957610c08610e28565b5b60055f9054906101000a900460ff166003811115610c2a57610c29610e28565b5b03610c8a57600260055f6101000a81548160ff02191690836003811115610c5457610c53610e28565b5b02179055507f3bcc93d35219aa0512d7c0d1ca10b0231f473e3d5f9396877d1b7215ee0ab3d560405160405180910390a1610cf0565b60026003811115610c9e57610c9d610e28565b5b60055f9054906101000a900460ff166003811115610cbf57610cbe610e28565b5b03610cef57600360055f6101000a81548160ff02191690836003811115610ce957610ce8610e28565b5b02179055505b5b5b565b60025481565b5f6002548211610d0b575f9050610e22565b5f73ffffffffffffffffffffffffffffffffffffffff1660015f9054906101000a900473ffffffffffffffffffffffffffffffffffffffff1673ffffffffffffffffffffffffffffffffffffffff1614610dd65760025460045f60015f9054906101000a900473ffffffffffffffffffffffffffffffffffffffff1673ffffffffffffffffffffffffffffffffffffffff1673ffffffffffffffffffffffffffffffffffffffff1681526020019081526020015f205f828254610dce9190611651565b925050819055505b816002819055508260015f6101000a81548173ffffffffffffffffffffffffffffffffffffffff021916908373ffffffffffffffffffffffffffffffffffffffff160217905550600190505b92915050565b7f4e487b71000000000000000000000000000000000000000000000000000000005f52602160045260245ffd5b60048110610e6657610e65610e28565b5b50565b5f819050610e7682610e55565b919050565b5f610e8582610e69565b9050919050565b610e9581610e7b565b82525050565b5f602082019050610eae5f830184610e8c565b92915050565b5f8115159050919050565b610ec881610eb4565b82525050565b5f602082019050610ee15f830184610ebf565b92915050565b5f73ffffffffffffffffffffffffffffffffffffffff82169050919050565b5f610f1082610ee7565b9050919050565b610f2081610f06565b82525050565b5f602082019050610f395f830184610f17565b92915050565b5f5ffd5b5f819050919050565b610f5581610f43565b8114610f5f575f5ffd5b50565b5f81359050610f7081610f4c565b92915050565b5f819050919050565b610f8881610f76565b8114610f92575f5ffd5b50565b5f81359050610fa381610f7f565b92915050565b5f5f60408385031215610fbf57610fbe610f3f565b5b5f610fcc85828601610f62565b9250506020610fdd85828601610f95565b9150509250929050565b5f610ff182610ee7565b9050919050565b61100181610fe7565b811461100b575f5ffd5b50565b5f8135905061101c81610ff8565b92915050565b5f6020828403121561103757611036610f3f565b5b5f6110448482850161100e565b91505092915050565b61105681610f76565b82525050565b61106581610f43565b82525050565b5f60408201905061107e5f83018561104d565b61108b602083018461105c565b9392505050565b61109b81610fe7565b82525050565b5f6020820190506110b45f830184611092565b92915050565b5f602082840312156110cf576110ce610f3f565b5b5f6110dc84828501610f95565b91505092915050565b5f6020820190506110f85f83018461105c565b92915050565b5f82825260208201905092915050565b7f4f6e6c792062656e6566696369617279000000000000000000000000000000005f82015250565b5f6111426010836110fe565b915061114d8261110e565b602082019050919050565b5f6020820190508181035f83015261116f81611136565b9050919050565b7f57726f6e672070686173650000000000000000000000000000000000000000005f82015250565b5f6111aa600b836110fe565b91506111b582611176565b602082019050919050565b5f6020820190508181035f8301526111d78161119e565b9050919050565b7f61756374696f6e456e6420616c72656164792063616c6c6564000000000000005f82015250565b5f6112126019836110fe565b915061121d826111de565b602082019050919050565b5f6020820190508181035f83015261123f81611206565b9050919050565b5f6040820190506112595f830185611092565b611266602083018461105c565b9392505050565b7f4e6f7468696e6720746f207769746864726177000000000000000000000000005f82015250565b5f6112a16013836110fe565b91506112ac8261126d565b602082019050919050565b5f6020820190508181035f8301526112ce81611295565b9050919050565b7f4e6f2062696420666f756e6400000000000000000000000000000000000000005f82015250565b5f611309600c836110fe565b9150611314826112d5565b602082019050919050565b5f6020820190508181035f830152611336816112fd565b9050919050565b5f819050919050565b61135761135282610f43565b61133d565b82525050565b5f819050919050565b61137761137282610f76565b61135d565b82525050565b5f6113888285611346565b6020820191506113988284611366565b6020820191508190509392505050565b7f48617368206d69736d61746368000000000000000000000000000000000000005f82015250565b5f6113dc600d836110fe565b91506113e7826113a8565b602082019050919050565b5f6020820190508181035f830152611409816113d0565b9050919050565b7f4e487b71000000000000000000000000000000000000000000000000000000005f52601160045260245ffd5b5f61144782610f43565b915061145283610f43565b925082820261146081610f43565b9150828204841483151761147757611476611410565b5b5092915050565b5f61148882610f43565b915061149383610f43565b92508282039050818111156114ab576114aa611410565b5b92915050565b7f496e76616c696420626c696e64656420626964000000000000000000000000005f82015250565b5f6114e56013836110fe565b91506114f0826114b1565b602082019050919050565b5f6020820190508181035f830152611512816114d9565b9050919050565b7f42696420616c7265616479207375626d697474656400000000000000000000005f82015250565b5f61154d6015836110fe565b915061155882611519565b602082019050919050565b5f6020820190508181035f83015261157a81611541565b9050919050565b7f4465706f736974206d757374206265203e2030000000000000000000000000005f82015250565b5f6115b56013836110fe565b91506115c082611581565b602082019050919050565b5f6020820190508181035f8301526115e2816115a9565b9050919050565b7f416c7265616479206c61737420706861736500000000000000000000000000005f82015250565b5f61161d6012836110fe565b9150611628826115e9565b602082019050919050565b5f6020820190508181035f83015261164a81611611565b9050919050565b5f61165b82610f43565b915061166683610f43565b925082820190508082111561167e5761167d611410565b5b9291505056fea264697066735822122088dd7c1fc9c06697cf83716df7a412f735ffda0380afda2be767a6149809c53364736f6c634300081e0033",
			"opcodes": "PUSH1 0x80 PUSH1 0x40 MSTORE PUSH0 PUSH1 0x2 SSTORE PUSH0 PUSH1 0x5 PUSH0 PUSH2 0x100 EXP DUP2 SLOAD DUP2 PUSH1 0xFF MUL NOT AND SWAP1 DUP4 PUSH1 0x3 DUP2 GT ISZERO PUSH1 0x29 JUMPI PUSH1 0x28 PUSH1 0xA8 JUMP JUMPDEST JUMPDEST MUL OR SWAP1 SSTORE POP CALLVALUE DUP1 ISZERO PUSH1 0x38 JUMPI PUSH0 PUSH0 REVERT JUMPDEST POP CALLER PUSH0 PUSH0 PUSH2 0x100 EXP DUP2 SLOAD DUP2 PUSH20 0xFFFFFFFFFFFFFFFFFFFFFFFFFFFFFFFFFFFFFFFF MUL NOT AND SWAP1 DUP4 PUSH20 0xFFFFFFFFFFFFFFFFFFFFFFFFFFFFFFFFFFFFFFFF AND MUL OR SWAP1 SSTORE POP PUSH32 0x8AD2842071CB64589C8E006941BC20B615AAE08A93530E211CA7C9639BD26D97 PUSH1 0x40 MLOAD PUSH1 0x40 MLOAD DUP1 SWAP2 SUB SWAP1 LOG1 PUSH1 0xD5 JUMP JUMPDEST PUSH32 0x4E487B7100000000000000000000000000000000000000000000000000000000 PUSH0 MSTORE PUSH1 0x21 PUSH1 0x4 MSTORE PUSH1 0x24 PUSH0 REVERT JUMPDEST PUSH2 0x16BA DUP1 PUSH2 0xE2 PUSH0 CODECOPY PUSH0 RETURN INVALID PUSH1 0x80 PUSH1 0x40 MSTORE PUSH1 0x4 CALLDATASIZE LT PUSH2 0x9B JUMPI PUSH0 CALLDATALOAD PUSH1 0xE0 SHR DUP1 PUSH4 0x4036778F GT PUSH2 0x63 JUMPI DUP1 PUSH4 0x4036778F EQ PUSH2 0x149 JUMPI DUP1 PUSH4 0x62EA82DB EQ PUSH2 0x171 JUMPI DUP1 PUSH4 0x91F90157 EQ PUSH2 0x1AE JUMPI DUP1 PUSH4 0x957BB1E0 EQ PUSH2 0x1D8 JUMPI DUP1 PUSH4 0xBE25A718 EQ PUSH2 0x1F4 JUMPI DUP1 PUSH4 0xD57BDE79 EQ PUSH2 0x20A JUMPI PUSH2 0x9B JUMP JUMPDEST DUP1 PUSH4 0x55AD42E EQ PUSH2 0x9F JUMPI DUP1 PUSH4 0x12FA6FEB EQ PUSH2 0xC9 JUMPI DUP1 PUSH4 0x2A24F46C EQ PUSH2 0xF3 JUMPI DUP1 PUSH4 0x38AF3EED EQ PUSH2 0x109 JUMPI DUP1 PUSH4 0x3CCFD60B EQ PUSH2 0x133 JUMPI JUMPDEST PUSH0 PUSH0 REVERT JUMPDEST CALLVALUE DUP1 ISZERO PUSH2 0xAA JUMPI PUSH0 PUSH0 REVERT JUMPDEST POP PUSH2 0xB3 PUSH2 0x234 JUMP JUMPDEST PUSH1 0x40 MLOAD PUSH2 0xC0 SWAP2 SWAP1 PUSH2 0xE9B JUMP JUMPDEST PUSH1 0x40 MLOAD DUP1 SWAP2 SUB SWAP1 RETURN JUMPDEST CALLVALUE DUP1 ISZERO PUSH2 0xD4 JUMPI PUSH0 PUSH0 REVERT JUMPDEST POP PUSH2 0xDD PUSH2 0x246 JUMP JUMPDEST PUSH1 0x40 MLOAD PUSH2 0xEA SWAP2 SWAP1 PUSH2 0xECE JUMP JUMPDEST PUSH1 0x40 MLOAD DUP1 SWAP2 SUB SWAP1 RETURN JUMPDEST CALLVALUE DUP1 ISZERO PUSH2 0xFE JUMPI PUSH0 PUSH0 REVERT JUMPDEST POP PUSH2 0x107 PUSH2 0x259 JUMP JUMPDEST STOP JUMPDEST CALLVALUE DUP1 ISZERO PUSH2 0x114 JUMPI PUSH0 PUSH0 REVERT JUMPDEST POP PUSH2 0x11D PUSH2 0x498 JUMP JUMPDEST PUSH1 0x40 MLOAD PUSH2 0x12A SWAP2 SWAP1 PUSH2 0xF26 JUMP JUMPDEST PUSH1 0x40 MLOAD DUP1 SWAP2 SUB SWAP1 RETURN JUMPDEST CALLVALUE DUP1 ISZERO PUSH2 0x13E JUMPI PUSH0 PUSH0 REVERT JUMPDEST POP PUSH2 0x147 PUSH2 0x4BC JUMP JUMPDEST STOP JUMPDEST CALLVALUE DUP1 ISZERO PUSH2 0x154 JUMPI PUSH0 PUSH0 REVERT JUMPDEST POP PUSH2 0x16F PUSH1 0x4 DUP1 CALLDATASIZE SUB DUP2 ADD SWAP1 PUSH2 0x16A SWAP2 SWAP1 PUSH2 0xFA9 JUMP JUMPDEST PUSH2 0x5C8 JUMP JUMPDEST STOP JUMPDEST CALLVALUE DUP1 ISZERO PUSH2 0x17C JUMPI PUSH0 PUSH0 REVERT JUMPDEST POP PUSH2 0x197 PUSH1 0x4 DUP1 CALLDATASIZE SUB DUP2 ADD SWAP1 PUSH2 0x192 SWAP2 SWAP1 PUSH2 0x1022 JUMP JUMPDEST PUSH2 0x830 JUMP JUMPDEST PUSH1 0x40 MLOAD PUSH2 0x1A5 SWAP3 SWAP2 SWAP1 PUSH2 0x106B JUMP JUMPDEST PUSH1 0x40 MLOAD DUP1 SWAP2 SUB SWAP1 RETURN JUMPDEST CALLVALUE DUP1 ISZERO PUSH2 0x1B9 JUMPI PUSH0 PUSH0 REVERT JUMPDEST POP PUSH2 0x1C2 PUSH2 0x850 JUMP JUMPDEST PUSH1 0x40 MLOAD PUSH2 0x1CF SWAP2 SWAP1 PUSH2 0x10A1 JUMP JUMPDEST PUSH1 0x40 MLOAD DUP1 SWAP2 SUB SWAP1 RETURN JUMPDEST PUSH2 0x1F2 PUSH1 0x4 DUP1 CALLDATASIZE SUB DUP2 ADD SWAP1 PUSH2 0x1ED SWAP2 SWAP1 PUSH2 0x10BA JUMP JUMPDEST PUSH2 0x875 JUMP JUMPDEST STOP JUMPDEST CALLVALUE DUP1 ISZERO PUSH2 0x1FF JUMPI PUSH0 PUSH0 REVERT JUMPDEST POP PUSH2 0x208 PUSH2 0xA5F JUMP JUMPDEST STOP JUMPDEST CALLVALUE DUP1 ISZERO PUSH2 0x215 JUMPI PUSH0 PUSH0 REVERT JUMPDEST POP PUSH2 0x21E PUSH2 0xCF3 JUMP JUMPDEST PUSH1 0x40 MLOAD PUSH2 0x22B SWAP2 SWAP1 PUSH2 0x10E5 JUMP JUMPDEST PUSH1 0x40 MLOAD DUP1 SWAP2 SUB SWAP1 RETURN JUMPDEST PUSH1 0x5 PUSH0 SWAP1 SLOAD SWAP1 PUSH2 0x100 EXP SWAP1 DIV PUSH1 0xFF AND DUP2 JUMP JUMPDEST PUSH1 0x5 PUSH1 0x1 SWAP1 SLOAD SWAP1 PUSH2 0x100 EXP SWAP1 DIV PUSH1 0xFF AND DUP2 JUMP JUMPDEST PUSH0 PUSH0 SWAP1 SLOAD SWAP1 PUSH2 0x100 EXP SWAP1 DIV PUSH20 0xFFFFFFFFFFFFFFFFFFFFFFFFFFFFFFFFFFFFFFFF AND PUSH20 0xFFFFFFFFFFFFFFFFFFFFFFFFFFFFFFFFFFFFFFFF AND CALLER PUSH20 0xFFFFFFFFFFFFFFFFFFFFFFFFFFFFFFFFFFFFFFFF AND EQ PUSH2 0x2E7 JUMPI PUSH1 0x40 MLOAD PUSH32 0x8C379A000000000000000000000000000000000000000000000000000000000 DUP2 MSTORE PUSH1 0x4 ADD PUSH2 0x2DE SWAP1 PUSH2 0x1158 JUMP JUMPDEST PUSH1 0x40 MLOAD DUP1 SWAP2 SUB SWAP1 REVERT JUMPDEST PUSH1 0x3 DUP1 PUSH1 0x3 DUP2 GT ISZERO PUSH2 0x2FC JUMPI PUSH2 0x2FB PUSH2 0xE28 JUMP JUMPDEST JUMPDEST PUSH1 0x5 PUSH0 SWAP1 SLOAD SWAP1 PUSH2 0x100 EXP SWAP1 DIV PUSH1 0xFF AND PUSH1 0x3 DUP2 GT ISZERO PUSH2 0x31D JUMPI PUSH2 0x31C PUSH2 0xE28 JUMP JUMPDEST JUMPDEST EQ PUSH2 0x35D JUMPI PUSH1 0x40 MLOAD PUSH32 0x8C379A000000000000000000000000000000000000000000000000000000000 DUP2 MSTORE PUSH1 0x4 ADD PUSH2 0x354 SWAP1 PUSH2 0x11C0 JUMP JUMPDEST PUSH1 0x40 MLOAD DUP1 SWAP2 SUB SWAP1 REVERT JUMPDEST PUSH1 0x5 PUSH1 0x1 SWAP1 SLOAD SWAP1 PUSH2 0x100 EXP SWAP1 DIV PUSH1 0xFF AND ISZERO PUSH2 0x3AD JUMPI PUSH1 0x40 MLOAD PUSH32 0x8C379A000000000000000000000000000000000000000000000000000000000 DUP2 MSTORE PUSH1 0x4 ADD PUSH2 0x3A4 SWAP1 PUSH2 0x1228 JUMP JUMPDEST PUSH1 0x40 MLOAD DUP1 SWAP2 SUB SWAP1 REVERT JUMPDEST PUSH1 0x1 PUSH1 0x5 PUSH1 0x1 PUSH2 0x100 EXP DUP2 SLOAD DUP2 PUSH1 0xFF MUL NOT AND SWAP1 DUP4 ISZERO ISZERO MUL OR SWAP1 SSTORE POP PUSH32 0xDAEC4582D5D9595688C8C98545FDD1C696D41C6AEAEB636737E84ED2F5C00EDA PUSH1 0x1 PUSH0 SWAP1 SLOAD SWAP1 PUSH2 0x100 EXP SWAP1 DIV PUSH20 0xFFFFFFFFFFFFFFFFFFFFFFFFFFFFFFFFFFFFFFFF AND PUSH1 0x2 SLOAD PUSH1 0x40 MLOAD PUSH2 0x41C SWAP3 SWAP2 SWAP1 PUSH2 0x1246 JUMP JUMPDEST PUSH1 0x40 MLOAD DUP1 SWAP2 SUB SWAP1 LOG1 PUSH0 PUSH1 0x2 SLOAD GT ISZERO PUSH2 0x495 JUMPI PUSH0 PUSH0 SWAP1 SLOAD SWAP1 PUSH2 0x100 EXP SWAP1 DIV PUSH20 0xFFFFFFFFFFFFFFFFFFFFFFFFFFFFFFFFFFFFFFFF AND PUSH20 0xFFFFFFFFFFFFFFFFFFFFFFFFFFFFFFFFFFFFFFFF AND PUSH2 0x8FC PUSH1 0x2 SLOAD SWAP1 DUP2 ISZERO MUL SWAP1 PUSH1 0x40 MLOAD PUSH0 PUSH1 0x40 MLOAD DUP1 DUP4 SUB DUP2 DUP6 DUP9 DUP9 CALL SWAP4 POP POP POP POP ISZERO DUP1 ISZERO PUSH2 0x493 JUMPI RETURNDATASIZE PUSH0 PUSH0 RETURNDATACOPY RETURNDATASIZE PUSH0 REVERT JUMPDEST POP JUMPDEST POP JUMP JUMPDEST PUSH0 PUSH0 SWAP1 SLOAD SWAP1 PUSH2 0x100 EXP SWAP1 DIV PUSH20 0xFFFFFFFFFFFFFFFFFFFFFFFFFFFFFFFFFFFFFFFF AND DUP2 JUMP JUMPDEST PUSH0 PUSH1 0x4 PUSH0 CALLER PUSH20 0xFFFFFFFFFFFFFFFFFFFFFFFFFFFFFFFFFFFFFFFF AND PUSH20 0xFFFFFFFFFFFFFFFFFFFFFFFFFFFFFFFFFFFFFFFF AND DUP2 MSTORE PUSH1 0x20 ADD SWAP1 DUP2 MSTORE PUSH1 0x20 ADD PUSH0 KECCAK256 SLOAD SWAP1 POP PUSH0 DUP2 GT PUSH2 0x53F JUMPI PUSH1 0x40 MLOAD PUSH32 0x8C379A000000000000000000000000000000000000000000000000000000000 DUP2 MSTORE PUSH1 0x4 ADD PUSH2 0x536 SWAP1 PUSH2 0x12B7 JUMP JUMPDEST PUSH1 0x40 MLOAD DUP1 SWAP2 SUB SWAP1 REVERT JUMPDEST PUSH0 PUSH1 0x4 PUSH0 CALLER PUSH20 0xFFFFFFFFFFFFFFFFFFFFFFFFFFFFFFFFFFFFFFFF AND PUSH20 0xFFFFFFFFFFFFFFFFFFFFFFFFFFFFFFFFFFFFFFFF AND DUP2 MSTORE PUSH1 0x20 ADD SWAP1 DUP2 MSTORE PUSH1 0x20 ADD PUSH0 KECCAK256 DUP2 SWAP1 SSTORE POP CALLER PUSH20 0xFFFFFFFFFFFFFFFFFFFFFFFFFFFFFFFFFFFFFFFF AND PUSH2 0x8FC DUP3 SWAP1 DUP2 ISZERO MUL SWAP1 PUSH1 0x40 MLOAD PUSH0 PUSH1 0x40 MLOAD DUP1 DUP4 SUB DUP2 DUP6 DUP9 DUP9 CALL SWAP4 POP POP POP POP ISZERO DUP1 ISZERO PUSH2 0x5C4 JUMPI RETURNDATASIZE PUSH0 PUSH0 RETURNDATACOPY RETURNDATASIZE PUSH0 REVERT JUMPDEST POP POP JUMP JUMPDEST PUSH1 0x2 DUP1 PUSH1 0x3 DUP2 GT ISZERO PUSH2 0x5DD JUMPI PUSH2 0x5DC PUSH2 0xE28 JUMP JUMPDEST JUMPDEST PUSH1 0x5 PUSH0 SWAP1 SLOAD SWAP1 PUSH2 0x100 EXP SWAP1 DIV PUSH1 0xFF AND PUSH1 0x3 DUP2 GT ISZERO PUSH2 0x5FE JUMPI PUSH2 0x5FD PUSH2 0xE28 JUMP JUMPDEST JUMPDEST EQ PUSH2 0x63E JUMPI PUSH1 0x40 MLOAD PUSH32 0x8C379A000000000000000000000000000000000000000000000000000000000 DUP2 MSTORE PUSH1 0x4 ADD PUSH2 0x635 SWAP1 PUSH2 0x11C0 JUMP JUMPDEST PUSH1 0x40 MLOAD DUP1 SWAP2 SUB SWAP1 REVERT JUMPDEST PUSH0 PUSH1 0x3 PUSH0 CALLER PUSH20 0xFFFFFFFFFFFFFFFFFFFFFFFFFFFFFFFFFFFFFFFF AND PUSH20 0xFFFFFFFFFFFFFFFFFFFFFFFFFFFFFFFFFFFFFFFF AND DUP2 MSTORE PUSH1 0x20 ADD SWAP1 DUP2 MSTORE PUSH1 0x20 ADD PUSH0 KECCAK256 SWAP1 POP PUSH0 DUP2 PUSH1 0x1 ADD SLOAD GT PUSH2 0x6C4 JUMPI PUSH1 0x40 MLOAD PUSH32 0x8C379A000000000000000000000000000000000000000000000000000000000 DUP2 MSTORE PUSH1 0x4 ADD PUSH2 0x6BB SWAP1 PUSH2 0x131F JUMP JUMPDEST PUSH1 0x40 MLOAD DUP1 SWAP2 SUB SWAP1 REVERT JUMPDEST PUSH0 DUP5 DUP5 PUSH1 0x40 MLOAD PUSH1 0x20 ADD PUSH2 0x6D8 SWAP3 SWAP2 SWAP1 PUSH2 0x137D JUMP JUMPDEST PUSH1 0x40 MLOAD PUSH1 0x20 DUP2 DUP4 SUB SUB DUP2 MSTORE SWAP1 PUSH1 0x40 MSTORE DUP1 MLOAD SWAP1 PUSH1 0x20 ADD KECCAK256 SWAP1 POP DUP2 PUSH0 ADD SLOAD DUP2 EQ PUSH2 0x735 JUMPI PUSH1 0x40 MLOAD PUSH32 0x8C379A000000000000000000000000000000000000000000000000000000000 DUP2 MSTORE PUSH1 0x4 ADD PUSH2 0x72C SWAP1 PUSH2 0x13F2 JUMP JUMPDEST PUSH1 0x40 MLOAD DUP1 SWAP2 SUB SWAP1 REVERT JUMPDEST PUSH0 PUSH8 0xDE0B6B3A7640000 DUP7 PUSH2 0x74A SWAP2 SWAP1 PUSH2 0x143D JUMP JUMPDEST SWAP1 POP PUSH0 PUSH0 SHL PUSH1 0x3 PUSH0 CALLER PUSH20 0xFFFFFFFFFFFFFFFFFFFFFFFFFFFFFFFFFFFFFFFF AND PUSH20 0xFFFFFFFFFFFFFFFFFFFFFFFFFFFFFFFFFFFFFFFF AND DUP2 MSTORE PUSH1 0x20 ADD SWAP1 DUP2 MSTORE PUSH1 0x20 ADD PUSH0 KECCAK256 PUSH0 ADD DUP2 SWAP1 SSTORE POP PUSH0 DUP4 PUSH1 0x1 ADD SLOAD SWAP1 POP DUP7 DUP5 PUSH1 0x1 ADD SLOAD LT ISZERO DUP1 ISZERO PUSH2 0x7AD JUMPI POP PUSH0 DUP8 GT JUMPDEST ISZERO PUSH2 0x7D1 JUMPI PUSH2 0x7BC CALLER DUP4 PUSH2 0xCF9 JUMP JUMPDEST ISZERO PUSH2 0x7D0 JUMPI DUP2 DUP2 PUSH2 0x7CD SWAP2 SWAP1 PUSH2 0x147E JUMP JUMPDEST SWAP1 POP JUMPDEST JUMPDEST PUSH0 DUP5 PUSH1 0x1 ADD DUP2 SWAP1 SSTORE POP PUSH0 DUP2 GT ISZERO PUSH2 0x827 JUMPI CALLER PUSH20 0xFFFFFFFFFFFFFFFFFFFFFFFFFFFFFFFFFFFFFFFF AND PUSH2 0x8FC DUP3 SWAP1 DUP2 ISZERO MUL SWAP1 PUSH1 0x40 MLOAD PUSH0 PUSH1 0x40 MLOAD DUP1 DUP4 SUB DUP2 DUP6 DUP9 DUP9 CALL SWAP4 POP POP POP POP ISZERO DUP1 ISZERO PUSH2 0x825 JUMPI RETURNDATASIZE PUSH0 PUSH0 RETURNDATACOPY RETURNDATASIZE PUSH0 REVERT JUMPDEST POP JUMPDEST POP POP POP POP POP POP POP JUMP JUMPDEST PUSH1 0x3 PUSH1 0x20 MSTORE DUP1 PUSH0 MSTORE PUSH1 0x40 PUSH0 KECCAK256 PUSH0 SWAP2 POP SWAP1 POP DUP1 PUSH0 ADD SLOAD SWAP1 DUP1 PUSH1 0x1 ADD SLOAD SWAP1 POP DUP3 JUMP JUMPDEST PUSH1 0x1 PUSH0 SWAP1 SLOAD SWAP1 PUSH2 0x100 EXP SWAP1 DIV PUSH20 0xFFFFFFFFFFFFFFFFFFFFFFFFFFFFFFFFFFFFFFFF AND DUP2 JUMP JUMPDEST PUSH1 0x1 DUP1 PUSH1 0x3 DUP2 GT ISZERO PUSH2 0x88A JUMPI PUSH2 0x889 PUSH2 0xE28 JUMP JUMPDEST JUMPDEST PUSH1 0x5 PUSH0 SWAP1 SLOAD SWAP1 PUSH2 0x100 EXP SWAP1 DIV PUSH1 0xFF AND PUSH1 0x3 DUP2 GT ISZERO PUSH2 0x8AB JUMPI PUSH2 0x8AA PUSH2 0xE28 JUMP JUMPDEST JUMPDEST EQ PUSH2 0x8EB JUMPI PUSH1 0x40 MLOAD PUSH32 0x8C379A000000000000000000000000000000000000000000000000000000000 DUP2 MSTORE PUSH1 0x4 ADD PUSH2 0x8E2 SWAP1 PUSH2 0x11C0 JUMP JUMPDEST PUSH1 0x40 MLOAD DUP1 SWAP2 SUB SWAP1 REVERT JUMPDEST PUSH0 PUSH0 SHL DUP3 SUB PUSH2 0x92F JUMPI PUSH1 0x40 MLOAD PUSH32 0x8C379A000000000000000000000000000000000000000000000000000000000 DUP2 MSTORE PUSH1 0x4 ADD PUSH2 0x926 SWAP1 PUSH2 0x14FB JUMP JUMPDEST PUSH1 0x40 MLOAD DUP1 SWAP2 SUB SWAP1 REVERT JUMPDEST PUSH0 PUSH0 SHL PUSH1 0x3 PUSH0 CALLER PUSH20 0xFFFFFFFFFFFFFFFFFFFFFFFFFFFFFFFFFFFFFFFF AND PUSH20 0xFFFFFFFFFFFFFFFFFFFFFFFFFFFFFFFFFFFFFFFF AND DUP2 MSTORE PUSH1 0x20 ADD SWAP1 DUP2 MSTORE PUSH1 0x20 ADD PUSH0 KECCAK256 PUSH0 ADD SLOAD EQ PUSH2 0x9B2 JUMPI PUSH1 0x40 MLOAD PUSH32 0x8C379A000000000000000000000000000000000000000000000000000000000 DUP2 MSTORE PUSH1 0x4 ADD PUSH2 0x9A9 SWAP1 PUSH2 0x1563 JUMP JUMPDEST PUSH1 0x40 MLOAD DUP1 SWAP2 SUB SWAP1 REVERT JUMPDEST PUSH0 CALLVALUE GT PUSH2 0x9F4 JUMPI PUSH1 0x40 MLOAD PUSH32 0x8C379A000000000000000000000000000000000000000000000000000000000 DUP2 MSTORE PUSH1 0x4 ADD PUSH2 0x9EB SWAP1 PUSH2 0x15CB JUMP JUMPDEST PUSH1 0x40 MLOAD DUP1 SWAP2 SUB SWAP1 REVERT JUMPDEST PUSH1 0x40 MLOAD DUP1 PUSH1 0x40 ADD PUSH1 0x40 MSTORE DUP1 DUP4 DUP2 MSTORE PUSH1 0x20 ADD CALLVALUE DUP2 MSTORE POP PUSH1 0x3 PUSH0 CALLER PUSH20 0xFFFFFFFFFFFFFFFFFFFFFFFFFFFFFFFFFFFFFFFF AND PUSH20 0xFFFFFFFFFFFFFFFFFFFFFFFFFFFFFFFFFFFFFFFF AND DUP2 MSTORE PUSH1 0x20 ADD SWAP1 DUP2 MSTORE PUSH1 0x20 ADD PUSH0 KECCAK256 PUSH0 DUP3 ADD MLOAD DUP2 PUSH0 ADD SSTORE PUSH1 0x20 DUP3 ADD MLOAD DUP2 PUSH1 0x1 ADD SSTORE SWAP1 POP POP POP POP JUMP JUMPDEST PUSH0 PUSH0 SWAP1 SLOAD SWAP1 PUSH2 0x100 EXP SWAP1 DIV PUSH20 0xFFFFFFFFFFFFFFFFFFFFFFFFFFFFFFFFFFFFFFFF AND PUSH20 0xFFFFFFFFFFFFFFFFFFFFFFFFFFFFFFFFFFFFFFFF AND CALLER PUSH20 0xFFFFFFFFFFFFFFFFFFFFFFFFFFFFFFFFFFFFFFFF AND EQ PUSH2 0xAED JUMPI PUSH1 0x40 MLOAD PUSH32 0x8C379A000000000000000000000000000000000000000000000000000000000 DUP2 MSTORE PUSH1 0x4 ADD PUSH2 0xAE4 SWAP1 PUSH2 0x1158 JUMP JUMPDEST PUSH1 0x40 MLOAD DUP1 SWAP2 SUB SWAP1 REVERT JUMPDEST PUSH1 0x3 DUP1 DUP2 GT ISZERO PUSH2 0xB00 JUMPI PUSH2 0xAFF PUSH2 0xE28 JUMP JUMPDEST JUMPDEST PUSH1 0x5 PUSH0 SWAP1 SLOAD SWAP1 PUSH2 0x100 EXP SWAP1 DIV PUSH1 0xFF AND PUSH1 0x3 DUP2 GT ISZERO PUSH2 0xB21 JUMPI PUSH2 0xB20 PUSH2 0xE28 JUMP JUMPDEST JUMPDEST SUB PUSH2 0xB61 JUMPI PUSH1 0x40 MLOAD PUSH32 0x8C379A000000000000000000000000000000000000000000000000000000000 DUP2 MSTORE PUSH1 0x4 ADD PUSH2 0xB58 SWAP1 PUSH2 0x1633 JUMP JUMPDEST PUSH1 0x40 MLOAD DUP1 SWAP2 SUB SWAP1 REVERT JUMPDEST PUSH0 PUSH1 0x3 DUP2 GT ISZERO PUSH2 0xB74 JUMPI PUSH2 0xB73 PUSH2 0xE28 JUMP JUMPDEST JUMPDEST PUSH1 0x5 PUSH0 SWAP1 SLOAD SWAP1 PUSH2 0x100 EXP SWAP1 DIV PUSH1 0xFF AND PUSH1 0x3 DUP2 GT ISZERO PUSH2 0xB95 JUMPI PUSH2 0xB94 PUSH2 0xE28 JUMP JUMPDEST JUMPDEST SUB PUSH2 0xBF5 JUMPI PUSH1 0x1 PUSH1 0x5 PUSH0 PUSH2 0x100 EXP DUP2 SLOAD DUP2 PUSH1 0xFF MUL NOT AND SWAP1 DUP4 PUSH1 0x3 DUP2 GT ISZERO PUSH2 0xBBF JUMPI PUSH2 0xBBE PUSH2 0xE28 JUMP JUMPDEST JUMPDEST MUL OR SWAP1 SSTORE POP PUSH32 0x2C124E22EE7DA1C9905BBB317CF67658C1CC3EA1C0953B1633F85D0B5C281D9 PUSH1 0x40 MLOAD PUSH1 0x40 MLOAD DUP1 SWAP2 SUB SWAP1 LOG1 PUSH2 0xCF1 JUMP JUMPDEST PUSH1 0x1 PUSH1 0x3 DUP2 GT ISZERO PUSH2 0xC09 JUMPI PUSH2 0xC08 PUSH2 0xE28 JUMP JUMPDEST JUMPDEST PUSH1 0x5 PUSH0 SWAP1 SLOAD SWAP1 PUSH2 0x100 EXP SWAP1 DIV PUSH1 0xFF AND PUSH1 0x3 DUP2 GT ISZERO PUSH2 0xC2A JUMPI PUSH2 0xC29 PUSH2 0xE28 JUMP JUMPDEST JUMPDEST SUB PUSH2 0xC8A JUMPI PUSH1 0x2 PUSH1 0x5 PUSH0 PUSH2 0x100 EXP DUP2 SLOAD DUP2 PUSH1 0xFF MUL NOT AND SWAP1 DUP4 PUSH1 0x3 DUP2 GT ISZERO PUSH2 0xC54 JUMPI PUSH2 0xC53 PUSH2 0xE28 JUMP JUMPDEST JUMPDEST MUL OR SWAP1 SSTORE POP PUSH32 0x3BCC93D35219AA0512D7C0D1CA10B0231F473E3D5F9396877D1B7215EE0AB3D5 PUSH1 0x40 MLOAD PUSH1 0x40 MLOAD DUP1 SWAP2 SUB SWAP1 LOG1 PUSH2 0xCF0 JUMP JUMPDEST PUSH1 0x2 PUSH1 0x3 DUP2 GT ISZERO PUSH2 0xC9E JUMPI PUSH2 0xC9D PUSH2 0xE28 JUMP JUMPDEST JUMPDEST PUSH1 0x5 PUSH0 SWAP1 SLOAD SWAP1 PUSH2 0x100 EXP SWAP1 DIV PUSH1 0xFF AND PUSH1 0x3 DUP2 GT ISZERO PUSH2 0xCBF JUMPI PUSH2 0xCBE PUSH2 0xE28 JUMP JUMPDEST JUMPDEST SUB PUSH2 0xCEF JUMPI PUSH1 0x3 PUSH1 0x5 PUSH0 PUSH2 0x100 EXP DUP2 SLOAD DUP2 PUSH1 0xFF MUL NOT AND SWAP1 DUP4 PUSH1 0x3 DUP2 GT ISZERO PUSH2 0xCE9 JUMPI PUSH2 0xCE8 PUSH2 0xE28 JUMP JUMPDEST JUMPDEST MUL OR SWAP1 SSTORE POP JUMPDEST JUMPDEST JUMPDEST JUMP JUMPDEST PUSH1 0x2 SLOAD DUP2 JUMP JUMPDEST PUSH0 PUSH1 0x2 SLOAD DUP3 GT PUSH2 0xD0B JUMPI PUSH0 SWAP1 POP PUSH2 0xE22 JUMP JUMPDEST PUSH0 PUSH20 0xFFFFFFFFFFFFFFFFFFFFFFFFFFFFFFFFFFFFFFFF AND PUSH1 0x1 PUSH0 SWAP1 SLOAD SWAP1 PUSH2 0x100 EXP SWAP1 DIV PUSH20 0xFFFFFFFFFFFFFFFFFFFFFFFFFFFFFFFFFFFFFFFF AND PUSH20 0xFFFFFFFFFFFFFFFFFFFFFFFFFFFFFFFFFFFFFFFF AND EQ PUSH2 0xDD6 JUMPI PUSH1 0x2 SLOAD PUSH1 0x4 PUSH0 PUSH1 0x1 PUSH0 SWAP1 SLOAD SWAP1 PUSH2 0x100 EXP SWAP1 DIV PUSH20 0xFFFFFFFFFFFFFFFFFFFFFFFFFFFFFFFFFFFFFFFF AND PUSH20 0xFFFFFFFFFFFFFFFFFFFFFFFFFFFFFFFFFFFFFFFF AND PUSH20 0xFFFFFFFFFFFFFFFFFFFFFFFFFFFFFFFFFFFFFFFF AND DUP2 MSTORE PUSH1 0x20 ADD SWAP1 DUP2 MSTORE PUSH1 0x20 ADD PUSH0 KECCAK256 PUSH0 DUP3 DUP3 SLOAD PUSH2 0xDCE SWAP2 SWAP1 PUSH2 0x1651 JUMP JUMPDEST SWAP3 POP POP DUP2 SWAP1 SSTORE POP JUMPDEST DUP2 PUSH1 0x2 DUP2 SWAP1 SSTORE POP DUP3 PUSH1 0x1 PUSH0 PUSH2 0x100 EXP DUP2 SLOAD DUP2 PUSH20 0xFFFFFFFFFFFFFFFFFFFFFFFFFFFFFFFFFFFFFFFF MUL NOT AND SWAP1 DUP4 PUSH20 0xFFFFFFFFFFFFFFFFFFFFFFFFFFFFFFFFFFFFFFFF AND MUL OR SWAP1 SSTORE POP PUSH1 0x1 SWAP1 POP JUMPDEST SWAP3 SWAP2 POP POP JUMP JUMPDEST PUSH32 0x4E487B7100000000000000000000000000000000000000000000000000000000 PUSH0 MSTORE PUSH1 0x21 PUSH1 0x4 MSTORE PUSH1 0x24 PUSH0 REVERT JUMPDEST PUSH1 0x4 DUP2 LT PUSH2 0xE66 JUMPI PUSH2 0xE65 PUSH2 0xE28 JUMP JUMPDEST JUMPDEST POP JUMP JUMPDEST PUSH0 DUP2 SWAP1 POP PUSH2 0xE76 DUP3 PUSH2 0xE55 JUMP JUMPDEST SWAP2 SWAP1 POP JUMP JUMPDEST PUSH0 PUSH2 0xE85 DUP3 PUSH2 0xE69 JUMP JUMPDEST SWAP1 POP SWAP2 SWAP1 POP JUMP JUMPDEST PUSH2 0xE95 DUP2 PUSH2 0xE7B JUMP JUMPDEST DUP3 MSTORE POP POP JUMP JUMPDEST PUSH0 PUSH1 0x20 DUP3 ADD SWAP1 POP PUSH2 0xEAE PUSH0 DUP4 ADD DUP5 PUSH2 0xE8C JUMP JUMPDEST SWAP3 SWAP2 POP POP JUMP JUMPDEST PUSH0 DUP2 ISZERO ISZERO SWAP1 POP SWAP2 SWAP1 POP JUMP JUMPDEST PUSH2 0xEC8 DUP2 PUSH2 0xEB4 JUMP JUMPDEST DUP3 MSTORE POP POP JUMP JUMPDEST PUSH0 PUSH1 0x20 DUP3 ADD SWAP1 POP PUSH2 0xEE1 PUSH0 DUP4 ADD DUP5 PUSH2 0xEBF JUMP JUMPDEST SWAP3 SWAP2 POP POP JUMP JUMPDEST PUSH0 PUSH20 0xFFFFFFFFFFFFFFFFFFFFFFFFFFFFFFFFFFFFFFFF DUP3 AND SWAP1 POP SWAP2 SWAP1 POP JUMP JUMPDEST PUSH0 PUSH2 0xF10 DUP3 PUSH2 0xEE7 JUMP JUMPDEST SWAP1 POP SWAP2 SWAP1 POP JUMP JUMPDEST PUSH2 0xF20 DUP2 PUSH2 0xF06 JUMP JUMPDEST DUP3 MSTORE POP POP JUMP JUMPDEST PUSH0 PUSH1 0x20 DUP3 ADD SWAP1 POP PUSH2 0xF39 PUSH0 DUP4 ADD DUP5 PUSH2 0xF17 JUMP JUMPDEST SWAP3 SWAP2 POP POP JUMP JUMPDEST PUSH0 PUSH0 REVERT JUMPDEST PUSH0 DUP2 SWAP1 POP SWAP2 SWAP1 POP JUMP JUMPDEST PUSH2 0xF55 DUP2 PUSH2 0xF43 JUMP JUMPDEST DUP2 EQ PUSH2 0xF5F JUMPI PUSH0 PUSH0 REVERT JUMPDEST POP JUMP JUMPDEST PUSH0 DUP2 CALLDATALOAD SWAP1 POP PUSH2 0xF70 DUP2 PUSH2 0xF4C JUMP JUMPDEST SWAP3 SWAP2 POP POP JUMP JUMPDEST PUSH0 DUP2 SWAP1 POP SWAP2 SWAP1 POP JUMP JUMPDEST PUSH2 0xF88 DUP2 PUSH2 0xF76 JUMP JUMPDEST DUP2 EQ PUSH2 0xF92 JUMPI PUSH0 PUSH0 REVERT JUMPDEST POP JUMP JUMPDEST PUSH0 DUP2 CALLDATALOAD SWAP1 POP PUSH2 0xFA3 DUP2 PUSH2 0xF7F JUMP JUMPDEST SWAP3 SWAP2 POP POP JUMP JUMPDEST PUSH0 PUSH0 PUSH1 0x40 DUP4 DUP6 SUB SLT ISZERO PUSH2 0xFBF JUMPI PUSH2 0xFBE PUSH2 0xF3F JUMP JUMPDEST JUMPDEST PUSH0 PUSH2 0xFCC DUP6 DUP3 DUP7 ADD PUSH2 0xF62 JUMP JUMPDEST SWAP3 POP POP PUSH1 0x20 PUSH2 0xFDD DUP6 DUP3 DUP7 ADD PUSH2 0xF95 JUMP JUMPDEST SWAP2 POP POP SWAP3 POP SWAP3 SWAP1 POP JUMP JUMPDEST PUSH0 PUSH2 0xFF1 DUP3 PUSH2 0xEE7 JUMP JUMPDEST SWAP1 POP SWAP2 SWAP1 POP JUMP JUMPDEST PUSH2 0x1001 DUP2 PUSH2 0xFE7 JUMP JUMPDEST DUP2 EQ PUSH2 0x100B JUMPI PUSH0 PUSH0 REVERT JUMPDEST POP JUMP JUMPDEST PUSH0 DUP2 CALLDATALOAD SWAP1 POP PUSH2 0x101C DUP2 PUSH2 0xFF8 JUMP JUMPDEST SWAP3 SWAP2 POP POP JUMP JUMPDEST PUSH0 PUSH1 0x20 DUP3 DUP5 SUB SLT ISZERO PUSH2 0x1037 JUMPI PUSH2 0x1036 PUSH2 0xF3F JUMP JUMPDEST JUMPDEST PUSH0 PUSH2 0x1044 DUP5 DUP3 DUP6 ADD PUSH2 0x100E JUMP JUMPDEST SWAP2 POP POP SWAP3 SWAP2 POP POP JUMP JUMPDEST PUSH2 0x1056 DUP2 PUSH2 0xF76 JUMP JUMPDEST DUP3 MSTORE POP POP JUMP JUMPDEST PUSH2 0x1065 DUP2 PUSH2 0xF43 JUMP JUMPDEST DUP3 MSTORE POP POP JUMP JUMPDEST PUSH0 PUSH1 0x40 DUP3 ADD SWAP1 POP PUSH2 0x107E PUSH0 DUP4 ADD DUP6 PUSH2 0x104D JUMP JUMPDEST PUSH2 0x108B PUSH1 0x20 DUP4 ADD DUP5 PUSH2 0x105C JUMP JUMPDEST SWAP4 SWAP3 POP POP POP JUMP JUMPDEST PUSH2 0x109B DUP2 PUSH2 0xFE7 JUMP JUMPDEST DUP3 MSTORE POP POP JUMP JUMPDEST PUSH0 PUSH1 0x20 DUP3 ADD SWAP1 POP PUSH2 0x10B4 PUSH0 DUP4 ADD DUP5 PUSH2 0x1092 JUMP JUMPDEST SWAP3 SWAP2 POP POP JUMP JUMPDEST PUSH0 PUSH1 0x20 DUP3 DUP5 SUB SLT ISZERO PUSH2 0x10CF JUMPI PUSH2 0x10CE PUSH2 0xF3F JUMP JUMPDEST JUMPDEST PUSH0 PUSH2 0x10DC DUP5 DUP3 DUP6 ADD PUSH2 0xF95 JUMP JUMPDEST SWAP2 POP POP SWAP3 SWAP2 POP POP JUMP JUMPDEST PUSH0 PUSH1 0x20 DUP3 ADD SWAP1 POP PUSH2 0x10F8 PUSH0 DUP4 ADD DUP5 PUSH2 0x105C JUMP JUMPDEST SWAP3 SWAP2 POP POP JUMP JUMPDEST PUSH0 DUP3 DUP3 MSTORE PUSH1 0x20 DUP3 ADD SWAP1 POP SWAP3 SWAP2 POP POP JUMP JUMPDEST PUSH32 0x4F6E6C792062656E656669636961727900000000000000000000000000000000 PUSH0 DUP3 ADD MSTORE POP JUMP JUMPDEST PUSH0 PUSH2 0x1142 PUSH1 0x10 DUP4 PUSH2 0x10FE JUMP JUMPDEST SWAP2 POP PUSH2 0x114D DUP3 PUSH2 0x110E JUMP JUMPDEST PUSH1 0x20 DUP3 ADD SWAP1 POP SWAP2 SWAP1 POP JUMP JUMPDEST PUSH0 PUSH1 0x20 DUP3 ADD SWAP1 POP DUP2 DUP2 SUB PUSH0 DUP4 ADD MSTORE PUSH2 0x116F DUP2 PUSH2 0x1136 JUMP JUMPDEST SWAP1 POP SWAP2 SWAP1 POP JUMP JUMPDEST PUSH32 0x57726F6E67207068617365000000000000000000000000000000000000000000 PUSH0 DUP3 ADD MSTORE POP JUMP JUMPDEST PUSH0 PUSH2 0x11AA PUSH1 0xB DUP4 PUSH2 0x10FE JUMP JUMPDEST SWAP2 POP PUSH2 0x11B5 DUP3 PUSH2 0x1176 JUMP JUMPDEST PUSH1 0x20 DUP3 ADD SWAP1 POP SWAP2 SWAP1 POP JUMP JUMPDEST PUSH0 PUSH1 0x20 DUP3 ADD SWAP1 POP DUP2 DUP2 SUB PUSH0 DUP4 ADD MSTORE PUSH2 0x11D7 DUP2 PUSH2 0x119E JUMP JUMPDEST SWAP1 POP SWAP2 SWAP1 POP JUMP JUMPDEST PUSH32 0x61756374696F6E456E6420616C72656164792063616C6C656400000000000000 PUSH0 DUP3 ADD MSTORE POP JUMP JUMPDEST PUSH0 PUSH2 0x1212 PUSH1 0x19 DUP4 PUSH2 0x10FE JUMP JUMPDEST SWAP2 POP PUSH2 0x121D DUP3 PUSH2 0x11DE JUMP JUMPDEST PUSH1 0x20 DUP3 ADD SWAP1 POP SWAP2 SWAP1 POP JUMP JUMPDEST PUSH0 PUSH1 0x20 DUP3 ADD SWAP1 POP DUP2 DUP2 SUB PUSH0 DUP4 ADD MSTORE PUSH2 0x123F DUP2 PUSH2 0x1206 JUMP JUMPDEST SWAP1 POP SWAP2 SWAP1 POP JUMP JUMPDEST PUSH0 PUSH1 0x40 DUP3 ADD SWAP1 POP PUSH2 0x1259 PUSH0 DUP4 ADD DUP6 PUSH2 0x1092 JUMP JUMPDEST PUSH2 0x1266 PUSH1 0x20 DUP4 ADD DUP5 PUSH2 0x105C JUMP JUMPDEST SWAP4 SWAP3 POP POP POP JUMP JUMPDEST PUSH32 0x4E6F7468696E6720746F20776974686472617700000000000000000000000000 PUSH0 DUP3 ADD MSTORE POP JUMP JUMPDEST PUSH0 PUSH2 0x12A1 PUSH1 0x13 DUP4 PUSH2 0x10FE JUMP JUMPDEST SWAP2 POP PUSH2 0x12AC DUP3 PUSH2 0x126D JUMP JUMPDEST PUSH1 0x20 DUP3 ADD SWAP1 POP SWAP2 SWAP1 POP JUMP JUMPDEST PUSH0 PUSH1 0x20 DUP3 ADD SWAP1 POP DUP2 DUP2 SUB PUSH0 DUP4 ADD MSTORE PUSH2 0x12CE DUP2 PUSH2 0x1295 JUMP JUMPDEST SWAP1 POP SWAP2 SWAP1 POP JUMP JUMPDEST PUSH32 0x4E6F2062696420666F756E640000000000000000000000000000000000000000 PUSH0 DUP3 ADD MSTORE POP JUMP JUMPDEST PUSH0 PUSH2 0x1309 PUSH1 0xC DUP4 PUSH2 0x10FE JUMP JUMPDEST SWAP2 POP PUSH2 0x1314 DUP3 PUSH2 0x12D5 JUMP JUMPDEST PUSH1 0x20 DUP3 ADD SWAP1 POP SWAP2 SWAP1 POP JUMP JUMPDEST PUSH0 PUSH1 0x20 DUP3 ADD SWAP1 POP DUP2 DUP2 SUB PUSH0 DUP4 ADD MSTORE PUSH2 0x1336 DUP2 PUSH2 0x12FD JUMP JUMPDEST SWAP1 POP SWAP2 SWAP1 POP JUMP JUMPDEST PUSH0 DUP2 SWAP1 POP SWAP2 SWAP1 POP JUMP JUMPDEST PUSH2 0x1357 PUSH2 0x1352 DUP3 PUSH2 0xF43 JUMP JUMPDEST PUSH2 0x133D JUMP JUMPDEST DUP3 MSTORE POP POP JUMP JUMPDEST PUSH0 DUP2 SWAP1 POP SWAP2 SWAP1 POP JUMP JUMPDEST PUSH2 0x1377 PUSH2 0x1372 DUP3 PUSH2 0xF76 JUMP JUMPDEST PUSH2 0x135D JUMP JUMPDEST DUP3 MSTORE POP POP JUMP JUMPDEST PUSH0 PUSH2 0x1388 DUP3 DUP6 PUSH2 0x1346 JUMP JUMPDEST PUSH1 0x20 DUP3 ADD SWAP2 POP PUSH2 0x1398 DUP3 DUP5 PUSH2 0x1366 JUMP JUMPDEST PUSH1 0x20 DUP3 ADD SWAP2 POP DUP2 SWAP1 POP SWAP4 SWAP3 POP POP POP JUMP JUMPDEST PUSH32 0x48617368206D69736D6174636800000000000000000000000000000000000000 PUSH0 DUP3 ADD MSTORE POP JUMP JUMPDEST PUSH0 PUSH2 0x13DC PUSH1 0xD DUP4 PUSH2 0x10FE JUMP JUMPDEST SWAP2 POP PUSH2 0x13E7 DUP3 PUSH2 0x13A8 JUMP JUMPDEST PUSH1 0x20 DUP3 ADD SWAP1 POP SWAP2 SWAP1 POP JUMP JUMPDEST PUSH0 PUSH1 0x20 DUP3 ADD SWAP1 POP DUP2 DUP2 SUB PUSH0 DUP4 ADD MSTORE PUSH2 0x1409 DUP2 PUSH2 0x13D0 JUMP JUMPDEST SWAP1 POP SWAP2 SWAP1 POP JUMP JUMPDEST PUSH32 0x4E487B7100000000000000000000000000000000000000000000000000000000 PUSH0 MSTORE PUSH1 0x11 PUSH1 0x4 MSTORE PUSH1 0x24 PUSH0 REVERT JUMPDEST PUSH0 PUSH2 0x1447 DUP3 PUSH2 0xF43 JUMP JUMPDEST SWAP2 POP PUSH2 0x1452 DUP4 PUSH2 0xF43 JUMP JUMPDEST SWAP3 POP DUP3 DUP3 MUL PUSH2 0x1460 DUP2 PUSH2 0xF43 JUMP JUMPDEST SWAP2 POP DUP3 DUP3 DIV DUP5 EQ DUP4 ISZERO OR PUSH2 0x1477 JUMPI PUSH2 0x1476 PUSH2 0x1410 JUMP JUMPDEST JUMPDEST POP SWAP3 SWAP2 POP POP JUMP JUMPDEST PUSH0 PUSH2 0x1488 DUP3 PUSH2 0xF43 JUMP JUMPDEST SWAP2 POP PUSH2 0x1493 DUP4 PUSH2 0xF43 JUMP JUMPDEST SWAP3 POP DUP3 DUP3 SUB SWAP1 POP DUP2 DUP2 GT ISZERO PUSH2 0x14AB JUMPI PUSH2 0x14AA PUSH2 0x1410 JUMP JUMPDEST JUMPDEST SWAP3 SWAP2 POP POP JUMP JUMPDEST PUSH32 0x496E76616C696420626C696E6465642062696400000000000000000000000000 PUSH0 DUP3 ADD MSTORE POP JUMP JUMPDEST PUSH0 PUSH2 0x14E5 PUSH1 0x13 DUP4 PUSH2 0x10FE JUMP JUMPDEST SWAP2 POP PUSH2 0x14F0 DUP3 PUSH2 0x14B1 JUMP JUMPDEST PUSH1 0x20 DUP3 ADD SWAP1 POP SWAP2 SWAP1 POP JUMP JUMPDEST PUSH0 PUSH1 0x20 DUP3 ADD SWAP1 POP DUP2 DUP2 SUB PUSH0 DUP4 ADD MSTORE PUSH2 0x1512 DUP2 PUSH2 0x14D9 JUMP JUMPDEST SWAP1 POP SWAP2 SWAP1 POP JUMP JUMPDEST PUSH32 0x42696420616C7265616479207375626D69747465640000000000000000000000 PUSH0 DUP3 ADD MSTORE POP JUMP JUMPDEST PUSH0 PUSH2 0x154D PUSH1 0x15 DUP4 PUSH2 0x10FE JUMP JUMPDEST SWAP2 POP PUSH2 0x1558 DUP3 PUSH2 0x1519 JUMP JUMPDEST PUSH1 0x20 DUP3 ADD SWAP1 POP SWAP2 SWAP1 POP JUMP JUMPDEST PUSH0 PUSH1 0x20 DUP3 ADD SWAP1 POP DUP2 DUP2 SUB PUSH0 DUP4 ADD MSTORE PUSH2 0x157A DUP2 PUSH2 0x1541 JUMP JUMPDEST SWAP1 POP SWAP2 SWAP1 POP JUMP JUMPDEST PUSH32 0x4465706F736974206D757374206265203E203000000000000000000000000000 PUSH0 DUP3 ADD MSTORE POP JUMP JUMPDEST PUSH0 PUSH2 0x15B5 PUSH1 0x13 DUP4 PUSH2 0x10FE JUMP JUMPDEST SWAP2 POP PUSH2 0x15C0 DUP3 PUSH2 0x1581 JUMP JUMPDEST PUSH1 0x20 DUP3 ADD SWAP1 POP SWAP2 SWAP1 POP JUMP JUMPDEST PUSH0 PUSH1 0x20 DUP3 ADD SWAP1 POP DUP2 DUP2 SUB PUSH0 DUP4 ADD MSTORE PUSH2 0x15E2 DUP2 PUSH2 0x15A9 JUMP JUMPDEST SWAP1 POP SWAP2 SWAP1 POP JUMP JUMPDEST PUSH32 0x416C7265616479206C6173742070686173650000000000000000000000000000 PUSH0 DUP3 ADD MSTORE POP JUMP JUMPDEST PUSH0 PUSH2 0x161D PUSH1 0x12 DUP4 PUSH2 0x10FE JUMP JUMPDEST SWAP2 POP PUSH2 0x1628 DUP3 PUSH2 0x15E9 JUMP JUMPDEST PUSH1 0x20 DUP3 ADD SWAP1 POP SWAP2 SWAP1 POP JUMP JUMPDEST PUSH0 PUSH1 0x20 DUP3 ADD SWAP1 POP DUP2 DUP2 SUB PUSH0 DUP4 ADD MSTORE PUSH2 0x164A DUP2 PUSH2 0x1611 JUMP JUMPDEST SWAP1 POP SWAP2 SWAP1 POP JUMP JUMPDEST PUSH0 PUSH2 0x165B DUP3 PUSH2 0xF43 JUMP JUMPDEST SWAP2 POP PUSH2 0x1666 DUP4 PUSH2 0xF43 JUMP JUMPDEST SWAP3 POP DUP3 DUP3 ADD SWAP1 POP DUP1 DUP3 GT ISZERO PUSH2 0x167E JUMPI PUSH2 0x167D PUSH2 0x1410 JUMP JUMPDEST JUMPDEST SWAP3 SWAP2 POP POP JUMP INVALID LOG2 PUSH5 0x6970667358 0x22 SLT KECCAK256 DUP9 0xDD PUSH29 0x1FC9C06697CF83716DF7A412F735FFDA0380AFDA2BE767A6149809C533 PUSH5 0x736F6C6343 STOP ADDMOD 0x1E STOP CALLER "
		},
		"gasEstimates": {
			"creation": {
				"codeDepositCost": "1163600",
				"executionCost": "55548",
				"totalCost": "1219148"
			},
			"external": {
				"advancePhase()": "35526",
				"auctionEnd()": "infinite",
				"beneficiary()": "2574",
				"bid(bytes32)": "49320",
				"bids(address)": "5048",
				"currentPhase()": "2555",
				"ended()": "2540",
				"highestBid()": "2535",
				"highestBidder()": "2552",
				"reveal(uint256,bytes32)": "infinite",
				"withdraw()": "infinite"
			},
			"internal": {
				"_placeBid(address,uint256)": "infinite"
			}
		},
		"methodIdentifiers": {
			"advancePhase()": "be25a718",
			"auctionEnd()": "2a24f46c",
			"beneficiary()": "38af3eed",
			"bid(bytes32)": "957bb1e0",
			"bids(address)": "62ea82db",
			"currentPhase()": "055ad42e",
			"ended()": "12fa6feb",
			"highestBid()": "d57bde79",
			"highestBidder()": "91f90157",
			"reveal(uint256,bytes32)": "4036778f",
			"withdraw()": "3ccfd60b"
		}
	},
	"abi": [
		{
			"inputs": [],
			"stateMutability": "nonpayable",
			"type": "constructor"
		},
		{
			"anonymous": false,
			"inputs": [
				{
					"indexed": false,
					"internalType": "address",
					"name": "winner",
					"type": "address"
				},
				{
					"indexed": false,
					"internalType": "uint256",
					"name": "highestBid",
					"type": "uint256"
				}
			],
			"name": "AuctionEnded",
			"type": "event"
		},
		{
			"anonymous": false,
			"inputs": [],
			"name": "AuctionInit",
			"type": "event"
		},
		{
			"anonymous": false,
			"inputs": [],
			"name": "BiddingStarted",
			"type": "event"
		},
		{
			"anonymous": false,
			"inputs": [],
			"name": "RevealStarted",
			"type": "event"
		},
		{
			"inputs": [],
			"name": "advancePhase",
			"outputs": [],
			"stateMutability": "nonpayable",
			"type": "function"
		},
		{
			"inputs": [],
			"name": "auctionEnd",
			"outputs": [],
			"stateMutability": "nonpayable",
			"type": "function"
		},
		{
			"inputs": [],
			"name": "beneficiary",
			"outputs": [
				{
					"internalType": "address payable",
					"name": "",
					"type": "address"
				}
			],
			"stateMutability": "view",
			"type": "function"
		},
		{
			"inputs": [
				{
					"internalType": "bytes32",
					"name": "blindBid",
					"type": "bytes32"
				}
			],
			"name": "bid",
			"outputs": [],
			"stateMutability": "payable",
			"type": "function"
		},
		{
			"inputs": [
				{
					"internalType": "address",
					"name": "",
					"type": "address"
				}
			],
			"name": "bids",
			"outputs": [
				{
					"internalType": "bytes32",
					"name": "blindedBid",
					"type": "bytes32"
				},
				{
					"internalType": "uint256",
					"name": "deposit",
					"type": "uint256"
				}
			],
			"stateMutability": "view",
			"type": "function"
		},
		{
			"inputs": [],
			"name": "currentPhase",
			"outputs": [
				{
					"internalType": "enum BlindAuction.Phase",
					"name": "",
					"type": "uint8"
				}
			],
			"stateMutability": "view",
			"type": "function"
		},
		{
			"inputs": [],
			"name": "ended",
			"outputs": [
				{
					"internalType": "bool",
					"name": "",
					"type": "bool"
				}
			],
			"stateMutability": "view",
			"type": "function"
		},
		{
			"inputs": [],
			"name": "highestBid",
			"outputs": [
				{
					"internalType": "uint256",
					"name": "",
					"type": "uint256"
				}
			],
			"stateMutability": "view",
			"type": "function"
		},
		{
			"inputs": [],
			"name": "highestBidder",
			"outputs": [
				{
					"internalType": "address",
					"name": "",
					"type": "address"
				}
			],
			"stateMutability": "view",
			"type": "function"
		},
		{
			"inputs": [
				{
					"internalType": "uint256",
					"name": "value",
					"type": "uint256"
				},
				{
					"internalType": "bytes32",
					"name": "secret",
					"type": "bytes32"
				}
			],
			"name": "reveal",
			"outputs": [],
			"stateMutability": "nonpayable",
			"type": "function"
		},
		{
			"inputs": [],
			"name": "withdraw",
			"outputs": [],
			"stateMutability": "nonpayable",
			"type": "function"
		}
	]
}