{
	"data": {
		"bytecode": {
			"linkReferences": {},
			"object": "608060405234801561000f575f5ffd5b5060405161196d38038061196d83398181016040528101906100319190610147565b3360015f6101000a81548173ffffffffffffffffffffffffffffffffffffffff021916908373ffffffffffffffffffffffffffffffffffffffff160217905550814261007d91906101b2565b600381905550670de0b6b3a76400008161009791906101e5565b6006819055506040518060400160405280600781526020017f46756e64696e6700000000000000000000000000000000000000000000000000815250600490816100e1919061045a565b505f60055f6101000a81548160ff0219169083151502179055505f6002819055505f6007819055505050610529565b5f5ffd5b5f819050919050565b61012681610114565b8114610130575f5ffd5b50565b5f815190506101418161011d565b92915050565b5f5f6040838503121561015d5761015c610110565b5b5f61016a85828601610133565b925050602061017b85828601610133565b9150509250929050565b7f4e487b71000000000000000000000000000000000000000000000000000000005f52601160045260245ffd5b5f6101bc82610114565b91506101c783610114565b92508282019050808211156101df576101de610185565b5b92915050565b5f6101ef82610114565b91506101fa83610114565b925082820261020881610114565b9150828204841483151761021f5761021e610185565b5b5092915050565b5f81519050919050565b7f4e487b71000000000000000000000000000000000000000000000000000000005f52604160045260245ffd5b7f4e487b71000000000000000000000000000000000000000000000000000000005f52602260045260245ffd5b5f60028204905060018216806102a157607f821691505b6020821081036102b4576102b361025d565b5b50919050565b5f819050815f5260205f209050919050565b5f6020601f8301049050919050565b5f82821b905092915050565b5f600883026103167fffffffffffffffffffffffffffffffffffffffffffffffffffffffffffffffff826102db565b61032086836102db565b95508019841693508086168417925050509392505050565b5f819050919050565b5f61035b61035661035184610114565b610338565b610114565b9050919050565b5f819050919050565b61037483610341565b61038861038082610362565b8484546102e7565b825550505050565b5f5f905090565b61039f610390565b6103aa81848461036b565b505050565b5b818110156103cd576103c25f82610397565b6001810190506103b0565b5050565b601f821115610412576103e3816102ba565b6103ec846102cc565b810160208510156103fb578190505b61040f610407856102cc565b8301826103af565b50505b505050565b5f82821c905092915050565b5f6104325f1984600802610417565b1980831691505092915050565b5f61044a8383610423565b9150826002028217905092915050565b61046382610226565b67ffffffffffffffff81111561047c5761047b610230565b5b610486825461028a565b6104918282856103d1565b5f60209050601f8311600181146104c2575f84156104b0578287015190505b6104ba858261043f565b865550610521565b601f1984166104d0866102ba565b5f5b828110156104f7578489015182556001820191506020850194506020810190506104d2565b868310156105145784890151610510601f891682610423565b8355505b6001600288020188555050505b505050505050565b611437806105365f395ff3fe60806040526004361061009b575f3560e01c80632636b945116100635780632636b9451461015d57806329dcb0cf146101875780633feb5f2b146101b15780638da5cb5b146101ee578063b2f5a54c14610218578063b60d4288146102425761009b565b806301cb3b201461009f57806312fa6feb146100b5578063132ae5e9146100df5780631a39d8ef14610109578063200d2ed214610133575b5f5ffd5b3480156100aa575f5ffd5b506100b361024c565b005b3480156100c0575f5ffd5b506100c96105fc565b6040516100d69190610a04565b60405180910390f35b3480156100ea575f5ffd5b506100f361060e565b6040516101009190610a35565b60405180910390f35b348015610114575f5ffd5b5061011d610614565b60405161012a9190610a35565b60405180910390f35b34801561013e575f5ffd5b5061014761061a565b6040516101549190610abe565b60405180910390f35b348015610168575f5ffd5b506101716106a6565b60405161017e9190610a35565b60405180910390f35b348015610192575f5ffd5b5061019b6106ac565b6040516101a89190610a35565b60405180910390f35b3480156101bc575f5ffd5b506101d760048036038101906101d29190610b0c565b6106b2565b6040516101e5929190610b76565b60405180910390f35b3480156101f9575f5ffd5b506102026106f0565b60405161020f9190610b9d565b60405180910390f35b348015610223575f5ffd5b5061022c610715565b6040516102399190610c6d565b60405180910390f35b61024a610808565b005b60015f9054906101000a900473ffffffffffffffffffffffffffffffffffffffff1673ffffffffffffffffffffffffffffffffffffffff163373ffffffffffffffffffffffffffffffffffffffff16146102db576040517f08c379a00000000000000000000000000000000000000000000000000000000081526004016102d290610cfd565b60405180910390fd5b60055f9054906101000a900460ff161561032a576040517f08c379a000000000000000000000000000000000000000000000000000000000815260040161032190610d65565b60405180910390fd5b60035442101561036f576040517f08c379a000000000000000000000000000000000000000000000000000000000815260040161036690610dcd565b60405180910390fd5b60065460075410610490576040518060400160405280601281526020017f43616d706169676e205375636365656465640000000000000000000000000000815250600490816103be9190611015565b505f60015f9054906101000a900473ffffffffffffffffffffffffffffffffffffffff1673ffffffffffffffffffffffffffffffffffffffff1660075460405161040790611111565b5f6040518083038185875af1925050503d805f8114610441576040519150601f19603f3d011682016040523d82523d5f602084013e610446565b606091505b505090508061048a576040517f08c379a00000000000000000000000000000000000000000000000000000000081526004016104819061116f565b60405180910390fd5b506105e0565b6040518060400160405280600f81526020017f43616d706169676e204661696c65640000000000000000000000000000000000815250600490816104d49190611015565b505f5f90505b6002548110156105de575f5f5f8381526020019081526020015f205f015f9054906101000a900473ffffffffffffffffffffffffffffffffffffffff1673ffffffffffffffffffffffffffffffffffffffff165f5f8481526020019081526020015f206001015460405161054d90611111565b5f6040518083038185875af1925050503d805f8114610587576040519150601f19603f3d011682016040523d82523d5f602084013e61058c565b606091505b50509050806105d0576040517f08c379a00000000000000000000000000000000000000000000000000000000081526004016105c7906111d7565b60405180910390fd5b5080806001019150506104da565b505b600160055f6101000a81548160ff021916908315150217905550565b60055f9054906101000a900460ff1681565b60025481565b60075481565b6004805461062790610e45565b80601f016020809104026020016040519081016040528092919081815260200182805461065390610e45565b801561069e5780601f106106755761010080835404028352916020019161069e565b820191905f5260205f20905b81548152906001019060200180831161068157829003601f168201915b505050505081565b60065481565b60035481565b5f602052805f5260405f205f91509050805f015f9054906101000a900473ffffffffffffffffffffffffffffffffffffffff16908060010154905082565b60015f9054906101000a900473ffffffffffffffffffffffffffffffffffffffff1681565b60605f60025467ffffffffffffffff81111561073457610733610deb565b5b6040519080825280602002602001820160405280156107625781602001602082028036833780820191505090505b5090505f5f90505b600254811015610800575f5f8281526020019081526020015f205f015f9054906101000a900473ffffffffffffffffffffffffffffffffffffffff168282815181106107b9576107b86111f5565b5b602002602001019073ffffffffffffffffffffffffffffffffffffffff16908173ffffffffffffffffffffffffffffffffffffffff1681525050808060010191505061076a565b508091505090565b60055f9054906101000a900460ff1615610857576040517f08c379a000000000000000000000000000000000000000000000000000000000815260040161084e9061126c565b60405180910390fd5b600354421061089b576040517f08c379a0000000000000000000000000000000000000000000000000000000008152600401610892906112d4565b60405180910390fd5b5f34116108dd576040517f08c379a00000000000000000000000000000000000000000000000000000000081526004016108d49061133c565b60405180910390fd5b60405180604001604052803373ffffffffffffffffffffffffffffffffffffffff168152602001348152505f5f60025481526020019081526020015f205f820151815f015f6101000a81548173ffffffffffffffffffffffffffffffffffffffff021916908373ffffffffffffffffffffffffffffffffffffffff1602179055506020820151816001015590505060025f81548092919061097d90611387565b91905055503460075f82825461099391906113ce565b925050819055503373ffffffffffffffffffffffffffffffffffffffff167f5af8184bef8e4b45eb9f6ed7734d04da38ced226495548f46e0c8ff8d7d9a524346040516109e09190610a35565b60405180910390a2565b5f8115159050919050565b6109fe816109ea565b82525050565b5f602082019050610a175f8301846109f5565b92915050565b5f819050919050565b610a2f81610a1d565b82525050565b5f602082019050610a485f830184610a26565b92915050565b5f81519050919050565b5f82825260208201905092915050565b8281835e5f83830152505050565b5f601f19601f8301169050919050565b5f610a9082610a4e565b610a9a8185610a58565b9350610aaa818560208601610a68565b610ab381610a76565b840191505092915050565b5f6020820190508181035f830152610ad68184610a86565b905092915050565b5f5ffd5b610aeb81610a1d565b8114610af5575f5ffd5b50565b5f81359050610b0681610ae2565b92915050565b5f60208284031215610b2157610b20610ade565b5b5f610b2e84828501610af8565b91505092915050565b5f73ffffffffffffffffffffffffffffffffffffffff82169050919050565b5f610b6082610b37565b9050919050565b610b7081610b56565b82525050565b5f604082019050610b895f830185610b67565b610b966020830184610a26565b9392505050565b5f602082019050610bb05f830184610b67565b92915050565b5f81519050919050565b5f82825260208201905092915050565b5f819050602082019050919050565b610be881610b56565b82525050565b5f610bf98383610bdf565b60208301905092915050565b5f602082019050919050565b5f610c1b82610bb6565b610c258185610bc0565b9350610c3083610bd0565b805f5b83811015610c60578151610c478882610bee565b9750610c5283610c05565b925050600181019050610c33565b5085935050505092915050565b5f6020820190508181035f830152610c858184610c11565b905092915050565b7f4f4e4c59204f574e45522043414e2043414c4c20544849532046554e4354494f5f8201527f4e00000000000000000000000000000000000000000000000000000000000000602082015250565b5f610ce7602183610a58565b9150610cf282610c8d565b604082019050919050565b5f6020820190508181035f830152610d1481610cdb565b9050919050565b7f416c726561647920656e646564000000000000000000000000000000000000005f82015250565b5f610d4f600d83610a58565b9150610d5a82610d1b565b602082019050919050565b5f6020820190508181035f830152610d7c81610d43565b9050919050565b7f446561646c696e65206e6f7420726561636865642079657400000000000000005f82015250565b5f610db7601883610a58565b9150610dc282610d83565b602082019050919050565b5f6020820190508181035f830152610de481610dab565b9050919050565b7f4e487b71000000000000000000000000000000000000000000000000000000005f52604160045260245ffd5b7f4e487b71000000000000000000000000000000000000000000000000000000005f52602260045260245ffd5b5f6002820490506001821680610e5c57607f821691505b602082108103610e6f57610e6e610e18565b5b50919050565b5f819050815f5260205f209050919050565b5f6020601f8301049050919050565b5f82821b905092915050565b5f60088302610ed17fffffffffffffffffffffffffffffffffffffffffffffffffffffffffffffffff82610e96565b610edb8683610e96565b95508019841693508086168417925050509392505050565b5f819050919050565b5f610f16610f11610f0c84610a1d565b610ef3565b610a1d565b9050919050565b5f819050919050565b610f2f83610efc565b610f43610f3b82610f1d565b848454610ea2565b825550505050565b5f5f905090565b610f5a610f4b565b610f65818484610f26565b505050565b5b81811015610f8857610f7d5f82610f52565b600181019050610f6b565b5050565b601f821115610fcd57610f9e81610e75565b610fa784610e87565b81016020851015610fb6578190505b610fca610fc285610e87565b830182610f6a565b50505b505050565b5f82821c905092915050565b5f610fed5f1984600802610fd2565b1980831691505092915050565b5f6110058383610fde565b9150826002028217905092915050565b61101e82610a4e565b67ffffffffffffffff81111561103757611036610deb565b5b6110418254610e45565b61104c828285610f8c565b5f60209050601f83116001811461107d575f841561106b578287015190505b6110758582610ffa565b8655506110dc565b601f19841661108b86610e75565b5f5b828110156110b25784890151825560018201915060208501945060208101905061108d565b868310156110cf57848901516110cb601f891682610fde565b8355505b6001600288020188555050505b505050505050565b5f81905092915050565b50565b5f6110fc5f836110e4565b9150611107826110ee565b5f82019050919050565b5f61111b826110f1565b9150819050919050565b7f5472616e7366657220746f206f776e6572206661696c656400000000000000005f82015250565b5f611159601883610a58565b915061116482611125565b602082019050919050565b5f6020820190508181035f8301526111868161114d565b9050919050565b7f526566756e64206661696c6564000000000000000000000000000000000000005f82015250565b5f6111c1600d83610a58565b91506111cc8261118d565b602082019050919050565b5f6020820190508181035f8301526111ee816111b5565b9050919050565b7f4e487b71000000000000000000000000000000000000000000000000000000005f52603260045260245ffd5b7f46554e44494e4720414c524541445920454e44454400000000000000000000005f82015250565b5f611256601583610a58565b915061126182611222565b602082019050919050565b5f6020820190508181035f8301526112838161124a565b9050919050565b7f444541444c494e452050415353454400000000000000000000000000000000005f82015250565b5f6112be600f83610a58565b91506112c98261128a565b602082019050919050565b5f6020820190508181035f8301526112eb816112b2565b9050919050565b7f4e45454420544f2053454e44204f5645522030204554480000000000000000005f82015250565b5f611326601783610a58565b9150611331826112f2565b602082019050919050565b5f6020820190508181035f8301526113538161131a565b9050919050565b7f4e487b71000000000000000000000000000000000000000000000000000000005f52601160045260245ffd5b5f61139182610a1d565b91507fffffffffffffffffffffffffffffffffffffffffffffffffffffffffffffffff82036113c3576113c261135a565b5b600182019050919050565b5f6113d882610a1d565b91506113e383610a1d565b92508282019050808211156113fb576113fa61135a565b5b9291505056fea26469706673582212203fda91ceb5dcde28946ac71b57d413cbec4287cdbd596219e12d56123dd846ca64736f6c634300081e0033",
			"opcodes": "PUSH1 0x80 PUSH1 0x40 MSTORE CALLVALUE DUP1 ISZERO PUSH2 0xF JUMPI PUSH0 PUSH0 REVERT JUMPDEST POP PUSH1 0x40 MLOAD PUSH2 0x196D CODESIZE SUB DUP1 PUSH2 0x196D DUP4 CODECOPY DUP2 DUP2 ADD PUSH1 0x40 MSTORE DUP2 ADD SWAP1 PUSH2 0x31 SWAP2 SWAP1 PUSH2 0x147 JUMP JUMPDEST CALLER PUSH1 0x1 PUSH0 PUSH2 0x100 EXP DUP2 SLOAD DUP2 PUSH20 0xFFFFFFFFFFFFFFFFFFFFFFFFFFFFFFFFFFFFFFFF MUL NOT AND SWAP1 DUP4 PUSH20 0xFFFFFFFFFFFFFFFFFFFFFFFFFFFFFFFFFFFFFFFF AND MUL OR SWAP1 SSTORE POP DUP2 TIMESTAMP PUSH2 0x7D SWAP2 SWAP1 PUSH2 0x1B2 JUMP JUMPDEST PUSH1 0x3 DUP2 SWAP1 SSTORE POP PUSH8 0xDE0B6B3A7640000 DUP2 PUSH2 0x97 SWAP2 SWAP1 PUSH2 0x1E5 JUMP JUMPDEST PUSH1 0x6 DUP2 SWAP1 SSTORE POP PUSH1 0x40 MLOAD DUP1 PUSH1 0x40 ADD PUSH1 0x40 MSTORE DUP1 PUSH1 0x7 DUP2 MSTORE PUSH1 0x20 ADD PUSH32 0x46756E64696E6700000000000000000000000000000000000000000000000000 DUP2 MSTORE POP PUSH1 0x4 SWAP1 DUP2 PUSH2 0xE1 SWAP2 SWAP1 PUSH2 0x45A JUMP JUMPDEST POP PUSH0 PUSH1 0x5 PUSH0 PUSH2 0x100 EXP DUP2 SLOAD DUP2 PUSH1 0xFF MUL NOT AND SWAP1 DUP4 ISZERO ISZERO MUL OR SWAP1 SSTORE POP PUSH0 PUSH1 0x2 DUP2 SWAP1 SSTORE POP PUSH0 PUSH1 0x7 DUP2 SWAP1 SSTORE POP POP POP PUSH2 0x529 JUMP JUMPDEST PUSH0 PUSH0 REVERT JUMPDEST PUSH0 DUP2 SWAP1 POP SWAP2 SWAP1 POP JUMP JUMPDEST PUSH2 0x126 DUP2 PUSH2 0x114 JUMP JUMPDEST DUP2 EQ PUSH2 0x130 JUMPI PUSH0 PUSH0 REVERT JUMPDEST POP JUMP JUMPDEST PUSH0 DUP2 MLOAD SWAP1 POP PUSH2 0x141 DUP2 PUSH2 0x11D JUMP JUMPDEST SWAP3 SWAP2 POP POP JUMP JUMPDEST PUSH0 PUSH0 PUSH1 0x40 DUP4 DUP6 SUB SLT ISZERO PUSH2 0x15D JUMPI PUSH2 0x15C PUSH2 0x110 JUMP JUMPDEST JUMPDEST PUSH0 PUSH2 0x16A DUP6 DUP3 DUP7 ADD PUSH2 0x133 JUMP JUMPDEST SWAP3 POP POP PUSH1 0x20 PUSH2 0x17B DUP6 DUP3 DUP7 ADD PUSH2 0x133 JUMP JUMPDEST SWAP2 POP POP SWAP3 POP SWAP3 SWAP1 POP JUMP JUMPDEST PUSH32 0x4E487B7100000000000000000000000000000000000000000000000000000000 PUSH0 MSTORE PUSH1 0x11 PUSH1 0x4 MSTORE PUSH1 0x24 PUSH0 REVERT JUMPDEST PUSH0 PUSH2 0x1BC DUP3 PUSH2 0x114 JUMP JUMPDEST SWAP2 POP PUSH2 0x1C7 DUP4 PUSH2 0x114 JUMP JUMPDEST SWAP3 POP DUP3 DUP3 ADD SWAP1 POP DUP1 DUP3 GT ISZERO PUSH2 0x1DF JUMPI PUSH2 0x1DE PUSH2 0x185 JUMP JUMPDEST JUMPDEST SWAP3 SWAP2 POP POP JUMP JUMPDEST PUSH0 PUSH2 0x1EF DUP3 PUSH2 0x114 JUMP JUMPDEST SWAP2 POP PUSH2 0x1FA DUP4 PUSH2 0x114 JUMP JUMPDEST SWAP3 POP DUP3 DUP3 MUL PUSH2 0x208 DUP2 PUSH2 0x114 JUMP JUMPDEST SWAP2 POP DUP3 DUP3 DIV DUP5 EQ DUP4 ISZERO OR PUSH2 0x21F JUMPI PUSH2 0x21E PUSH2 0x185 JUMP JUMPDEST JUMPDEST POP SWAP3 SWAP2 POP POP JUMP JUMPDEST PUSH0 DUP2 MLOAD SWAP1 POP SWAP2 SWAP1 POP JUMP JUMPDEST PUSH32 0x4E487B7100000000000000000000000000000000000000000000000000000000 PUSH0 MSTORE PUSH1 0x41 PUSH1 0x4 MSTORE PUSH1 0x24 PUSH0 REVERT JUMPDEST PUSH32 0x4E487B7100000000000000000000000000000000000000000000000000000000 PUSH0 MSTORE PUSH1 0x22 PUSH1 0x4 MSTORE PUSH1 0x24 PUSH0 REVERT JUMPDEST PUSH0 PUSH1 0x2 DUP3 DIV SWAP1 POP PUSH1 0x1 DUP3 AND DUP1 PUSH2 0x2A1 JUMPI PUSH1 0x7F DUP3 AND SWAP2 POP JUMPDEST PUSH1 0x20 DUP3 LT DUP2 SUB PUSH2 0x2B4 JUMPI PUSH2 0x2B3 PUSH2 0x25D JUMP JUMPDEST JUMPDEST POP SWAP2 SWAP1 POP JUMP JUMPDEST PUSH0 DUP2 SWAP1 POP DUP2 PUSH0 MSTORE PUSH1 0x20 PUSH0 KECCAK256 SWAP1 POP SWAP2 SWAP1 POP JUMP JUMPDEST PUSH0 PUSH1 0x20 PUSH1 0x1F DUP4 ADD DIV SWAP1 POP SWAP2 SWAP1 POP JUMP JUMPDEST PUSH0 DUP3 DUP3 SHL SWAP1 POP SWAP3 SWAP2 POP POP JUMP JUMPDEST PUSH0 PUSH1 0x8 DUP4 MUL PUSH2 0x316 PUSH32 0xFFFFFFFFFFFFFFFFFFFFFFFFFFFFFFFFFFFFFFFFFFFFFFFFFFFFFFFFFFFFFFFF DUP3 PUSH2 0x2DB JUMP JUMPDEST PUSH2 0x320 DUP7 DUP4 PUSH2 0x2DB JUMP JUMPDEST SWAP6 POP DUP1 NOT DUP5 AND SWAP4 POP DUP1 DUP7 AND DUP5 OR SWAP3 POP POP POP SWAP4 SWAP3 POP POP POP JUMP JUMPDEST PUSH0 DUP2 SWAP1 POP SWAP2 SWAP1 POP JUMP JUMPDEST PUSH0 PUSH2 0x35B PUSH2 0x356 PUSH2 0x351 DUP5 PUSH2 0x114 JUMP JUMPDEST PUSH2 0x338 JUMP JUMPDEST PUSH2 0x114 JUMP JUMPDEST SWAP1 POP SWAP2 SWAP1 POP JUMP JUMPDEST PUSH0 DUP2 SWAP1 POP SWAP2 SWAP1 POP JUMP JUMPDEST PUSH2 0x374 DUP4 PUSH2 0x341 JUMP JUMPDEST PUSH2 0x388 PUSH2 0x380 DUP3 PUSH2 0x362 JUMP JUMPDEST DUP5 DUP5 SLOAD PUSH2 0x2E7 JUMP JUMPDEST DUP3 SSTORE POP POP POP POP JUMP JUMPDEST PUSH0 PUSH0 SWAP1 POP SWAP1 JUMP JUMPDEST PUSH2 0x39F PUSH2 0x390 JUMP JUMPDEST PUSH2 0x3AA DUP2 DUP5 DUP5 PUSH2 0x36B JUMP JUMPDEST POP POP POP JUMP JUMPDEST JUMPDEST DUP2 DUP2 LT ISZERO PUSH2 0x3CD JUMPI PUSH2 0x3C2 PUSH0 DUP3 PUSH2 0x397 JUMP JUMPDEST PUSH1 0x1 DUP2 ADD SWAP1 POP PUSH2 0x3B0 JUMP JUMPDEST POP POP JUMP JUMPDEST PUSH1 0x1F DUP3 GT ISZERO PUSH2 0x412 JUMPI PUSH2 0x3E3 DUP2 PUSH2 0x2BA JUMP JUMPDEST PUSH2 0x3EC DUP5 PUSH2 0x2CC JUMP JUMPDEST DUP2 ADD PUSH1 0x20 DUP6 LT ISZERO PUSH2 0x3FB JUMPI DUP2 SWAP1 POP JUMPDEST PUSH2 0x40F PUSH2 0x407 DUP6 PUSH2 0x2CC JUMP JUMPDEST DUP4 ADD DUP3 PUSH2 0x3AF JUMP JUMPDEST POP POP JUMPDEST POP POP POP JUMP JUMPDEST PUSH0 DUP3 DUP3 SHR SWAP1 POP SWAP3 SWAP2 POP POP JUMP JUMPDEST PUSH0 PUSH2 0x432 PUSH0 NOT DUP5 PUSH1 0x8 MUL PUSH2 0x417 JUMP JUMPDEST NOT DUP1 DUP4 AND SWAP2 POP POP SWAP3 SWAP2 POP POP JUMP JUMPDEST PUSH0 PUSH2 0x44A DUP4 DUP4 PUSH2 0x423 JUMP JUMPDEST SWAP2 POP DUP3 PUSH1 0x2 MUL DUP3 OR SWAP1 POP SWAP3 SWAP2 POP POP JUMP JUMPDEST PUSH2 0x463 DUP3 PUSH2 0x226 JUMP JUMPDEST PUSH8 0xFFFFFFFFFFFFFFFF DUP2 GT ISZERO PUSH2 0x47C JUMPI PUSH2 0x47B PUSH2 0x230 JUMP JUMPDEST JUMPDEST PUSH2 0x486 DUP3 SLOAD PUSH2 0x28A JUMP JUMPDEST PUSH2 0x491 DUP3 DUP3 DUP6 PUSH2 0x3D1 JUMP JUMPDEST PUSH0 PUSH1 0x20 SWAP1 POP PUSH1 0x1F DUP4 GT PUSH1 0x1 DUP2 EQ PUSH2 0x4C2 JUMPI PUSH0 DUP5 ISZERO PUSH2 0x4B0 JUMPI DUP3 DUP8 ADD MLOAD SWAP1 POP JUMPDEST PUSH2 0x4BA DUP6 DUP3 PUSH2 0x43F JUMP JUMPDEST DUP7 SSTORE POP PUSH2 0x521 JUMP JUMPDEST PUSH1 0x1F NOT DUP5 AND PUSH2 0x4D0 DUP7 PUSH2 0x2BA JUMP JUMPDEST PUSH0 JUMPDEST DUP3 DUP2 LT ISZERO PUSH2 0x4F7 JUMPI DUP5 DUP10 ADD MLOAD DUP3 SSTORE PUSH1 0x1 DUP3 ADD SWAP2 POP PUSH1 0x20 DUP6 ADD SWAP5 POP PUSH1 0x20 DUP2 ADD SWAP1 POP PUSH2 0x4D2 JUMP JUMPDEST DUP7 DUP4 LT ISZERO PUSH2 0x514 JUMPI DUP5 DUP10 ADD MLOAD PUSH2 0x510 PUSH1 0x1F DUP10 AND DUP3 PUSH2 0x423 JUMP JUMPDEST DUP4 SSTORE POP JUMPDEST PUSH1 0x1 PUSH1 0x2 DUP9 MUL ADD DUP9 SSTORE POP POP POP JUMPDEST POP POP POP POP POP POP JUMP JUMPDEST PUSH2 0x1437 DUP1 PUSH2 0x536 PUSH0 CODECOPY PUSH0 RETURN INVALID PUSH1 0x80 PUSH1 0x40 MSTORE PUSH1 0x4 CALLDATASIZE LT PUSH2 0x9B JUMPI PUSH0 CALLDATALOAD PUSH1 0xE0 SHR DUP1 PUSH4 0x2636B945 GT PUSH2 0x63 JUMPI DUP1 PUSH4 0x2636B945 EQ PUSH2 0x15D JUMPI DUP1 PUSH4 0x29DCB0CF EQ PUSH2 0x187 JUMPI DUP1 PUSH4 0x3FEB5F2B EQ PUSH2 0x1B1 JUMPI DUP1 PUSH4 0x8DA5CB5B EQ PUSH2 0x1EE JUMPI DUP1 PUSH4 0xB2F5A54C EQ PUSH2 0x218 JUMPI DUP1 PUSH4 0xB60D4288 EQ PUSH2 0x242 JUMPI PUSH2 0x9B JUMP JUMPDEST DUP1 PUSH4 0x1CB3B20 EQ PUSH2 0x9F JUMPI DUP1 PUSH4 0x12FA6FEB EQ PUSH2 0xB5 JUMPI DUP1 PUSH4 0x132AE5E9 EQ PUSH2 0xDF JUMPI DUP1 PUSH4 0x1A39D8EF EQ PUSH2 0x109 JUMPI DUP1 PUSH4 0x200D2ED2 EQ PUSH2 0x133 JUMPI JUMPDEST PUSH0 PUSH0 REVERT JUMPDEST CALLVALUE DUP1 ISZERO PUSH2 0xAA JUMPI PUSH0 PUSH0 REVERT JUMPDEST POP PUSH2 0xB3 PUSH2 0x24C JUMP JUMPDEST STOP JUMPDEST CALLVALUE DUP1 ISZERO PUSH2 0xC0 JUMPI PUSH0 PUSH0 REVERT JUMPDEST POP PUSH2 0xC9 PUSH2 0x5FC JUMP JUMPDEST PUSH1 0x40 MLOAD PUSH2 0xD6 SWAP2 SWAP1 PUSH2 0xA04 JUMP JUMPDEST PUSH1 0x40 MLOAD DUP1 SWAP2 SUB SWAP1 RETURN JUMPDEST CALLVALUE DUP1 ISZERO PUSH2 0xEA JUMPI PUSH0 PUSH0 REVERT JUMPDEST POP PUSH2 0xF3 PUSH2 0x60E JUMP JUMPDEST PUSH1 0x40 MLOAD PUSH2 0x100 SWAP2 SWAP1 PUSH2 0xA35 JUMP JUMPDEST PUSH1 0x40 MLOAD DUP1 SWAP2 SUB SWAP1 RETURN JUMPDEST CALLVALUE DUP1 ISZERO PUSH2 0x114 JUMPI PUSH0 PUSH0 REVERT JUMPDEST POP PUSH2 0x11D PUSH2 0x614 JUMP JUMPDEST PUSH1 0x40 MLOAD PUSH2 0x12A SWAP2 SWAP1 PUSH2 0xA35 JUMP JUMPDEST PUSH1 0x40 MLOAD DUP1 SWAP2 SUB SWAP1 RETURN JUMPDEST CALLVALUE DUP1 ISZERO PUSH2 0x13E JUMPI PUSH0 PUSH0 REVERT JUMPDEST POP PUSH2 0x147 PUSH2 0x61A JUMP JUMPDEST PUSH1 0x40 MLOAD PUSH2 0x154 SWAP2 SWAP1 PUSH2 0xABE JUMP JUMPDEST PUSH1 0x40 MLOAD DUP1 SWAP2 SUB SWAP1 RETURN JUMPDEST CALLVALUE DUP1 ISZERO PUSH2 0x168 JUMPI PUSH0 PUSH0 REVERT JUMPDEST POP PUSH2 0x171 PUSH2 0x6A6 JUMP JUMPDEST PUSH1 0x40 MLOAD PUSH2 0x17E SWAP2 SWAP1 PUSH2 0xA35 JUMP JUMPDEST PUSH1 0x40 MLOAD DUP1 SWAP2 SUB SWAP1 RETURN JUMPDEST CALLVALUE DUP1 ISZERO PUSH2 0x192 JUMPI PUSH0 PUSH0 REVERT JUMPDEST POP PUSH2 0x19B PUSH2 0x6AC JUMP JUMPDEST PUSH1 0x40 MLOAD PUSH2 0x1A8 SWAP2 SWAP1 PUSH2 0xA35 JUMP JUMPDEST PUSH1 0x40 MLOAD DUP1 SWAP2 SUB SWAP1 RETURN JUMPDEST CALLVALUE DUP1 ISZERO PUSH2 0x1BC JUMPI PUSH0 PUSH0 REVERT JUMPDEST POP PUSH2 0x1D7 PUSH1 0x4 DUP1 CALLDATASIZE SUB DUP2 ADD SWAP1 PUSH2 0x1D2 SWAP2 SWAP1 PUSH2 0xB0C JUMP JUMPDEST PUSH2 0x6B2 JUMP JUMPDEST PUSH1 0x40 MLOAD PUSH2 0x1E5 SWAP3 SWAP2 SWAP1 PUSH2 0xB76 JUMP JUMPDEST PUSH1 0x40 MLOAD DUP1 SWAP2 SUB SWAP1 RETURN JUMPDEST CALLVALUE DUP1 ISZERO PUSH2 0x1F9 JUMPI PUSH0 PUSH0 REVERT JUMPDEST POP PUSH2 0x202 PUSH2 0x6F0 JUMP JUMPDEST PUSH1 0x40 MLOAD PUSH2 0x20F SWAP2 SWAP1 PUSH2 0xB9D JUMP JUMPDEST PUSH1 0x40 MLOAD DUP1 SWAP2 SUB SWAP1 RETURN JUMPDEST CALLVALUE DUP1 ISZERO PUSH2 0x223 JUMPI PUSH0 PUSH0 REVERT JUMPDEST POP PUSH2 0x22C PUSH2 0x715 JUMP JUMPDEST PUSH1 0x40 MLOAD PUSH2 0x239 SWAP2 SWAP1 PUSH2 0xC6D JUMP JUMPDEST PUSH1 0x40 MLOAD DUP1 SWAP2 SUB SWAP1 RETURN JUMPDEST PUSH2 0x24A PUSH2 0x808 JUMP JUMPDEST STOP JUMPDEST PUSH1 0x1 PUSH0 SWAP1 SLOAD SWAP1 PUSH2 0x100 EXP SWAP1 DIV PUSH20 0xFFFFFFFFFFFFFFFFFFFFFFFFFFFFFFFFFFFFFFFF AND PUSH20 0xFFFFFFFFFFFFFFFFFFFFFFFFFFFFFFFFFFFFFFFF AND CALLER PUSH20 0xFFFFFFFFFFFFFFFFFFFFFFFFFFFFFFFFFFFFFFFF AND EQ PUSH2 0x2DB JUMPI PUSH1 0x40 MLOAD PUSH32 0x8C379A000000000000000000000000000000000000000000000000000000000 DUP2 MSTORE PUSH1 0x4 ADD PUSH2 0x2D2 SWAP1 PUSH2 0xCFD JUMP JUMPDEST PUSH1 0x40 MLOAD DUP1 SWAP2 SUB SWAP1 REVERT JUMPDEST PUSH1 0x5 PUSH0 SWAP1 SLOAD SWAP1 PUSH2 0x100 EXP SWAP1 DIV PUSH1 0xFF AND ISZERO PUSH2 0x32A JUMPI PUSH1 0x40 MLOAD PUSH32 0x8C379A000000000000000000000000000000000000000000000000000000000 DUP2 MSTORE PUSH1 0x4 ADD PUSH2 0x321 SWAP1 PUSH2 0xD65 JUMP JUMPDEST PUSH1 0x40 MLOAD DUP1 SWAP2 SUB SWAP1 REVERT JUMPDEST PUSH1 0x3 SLOAD TIMESTAMP LT ISZERO PUSH2 0x36F JUMPI PUSH1 0x40 MLOAD PUSH32 0x8C379A000000000000000000000000000000000000000000000000000000000 DUP2 MSTORE PUSH1 0x4 ADD PUSH2 0x366 SWAP1 PUSH2 0xDCD JUMP JUMPDEST PUSH1 0x40 MLOAD DUP1 SWAP2 SUB SWAP1 REVERT JUMPDEST PUSH1 0x6 SLOAD PUSH1 0x7 SLOAD LT PUSH2 0x490 JUMPI PUSH1 0x40 MLOAD DUP1 PUSH1 0x40 ADD PUSH1 0x40 MSTORE DUP1 PUSH1 0x12 DUP2 MSTORE PUSH1 0x20 ADD PUSH32 0x43616D706169676E205375636365656465640000000000000000000000000000 DUP2 MSTORE POP PUSH1 0x4 SWAP1 DUP2 PUSH2 0x3BE SWAP2 SWAP1 PUSH2 0x1015 JUMP JUMPDEST POP PUSH0 PUSH1 0x1 PUSH0 SWAP1 SLOAD SWAP1 PUSH2 0x100 EXP SWAP1 DIV PUSH20 0xFFFFFFFFFFFFFFFFFFFFFFFFFFFFFFFFFFFFFFFF AND PUSH20 0xFFFFFFFFFFFFFFFFFFFFFFFFFFFFFFFFFFFFFFFF AND PUSH1 0x7 SLOAD PUSH1 0x40 MLOAD PUSH2 0x407 SWAP1 PUSH2 0x1111 JUMP JUMPDEST PUSH0 PUSH1 0x40 MLOAD DUP1 DUP4 SUB DUP2 DUP6 DUP8 GAS CALL SWAP3 POP POP POP RETURNDATASIZE DUP1 PUSH0 DUP2 EQ PUSH2 0x441 JUMPI PUSH1 0x40 MLOAD SWAP2 POP PUSH1 0x1F NOT PUSH1 0x3F RETURNDATASIZE ADD AND DUP3 ADD PUSH1 0x40 MSTORE RETURNDATASIZE DUP3 MSTORE RETURNDATASIZE PUSH0 PUSH1 0x20 DUP5 ADD RETURNDATACOPY PUSH2 0x446 JUMP JUMPDEST PUSH1 0x60 SWAP2 POP JUMPDEST POP POP SWAP1 POP DUP1 PUSH2 0x48A JUMPI PUSH1 0x40 MLOAD PUSH32 0x8C379A000000000000000000000000000000000000000000000000000000000 DUP2 MSTORE PUSH1 0x4 ADD PUSH2 0x481 SWAP1 PUSH2 0x116F JUMP JUMPDEST PUSH1 0x40 MLOAD DUP1 SWAP2 SUB SWAP1 REVERT JUMPDEST POP PUSH2 0x5E0 JUMP JUMPDEST PUSH1 0x40 MLOAD DUP1 PUSH1 0x40 ADD PUSH1 0x40 MSTORE DUP1 PUSH1 0xF DUP2 MSTORE PUSH1 0x20 ADD PUSH32 0x43616D706169676E204661696C65640000000000000000000000000000000000 DUP2 MSTORE POP PUSH1 0x4 SWAP1 DUP2 PUSH2 0x4D4 SWAP2 SWAP1 PUSH2 0x1015 JUMP JUMPDEST POP PUSH0 PUSH0 SWAP1 POP JUMPDEST PUSH1 0x2 SLOAD DUP2 LT ISZERO PUSH2 0x5DE JUMPI PUSH0 PUSH0 PUSH0 DUP4 DUP2 MSTORE PUSH1 0x20 ADD SWAP1 DUP2 MSTORE PUSH1 0x20 ADD PUSH0 KECCAK256 PUSH0 ADD PUSH0 SWAP1 SLOAD SWAP1 PUSH2 0x100 EXP SWAP1 DIV PUSH20 0xFFFFFFFFFFFFFFFFFFFFFFFFFFFFFFFFFFFFFFFF AND PUSH20 0xFFFFFFFFFFFFFFFFFFFFFFFFFFFFFFFFFFFFFFFF AND PUSH0 PUSH0 DUP5 DUP2 MSTORE PUSH1 0x20 ADD SWAP1 DUP2 MSTORE PUSH1 0x20 ADD PUSH0 KECCAK256 PUSH1 0x1 ADD SLOAD PUSH1 0x40 MLOAD PUSH2 0x54D SWAP1 PUSH2 0x1111 JUMP JUMPDEST PUSH0 PUSH1 0x40 MLOAD DUP1 DUP4 SUB DUP2 DUP6 DUP8 GAS CALL SWAP3 POP POP POP RETURNDATASIZE DUP1 PUSH0 DUP2 EQ PUSH2 0x587 JUMPI PUSH1 0x40 MLOAD SWAP2 POP PUSH1 0x1F NOT PUSH1 0x3F RETURNDATASIZE ADD AND DUP3 ADD PUSH1 0x40 MSTORE RETURNDATASIZE DUP3 MSTORE RETURNDATASIZE PUSH0 PUSH1 0x20 DUP5 ADD RETURNDATACOPY PUSH2 0x58C JUMP JUMPDEST PUSH1 0x60 SWAP2 POP JUMPDEST POP POP SWAP1 POP DUP1 PUSH2 0x5D0 JUMPI PUSH1 0x40 MLOAD PUSH32 0x8C379A000000000000000000000000000000000000000000000000000000000 DUP2 MSTORE PUSH1 0x4 ADD PUSH2 0x5C7 SWAP1 PUSH2 0x11D7 JUMP JUMPDEST PUSH1 0x40 MLOAD DUP1 SWAP2 SUB SWAP1 REVERT JUMPDEST POP DUP1 DUP1 PUSH1 0x1 ADD SWAP2 POP POP PUSH2 0x4DA JUMP JUMPDEST POP JUMPDEST PUSH1 0x1 PUSH1 0x5 PUSH0 PUSH2 0x100 EXP DUP2 SLOAD DUP2 PUSH1 0xFF MUL NOT AND SWAP1 DUP4 ISZERO ISZERO MUL OR SWAP1 SSTORE POP JUMP JUMPDEST PUSH1 0x5 PUSH0 SWAP1 SLOAD SWAP1 PUSH2 0x100 EXP SWAP1 DIV PUSH1 0xFF AND DUP2 JUMP JUMPDEST PUSH1 0x2 SLOAD DUP2 JUMP JUMPDEST PUSH1 0x7 SLOAD DUP2 JUMP JUMPDEST PUSH1 0x4 DUP1 SLOAD PUSH2 0x627 SWAP1 PUSH2 0xE45 JUMP JUMPDEST DUP1 PUSH1 0x1F ADD PUSH1 0x20 DUP1 SWAP2 DIV MUL PUSH1 0x20 ADD PUSH1 0x40 MLOAD SWAP1 DUP2 ADD PUSH1 0x40 MSTORE DUP1 SWAP3 SWAP2 SWAP1 DUP2 DUP2 MSTORE PUSH1 0x20 ADD DUP3 DUP1 SLOAD PUSH2 0x653 SWAP1 PUSH2 0xE45 JUMP JUMPDEST DUP1 ISZERO PUSH2 0x69E JUMPI DUP1 PUSH1 0x1F LT PUSH2 0x675 JUMPI PUSH2 0x100 DUP1 DUP4 SLOAD DIV MUL DUP4 MSTORE SWAP2 PUSH1 0x20 ADD SWAP2 PUSH2 0x69E JUMP JUMPDEST DUP3 ADD SWAP2 SWAP1 PUSH0 MSTORE PUSH1 0x20 PUSH0 KECCAK256 SWAP1 JUMPDEST DUP2 SLOAD DUP2 MSTORE SWAP1 PUSH1 0x1 ADD SWAP1 PUSH1 0x20 ADD DUP1 DUP4 GT PUSH2 0x681 JUMPI DUP3 SWAP1 SUB PUSH1 0x1F AND DUP3 ADD SWAP2 JUMPDEST POP POP POP POP POP DUP2 JUMP JUMPDEST PUSH1 0x6 SLOAD DUP2 JUMP JUMPDEST PUSH1 0x3 SLOAD DUP2 JUMP JUMPDEST PUSH0 PUSH1 0x20 MSTORE DUP1 PUSH0 MSTORE PUSH1 0x40 PUSH0 KECCAK256 PUSH0 SWAP2 POP SWAP1 POP DUP1 PUSH0 ADD PUSH0 SWAP1 SLOAD SWAP1 PUSH2 0x100 EXP SWAP1 DIV PUSH20 0xFFFFFFFFFFFFFFFFFFFFFFFFFFFFFFFFFFFFFFFF AND SWAP1 DUP1 PUSH1 0x1 ADD SLOAD SWAP1 POP DUP3 JUMP JUMPDEST PUSH1 0x1 PUSH0 SWAP1 SLOAD SWAP1 PUSH2 0x100 EXP SWAP1 DIV PUSH20 0xFFFFFFFFFFFFFFFFFFFFFFFFFFFFFFFFFFFFFFFF AND DUP2 JUMP JUMPDEST PUSH1 0x60 PUSH0 PUSH1 0x2 SLOAD PUSH8 0xFFFFFFFFFFFFFFFF DUP2 GT ISZERO PUSH2 0x734 JUMPI PUSH2 0x733 PUSH2 0xDEB JUMP JUMPDEST JUMPDEST PUSH1 0x40 MLOAD SWAP1 DUP1 DUP3 MSTORE DUP1 PUSH1 0x20 MUL PUSH1 0x20 ADD DUP3 ADD PUSH1 0x40 MSTORE DUP1 ISZERO PUSH2 0x762 JUMPI DUP2 PUSH1 0x20 ADD PUSH1 0x20 DUP3 MUL DUP1 CALLDATASIZE DUP4 CALLDATACOPY DUP1 DUP3 ADD SWAP2 POP POP SWAP1 POP JUMPDEST POP SWAP1 POP PUSH0 PUSH0 SWAP1 POP JUMPDEST PUSH1 0x2 SLOAD DUP2 LT ISZERO PUSH2 0x800 JUMPI PUSH0 PUSH0 DUP3 DUP2 MSTORE PUSH1 0x20 ADD SWAP1 DUP2 MSTORE PUSH1 0x20 ADD PUSH0 KECCAK256 PUSH0 ADD PUSH0 SWAP1 SLOAD SWAP1 PUSH2 0x100 EXP SWAP1 DIV PUSH20 0xFFFFFFFFFFFFFFFFFFFFFFFFFFFFFFFFFFFFFFFF AND DUP3 DUP3 DUP2 MLOAD DUP2 LT PUSH2 0x7B9 JUMPI PUSH2 0x7B8 PUSH2 0x11F5 JUMP JUMPDEST JUMPDEST PUSH1 0x20 MUL PUSH1 0x20 ADD ADD SWAP1 PUSH20 0xFFFFFFFFFFFFFFFFFFFFFFFFFFFFFFFFFFFFFFFF AND SWAP1 DUP2 PUSH20 0xFFFFFFFFFFFFFFFFFFFFFFFFFFFFFFFFFFFFFFFF AND DUP2 MSTORE POP POP DUP1 DUP1 PUSH1 0x1 ADD SWAP2 POP POP PUSH2 0x76A JUMP JUMPDEST POP DUP1 SWAP2 POP POP SWAP1 JUMP JUMPDEST PUSH1 0x5 PUSH0 SWAP1 SLOAD SWAP1 PUSH2 0x100 EXP SWAP1 DIV PUSH1 0xFF AND ISZERO PUSH2 0x857 JUMPI PUSH1 0x40 MLOAD PUSH32 0x8C379A000000000000000000000000000000000000000000000000000000000 DUP2 MSTORE PUSH1 0x4 ADD PUSH2 0x84E SWAP1 PUSH2 0x126C JUMP JUMPDEST PUSH1 0x40 MLOAD DUP1 SWAP2 SUB SWAP1 REVERT JUMPDEST PUSH1 0x3 SLOAD TIMESTAMP LT PUSH2 0x89B JUMPI PUSH1 0x40 MLOAD PUSH32 0x8C379A000000000000000000000000000000000000000000000000000000000 DUP2 MSTORE PUSH1 0x4 ADD PUSH2 0x892 SWAP1 PUSH2 0x12D4 JUMP JUMPDEST PUSH1 0x40 MLOAD DUP1 SWAP2 SUB SWAP1 REVERT JUMPDEST PUSH0 CALLVALUE GT PUSH2 0x8DD JUMPI PUSH1 0x40 MLOAD PUSH32 0x8C379A000000000000000000000000000000000000000000000000000000000 DUP2 MSTORE PUSH1 0x4 ADD PUSH2 0x8D4 SWAP1 PUSH2 0x133C JUMP JUMPDEST PUSH1 0x40 MLOAD DUP1 SWAP2 SUB SWAP1 REVERT JUMPDEST PUSH1 0x40 MLOAD DUP1 PUSH1 0x40 ADD PUSH1 0x40 MSTORE DUP1 CALLER PUSH20 0xFFFFFFFFFFFFFFFFFFFFFFFFFFFFFFFFFFFFFFFF AND DUP2 MSTORE PUSH1 0x20 ADD CALLVALUE DUP2 MSTORE POP PUSH0 PUSH0 PUSH1 0x2 SLOAD DUP2 MSTORE PUSH1 0x20 ADD SWAP1 DUP2 MSTORE PUSH1 0x20 ADD PUSH0 KECCAK256 PUSH0 DUP3 ADD MLOAD DUP2 PUSH0 ADD PUSH0 PUSH2 0x100 EXP DUP2 SLOAD DUP2 PUSH20 0xFFFFFFFFFFFFFFFFFFFFFFFFFFFFFFFFFFFFFFFF MUL NOT AND SWAP1 DUP4 PUSH20 0xFFFFFFFFFFFFFFFFFFFFFFFFFFFFFFFFFFFFFFFF AND MUL OR SWAP1 SSTORE POP PUSH1 0x20 DUP3 ADD MLOAD DUP2 PUSH1 0x1 ADD SSTORE SWAP1 POP POP PUSH1 0x2 PUSH0 DUP2 SLOAD DUP1 SWAP3 SWAP2 SWAP1 PUSH2 0x97D SWAP1 PUSH2 0x1387 JUMP JUMPDEST SWAP2 SWAP1 POP SSTORE POP CALLVALUE PUSH1 0x7 PUSH0 DUP3 DUP3 SLOAD PUSH2 0x993 SWAP2 SWAP1 PUSH2 0x13CE JUMP JUMPDEST SWAP3 POP POP DUP2 SWAP1 SSTORE POP CALLER PUSH20 0xFFFFFFFFFFFFFFFFFFFFFFFFFFFFFFFFFFFFFFFF AND PUSH32 0x5AF8184BEF8E4B45EB9F6ED7734D04DA38CED226495548F46E0C8FF8D7D9A524 CALLVALUE PUSH1 0x40 MLOAD PUSH2 0x9E0 SWAP2 SWAP1 PUSH2 0xA35 JUMP JUMPDEST PUSH1 0x40 MLOAD DUP1 SWAP2 SUB SWAP1 LOG2 JUMP JUMPDEST PUSH0 DUP2 ISZERO ISZERO SWAP1 POP SWAP2 SWAP1 POP JUMP JUMPDEST PUSH2 0x9FE DUP2 PUSH2 0x9EA JUMP JUMPDEST DUP3 MSTORE POP POP JUMP JUMPDEST PUSH0 PUSH1 0x20 DUP3 ADD SWAP1 POP PUSH2 0xA17 PUSH0 DUP4 ADD DUP5 PUSH2 0x9F5 JUMP JUMPDEST SWAP3 SWAP2 POP POP JUMP JUMPDEST PUSH0 DUP2 SWAP1 POP SWAP2 SWAP1 POP JUMP JUMPDEST PUSH2 0xA2F DUP2 PUSH2 0xA1D JUMP JUMPDEST DUP3 MSTORE POP POP JUMP JUMPDEST PUSH0 PUSH1 0x20 DUP3 ADD SWAP1 POP PUSH2 0xA48 PUSH0 DUP4 ADD DUP5 PUSH2 0xA26 JUMP JUMPDEST SWAP3 SWAP2 POP POP JUMP JUMPDEST PUSH0 DUP2 MLOAD SWAP1 POP SWAP2 SWAP1 POP JUMP JUMPDEST PUSH0 DUP3 DUP3 MSTORE PUSH1 0x20 DUP3 ADD SWAP1 POP SWAP3 SWAP2 POP POP JUMP JUMPDEST DUP3 DUP2 DUP4 MCOPY PUSH0 DUP4 DUP4 ADD MSTORE POP POP POP JUMP JUMPDEST PUSH0 PUSH1 0x1F NOT PUSH1 0x1F DUP4 ADD AND SWAP1 POP SWAP2 SWAP1 POP JUMP JUMPDEST PUSH0 PUSH2 0xA90 DUP3 PUSH2 0xA4E JUMP JUMPDEST PUSH2 0xA9A DUP2 DUP6 PUSH2 0xA58 JUMP JUMPDEST SWAP4 POP PUSH2 0xAAA DUP2 DUP6 PUSH1 0x20 DUP7 ADD PUSH2 0xA68 JUMP JUMPDEST PUSH2 0xAB3 DUP2 PUSH2 0xA76 JUMP JUMPDEST DUP5 ADD SWAP2 POP POP SWAP3 SWAP2 POP POP JUMP JUMPDEST PUSH0 PUSH1 0x20 DUP3 ADD SWAP1 POP DUP2 DUP2 SUB PUSH0 DUP4 ADD MSTORE PUSH2 0xAD6 DUP2 DUP5 PUSH2 0xA86 JUMP JUMPDEST SWAP1 POP SWAP3 SWAP2 POP POP JUMP JUMPDEST PUSH0 PUSH0 REVERT JUMPDEST PUSH2 0xAEB DUP2 PUSH2 0xA1D JUMP JUMPDEST DUP2 EQ PUSH2 0xAF5 JUMPI PUSH0 PUSH0 REVERT JUMPDEST POP JUMP JUMPDEST PUSH0 DUP2 CALLDATALOAD SWAP1 POP PUSH2 0xB06 DUP2 PUSH2 0xAE2 JUMP JUMPDEST SWAP3 SWAP2 POP POP JUMP JUMPDEST PUSH0 PUSH1 0x20 DUP3 DUP5 SUB SLT ISZERO PUSH2 0xB21 JUMPI PUSH2 0xB20 PUSH2 0xADE JUMP JUMPDEST JUMPDEST PUSH0 PUSH2 0xB2E DUP5 DUP3 DUP6 ADD PUSH2 0xAF8 JUMP JUMPDEST SWAP2 POP POP SWAP3 SWAP2 POP POP JUMP JUMPDEST PUSH0 PUSH20 0xFFFFFFFFFFFFFFFFFFFFFFFFFFFFFFFFFFFFFFFF DUP3 AND SWAP1 POP SWAP2 SWAP1 POP JUMP JUMPDEST PUSH0 PUSH2 0xB60 DUP3 PUSH2 0xB37 JUMP JUMPDEST SWAP1 POP SWAP2 SWAP1 POP JUMP JUMPDEST PUSH2 0xB70 DUP2 PUSH2 0xB56 JUMP JUMPDEST DUP3 MSTORE POP POP JUMP JUMPDEST PUSH0 PUSH1 0x40 DUP3 ADD SWAP1 POP PUSH2 0xB89 PUSH0 DUP4 ADD DUP6 PUSH2 0xB67 JUMP JUMPDEST PUSH2 0xB96 PUSH1 0x20 DUP4 ADD DUP5 PUSH2 0xA26 JUMP JUMPDEST SWAP4 SWAP3 POP POP POP JUMP JUMPDEST PUSH0 PUSH1 0x20 DUP3 ADD SWAP1 POP PUSH2 0xBB0 PUSH0 DUP4 ADD DUP5 PUSH2 0xB67 JUMP JUMPDEST SWAP3 SWAP2 POP POP JUMP JUMPDEST PUSH0 DUP2 MLOAD SWAP1 POP SWAP2 SWAP1 POP JUMP JUMPDEST PUSH0 DUP3 DUP3 MSTORE PUSH1 0x20 DUP3 ADD SWAP1 POP SWAP3 SWAP2 POP POP JUMP JUMPDEST PUSH0 DUP2 SWAP1 POP PUSH1 0x20 DUP3 ADD SWAP1 POP SWAP2 SWAP1 POP JUMP JUMPDEST PUSH2 0xBE8 DUP2 PUSH2 0xB56 JUMP JUMPDEST DUP3 MSTORE POP POP JUMP JUMPDEST PUSH0 PUSH2 0xBF9 DUP4 DUP4 PUSH2 0xBDF JUMP JUMPDEST PUSH1 0x20 DUP4 ADD SWAP1 POP SWAP3 SWAP2 POP POP JUMP JUMPDEST PUSH0 PUSH1 0x20 DUP3 ADD SWAP1 POP SWAP2 SWAP1 POP JUMP JUMPDEST PUSH0 PUSH2 0xC1B DUP3 PUSH2 0xBB6 JUMP JUMPDEST PUSH2 0xC25 DUP2 DUP6 PUSH2 0xBC0 JUMP JUMPDEST SWAP4 POP PUSH2 0xC30 DUP4 PUSH2 0xBD0 JUMP JUMPDEST DUP1 PUSH0 JUMPDEST DUP4 DUP2 LT ISZERO PUSH2 0xC60 JUMPI DUP2 MLOAD PUSH2 0xC47 DUP9 DUP3 PUSH2 0xBEE JUMP JUMPDEST SWAP8 POP PUSH2 0xC52 DUP4 PUSH2 0xC05 JUMP JUMPDEST SWAP3 POP POP PUSH1 0x1 DUP2 ADD SWAP1 POP PUSH2 0xC33 JUMP JUMPDEST POP DUP6 SWAP4 POP POP POP POP SWAP3 SWAP2 POP POP JUMP JUMPDEST PUSH0 PUSH1 0x20 DUP3 ADD SWAP1 POP DUP2 DUP2 SUB PUSH0 DUP4 ADD MSTORE PUSH2 0xC85 DUP2 DUP5 PUSH2 0xC11 JUMP JUMPDEST SWAP1 POP SWAP3 SWAP2 POP POP JUMP JUMPDEST PUSH32 0x4F4E4C59204F574E45522043414E2043414C4C20544849532046554E4354494F PUSH0 DUP3 ADD MSTORE PUSH32 0x4E00000000000000000000000000000000000000000000000000000000000000 PUSH1 0x20 DUP3 ADD MSTORE POP JUMP JUMPDEST PUSH0 PUSH2 0xCE7 PUSH1 0x21 DUP4 PUSH2 0xA58 JUMP JUMPDEST SWAP2 POP PUSH2 0xCF2 DUP3 PUSH2 0xC8D JUMP JUMPDEST PUSH1 0x40 DUP3 ADD SWAP1 POP SWAP2 SWAP1 POP JUMP JUMPDEST PUSH0 PUSH1 0x20 DUP3 ADD SWAP1 POP DUP2 DUP2 SUB PUSH0 DUP4 ADD MSTORE PUSH2 0xD14 DUP2 PUSH2 0xCDB JUMP JUMPDEST SWAP1 POP SWAP2 SWAP1 POP JUMP JUMPDEST PUSH32 0x416C726561647920656E64656400000000000000000000000000000000000000 PUSH0 DUP3 ADD MSTORE POP JUMP JUMPDEST PUSH0 PUSH2 0xD4F PUSH1 0xD DUP4 PUSH2 0xA58 JUMP JUMPDEST SWAP2 POP PUSH2 0xD5A DUP3 PUSH2 0xD1B JUMP JUMPDEST PUSH1 0x20 DUP3 ADD SWAP1 POP SWAP2 SWAP1 POP JUMP JUMPDEST PUSH0 PUSH1 0x20 DUP3 ADD SWAP1 POP DUP2 DUP2 SUB PUSH0 DUP4 ADD MSTORE PUSH2 0xD7C DUP2 PUSH2 0xD43 JUMP JUMPDEST SWAP1 POP SWAP2 SWAP1 POP JUMP JUMPDEST PUSH32 0x446561646C696E65206E6F742072656163686564207965740000000000000000 PUSH0 DUP3 ADD MSTORE POP JUMP JUMPDEST PUSH0 PUSH2 0xDB7 PUSH1 0x18 DUP4 PUSH2 0xA58 JUMP JUMPDEST SWAP2 POP PUSH2 0xDC2 DUP3 PUSH2 0xD83 JUMP JUMPDEST PUSH1 0x20 DUP3 ADD SWAP1 POP SWAP2 SWAP1 POP JUMP JUMPDEST PUSH0 PUSH1 0x20 DUP3 ADD SWAP1 POP DUP2 DUP2 SUB PUSH0 DUP4 ADD MSTORE PUSH2 0xDE4 DUP2 PUSH2 0xDAB JUMP JUMPDEST SWAP1 POP SWAP2 SWAP1 POP JUMP JUMPDEST PUSH32 0x4E487B7100000000000000000000000000000000000000000000000000000000 PUSH0 MSTORE PUSH1 0x41 PUSH1 0x4 MSTORE PUSH1 0x24 PUSH0 REVERT JUMPDEST PUSH32 0x4E487B7100000000000000000000000000000000000000000000000000000000 PUSH0 MSTORE PUSH1 0x22 PUSH1 0x4 MSTORE PUSH1 0x24 PUSH0 REVERT JUMPDEST PUSH0 PUSH1 0x2 DUP3 DIV SWAP1 POP PUSH1 0x1 DUP3 AND DUP1 PUSH2 0xE5C JUMPI PUSH1 0x7F DUP3 AND SWAP2 POP JUMPDEST PUSH1 0x20 DUP3 LT DUP2 SUB PUSH2 0xE6F JUMPI PUSH2 0xE6E PUSH2 0xE18 JUMP JUMPDEST JUMPDEST POP SWAP2 SWAP1 POP JUMP JUMPDEST PUSH0 DUP2 SWAP1 POP DUP2 PUSH0 MSTORE PUSH1 0x20 PUSH0 KECCAK256 SWAP1 POP SWAP2 SWAP1 POP JUMP JUMPDEST PUSH0 PUSH1 0x20 PUSH1 0x1F DUP4 ADD DIV SWAP1 POP SWAP2 SWAP1 POP JUMP JUMPDEST PUSH0 DUP3 DUP3 SHL SWAP1 POP SWAP3 SWAP2 POP POP JUMP JUMPDEST PUSH0 PUSH1 0x8 DUP4 MUL PUSH2 0xED1 PUSH32 0xFFFFFFFFFFFFFFFFFFFFFFFFFFFFFFFFFFFFFFFFFFFFFFFFFFFFFFFFFFFFFFFF DUP3 PUSH2 0xE96 JUMP JUMPDEST PUSH2 0xEDB DUP7 DUP4 PUSH2 0xE96 JUMP JUMPDEST SWAP6 POP DUP1 NOT DUP5 AND SWAP4 POP DUP1 DUP7 AND DUP5 OR SWAP3 POP POP POP SWAP4 SWAP3 POP POP POP JUMP JUMPDEST PUSH0 DUP2 SWAP1 POP SWAP2 SWAP1 POP JUMP JUMPDEST PUSH0 PUSH2 0xF16 PUSH2 0xF11 PUSH2 0xF0C DUP5 PUSH2 0xA1D JUMP JUMPDEST PUSH2 0xEF3 JUMP JUMPDEST PUSH2 0xA1D JUMP JUMPDEST SWAP1 POP SWAP2 SWAP1 POP JUMP JUMPDEST PUSH0 DUP2 SWAP1 POP SWAP2 SWAP1 POP JUMP JUMPDEST PUSH2 0xF2F DUP4 PUSH2 0xEFC JUMP JUMPDEST PUSH2 0xF43 PUSH2 0xF3B DUP3 PUSH2 0xF1D JUMP JUMPDEST DUP5 DUP5 SLOAD PUSH2 0xEA2 JUMP JUMPDEST DUP3 SSTORE POP POP POP POP JUMP JUMPDEST PUSH0 PUSH0 SWAP1 POP SWAP1 JUMP JUMPDEST PUSH2 0xF5A PUSH2 0xF4B JUMP JUMPDEST PUSH2 0xF65 DUP2 DUP5 DUP5 PUSH2 0xF26 JUMP JUMPDEST POP POP POP JUMP JUMPDEST JUMPDEST DUP2 DUP2 LT ISZERO PUSH2 0xF88 JUMPI PUSH2 0xF7D PUSH0 DUP3 PUSH2 0xF52 JUMP JUMPDEST PUSH1 0x1 DUP2 ADD SWAP1 POP PUSH2 0xF6B JUMP JUMPDEST POP POP JUMP JUMPDEST PUSH1 0x1F DUP3 GT ISZERO PUSH2 0xFCD JUMPI PUSH2 0xF9E DUP2 PUSH2 0xE75 JUMP JUMPDEST PUSH2 0xFA7 DUP5 PUSH2 0xE87 JUMP JUMPDEST DUP2 ADD PUSH1 0x20 DUP6 LT ISZERO PUSH2 0xFB6 JUMPI DUP2 SWAP1 POP JUMPDEST PUSH2 0xFCA PUSH2 0xFC2 DUP6 PUSH2 0xE87 JUMP JUMPDEST DUP4 ADD DUP3 PUSH2 0xF6A JUMP JUMPDEST POP POP JUMPDEST POP POP POP JUMP JUMPDEST PUSH0 DUP3 DUP3 SHR SWAP1 POP SWAP3 SWAP2 POP POP JUMP JUMPDEST PUSH0 PUSH2 0xFED PUSH0 NOT DUP5 PUSH1 0x8 MUL PUSH2 0xFD2 JUMP JUMPDEST NOT DUP1 DUP4 AND SWAP2 POP POP SWAP3 SWAP2 POP POP JUMP JUMPDEST PUSH0 PUSH2 0x1005 DUP4 DUP4 PUSH2 0xFDE JUMP JUMPDEST SWAP2 POP DUP3 PUSH1 0x2 MUL DUP3 OR SWAP1 POP SWAP3 SWAP2 POP POP JUMP JUMPDEST PUSH2 0x101E DUP3 PUSH2 0xA4E JUMP JUMPDEST PUSH8 0xFFFFFFFFFFFFFFFF DUP2 GT ISZERO PUSH2 0x1037 JUMPI PUSH2 0x1036 PUSH2 0xDEB JUMP JUMPDEST JUMPDEST PUSH2 0x1041 DUP3 SLOAD PUSH2 0xE45 JUMP JUMPDEST PUSH2 0x104C DUP3 DUP3 DUP6 PUSH2 0xF8C JUMP JUMPDEST PUSH0 PUSH1 0x20 SWAP1 POP PUSH1 0x1F DUP4 GT PUSH1 0x1 DUP2 EQ PUSH2 0x107D JUMPI PUSH0 DUP5 ISZERO PUSH2 0x106B JUMPI DUP3 DUP8 ADD MLOAD SWAP1 POP JUMPDEST PUSH2 0x1075 DUP6 DUP3 PUSH2 0xFFA JUMP JUMPDEST DUP7 SSTORE POP PUSH2 0x10DC JUMP JUMPDEST PUSH1 0x1F NOT DUP5 AND PUSH2 0x108B DUP7 PUSH2 0xE75 JUMP JUMPDEST PUSH0 JUMPDEST DUP3 DUP2 LT ISZERO PUSH2 0x10B2 JUMPI DUP5 DUP10 ADD MLOAD DUP3 SSTORE PUSH1 0x1 DUP3 ADD SWAP2 POP PUSH1 0x20 DUP6 ADD SWAP5 POP PUSH1 0x20 DUP2 ADD SWAP1 POP PUSH2 0x108D JUMP JUMPDEST DUP7 DUP4 LT ISZERO PUSH2 0x10CF JUMPI DUP5 DUP10 ADD MLOAD PUSH2 0x10CB PUSH1 0x1F DUP10 AND DUP3 PUSH2 0xFDE JUMP JUMPDEST DUP4 SSTORE POP JUMPDEST PUSH1 0x1 PUSH1 0x2 DUP9 MUL ADD DUP9 SSTORE POP POP POP JUMPDEST POP POP POP POP POP POP JUMP JUMPDEST PUSH0 DUP2 SWAP1 POP SWAP3 SWAP2 POP POP JUMP JUMPDEST POP JUMP JUMPDEST PUSH0 PUSH2 0x10FC PUSH0 DUP4 PUSH2 0x10E4 JUMP JUMPDEST SWAP2 POP PUSH2 0x1107 DUP3 PUSH2 0x10EE JUMP JUMPDEST PUSH0 DUP3 ADD SWAP1 POP SWAP2 SWAP1 POP JUMP JUMPDEST PUSH0 PUSH2 0x111B DUP3 PUSH2 0x10F1 JUMP JUMPDEST SWAP2 POP DUP2 SWAP1 POP SWAP2 SWAP1 POP JUMP JUMPDEST PUSH32 0x5472616E7366657220746F206F776E6572206661696C65640000000000000000 PUSH0 DUP3 ADD MSTORE POP JUMP JUMPDEST PUSH0 PUSH2 0x1159 PUSH1 0x18 DUP4 PUSH2 0xA58 JUMP JUMPDEST SWAP2 POP PUSH2 0x1164 DUP3 PUSH2 0x1125 JUMP JUMPDEST PUSH1 0x20 DUP3 ADD SWAP1 POP SWAP2 SWAP1 POP JUMP JUMPDEST PUSH0 PUSH1 0x20 DUP3 ADD SWAP1 POP DUP2 DUP2 SUB PUSH0 DUP4 ADD MSTORE PUSH2 0x1186 DUP2 PUSH2 0x114D JUMP JUMPDEST SWAP1 POP SWAP2 SWAP1 POP JUMP JUMPDEST PUSH32 0x526566756E64206661696C656400000000000000000000000000000000000000 PUSH0 DUP3 ADD MSTORE POP JUMP JUMPDEST PUSH0 PUSH2 0x11C1 PUSH1 0xD DUP4 PUSH2 0xA58 JUMP JUMPDEST SWAP2 POP PUSH2 0x11CC DUP3 PUSH2 0x118D JUMP JUMPDEST PUSH1 0x20 DUP3 ADD SWAP1 POP SWAP2 SWAP1 POP JUMP JUMPDEST PUSH0 PUSH1 0x20 DUP3 ADD SWAP1 POP DUP2 DUP2 SUB PUSH0 DUP4 ADD MSTORE PUSH2 0x11EE DUP2 PUSH2 0x11B5 JUMP JUMPDEST SWAP1 POP SWAP2 SWAP1 POP JUMP JUMPDEST PUSH32 0x4E487B7100000000000000000000000000000000000000000000000000000000 PUSH0 MSTORE PUSH1 0x32 PUSH1 0x4 MSTORE PUSH1 0x24 PUSH0 REVERT JUMPDEST PUSH32 0x46554E44494E4720414C524541445920454E4445440000000000000000000000 PUSH0 DUP3 ADD MSTORE POP JUMP JUMPDEST PUSH0 PUSH2 0x1256 PUSH1 0x15 DUP4 PUSH2 0xA58 JUMP JUMPDEST SWAP2 POP PUSH2 0x1261 DUP3 PUSH2 0x1222 JUMP JUMPDEST PUSH1 0x20 DUP3 ADD SWAP1 POP SWAP2 SWAP1 POP JUMP JUMPDEST PUSH0 PUSH1 0x20 DUP3 ADD SWAP1 POP DUP2 DUP2 SUB PUSH0 DUP4 ADD MSTORE PUSH2 0x1283 DUP2 PUSH2 0x124A JUMP JUMPDEST SWAP1 POP SWAP2 SWAP1 POP JUMP JUMPDEST PUSH32 0x444541444C494E45205041535345440000000000000000000000000000000000 PUSH0 DUP3 ADD MSTORE POP JUMP JUMPDEST PUSH0 PUSH2 0x12BE PUSH1 0xF DUP4 PUSH2 0xA58 JUMP JUMPDEST SWAP2 POP PUSH2 0x12C9 DUP3 PUSH2 0x128A JUMP JUMPDEST PUSH1 0x20 DUP3 ADD SWAP1 POP SWAP2 SWAP1 POP JUMP JUMPDEST PUSH0 PUSH1 0x20 DUP3 ADD SWAP1 POP DUP2 DUP2 SUB PUSH0 DUP4 ADD MSTORE PUSH2 0x12EB DUP2 PUSH2 0x12B2 JUMP JUMPDEST SWAP1 POP SWAP2 SWAP1 POP JUMP JUMPDEST PUSH32 0x4E45454420544F2053454E44204F564552203020455448000000000000000000 PUSH0 DUP3 ADD MSTORE POP JUMP JUMPDEST PUSH0 PUSH2 0x1326 PUSH1 0x17 DUP4 PUSH2 0xA58 JUMP JUMPDEST SWAP2 POP PUSH2 0x1331 DUP3 PUSH2 0x12F2 JUMP JUMPDEST PUSH1 0x20 DUP3 ADD SWAP1 POP SWAP2 SWAP1 POP JUMP JUMPDEST PUSH0 PUSH1 0x20 DUP3 ADD SWAP1 POP DUP2 DUP2 SUB PUSH0 DUP4 ADD MSTORE PUSH2 0x1353 DUP2 PUSH2 0x131A JUMP JUMPDEST SWAP1 POP SWAP2 SWAP1 POP JUMP JUMPDEST PUSH32 0x4E487B7100000000000000000000000000000000000000000000000000000000 PUSH0 MSTORE PUSH1 0x11 PUSH1 0x4 MSTORE PUSH1 0x24 PUSH0 REVERT JUMPDEST PUSH0 PUSH2 0x1391 DUP3 PUSH2 0xA1D JUMP JUMPDEST SWAP2 POP PUSH32 0xFFFFFFFFFFFFFFFFFFFFFFFFFFFFFFFFFFFFFFFFFFFFFFFFFFFFFFFFFFFFFFFF DUP3 SUB PUSH2 0x13C3 JUMPI PUSH2 0x13C2 PUSH2 0x135A JUMP JUMPDEST JUMPDEST PUSH1 0x1 DUP3 ADD SWAP1 POP SWAP2 SWAP1 POP JUMP JUMPDEST PUSH0 PUSH2 0x13D8 DUP3 PUSH2 0xA1D JUMP JUMPDEST SWAP2 POP PUSH2 0x13E3 DUP4 PUSH2 0xA1D JUMP JUMPDEST SWAP3 POP DUP3 DUP3 ADD SWAP1 POP DUP1 DUP3 GT ISZERO PUSH2 0x13FB JUMPI PUSH2 0x13FA PUSH2 0x135A JUMP JUMPDEST JUMPDEST SWAP3 SWAP2 POP POP JUMP INVALID LOG2 PUSH5 0x6970667358 0x22 SLT KECCAK256 EXTCODEHASH 0xDA SWAP2 0xCE 0xB5 0xDC 0xDE 0x28 SWAP5 PUSH11 0xC71B57D413CBEC4287CDBD MSIZE PUSH3 0x19E12D JUMP SLT RETURNDATASIZE 0xD8 CHAINID 0xCA PUSH5 0x736F6C6343 STOP ADDMOD 0x1E STOP CALLER "
		},
		"gasEstimates": {
			"creation": {
				"codeDepositCost": "1035000",
				"executionCost": "infinite",
				"totalCost": "infinite"
			},
			"external": {
				"checkGoalReached()": "infinite",
				"deadline()": "2447",
				"ended()": "2489",
				"fund()": "infinite",
				"getInvestors()": "infinite",
				"goalAmount()": "2425",
				"investors(uint256)": "infinite",
				"numInvestors()": "2470",
				"owner()": "2574",
				"status()": "infinite",
				"totalAmount()": "2492"
			}
		},
		"methodIdentifiers": {
			"checkGoalReached()": "01cb3b20",
			"deadline()": "29dcb0cf",
			"ended()": "12fa6feb",
			"fund()": "b60d4288",
			"getInvestors()": "b2f5a54c",
			"goalAmount()": "2636b945",
			"investors(uint256)": "3feb5f2b",
			"numInvestors()": "132ae5e9",
			"owner()": "8da5cb5b",
			"status()": "200d2ed2",
			"totalAmount()": "1a39d8ef"
		}
	},
	"abi": [
		{
			"inputs": [
				{
					"internalType": "uint256",
					"name": "_duration",
					"type": "uint256"
				},
				{
					"internalType": "uint256",
					"name": "_goalAmount",
					"type": "uint256"
				}
			],
			"stateMutability": "nonpayable",
			"type": "constructor"
		},
		{
			"anonymous": false,
			"inputs": [
				{
					"indexed": true,
					"internalType": "address",
					"name": "Investor",
					"type": "address"
				},
				{
					"indexed": false,
					"internalType": "uint256",
					"name": "amount",
					"type": "uint256"
				}
			],
			"name": "Funded",
			"type": "event"
		},
		{
			"inputs": [],
			"name": "checkGoalReached",
			"outputs": [],
			"stateMutability": "nonpayable",
			"type": "function"
		},
		{
			"inputs": [],
			"name": "deadline",
			"outputs": [
				{
					"internalType": "uint256",
					"name": "",
					"type": "uint256"
				}
			],
			"stateMutability": "view",
			"type": "function"
		},
		{
			"inputs": [],
			"name": "ended",
			"outputs": [
				{
					"internalType": "bool",
					"name": "",
					"type": "bool"
				}
			],
			"stateMutability": "view",
			"type": "function"
		},
		{
			"inputs": [],
			"name": "fund",
			"outputs": [],
			"stateMutability": "payable",
			"type": "function"
		},
		{
			"inputs": [],
			"name": "getInvestors",
			"outputs": [
				{
					"internalType": "address[]",
					"name": "",
					"type": "address[]"
				}
			],
			"stateMutability": "view",
			"type": "function"
		},
		{
			"inputs": [],
			"name": "goalAmount",
			"outputs": [
				{
					"internalType": "uint256",
					"name": "",
					"type": "uint256"
				}
			],
			"stateMutability": "view",
			"type": "function"
		},
		{
			"inputs": [
				{
					"internalType": "uint256",
					"name": "",
					"type": "uint256"
				}
			],
			"name": "investors",
			"outputs": [
				{
					"internalType": "address",
					"name": "addr",
					"type": "address"
				},
				{
					"internalType": "uint256",
					"name": "amount",
					"type": "uint256"
				}
			],
			"stateMutability": "view",
			"type": "function"
		},
		{
			"inputs": [],
			"name": "numInvestors",
			"outputs": [
				{
					"internalType": "uint256",
					"name": "",
					"type": "uint256"
				}
			],
			"stateMutability": "view",
			"type": "function"
		},
		{
			"inputs": [],
			"name": "owner",
			"outputs": [
				{
					"internalType": "address",
					"name": "",
					"type": "address"
				}
			],
			"stateMutability": "view",
			"type": "function"
		},
		{
			"inputs": [],
			"name": "status",
			"outputs": [
				{
					"internalType": "string",
					"name": "",
					"type": "string"
				}
			],
			"stateMutability": "view",
			"type": "function"
		},
		{
			"inputs": [],
			"name": "totalAmount",
			"outputs": [
				{
					"internalType": "uint256",
					"name": "",
					"type": "uint256"
				}
			],
			"stateMutability": "view",
			"type": "function"
		}
	]
}