{
	"data": {
		"bytecode": {
			"linkReferences": {},
			"object": "6080604052600360005534801561001557600080fd5b5060f3806100246000396000f3fe6080604052348015600f57600080fd5b5060043610603c5760003560e01c80630dbe671f14604157806356e8027114605d578063fe3f73a7146079575b600080fd5b6047609c565b6040518082815260200191505060405180910390f35b606360a2565b6040518082815260200191505060405180910390f35b607f60a7565b604051808381526020018281526020019250505060405180910390f35b60005481565b600090565b600080600060049050600054819250925050909156fea2646970667358221220475a5961cab0d3b9a668a59b4bbaf93ce2c81d1a173e3305d20eec0bc62e68ed64736f6c63430007000033",
			"opcodes": "PUSH1 0x80 PUSH1 0x40 MSTORE PUSH1 0x3 PUSH1 0x0 SSTORE CALLVALUE DUP1 ISZERO PUSH2 0x15 JUMPI PUSH1 0x0 DUP1 REVERT JUMPDEST POP PUSH1 0xF3 DUP1 PUSH2 0x24 PUSH1 0x0 CODECOPY PUSH1 0x0 RETURN INVALID PUSH1 0x80 PUSH1 0x40 MSTORE CALLVALUE DUP1 ISZERO PUSH1 0xF JUMPI PUSH1 0x0 DUP1 REVERT JUMPDEST POP PUSH1 0x4 CALLDATASIZE LT PUSH1 0x3C JUMPI PUSH1 0x0 CALLDATALOAD PUSH1 0xE0 SHR DUP1 PUSH4 0xDBE671F EQ PUSH1 0x41 JUMPI DUP1 PUSH4 0x56E80271 EQ PUSH1 0x5D JUMPI DUP1 PUSH4 0xFE3F73A7 EQ PUSH1 0x79 JUMPI JUMPDEST PUSH1 0x0 DUP1 REVERT JUMPDEST PUSH1 0x47 PUSH1 0x9C JUMP JUMPDEST PUSH1 0x40 MLOAD DUP1 DUP3 DUP2 MSTORE PUSH1 0x20 ADD SWAP2 POP POP PUSH1 0x40 MLOAD DUP1 SWAP2 SUB SWAP1 RETURN JUMPDEST PUSH1 0x63 PUSH1 0xA2 JUMP JUMPDEST PUSH1 0x40 MLOAD DUP1 DUP3 DUP2 MSTORE PUSH1 0x20 ADD SWAP2 POP POP PUSH1 0x40 MLOAD DUP1 SWAP2 SUB SWAP1 RETURN JUMPDEST PUSH1 0x7F PUSH1 0xA7 JUMP JUMPDEST PUSH1 0x40 MLOAD DUP1 DUP4 DUP2 MSTORE PUSH1 0x20 ADD DUP3 DUP2 MSTORE PUSH1 0x20 ADD SWAP3 POP POP POP PUSH1 0x40 MLOAD DUP1 SWAP2 SUB SWAP1 RETURN JUMPDEST PUSH1 0x0 SLOAD DUP2 JUMP JUMPDEST PUSH1 0x0 SWAP1 JUMP JUMPDEST PUSH1 0x0 DUP1 PUSH1 0x0 PUSH1 0x4 SWAP1 POP PUSH1 0x0 SLOAD DUP2 SWAP3 POP SWAP3 POP POP SWAP1 SWAP2 JUMP INVALID LOG2 PUSH5 0x6970667358 0x22 SLT KECCAK256 SELFBALANCE GAS MSIZE PUSH2 0xCAB0 0xD3 0xB9 0xA6 PUSH9 0xA59B4BBAF93CE2C81D BYTE OR RETURNDATACOPY CALLER SDIV 0xD2 0xE 0xEC SIGNEXTEND 0xC6 0x2E PUSH9 0xED64736F6C63430007 STOP STOP CALLER "
		},
		"gasEstimates": {
			"creation": {
				"codeDepositCost": "48600",
				"executionCost": "20105",
				"totalCost": "68705"
			},
			"external": {
				"a()": "983",
				"myFun1()": "1082",
				"myFun2()": "205"
			}
		},
		"methodIdentifiers": {
			"a()": "0dbe671f",
			"myFun1()": "fe3f73a7",
			"myFun2()": "56e80271"
		}
	},
	"abi": [
		{
			"inputs": [],
			"name": "a",
			"outputs": [
				{
					"internalType": "uint256",
					"name": "",
					"type": "uint256"
				}
			],
			"stateMutability": "view",
			"type": "function"
		},
		{
			"inputs": [],
			"name": "myFun1",
			"outputs": [
				{
					"internalType": "uint256",
					"name": "",
					"type": "uint256"
				},
				{
					"internalType": "uint256",
					"name": "",
					"type": "uint256"
				}
			],
			"stateMutability": "view",
			"type": "function"
		},
		{
			"inputs": [],
			"name": "myFun2",
			"outputs": [
				{
					"internalType": "uint256",
					"name": "",
					"type": "uint256"
				}
			],
			"stateMutability": "pure",
			"type": "function"
		}
	]
}