{
	"data": {
		"bytecode": {
			"linkReferences": {},
			"object": "6080604052348015600e575f5ffd5b5060035f5f6101000a81548160ff02191690836003811115603057602f6039565b5b02179055506066565b7f4e487b71000000000000000000000000000000000000000000000000000000005f52602160045260245ffd5b610318806100735f395ff3fe608060405234801561000f575f5ffd5b5060043610610055575f3560e01c8063429268ae1461005957806394d15a9e14610063578063c62efc2b1461006d578063d3e9ff8314610077578063d9c966fd14610081575b5f5ffd5b61006161009f565b005b61006b610108565b005b610075610171565b005b61007f6101db565b005b610089610245565b60405161009691906102c9565b60405180910390f35b60038060038111156100b4576100b3610256565b5b5f5f9054906101000a900460ff1660038111156100d4576100d3610256565b5b146100dd575f5ffd5b5f5f5f6101000a81548160ff02191690836003811115610100576100ff610256565b5b021790555050565b5f80600381111561011c5761011b610256565b5b5f5f9054906101000a900460ff16600381111561013c5761013b610256565b5b14610145575f5ffd5b60015f5f6101000a81548160ff0219169083600381111561016957610168610256565b5b021790555050565b600280600381111561018657610185610256565b5b5f5f9054906101000a900460ff1660038111156101a6576101a5610256565b5b146101af575f5ffd5b60035f5f6101000a81548160ff021916908360038111156101d3576101d2610256565b5b021790555050565b60018060038111156101f0576101ef610256565b5b5f5f9054906101000a900460ff1660038111156102105761020f610256565b5b14610219575f5ffd5b60025f5f6101000a81548160ff0219169083600381111561023d5761023c610256565b5b021790555050565b5f5f9054906101000a900460ff1681565b7f4e487b71000000000000000000000000000000000000000000000000000000005f52602160045260245ffd5b6004811061029457610293610256565b5b50565b5f8190506102a482610283565b919050565b5f6102b382610297565b9050919050565b6102c3816102a9565b82525050565b5f6020820190506102dc5f8301846102ba565b9291505056fea264697066735822122069233da4a5951a7958175656f7f8d90bc4536ad4a7a9b9786a807ec995094d4064736f6c634300081e0033",
			"opcodes": "PUSH1 0x80 PUSH1 0x40 MSTORE CALLVALUE DUP1 ISZERO PUSH1 0xE JUMPI PUSH0 PUSH0 REVERT JUMPDEST POP PUSH1 0x3 PUSH0 PUSH0 PUSH2 0x100 EXP DUP2 SLOAD DUP2 PUSH1 0xFF MUL NOT AND SWAP1 DUP4 PUSH1 0x3 DUP2 GT ISZERO PUSH1 0x30 JUMPI PUSH1 0x2F PUSH1 0x39 JUMP JUMPDEST JUMPDEST MUL OR SWAP1 SSTORE POP PUSH1 0x66 JUMP JUMPDEST PUSH32 0x4E487B7100000000000000000000000000000000000000000000000000000000 PUSH0 MSTORE PUSH1 0x21 PUSH1 0x4 MSTORE PUSH1 0x24 PUSH0 REVERT JUMPDEST PUSH2 0x318 DUP1 PUSH2 0x73 PUSH0 CODECOPY PUSH0 RETURN INVALID PUSH1 0x80 PUSH1 0x40 MSTORE CALLVALUE DUP1 ISZERO PUSH2 0xF JUMPI PUSH0 PUSH0 REVERT JUMPDEST POP PUSH1 0x4 CALLDATASIZE LT PUSH2 0x55 JUMPI PUSH0 CALLDATALOAD PUSH1 0xE0 SHR DUP1 PUSH4 0x429268AE EQ PUSH2 0x59 JUMPI DUP1 PUSH4 0x94D15A9E EQ PUSH2 0x63 JUMPI DUP1 PUSH4 0xC62EFC2B EQ PUSH2 0x6D JUMPI DUP1 PUSH4 0xD3E9FF83 EQ PUSH2 0x77 JUMPI DUP1 PUSH4 0xD9C966FD EQ PUSH2 0x81 JUMPI JUMPDEST PUSH0 PUSH0 REVERT JUMPDEST PUSH2 0x61 PUSH2 0x9F JUMP JUMPDEST STOP JUMPDEST PUSH2 0x6B PUSH2 0x108 JUMP JUMPDEST STOP JUMPDEST PUSH2 0x75 PUSH2 0x171 JUMP JUMPDEST STOP JUMPDEST PUSH2 0x7F PUSH2 0x1DB JUMP JUMPDEST STOP JUMPDEST PUSH2 0x89 PUSH2 0x245 JUMP JUMPDEST PUSH1 0x40 MLOAD PUSH2 0x96 SWAP2 SWAP1 PUSH2 0x2C9 JUMP JUMPDEST PUSH1 0x40 MLOAD DUP1 SWAP2 SUB SWAP1 RETURN JUMPDEST PUSH1 0x3 DUP1 PUSH1 0x3 DUP2 GT ISZERO PUSH2 0xB4 JUMPI PUSH2 0xB3 PUSH2 0x256 JUMP JUMPDEST JUMPDEST PUSH0 PUSH0 SWAP1 SLOAD SWAP1 PUSH2 0x100 EXP SWAP1 DIV PUSH1 0xFF AND PUSH1 0x3 DUP2 GT ISZERO PUSH2 0xD4 JUMPI PUSH2 0xD3 PUSH2 0x256 JUMP JUMPDEST JUMPDEST EQ PUSH2 0xDD JUMPI PUSH0 PUSH0 REVERT JUMPDEST PUSH0 PUSH0 PUSH0 PUSH2 0x100 EXP DUP2 SLOAD DUP2 PUSH1 0xFF MUL NOT AND SWAP1 DUP4 PUSH1 0x3 DUP2 GT ISZERO PUSH2 0x100 JUMPI PUSH2 0xFF PUSH2 0x256 JUMP JUMPDEST JUMPDEST MUL OR SWAP1 SSTORE POP POP JUMP JUMPDEST PUSH0 DUP1 PUSH1 0x3 DUP2 GT ISZERO PUSH2 0x11C JUMPI PUSH2 0x11B PUSH2 0x256 JUMP JUMPDEST JUMPDEST PUSH0 PUSH0 SWAP1 SLOAD SWAP1 PUSH2 0x100 EXP SWAP1 DIV PUSH1 0xFF AND PUSH1 0x3 DUP2 GT ISZERO PUSH2 0x13C JUMPI PUSH2 0x13B PUSH2 0x256 JUMP JUMPDEST JUMPDEST EQ PUSH2 0x145 JUMPI PUSH0 PUSH0 REVERT JUMPDEST PUSH1 0x1 PUSH0 PUSH0 PUSH2 0x100 EXP DUP2 SLOAD DUP2 PUSH1 0xFF MUL NOT AND SWAP1 DUP4 PUSH1 0x3 DUP2 GT ISZERO PUSH2 0x169 JUMPI PUSH2 0x168 PUSH2 0x256 JUMP JUMPDEST JUMPDEST MUL OR SWAP1 SSTORE POP POP JUMP JUMPDEST PUSH1 0x2 DUP1 PUSH1 0x3 DUP2 GT ISZERO PUSH2 0x186 JUMPI PUSH2 0x185 PUSH2 0x256 JUMP JUMPDEST JUMPDEST PUSH0 PUSH0 SWAP1 SLOAD SWAP1 PUSH2 0x100 EXP SWAP1 DIV PUSH1 0xFF AND PUSH1 0x3 DUP2 GT ISZERO PUSH2 0x1A6 JUMPI PUSH2 0x1A5 PUSH2 0x256 JUMP JUMPDEST JUMPDEST EQ PUSH2 0x1AF JUMPI PUSH0 PUSH0 REVERT JUMPDEST PUSH1 0x3 PUSH0 PUSH0 PUSH2 0x100 EXP DUP2 SLOAD DUP2 PUSH1 0xFF MUL NOT AND SWAP1 DUP4 PUSH1 0x3 DUP2 GT ISZERO PUSH2 0x1D3 JUMPI PUSH2 0x1D2 PUSH2 0x256 JUMP JUMPDEST JUMPDEST MUL OR SWAP1 SSTORE POP POP JUMP JUMPDEST PUSH1 0x1 DUP1 PUSH1 0x3 DUP2 GT ISZERO PUSH2 0x1F0 JUMPI PUSH2 0x1EF PUSH2 0x256 JUMP JUMPDEST JUMPDEST PUSH0 PUSH0 SWAP1 SLOAD SWAP1 PUSH2 0x100 EXP SWAP1 DIV PUSH1 0xFF AND PUSH1 0x3 DUP2 GT ISZERO PUSH2 0x210 JUMPI PUSH2 0x20F PUSH2 0x256 JUMP JUMPDEST JUMPDEST EQ PUSH2 0x219 JUMPI PUSH0 PUSH0 REVERT JUMPDEST PUSH1 0x2 PUSH0 PUSH0 PUSH2 0x100 EXP DUP2 SLOAD DUP2 PUSH1 0xFF MUL NOT AND SWAP1 DUP4 PUSH1 0x3 DUP2 GT ISZERO PUSH2 0x23D JUMPI PUSH2 0x23C PUSH2 0x256 JUMP JUMPDEST JUMPDEST MUL OR SWAP1 SSTORE POP POP JUMP JUMPDEST PUSH0 PUSH0 SWAP1 SLOAD SWAP1 PUSH2 0x100 EXP SWAP1 DIV PUSH1 0xFF AND DUP2 JUMP JUMPDEST PUSH32 0x4E487B7100000000000000000000000000000000000000000000000000000000 PUSH0 MSTORE PUSH1 0x21 PUSH1 0x4 MSTORE PUSH1 0x24 PUSH0 REVERT JUMPDEST PUSH1 0x4 DUP2 LT PUSH2 0x294 JUMPI PUSH2 0x293 PUSH2 0x256 JUMP JUMPDEST JUMPDEST POP JUMP JUMPDEST PUSH0 DUP2 SWAP1 POP PUSH2 0x2A4 DUP3 PUSH2 0x283 JUMP JUMPDEST SWAP2 SWAP1 POP JUMP JUMPDEST PUSH0 PUSH2 0x2B3 DUP3 PUSH2 0x297 JUMP JUMPDEST SWAP1 POP SWAP2 SWAP1 POP JUMP JUMPDEST PUSH2 0x2C3 DUP2 PUSH2 0x2A9 JUMP JUMPDEST DUP3 MSTORE POP POP JUMP JUMPDEST PUSH0 PUSH1 0x20 DUP3 ADD SWAP1 POP PUSH2 0x2DC PUSH0 DUP4 ADD DUP5 PUSH2 0x2BA JUMP JUMPDEST SWAP3 SWAP2 POP POP JUMP INVALID LOG2 PUSH5 0x6970667358 0x22 SLT KECCAK256 PUSH10 0x233DA4A5951A79581756 JUMP 0xF7 EXTCALL 0xD9 SIGNEXTEND 0xC4 MSTORE8 PUSH11 0xD4A7A9B9786A807EC99509 0x4D BLOCKHASH PUSH5 0x736F6C6343 STOP ADDMOD 0x1E STOP CALLER "
		},
		"gasEstimates": {
			"creation": {
				"codeDepositCost": "158400",
				"executionCost": "24497",
				"totalCost": "182897"
			},
			"external": {
				"deliveryFood()": "26686",
				"foodStatus()": "2619",
				"orderFood()": "26619",
				"paymentFood()": "26664",
				"takeAwayFood()": "26641"
			}
		},
		"methodIdentifiers": {
			"deliveryFood()": "d3e9ff83",
			"foodStatus()": "d9c966fd",
			"orderFood()": "429268ae",
			"paymentFood()": "c62efc2b",
			"takeAwayFood()": "94d15a9e"
		}
	},
	"abi": [
		{
			"inputs": [],
			"stateMutability": "nonpayable",
			"type": "constructor"
		},
		{
			"inputs": [],
			"name": "deliveryFood",
			"outputs": [],
			"stateMutability": "nonpayable",
			"type": "function"
		},
		{
			"inputs": [],
			"name": "foodStatus",
			"outputs": [
				{
					"internalType": "enum Ex6_9_modifier.FoodProcess",
					"name": "",
					"type": "uint8"
				}
			],
			"stateMutability": "view",
			"type": "function"
		},
		{
			"inputs": [],
			"name": "orderFood",
			"outputs": [],
			"stateMutability": "nonpayable",
			"type": "function"
		},
		{
			"inputs": [],
			"name": "paymentFood",
			"outputs": [],
			"stateMutability": "nonpayable",
			"type": "function"
		},
		{
			"inputs": [],
			"name": "takeAwayFood",
			"outputs": [],
			"stateMutability": "nonpayable",
			"type": "function"
		}
	]
}